:400000000080002011000000B90C0000B90C000080B500AF024B034A12681A6000F07AFEBC760040FA46004010B5054C237833B9044B13B10448AFF300800123237010BD17
:40004000C881FF1F00000000F460000008B5064B1BB106480649AFF300800648036813B1054B03B1984708BD00000000F4600000CC81FF1F0881FF1F0000000080B500AFBD
:4000800002F090FE80BD00BF90B587B006AF62B6052001F0E7FC8C4802F0A8FD02F0F4FD8A4B1B688A48194600F0FCF9894B01221A70894B00221A70884B00221A70884B73
:4000C00000221A70874B00221A60874B01221A60864B00221A80864B00221A60854B4FF000021A60002002F0F9FB002002F008FB002002F023FB002002F03EFB002002F04A
:4001000059FB002002F074FB002002F08FFB714B1B78012B40F0B680724B00221A60764800F0B2F90346002B05D0704B00221A806B4B00221A70032000F0F2F86F4800F0F5
:4001400003FD0346002B18D06D4B1C686B4B5B68184602F0E1FF03469BB26A4A009201220192694A02920394684A0492059362486749614A674B03F02DF8032000F0D0F844
:4001800002F0AEFA0346002B14BF00230123DBB2184602F089FA00F09BF90346002B65D002F09EFA0346002B14BF00230123DBB2184602F079FA504800F064FB03461A4692
:4001C000444B1A7041F2883001F04CFC4A4800F05BF90346002B05D0444B00221A80404B00221A7002F07CFA0346002B14BF00230123DBB2184602F057FA3F48464900F0F7
:40020000BFFB0346002B31D03B484449334A00F0FBF80346002B29D0304B1B78012B25D1012002F06DFA4FF47A7001F01BFC012002F084FA40F6B83001F014FC002002F011
:400240007DFA4FF4FA6001F00DFC012002F094FA40F6B83001F006FC002002F08DFA4FF47A7001F0FFFB002002F04AFA00F06CF9194B1B780A33DAB2174B1A70154B002234
:400280001A7044E7052000F04BF801F01FFC00204FF4006101F0DAFE154B1B68B3F5EB7F06D1134B00221A600A4B01221A7004E00F4B1B685A1C0E4B1A600D4B1B68002BC0
:4002C000E5D101F043FD22E77D0000001081FF1F50369D674186FF1F8C8AFF1F848AFF1F948AFF1F3C86FF1F808AFF1F8E8AFF1F888AFF1F908AFF1FE481FF1F3086FF1FDA
:400300000C81FF1F506100005C6100006461000030610000446100006C6100007861000080B584B000AF0346FB710023FB730EE0012002F0B9F9C82001F094FB002002F078
:40034000B3F9C82001F08EFBFB7B0133FB73FA7BFB799A42ECD318461037BD4680BD00BF80B586B000AFF860B9607A60F868B96802F083FF78617B69002B09D11D4B1B6828
:4003800018461D49BA68FB6802F024FF00232CE078691A4902F071FF034602337B617B69002B08D1134B1B6818461549FA6802F011FF002319E078690A2102F02FFF3861E6
:4003C0003B69002B08D10B4B1B6818460D49FA6802F000FF002308E03A697B69D31A786879691A4602F037FF012318461837BD4680BD00BF988AFF1F806100009C610000BE
:40040000A0610000C061000080B58AB000AFF860B9607A6007F1140300221A60043300221A60043300221A60043300221A60043300221A60043307F11403F868B9681A4613
:40044000FFF78EFF0346002B0CD007F11403184600210A2203F016FE0346DAB27B681A70012308E0064B1B6818460649BA68FB6802F0B0FE002318462837BD4680BD00BF15
:40048000988AFF1F8061000080B582B000AF786078680021042202F094FE012318460837BD4680BD80B483B000AF78603960064B7A681A60054B3A681A60012318460C371C
:4004C000BD465DF8047B70479C8AFF1FA08AFF1F80B500AF1A4B00221A601A4B00221A7000F03EF824E0164B1B685A1C144B1A6000F08AF803461A46124B1A70002000F07D
:4005000079F900F0FDF80F4B1B78012B0ED100F005F903461A460B4B1A700A4B1B78032B06D1074B05221A60012306E000F0CAF8034B1B68042BD6DD0023184680BD00BF29
:400540003C86FF1F4186FF1F80B500AF00F094F80346002B01D0012300E00023184680BD80B500AF02F0D8F9002002F015FB012002F096F9012002F077F9034802F0BEFA6C
:40058000024B00221A7080BDCD0A0000A48AFF1F80B58AB000AFF860B9607A60002387F8273000233B626423FB617A68FB69B2FBF3F3BB6100F078FAF86802F07FFABB6898
:4005C0001B78002B18D000233B6211E00D48B96802F053FE78617B69002B03D0012387F8273009E0F86901F03DFA3B6A01333B623A6ABB699A42E9D397F82730184628374B
:40060000BD4680BD4486FF1F80B500AF174B1B78002B01D0012326E0002002F041F9002002F022F9012002F0B7FA012002F038F94FF4FA6001F016FA002002F031F941F205
:40064000883001F00FFA0A480A494FF47A72FFF79FFF0346012B05D1044B01221A70034B1B7800E00023184680BD00BFA48AFF1FF0610000F461000080B500AF104B1B7817
:40068000002B01D1012319E000F084F8012002F007F940F6C41001F0E5F9002002F000F941F2883001F0DEF9002002F075FA002002F0DAF8024B00221A700123184680BDED
:4006C000A48AFF1F80B500AF0C4B1B78002B10D0012002F0C9F84FF4FA7001F0C3F9002002F0C2F841F2883001F0BCF9034B01221A70024B1B78184680BD00BFA48AFF1FC9
:4007000080B500AF022000F099F80346012B01D0002300E00123184680BD00BF80B582B000AF0023FB710023BB7100F04FF80346BB710AE000F04AF80346BB7140F6B8301C
:4007400001F090F9FB790133FB71BB79002B02D1FB79042BEED9BB79012B0ED10A480B4941F28832FFF714FF0346012B05D1084B03221A70064B1B7801E0054B1B78184621
:400780000837BD4680BD00BFF8610000F4610000A48AFF1F80B500AF094B1B78032B0CD00848094941F28832FFF7F2FE0346012B14BF00230123DBB200E00023184680BDFD
:4007C000A48AFF1F08620000F461000080B500AF064807494FF47A72FFF7DAFE0346012B01D1012300E00023184680BD486200005462000080B59CB000AF0346FB71FB79AD
:4008000007F10C0210460B491A4602F0E3FC07F10C03184608494FF47A72FFF7B9FE0346012B01D1012300E0002318467037BD4680BD00BF74620000F461000080B59CB027
:4008400000AF0346FB71FB7907F10C0210460B491A4602F0BFFC07F10C03184608494FF47A72FFF795FE0346012B01D1012300E0002318467037BD4680BD00BF7C62000025
:40088000F4610000B0B5ADF5816D06AF3B1D18602D4B1B78032B50D100F006F92B482C4943F69822FFF774FE0346002B45D02948294942F21072FFF76BFE0346002B3CD0DC
:4008C00007F10802254B14461D460FCD0FC40FCD0FC495E8070003C422703B1D186802F0B2FC014607F1080207F108031C48009001911C490291391D096803911A490491F9
:4009000010461A491A461A4B02F064FC00F0CCF807F108031846174942F21072FFF738FE0346002B09D000F0BFF81348134942F21072FFF72DFE012300E00023184607F58D
:400940007C77BD46B0BD00BFA48AFF1F1C630000F4610000686300007463000078630000F46300000864000010640000A4630000B4630000146400002064000034640000CF
:4009800080B5ADF58D6D04AF3B1D18603B4619603B46186802F057FC03467D2B01D900235BE0304B1B78032B56D12F482F4944F62062FFF7EDFD0346002B4DD02C482D4911
:4009C00042F21072FFF7E4FD0346002B44D02A4B1A6807F170013B46084628491B6802F0F9FB274B1B6807F10C02104625491A4602F0F0FB07F1700107F1700207F10C0303
:400A00002148009021480190214802900846214902F0E0FB00F048F807F1700318461E4942F21072FFF7B4FD0346002B14D000F03BF81A480D4942F21072FFF7A9FD1848A1
:400A4000184902F01AFC034604333A1D1068194602F0F1FB012300E00023184607F58B67BD4680BDA48AFF1F3C640000F461000068630000746300009C8AFF1F64640000DF
:400A8000A08AFF1F94640000B0640000C8640000DC640000A464000014640000206400004486FF1F0864000080B500AF054800214FF47A7202F085FB034B00221A8001F030
:400AC000C3FF80BD4486FF1F4286FF1F80B582B000AF11E001F07EFF0346FB71FB79002B0AD0094B1B88094AF979D154064B1B8801339AB2044B1A8001F08EFF0346002B56
:400B0000E8D10837BD4680BD4286FF1F4486FF1F80B500AF02F06CF980BD00BF80B500AF02F0AAF980BD00BF80B500AF012002F041F90123184680BD80B500AF002002F01D
:400B400039F90023184680BD80B5A6B000AF78607B6800221A727B68384A1A607B68374A5A60FFF7D5FF00F06FF8354802F0EAF9FFF7DAFF40F2DC5000F074FF02F0F4F903
:400B8000FFF7DAFFFFF7CAFF07F10C0318462D4902F051FB0023C7F8943038E007F10C02D7F8943013441B78522B2BD1D7F89430053307F19802134413F88C3C0D2B21D123
:400BC0000023C7F8903015E0D7F89420D7F890301344013307F19802134413F88C2C07F18C01D7F890300B441A70D7F890300133C7F89030D7F89030032BE5DD7B68012261
:400C00001A7208E0D7F894300133C7F89430D7F894307A2BC2DD7B681B7A002B08D007F18C031846002103F093F902467B685A607B681B7A18469837BD4680BD003C1CC637
:400C40006D0C0000A88AFF1F80B500AF05480021802202F0B6FA044B00221A7002F052F980BD00BFA88AFF1F2C8AFF1F80B582B000AF02F025F90346FB71FB79002B13D060
:400C80000B4B1B780B4AF979D154094B1B780133DAB2074B1A70064B1B78DBB25BB2002B02DA034B00221A700837BD4680BD00BF2C8AFF1FA88AFF1F80B400AFFEE700BF74
:400CC00080B584B000AF7860104B1A687B6813441A460F4BD31AB3F5805F09DC0B4B1B68FB600A4B1A687B681A44084B1A6007E002F032FA03460C221A604FF0FF33FB60FF
:400D0000FB6818461037BD4680BD00BF1481FF1F308BFF1F80B586B000AF224B7B61224B3B61204B7B6135E03B691B68FB603B695B68BB603B699B683B6000237B600CE028
:400D4000FB681A68BB681A60BB680433BB60FB680433FB607B6804337B607A683B689A42EED13B69DB683B6000237B6008E0BB6800221A60BB680433BB607B6804337B60E1
:400D80007A683B689A42F2D13B6910333B617B69013B7B617B69002BC6D102F0E3F9FFF773F9FEE7010000009868000080B582B000AF174B174A1A60174B174A126842F40E
:400DC00000721A6000237B600FE07B68032B04D8124B7A6853F8223000E0114B114A796842F821307B6801337B607B682F2BECD90D4B1B78DAB20D4B1A700D4B094A1A60DC
:400E000000F022F90B4B00221A600837BD4680BD0CED00E00004FA0514ED00E000000000B90C00000080FF1FBC7600400481FF1F08ED00E00081FF1F80B582B000AF78609F
:400E40003960786800213A6802F0BBF90837BD4680BD00BF80B584B000AFF860B9607A60F868B9687A6802F0A3F91037BD4680BD80B483B000AF0346FB71FEE780B487B05C
:400E800000AF7860396000233B6100237B6126E07B699B007A6813441B68BB60BB68FB73BB6823F0FF03BB6013E03B695B003A6813441B781A46BB6813443A695200396826
:400EC0000A4452781A703B6901333B61FB7B013BFB73FB7B002BE8D17B6901337B617B69122BD5D91C37BD465DF8047B704700BF80B582B000AF334B19221A80324B1822DF
:400F00001A70324B4FF49C721A80314B18221A70304B02221A704FF0402308221A702E4B03221A702D4B2E4A1278D2B21A702D4B08221A802C4B41F251221A800023FB70CF
:400F400019237B6014E0FB785B00DAB2274B1B78DBB203F00103DBB21343DBB203F00303FB704FF4F07000F04BF97B68013B7B607B68002B02D0FB78032BE4D17B68002B9A
:400F800002D10320FFF774FF194B4FF480721A80174B07221A70174B00221A70164B48221A70134B00221A70144B02221A70144B134A1278D2B242F00302D2B21A700837C2
:400FC000BD4680BD804000408240004084400040864000400043004000420040A1460040080100492242004020420040254200400440004006400040084000400140004027
:40100000A243004080B483B000AF0B4B1B78FB710A4BFA7902F00702D2B21A70084BFA791209D2B21A70074B44221A700C37BD465DF8047B704700BFCF0100496E5800406F
:401040006F5800407658004080B586B000AF72B6524B524A1278D2B242F00402D2B21A700023FB7513E0FA7D13465B0013445B004B4A13443B613B691A683B699B889BB267
:4010800010461946FFF7D8FEFB7D0133FB75FB7D062BE8D90023FB751CE0FA7D13469B0013445B003F4A1344FB60FB681B68BB60FB685B687B60FB681A7A5B7A1B02134301
:4010C0007B807B88B86879681A46FFF7C3FEFB7D0133FB75FB7D012BDFD94FF090403249FFF7CCFE314B314A1278D2B242F00202D2B21A702E4B2E4A1278D2B242F002029A
:40110000D2B21A702B4B2B4A1278D2B242F04002D2B21A70284B284A1278D2B242F01002D2B21A70254826490822FFF793FE254825490822FFF78EFE244825490A22FFF7D1
:4011400089FE244824490822FFF784FE234824490822FFF77FFE234823490A22FFF77AFE224B224A1278D2B242F00802D2B21A701F4B61221A70FFF7BBFE1D4B81221A709B
:401180001C4B01221A70FFF73DFF1B4809490E22FFF760FE1837BD4680BD00BFE846004088650000B46500004C0000480350014013500140A0430040C24300400251004027
:4011C0001C050048C251004024050048F05100402C050048125100403805004822510040400500483051004048050048224300400048004004000840B0430040000000005E
:401200000230800800F0058000BF013800467FF4FCAF7047EFF3108072B6704780F31088704700BFAFF3008080B584B000AF0346FB710023FB60234B224A1278D2B242F013
:401240000102D2B21A70FB79002B36D01E4B1B78DBB203F00403FB721C4B1B78BB721C4B1B787B72182000F0D3FF1023FB6010E0184B1B78DBB203F00103002B09D0154B64
:401280001B78DBB203F00103002B02D00023FB6008E0012000F090FF034603F00103DBB2002BE5D0FB7A002B01D100F047FB074BBA7A1A70064B7A7A1A70FB6818461037DC
:4012C000BD4680BD204200400043004080430040824300402542004080B400AF054B054A1278D2B222F00102D2B21A70BD465DF8047B70472042004080B584B000AF034696
:40130000FB711D4B1C4A1278D2B242F01002D2B21A701A4B194A1278D2B242F01002D2B21A70FB79002B23D0154B1B78DBB203F00403FB73134B1B78BB73134B1B787B7373
:40134000002000F065FF00BF012000F035FF034603F00103DBB2002BF6D0FB7B002B01D100F0ECFA074BBA7B1A70074B7A7B1A701037BD4680BD00BFA0430040B043004070
:4013800000430040804300408243004080B400AF094B094A1278D2B222F01002D2B21A70064B064A1278D2B222F01002D2B21A70BD465DF8047B7047A0430040B043004013
:4013C00080B483B000AF0023FB71124B1B78DBB203F00703002B06D10F4B1B78DBB203F00103002B0DD10B4B1B78DBB203F00703012B08D1094B1B78DBB203F00103002B44
:4014000001D00123FB71FB7918460C37BD465DF8047B704793430040A5430040B543004080B584B000AF0346FB71FFF7C9FF0346FB73FB7B012B07D1314B314A1278D2B271
:4014400022F00202D2B21A70FB79082B50D801A252F823F07914000085140000911400009D140000A9140000B5140000C1140000F1140000CD140000224B234A1278D2B2D4
:401480001A7039E01F4B214A1278D2B21A7033E01C4B1F4A1278D2B21A702DE0194B1D4A1278D2B21A7027E0164B1B4A1278D2B21A7021E0134B194A1278D2B21A701BE077
:4014C000104B174A1278D2B21A7015E00D4B154A1278D2B21A70FB7B012B08D1084B084A1278D2B242F00202D2B21A7004E003E0002000F0ABFA00BF1037BD4680BD00BF61
:4015000009600040A146004008010049090100490A0100490B010049890100490C0100490D0100490F01004980B584B000AF0346FB71674B1B78DBB203F00703FB73FB7936
:40154000082B01D0FB7900E00323BB73FB7B062B25D801A252F823F0751500007B15000081150000871500008D15000093150000991500000223FB7315E00123FB7312E0CB
:401580000323FB730FE00023FB730CE00423FB7309E00523FB7306E00623FB7303E0002000F054FA00BFBA7BFB7B9A4203D3FB791846FFF735FFFB79082B72D801A252F863
:4015C00023F000BFE915000001160000191600002B160000431600005B16000073160000A31600008B160000394B394A1278D2B222F04702D2B242F00302D2B21A7054E07A
:40160000334B334A1278D2B222F04702D2B242F00102D2B21A7048E02D4B2D4A1278D2B222F04702D2B21A703FE0294B284A1278D2B222F04702D2B242F00202D2B21A70BB
:4016400033E0234B224A1278D2B222F04702D2B242F00402D2B21A7027E01D4B1C4A1278D2B222F04702D2B242F00502D2B21A701BE0174B164A1278D2B222F04702D2B297
:4016800042F00602D2B21A700FE0114B104A1278D2B222F04702D2B242F04202D2B21A7003E0002000F0D2F900BFFB79082B02D100F056F801E000F063F8BA7BFB7B9A42E4
:4016C00003D2FB791846FFF7ABFE1037BD4680BD0042004080B582B000AF0346FB71FB79012B17D0022B02D0002B26D02EE04FF040234FF040221278D2B222F04002D2B2F2
:401700001A70164B154A1278D2B242F02002D2B21A701FE04FF040234FF040221278D2B242F04002D2B21A700C4B0C4A1278D2B242F02002D2B21A700CE0084B074A1278E6
:40174000D2B222F02002D2B21A7003E0002000F07DF900BF0837BD4680BD00BF0042004080B400AF054B054A1278D2B242F01002D2B21A70BD465DF8047B704700420040C9
:4017800080B400AF054B054A1278D2B222F01002D2B21A70BD465DF8047B70470042004080B483B000AF0346FB71094B084A1278D2B222F00302D1B2FA7902F00302D2B250
:4017C0000A43D2B21A700C37BD465DF8047B70470540004080B483B000AF0346FB71044BFA791A700C37BD465DF8047B704700BF0440004080B483B000AF0346FB80154BD3
:40180000144A1278D2B222F00F02D2B21A70124B00221A70114B114A1278D2B262F07F02D2B21A700E4BFA88D2B21A700D4BFA88120A92B2D2B21A700B4B0B4A1278D2B272
:4018400042F00102D2B21A700C37BD465DF8047B704700BF14400040104000400840004002400040034000400140004080B584B000AF0346FB80FFF7CDFC0346FB73234BA3
:401880001B78DBB21B02BB81214B1B78DBB21A46BB891343BB81FB88002B02D0BB89002B29D11C4B1B78FB72FB7A062B02D80720FFF790FFFB88002B0CD1174B164A12789A
:4018C000D2B242F04002D2B21A70FB881846FFF791FF0BE0FB881846FFF78CFF0E4B0E4A1278D2B222F04002D2B21A70FB7A1846FFF770FF03E0FB881846FFF77BFFFB7B2B
:401900001846FFF78BFC1037BD4680BD0740004006400040044000400840004080B400AF054B054A1278D2B242F00402D2B21A70BD465DF8047B70470043004080B400AF62
:40194000054B054A1278D2B222F00402D2B21A70BD465DF8047B70470043004080B586B000AF0346FB7100237B61FB793B742B4B2A4A1278D2B242F00102D2B21A70FB79E3
:40198000002B46D0264B1B78FB74264B1B78BB74254B1B787B74182000F03AFC10237B6126E01E4B1B780423FB730EE000BF012000F002FC034603F00103DBB2002BF6D0D0
:4019C000FB7BDBB2013BDBB2FB73FB7BDBB2002BECD1124B1B78DBB2DBB25BB2002B02DB00237B6108E03B7CDBB2013BDBB23B743B7CDBB2002BD4D1FB7C03F00403002B50
:401A000001D1FFF79BFF074BBA7C1A70064B7A7C1A707B6918461837BD4680BD1042004000430040804300408243004080B400AF054B054A1278D2B222F00102D2B21A70C0
:401A4000BD465DF8047B70471042004080B483B000AF0346FB7101BE0C37BD465DF8047B704700BF80B582B000AF786008E00C4B1B681846FFF7C4FB7B68A3F500437B60D0
:401A80007B68B3F5004FF2D8064B1B687A6802FB03F31846FFF7B4FB0837BD4680BD00BF2481FF1F1C81FF1F80B582B000AF0346FB80FB88044A127802FB03F31846FFF79E
:401AC0009FFB0837BD4680BD2081FF1F80B500AF904B1B78DBB203F00F03DAB28E4B1A708E4B1B78DAB28C4B5A708A4B894A1278D2B222F00F02D2B21A70884B1B78874B83
:401B000000221A70864B1B78DBB223F03F03DAB2814B5A71372001F0A1FA824B1B78DBB203F00703DAB27C4BDA707E4B1B78DBB203F04003DAB2784B1A717A4B1B78DBB248
:401B400003F01003002B03D0734B01225A7202E0714B00225A72744B1B78DBB203F00303DAB26D4B9A706C4B9B78012B1CD14FF040231B78DBB203F00303012B08D0012B34
:401B800002D3022B08D00BE00020FFF709FE0BE00220FFF705FE07E00320FFF701FE03E00020FFF753FF00BF604B1B78DBB203F00103002B05D0584B01229A73FFF78CFB22
:401BC00002E0554B00229A730420FFF7ADFC584B1B78DBB203F01003DBB2002B03D04E4B01229A7108E04C4B00229A710020FFF783FB0620FFF758FF4A4B1B78DBB203F0FB
:401C00002003002B10D04FF040231B78DBB203F04003002B01D1022300E001233E4AD3710020FFF757FD02E03B4B0022DA714FF040231B78DBB203F03003DAB2364B1A72CC
:401C4000354B1B7A002B09D04FF040234FF040221278D2B222F03002D2B21A70314B1B78DBB203F01003002B01D0FFF789FD314B1B78DAB2284B9A72274B9B7A002B02D0F0
:401C80000020FFF7A7FD244B9B78002B02D00020FFF786FD284B1B78DBB21B029AB21E4B9A811D4B9A89254B1B78DBB213439AB2194B9A81184B9B89002B02D00020FFF7FC
:401CC000D5FD184B1B78DBB203F007031C4AD35C184601F0C3F91B4B1B78DBB203F00103002B05D00C4B0122DA73FFF79FFE02E0094B0022DA73144B1B78DBB203F00403FD
:401D0000002B03D0044B01221A7402E0024B00221A7480BDA1430040608AFF1FA243004000480040004200400540004020420040A043004004400040074000400640004053
:401D4000C8650000104200400B40004080B586B000AF10233B617D4A3B1D106818609188927999809A717A4B1B7C012B17D1794B1B78DBB203F00703774AD35C1A461346DF
:401D80009B0013441A01D31A1846FFF739FA734B724A1278D2B242F00402D2B21A706C4BDB7B012B25D10020FFF7D8FD6C4B1B780523FB821AE0674B1B78DBB203F0070302
:401DC000654AD35CC82202FB03F31846FFF718FA634B1B78DBB2DBB25BB2002B03DB00233B6100BF05E0FB8A013BFB82FB8A002BE1D1372001F032F9554B9B78022B03D028
:401E0000534B9B78032B10D1564B1B78DAB2504B9B7A9A4204D04E4B9B7A1846FFF7DAFC4B4B9B781846FFF7BBFC494B1B7903F04003002B0CD0464BDB7807F11802134484
:401E400013F8143C032B03D10820FFF76DFB20E03F4BDB7807F11802134413F8143C1846FFF762FB3A4B1B7903F04003002B08D0384B384A1278D2B242F04002D2B21A7046
:401E800007E0344B334A1278D2B222F04002D2B21A702F4B9B79012B0AD1334B1B78DBB203F01003DBB2002B02D10020FFF724FA274BDB791846FFF70DFC254B5B7A012B43
:401EC00001D1FFF74DFC224B1B7A1A464FF040231B78DBB203F030039A4210D04FF040234FF040221278D2B2D2B222F03002D1B2174A127AD2B20A43D2B2D2B21A70144B80
:401F00009B7B012B3AD110233B610020FFF78CF95020FFF7C9FD154B1B78AB23FB822AE00120FFF7C1FD114B1B78DBB203F00103002B1DD00D4B1B78DBB203F00103002B7C
:401F400016D000233B6100BF18E000BFD0650000608AFF1F00420040C86500000B4000401042004004400040A043004025420040FB8A013BFB82FB8A002BD1D12B4B9B78D6
:401F8000002B03D0294B9B78012B10D1284B1B78DAB2264B9B7A9A4204D0244B9B7A1846FFF718FC214B9B781846FFF7F9FB1F4B9B79002B09D11F4B1B78DBB203F0100301
:401FC000DBB2002B01D0FFF7E1F91B4B1B78DBB21B02FB81194B1B78DBB21A46FB891343FB81124B9B89FA899A4204D00F4B9B891846FFF73BFC124B114A1278D2B2D2B228
:4020000002F03F02D1B2094A5279D2B20A43D2B2D2B21A700B4B054A12781A700A4B034A52781A701837BD4680BD00BF608AFF1F04400040A04300400740004006400040B0
:4020400000480040A1430040A243004080B584B000AF02460B46FA71BB80FFF7DBF80346FB734E4B1B78DBB203F00803002B0BD14B4B4B4A1278D2B202F01F02D2B21A70A0
:40208000FB79002B08D004E0FB7B1846FFF7C6F881E00020FFF7DAFC00F002F9414B1B78DAB2414B1A713F4BBA88120992B2D2B21A703E4B1B78DAB23B4B5A713B4BBA8849
:4020C000D2B202F00F02D2B21A70394B1B78DAB2354B9A71364BBA88120B92B2D2B202F00102D2B21A70334B1B78DBB203F00703002B04D12C4B012283F82D2014E02A4B0C
:40210000002283F82D202B4B1B78DBB203F00703DAB2254B83F82C20264B264A1278D2B222F00702D2B21A701C4B1C4A1278D2B222F00702D2B242F00302D2B21A70174B26
:402140001B7800BF00BF30BF174B93F82D30012B0FD0184B174A1278D2B2D2B222F00702D1B2114A92F82C20D2B20A43D2B2D2B21A7000F0D5F90B4B0B4A12791A700B4BAE
:40218000094A52791A700A4B074A92791A70FB7B1846FFF743F81037BD4680BD934300408346004098430040308AFF1F994300409A4300400042004080B584B000AF034682
:4021C000FB71FFF727F80346FB730F4B1B78DAB20E4B1B781343DAB20C4B1A700B4B1B78BB73FB79DB43DAB2084B1B781340DAB2064B1A70FB7B1846FFF710F8BB7B184644
:402200001037BD4680BD00BF90430040728AFF1F80B582B000AF0346FB711F4B1E4A1278D2B222F00202D2B21A70FFF777FB1A4B1B78DBB203F00103002B19D0174B1B786F
:40224000DBB2FA799A4224D0134B134A1278D2B222F00102D2B21A70104BFA791A700E4B0D4A1278D2B242F00102D2B21A7010E00A4B1B78DBB2FA799A4202D0074BFA79FE
:402280001A70054B044A1278D2B242F00102D2B21A700837BD4680BD824300408043004080B400AF804B1B78DAB2804B5A72804B1B78DAB27D4B9A727E4B1B78DAB27B4B4E
:4022C000DA727D4B1B78DAB2784B1A737B4B1B78DAB2764B5A737A4B1B78DAB2734B9A73784B1B78DAB2714BDA73774B1B78DAB26E4B1A74754B1B78DAB26C4B5A74744B03
:402300001B78DAB2694B9A74724B1B78DAB2674BDA74714B1B78DAB2644B1A756F4B1B78DAB2624B5A756E4B1B78DAB25F4B9A756C4B1B78DAB25D4BDA756B4B1B78DAB23F
:402340005A4B1A76694B1B78DAB2584B5A76684B1B78DAB2554B9A76664B1B78DAB2534BDA76654B1B78DAB2504B1A77634B1B78DAB24E4B5A77624B1B78DAB24B4B9A77FD
:40238000604B1B78DAB2494BDA775F4B1B78DAB2464B83F820205D4B1B78DAB2434B83F821205B4B1B78DAB2404B83F82220594B1B78DAB23D4B83F82320574B1B78DAB271
:4023C0003A4B83F82420384B00221A70384B00221A70384B00221A70374B00221A70374B00221A70364B00221A70364B00221A70354B00221A70354B00221A70344B00225D
:402400001A70344B00221A70334B00221A70334B00221A70324B00221A70324B00221A70314B00221A70314B00221A70304B00221A70304B00221A702F4B00221A702F4B03
:4024400000221A702E4B00221A702E4B00221A702D4B00221A702D4B00221A702C4B00221A702C4B00221A702B4B00221A702B4B1B78DBB203F00803002B0CD00B4B0122A2
:4024800083F82E20254B254A1278D2B222F00802D2B21A7003E0054B002283F82E20BD465DF8047B704700BF005A0040308AFF1F025A0040035A0040045A0040065A0040E8
:4024C000085A00400A5A0040105A0040125A0040135A0040145A0040165A0040185A00401A5A0040205A0040225A0040235A0040245A0040265A0040285A00402A5A004098
:40250000305A0040325A0040335A0040345A0040365A0040385A00403A5A00402243004080B400AF424B434A527A1A70424B414A927A1A70414B3F4AD27A1A70404B3D4A51
:40254000127B1A703F4B3B4A527B1A703E4B394A927B1A703D4B374AD27B1A703C4B354A127C1A703B4B334A527C1A703A4B314A927C1A70394B2F4AD27C1A70384B2D4A7B
:40258000127D1A70374B2B4A527D1A70364B294A927D1A70354B274AD27D1A70344B254A127E1A70334B234A527E1A70324B214A927E1A70314B1F4AD27E1A70304B1D4AEB
:4025C000127F1A702F4B1B4A527F1A702E4B194A927F1A702D4B174AD27F1A702C4B154A92F820201A702B4B124A92F821201A70294B104A92F822201A70284B0D4A92F892
:4026000023201A70264B0B4A92F824201A70094B93F82E30012B07D1224B224A1278D2B242F00802D2B21A70BD465DF8047B7047005A0040308AFF1F025A0040035A004004
:40264000045A0040065A0040085A00400A5A0040105A0040125A0040135A0040145A0040165A0040185A00401A5A0040205A0040225A0040235A0040245A0040265A00405E
:40268000285A00402A5A0040305A0040325A0040335A0040345A0040365A0040385A00403A5A00402243004080B485B000AF0346FB710A4B1B78DBB223F00103FB73074B2F
:4026C000FA7902F00102D1B2FA7B0A43D2B21A701437BD465DF8047B704700BF2051004080B400AF054B1B78DBB203F00103DBB21846BD465DF8047B704700BF21510040A2
:4027000080B485B000AF0346FB710B4B1B78DBB223F00203FB73084BFA795200D2B202F00202D1B2FA7B0A43D2B21A701437BD465DF8047B704700BF0051004080B485B059
:4027400000AF0346FB710B4B1B78DBB223F00403FB73084BFA799200D2B202F00402D1B2FA7B0A43D2B21A701437BD465DF8047B704700BF3051004080B485B000AF034616
:40278000FB710B4B1B78DBB223F00803FB73084BFA79D200D2B202F00802D1B2FA7B0A43D2B21A701437BD465DF8047B704700BF3051004080B485B000AF0346FB710B4BC4
:4027C0001B78DBB223F00803FB73084BFA79D200D2B202F00802D1B2FA7B0A43D2B21A701437BD465DF8047B704700BF2051004080B485B000AF0346FB710B4B1B78DBB236
:4028000023F00403FB73084BFA799200D2B202F00402D1B2FA7B0A43D2B21A701437BD465DF8047B704700BF2051004080B485B000AF0346FB710B4B1B78DBB223F0020345
:40284000FB73084BFA795200D2B202F00202D1B2FA7B0A43D2B21A701437BD465DF8047B704700BF2051004080B485B000AF0346FB710A4B1B78DBB223F00103FB73074BA3
:40288000FA7902F00102D1B2FA7B0A43D2B21A701437BD465DF8047B704700BFF051004080B485B000AF0346FB710B4B1B78DBB223F00203FB73084BFA795200D2B202F0ED
:4028C0000202D1B2FA7B0A43D2B21A701437BD465DF8047B704700BFF051004080B485B000AF0346FB710B4B1B78DBB223F00203FB73084BFA795200D2B202F00202D1B28A
:40290000FA7B0A43D2B21A701437BD465DF8047B704700BFC051004080B500AF054B1B78002B04D100F008F8024B01221A7000F023F880BD748AFF1F80B400AF094B7222FE
:402940001A70094B20221A70084B07221A70084B48221A70074B02221A70BD465DF8047B704700BF846500408565004026640040366400408464004080B582B000AFFEF7E9
:4029800049FC0346FB71104B0F4A1278D2B242F02002D2B21A700D4B0C4A1278D2B242F01002D2B21A700A4B094A1278D2B242F01002D2B21A7000F0FFF8FB791846FEF735
:4029C0002DFC0837BD4680BD94650040956500409464004080B483B000AF0023FB710C4B1B78BB71BB7903F02003002B09D0094B1B78FB71BB7903F01E03002B01D00023C1
:402A0000FB71FB7918460C37BD465DF8047B7047656500404765004080B483B000AF094B1B78DBB203F02003002B01D0012300E00023FB71FB7918460C37BD465DF8047B76
:402A4000704700BF6565004080B582B000AFFEF7E1FB0346FB710B4B0A4A1278D2B242F00102D2B21A70074B064A1278D2B222F00102D2B21A70FB791846FEF7CFFB08379C
:402A8000BD4680BD9765004080B483B000AF0346FB7100BF074B1B78DBB203F00403002BF8D1054BFA791A700C37BD465DF8047B704700BF646400404764004080B584B077
:402AC00000AF78600023FB810B4B1B78002B10D009E0FB897A6813441B781846FFF7D4FFFB890133FB81FB897A6813441B78002BEFD11037BD4680BD748AFF1F80B582B0E3
:402B000000AF786000F03CF8786800F009F8072000F018F800F028F80837BD4680BD00BF80B485B000AF7860054B1B68FB60FB6840337A681A601437BD465DF8047B70477B
:402B400008ED00E080B483B000AF0346FB71054BFA795201D2B21A700C37BD465DF8047B704700BF00E400E080B400AF034B01221A60BD465DF8047B704700BF00E100E061
:402B800080B400AF034B01221A60BD465DF8047B704700BF80E100E080B483B000AF0346FB71044BFA791A700C37BD465DF8047B704700BF7765004080B400AF094B094A6C
:402BC0001278D2B242F00102D2B21A70064B064A1278D2B242F00102D2B21A70BD465DF8047B7047A2430040B243004080B582B000AF786000F03CF8786800F009F80720A0
:402C000000F018F800F028F80837BD4680BD00BF80B485B000AF7860054B1B68FB60FB6848337A681A601437BD465DF8047B704708ED00E080B483B000AF0346FB71054B25
:402C4000FA795201D2B21A700C37BD465DF8047B704700BF02E400E080B400AF034B04221A60BD465DF8047B704700BF00E100E080B400AF034B04221A60BD465DF8047BA3
:402C8000704700BF80E100E080B500AF054B1B78002B04D100F008F8024B01221A7000F00BF880BD768AFF1F80B500AF082000F055F800F03BF880BD80B582B000AF194B3B
:402CC0001B78DBB203F00203002B18D1FEF7A2FA0346FB71134B134A1278D2B242F00202D2B21A70104B104A1278D2B242F00402D2B21A70FB791846FEF790FA0FE0FEF717
:402D000089FA0346FB71084B074A1278D2B242F00402D2B21A70FB791846FEF77FFA0837BD4680BD004300408243004080B582B000AFFEF76FFA0346FB71074B064A1278C7
:402D4000D2B242F00802D2B21A70FB791846FEF765FA0837BD4680BD8243004080B483B000AF0346FB710D4B1B78DBB203F00403002B0DD10A4B0A4A1278D2B222F00F02BB
:402D8000D1B2FA7902F00F02D2B20A43D2B21A700C37BD465DF8047B704700BF824300408143004080B500AF0220FFF705FA0346184680BD80B485B000AF0346FB710B4BA0
:402DC0001B78DBB223F01003FB73084BFA791201D2B202F01002D1B2FA7B0A43D2B21A701437BD465DF8047B704700BFC051004080B500AF054B1B78002B04D100F008F8CB
:402E0000024B01221A7000F013F880BD778AFF1F80B400AF044B72221A70044B20221A70BD465DF8047B7047866400408665004080B582B000AFFEF7EDF90346FB710C4BF6
:402E40000B4A1278D2B242F02002D2B21A70094B084A1278D2B242F01002D2B21A7000F0C9F8FB791846FEF7D9F90837BD4680BD966400409665004080B582B000AFFEF73E
:402E8000C9F90346FB710C4B0B4A1278D2B222F02002D2B21A7000F0C7F8084B074A1278D2B222F01002D2B21A70FB791846FEF7B5F90837BD4680BD9664004096650040A3
:402EC00080B483B000AF0023FB710C4B1B78BB71BB7903F02003002B09D0094B1B78FB71BB7903F01E03002B01D00023FB71FB7918460C37BD465DF8047B704766650040F5
:402F00004564004080B582B000AFFEF783F90346FB710B4B0A4A1278D2B242F00102D2B21A70074B064A1278D2B222F00102D2B21A70FB791846FEF771F90837BD4680BDEE
:402F40009564004080B582B000AF786000F046F8786800F013F8072000F022F800F032F80837BD4680BD00BF80B500AF00F036F8014800F003F880BDB90C000080B485B0F7
:402F800000AF7860054B1B68FB60FB6844337A681A601437BD465DF8047B704708ED00E080B483B000AF0346FB71054BFA795201D2B21A700C37BD465DF8047B704700BFF9
:402FC00001E400E080B400AF034B02221A60BD465DF8047B704700BF00E100E080B400AF034B02221A60BD465DF8047B704700BF80E100E080B400AF094B094A1278D2B23A
:4030000042F00202D2B21A70064B064A1278D2B242F00202D2B21A70BD465DF8047B7047A2430040B243004080B400AF094B094A1278D2B222F00202D2B21A70064B064A14
:403040001278D2B222F00202D2B21A70BD465DF8047B7047A2430040B243004080B584B000AF0346FB71FEF7D5F80346FB73FB790F2B0BD8274B274A1278D2B202F01F025B
:40308000D2B242F04002D2B21A703BE0FB79202B0BD8204B1F4A1278D2B202F01F02D2B262F07F02D2B21A702CE0FB79312B0BD8184B184A1278D2B202F01F02D2B262F078
:4030C0003F02D2B21A701DE0FB79422B08D8114B104A1278D2B202F01F02D2B21A7011E0FB79532B0BD80B4B0A4A1278D2B202F01F02D2B242F02002D2B21A7002E0002065
:40310000FEF7A4FCFB7B1846FEF788F81037BD4680BD00BF0048004042000ED2B2F1FE4F0BD34FF09E03B3EB126209D44FEA002343F0004323FA02F070474FF00000704796
:4031400012F1610F01D1420202D14FF0FF3070474FF00000704700BF014B1868704700BF8881FF1F70B50E4B0E4D0024ED1AAD101E46AC4204D056F8242090470134F8E74C
:4031800003F078FB084D094B0024ED1AAD101E46AC4204D056F8242090470134F8E770BD8068000080680000886800008068000010B50023934203D0CC5CC4540133F9E7BC
:4031C00010BD02440346934202D003F8011BFAE7704700000EB400B54FF402719CB0ADF814106FF00041049107914FF6FF711DABADF81610084953F8042B02900690086863
:4032000002A9019300F0A8FF029B00221A701CB05DF804EB03B070478881FF1FC9B2024610F8013B1BB18B42F9D1104670470029FBD018467047034611F8012B03F8012BA9
:40324000002AF9D17047034613F8012B002AFBD1181A0138704710B5034632B111F8014B013A03F8014B002CF7D11A44934203D0002103F8011BF9E710BD30B503780BB148
:40328000044604E00B78002B18BF002030BD22461078013438B10023C85C28B1D55C8542F5D10133F8E730BD104630BD30B5026811F8015B541C55B153782246A3F14104E9
:4032C000192C98BF2033AB42F2D0002030BD0460012030BD2DE9F0410D46904601F0CCFF06460F46B8F1000F0FD0C5F30A53C3F16B03002B09DD1C0504F17F5303F54013D2
:40330000002202F0C5FBBDE8F08130463946BDE8F0810000000000002DE9F04F00239FB08146049115921A934FF0000A4FF0000B1991199A13780D2B05D8092B14D2002B4C
:4033400000F0B18113E02B2B07D02D2B02D0202B0DD109E00126099601E000270997531C199353782BB99EE101321992E1E700260996199C2378302B5AD16378582B01D0A8
:40338000782B49D1099F1AAB00930197484619A99C4A1BAB01F09CF910F00706054600F0AD85062E02D1013419947EE11A9A3AB11CA8352102F04CF848461A9901F0BCFC9B
:4033C0001B9A062E21D8DFE806F0040D08171C0D04004FF0000BDA4617E0DDF870A0DDF874B012E01D9B02F2334223F48013DDF870A043EA025B08E0DFF80CB24FF0000AA0
:4034000003E06FF0004B4FF0FF3A2B0740F176854BF0004B00F072BD199B5A1C19925B78302BF9D0002B00F069850123059301E000260596199F4FF000080797CDF80C8063
:403440004446199E3578A5F13003DAB2092A10D8082CD8BF039F4FF00A02D8BF02FB073706F10106D4BF039702FB083801341996E7E7484601F0FEFB0768484601F0FAFBEF
:403480000068FFF7E0FE39460246304602F020F9064628B100232A46194625460A935FE04846199D01F0E6FB0068FFF7CCFE2B1819932A5C002C45D12346302A05D1199AE9
:4034C0000133511C19915278F7E7A2F13101082942D8199E1946002307961D46303A03F1010029D001446E1C771B874210DA771E082F06DC039F4FF00A0C0CFB07F70397E0
:4035000004E0102EDCBF0A2707FB08F80136EBE7002BACBFEB182B1C082B03F1010505DC039E0A2303FB0626039604E0102DDCBF0A2303FB08280020199B5A1C19925A7835
:40354000034602E0254633463146A2F130000928C4D901270A9703E00025012029460A9022F02006452E53D125B91BB9059E002E00F09980199F7A1C19927A7804972B2A03
:4035800004D02D2A05D000260F9608E000200F9001E001270F97049EB21C1992B278A2F13007092F32D8302A04D1199A571C19975278F8E7A2F13107082F29D81998A2F1A4
:4035C00030070690199A561C199652780E96A2F13006092E05D84FF00A0C0CFB0727303FF0E70E98069EC6EB000CBCF1080F44F61F6C02DC6745B8BFBC460F9F57B1CCF109
:40360000000C07E0086600000000F07F049E19964FF0000C002D4CD1002B40F06F84059F002F40F06B840A9800283CD14E2A1BD002DC492A05D036E0692A02D06E2A13D03E
:4036400031E019A8AC49FFF731FE60B3199B19A8013BAA491993FFF729FE10B9199B01331993DFF8B4B21AE019A8A549FFF71EFEC8B1199B1B78282B0FD119A8A1491CAA25
:4036800001F068FA052808D11D9BDDF870A043F0FF4B4BF4E00B00F031BCDFF880B24FF0000A00F02BBC049B19930026099600F025BCC1EB0C010398102DB4BFAC464FF051
:4036C000100CCDF808C0069102F06CF9DDF808C0002C08BF2C46BCF1090F82468B4615DD894B03EBCC0353E9122302F0D1F9064640460F4602F056F902460B46304639462D
:4037000002F014F8DDF808C082468B460F2D37DC069F002F00F0F28323DD162F07DC7A49524601EBC701D1E900015B4614E0069EC5F125039E4223DC734CC5F10F0504EB6D
:40374000C503751BD3E9000152465B4604EBC50402F09EF9D4E9002302F09AF982468B46CCE3069F16370BDBDDF818C0664F5046A7EBCC075946D7E9002302F0B3FAEDE7E3
:40378000069ECCEB0508B044B8F1000F61DD18F00F030AD05C4A02EBC303D3E9000152465B4602F075F982468B4638F00F0800F0C880B8F59A7F13DD4FF00008CDF80C80B6
:4037C000CDF81C80CDF81480079F2223C9F80030DFF844B14FF0000A002F40F07B838DE34FEA2818504659460026B8F1010F0DDD18F0010F06D0454B03EBC603D3E90023C6
:4038000002F046F901364FEA6808EEE73F4B8246A1F1547B03EBC60652465B46D6E9000102F036F921F000438B461B0D38491B058B428246C0D8A1F580118B4206D9002607
:40384000DFF8DCB04FF0FF3A04967CE00BF1547B77E076D0C8F1000818F00F030AD02A4A504602EBC3035946D3E9002302F03AFA82468B465FEA281863D0B8F11F0F08DDE8
:403880004FF00008CDF80C80CDF81C80CDF814801EE118F0100F14BF6A26002604961D4E50465946B8F1000F0ADD18F0010F03D0D6E9002302F0ECF84FEA68080836F1E7CC
:4038C000049F82468B469FB3C1F30A53C3F16B03002B2DDD1F2B25DD342B4FF0000A02DD4FF05C7B24E0203B4FF0FF3101FA03F303EA0B0B1CE000BF1C6600001F66000065
:40390000256600002866000078670000406800000000A07CE06500000000F07F0000F8FFFFFFEF7F4FF0FF3202FA03F303EA000A504659460022002302F012FB00289FD14A
:4039400001E000270497039E48460096079922462B4601F042FA079000283FF42DAF069F4FF000087B42002FA8BF00230E93CDF80C80079E4846716801F0A9F905900028BB
:403980003FF422AF326906F10C01023292000C30FFF70EFC1BAB00931CAB0193484652465B46CDE90AAB01F0DCFC1A9000283FF40BAF4846012101F09FFA039000283FF4CC
:4039C00003AF1B9BDDF818C0002B2CEAEC77C0F28B800E9C3A461C44049E1C9D9B1B59196FF47F739942C5F1360580F287805B1A1F2BC3EB05054FF0010078DC98400023A4
:403A000014900F93049866191544A642B4BF334623460544AB42A8BF2B46002B02DDF61AED1AE41A0E9900296FD1002E00F38780002F40F08E80002D00F39580002C00F369
:403A40009C8048461A99059A01F0B6FB804600283FF4BAAEC6680023C3600399089601F08EFB002880F29880002E40F02082BAF1000F40F01C82CBF31303002B40F01782F5
:403A80002BF000431B0D1B05B3F1D66F40F20F82D8F81430002B7AD041460122484601F01BFB0399804601F06AFB002840F3FF812BF00043049F1B0D1B05002F00F09C80D5
:403AC000B3F1D66F00F29880B3F15C7F00F2F181079E22234FF0000A4FF0000BC9F80030002E40F0F78109E2FA1A0E9C74E7844E1490761A00FA06F60F9683E700264FF038
:403B0000010C0F96CDF850C07CE7484603990E9A01F094FA039000283FF456AE484603991A9A01F0F2F9034600283FF44DAE48461A99029301F000F9029B1A9375E748460B
:403B40001A99324601F0C8FA1A9000287FF470AF3AE6484605993A4601F070FA059000287FF469AF30E6484605992A4601F0B4FA059000287FF462AF26E648460399224664
:403B800001F0AAFA039000287FF45BAF1CE6D8F81030012B80DC8AE163D1089FCBF313032FB358495A468B422FD1049E51466EB1554B0BEA0303B3F1D46F07D81B0DC3F1FF
:403BC0006B034FF0FF3000FA03F301E04FF0FF3399421AD14D4B9A4202D101313FF4F4AD494B4FF0000A134003F5801B5FE163B9BAF1000F09D15BE7A3F580136FEA135BAD
:403C00006FEA0B5B4FF0FF3A51E10F9B13B113EA0B0F02E0149E16EA0A0F00F04881089F50465946049A57B1FFF754FB02460B46DDE90A0101F07AFD82468B4637E1FFF7F0
:403C400049FB02460B46DDE90A0101F06DFD0022002382468B4602F083F900287FF438AF25E14046039901F0CEFB00224FF0804304460D4602F088F9002832D0089E26B1B0
:403C8000234F002634463D464CE0BAF1000F03D1CBF313033BB90BE0BAF1010F03D1BBF1000F3FF415AF00261A4F0024184D39E0204629460022164B02F05CF940B9204692
:403CC00029460022144B01F0E3FE04460D4601E0114D002405F1004716941797DDE9166720E02046294600220B4B01F0D1FE089E04460D4696B901F10047109011970FE01B
:403D0000E3FBFFFFFFFF0F000000F07FFFFFEF7F0000F03F0000F0BF0000E03FCDE91045DDE910672BF0004C4FEA1C5C844B4FEA0C5C9C4531D1DDE90A01ABF1547BCDE91D
:403D40000C0150465946CDF808C001F095FA02460B463046394601F09BFE02460B465046594601F0E3FC21F000431B0D754A1B0593428246DDF808C00CD9734B0D99994285
:403D800003D10C9A01323FF41FADDFF8BCB14FF0FF3A7BE001F1547B42E0049B53B3BCF1D46F27D85EA3D3E9002320462946CDF808C002F0E9F8DDF808C0B8B129462046D9
:403DC00002F028F9002808BF012001F0EBFD089E04460D46DDF808C026B901F100471290139701E0CDE91245DDE9126707F1D663CCEB0307DDE90A01CDF808C001F03CFADF
:403E000002460B463046394601F042FE02460B46DDE90A0101F08AFCDDF808C082468B46049F002F32D12BF000431B0D1B059C452CD12946204602F0C5F801F0C3FD0246D6
:403E40000B462046294601F06FFC089F04460D462FB9BAF1000F02D1CBF3130686B12046294631A3D3E9002302F084F8002831D1204629462EA3D3E9002302F099F804E0ED
:403E80002DA3D3E9002302F075F818BB48461A9900F052FF4846059900F04EFF4846039900F04AFF4846414600F046FF61E5049E86B1264F00200C900D9750465946DDE99A
:403EC0000C2301F0E5FD82468B4619B910B92223C9F8003048461A9900F02EFF4846059900F02AFF4846039900F026FF4846079900F022FF4846414600F01EFF159E0EB1A1
:403F0000199B3360099F1FB150460BF1004101E0504659461FB0BDE8F08F00BFAFF300800000C0FFFFFFDF419535A094FFFFDF3F35E5AF350000E03F9535A094FFFFCF3FE7
:403F40000000E07FFFFF9F7CFFFFEF7F000050390A460A4938B5034608681946FFF7DCF904460D4601F07EFB18B9BDE8384001F0ABBB2046294602F06DF838BD8881FF1FCD
:403F800084463F482DE9F04FD0F800800E46344614F8015B08EB0500407800F0080000F0FF0708B12646F2E72D2D03D1B41C7578012703E02B2D04BF7578B41C33F0100040
:403FC0000DD1302D08D1207800F0DF00582851D165781023023402E0002B08BF0A23002F0CBF6FF0004A4FF0004ABAFBF3F903FB19AA0026304608EB050B9BF801B01BF0E1
:40400000040F01D0303D0BE01BF0030B1BD0BBF1010F14BF4FF0570B4FF0370BCBEB05059D4210DAB6F1FF3F0AD0484506D801D1554503DC03FB0050012601E04FF0FF36C7
:4040400014F8015BD7E7731C0CD1002F4FF022030CBF6FF000404FF00040CCF800302AB9BDE8F08F07B1404242B106B1611E1160BDE8F08F002B08BF0823B0E7BDE8F08F67
:404080008C81FF1F30B51346044A05460C46106829462246BDE83040FFF772BF8881FF1F2DE9F0478D688146AB420C4692461F4643D38B8913F4906F3DD026680969022214
:4040C000C1EB0608666906EB460696FBF2F608F101023A44964238BF16465B050FD5314601F046FA054698B121694246FFF760F8A38923F4906343F08003A38113E0324681
:4041000001F08AFA054670B94846216901F0ECF90C23C9F80030A3894FF0FF3043F04003A381BDE8F087256166614544C8EB06062560A6603D46AF4200D23D462A46206857
:40414000514600F0A9FDA36800205B1BA36023681D442560BDE8F0872DE9F0439DB003938B8907461C060D4616460CD50B6953B9402101F0FDF92860286110B90C233B6036
:40418000C7E040236B610023099320238DF8293030238DF82A3033461C4613F8012B1AB9B4EB06090FD002E0252AF5D1F8E73846294632464B46FFF773FF013000F0A4802C
:4041C000099B4B4409932378002B00F09D8000234FF0FF3204930793059206938DF853301A9304F101094D4E4C4630462178052200F044FD09F10109049B28B1861B0120A3
:40420000B04003430493EEE7D90644BF20228DF853201A0744BF2B228DF8532022782A2A02D0079B21460EE0039A111D12680391002A01DB079204E0524243F002030792DF
:40424000049301340AE00C4622780131303A092A03D80A2000FB0323F5E7079323782E2B19D163782A2B09D1039B02341A1D1B680392002BB8BF4FF0FF330BE0611C002388
:404280000C4622780131303A092A03D80A2000FB0323F5E70593224E21783046032200F0EDFC30B1861B4020B040049B01340343049321781B480622661C8DF8281000F056
:4042C000DDFC88B1184B33B9039B073323F007030833039314E003AB0093384604A92A46124BAFF3008007E003AB0093384604A92A460E4B00F08EF8B0F1FF3F804603D03E
:40430000099B4344099346E7AB895B0601D4099801E04FF0FF301DB0BDE8F0833C660000426600004666000000000000A14000002DE9F84315461F468A680B6906469A42D4
:40434000A8BF13462B6091F843200C46DDF820800AB101332B602368990602D52B6802332B60236813F006091DD094F843302268003318BF012392061FD5E118302081F8E2
:4043800043005A1C94F845102244023382F8431013E03046394604F119020123C047013007D009F10109E2682B68D31A9945F0DBDBE74FF0FF30BDE8F8833046394604F11F
:4043C0004302C0470130F4D023682A6803F00603E168042B08BFC2EB01052369A2680CBF25EAE57500259A42C4BFC3EB0203ED184FF00009A9450ADA3046394604F11A024B
:404400000123C0470130D4D009F10109F2E70020BDE8F8832DE9FF470E7E80466E2E0C4691469A460C9D01F1430000F0A58011D8632E22D009D8002E00F0AF80582E40F0C9
:40444000BF8081F845607B4A4FE0642E1ED0692E1CD0B5E0732E00F0A48009D86F2E2BD0702E40F0AD800B6843F020030B6038E0752E21D0782E34D0A2E02B6801F1420750
:404480001A1D1B682A6081F842309DE022682B6812F0800F03D01A1D2A601D6805E05106F9D51A1D2A60B3F90050002D39DA2D236D4284F8433034E022682B6812F0800FD2
:4044C00003D01A1D2A601D6804E05206F9D51A1D2A601D88237E574A6F2B14BF0A2308231BE07823544A84F845302368296813F0800F01F104062E6001D00D6802E05F0642
:40450000FBD50D88DE0744BF43F0200323601DB9236823F0200323601023002184F8431001E0444A0A236668002EA66003DB216821F00401216005B96EB104F14201B5FBB7
:40454000F3F603FB1655555D0F4601F801593546002EF4D100E00746082B0AD12368DD0707D5626823699A4203DC302307F8013C013FC01B20612CE009682B6811F0800FBF
:40458000626904D0191D29601B681A6005E04906F8D5191D29601B681A8000232361074617E02B681A1D2A601F683846FEF74BFE63682061984288BF23612369636005E01C
:4045C00004F1420784F8426001232361002384F84330CDF800A04046214603AA4B46FFF7A7FE013002D14FF0FF301FE0404649463A462369D0470130F5D023689B0705D4D5
:40460000E068039B9842B8BF18460FE00025E268039BD31A9D42F3DA4046494604F119020123D0470130DED00135F0E704B0BDE8F08700BF4D6600005E660000F0B50669EA
:404640004B11B34200F1140226DA11F01F0102EB860602EB830401D1134616E052F82350C1F1200CCD4004341346B44209D2276807FA0CF73D4343F8045B54F8045BCD4044
:40468000F3E71D604DB1043307E0B44205D254F8041B43F8041BF8E713469B1A9B10036103B94361F0BDA0F13003092B01D820380AE0A0F16103052B01D8473804E0A0F1E7
:4046C0004103052B02D82738C0B27047002070472DE9F04F89B0059106939046039000F0C9FA00684FF0000B0490FEF7ACFD049B0599034413F8013C029007930B680233B0
:404700001F4613F8010B302802D10BF1010BF7E7FFF7C9FF0646F8B938460499029A00F0D7FF002839D1029B029DF85C3D44FFF7BAFF002833D02B4618781F46302803F1E5
:404740000103F9D0FFF7AFFFD0F1010438BF00242E464FF0010B01E000242646B9464D46287809F10109FFF79EFF0028F7D128460499029A00F0ACFF58B95EB9029E2E4482
:40478000B1464D46287809F10109FFF78CFF0028F7D136B1761BB60003E03D4600E0064601242B78502B01D0702B34D16B782B2B05D02D2B05D005F10109002104E0002185
:4047C00000E0012105F1020999F800000191FFF76AFF431EDBB2182B01991CD8A0F1100A09F10103994699F80000013301910093FFF759FF421ED2B2182A0199009B05D87D
:404800000A2202FB0A0AAAF1100AEBE709B1CAF1000A564400E0A9460599C1F800902CB1BBF1000F0CBF062000207DE1EB1B013B2146072B02DD01315B10FAE7039800F01B
:4048400046FA4FF0000900F1140A04465346CB46BD4233D96A1E0592079915F8012C8A4209D0BBF1200F17D1C3F800904FF000090433CB4610E0029A0599C2F1010C8C44AC
:40488000BC45EED3604604998DE8081000F020FF9DE8081080B1E4E715F8010C0093FFF702FF00F00F0000FA0BF0DDF814C0009B49EA00090BF1040B6546C9E743F8049B66
:4048C000CAEB03039B10236148465F0100F0C7FAD8F80050381AA84226DD471B3946204600F0CFFDC8B17B1E03F01F014FF0010909FA01F15A115AF8222011420ED04B45AA
:4049000002DC4FF0020909E02046B91E00F0B9FD0028F6D04FF0030900E0814620463946FFF78CFE3E440CE009DA2F1A214603983A4600F0D1FBF61B044600F1140A4FF0BD
:404940000009D8F808309E4208DD0398214600F0F3F9129A00231360A320E5E0D8F804309E4254DA9E1BAE422EDBD8F80C30022B1AD0032B1CD0012B1DD1AE421BD1012D94
:404980000BDCD8F80430069962200B6001232361CAF80030129B1C60C6E02046691E00F070FD0028EDD106E0139B002BE9D002E0139B002BE5D10398214600F0BDF91299AB
:4049C00000230B605020AFE0771EB9F1000F07D1002F07DD2046394600F053FD814601E04FF001097B11012207F01F0702FA07F75AF8233031461F42204618BF49F0020917
:404A0000AD1BFFF71BFE0227D8F8046000E00127B9F1000F00F08380D8F80C30022B0ED0032B10D0012B78D119F0020F75D0DAF8003049EA030919F0010F07D16DE0139B68
:404A4000C3F101031393139B002B66D0D4F8109004F114034FEA890A03EB0A01184653F8042BB2F1FF3F02D00132026021E000228B4243F8042CF1D3A368994512DB6168AE
:404A80000398013100F023F9226904F10C010232834692000C30FEF78BFB2146039800F04BF95C4623695A1C226104EB830301225A61022F04F1140311D1D8F80020013A50
:404AC000954227D16A11012105F01F0501FA05F553F822301D420CBF02270F461AE022694A450ADD20460121FFF7A8FDD8F8083001369E423FF729AF0BE015F01F0508D0C0
:404B0000534453F8040C00F0AAF9C5F12005A842E8DB012747F0200701E047F01007129B38461C60069B1E6009B0BDE8F08FC2F10802920070B5C2F12004056850F8043FCD
:404B400003FA04F6D3403543884240F8045C0360F3D370BD2DE9F04F0B6885B05E11039013F01F0302EB86060293039B18BF0436A6F104081546D3F80090002246F8042C31
:404B8000474644469246934699F8011000293AD008468DE80600FFF786FD9DE80600D8B9202912D8DA452BDABC4205D2072A03DC20463946FFF7BBFFAC4220D9271F0022DA
:404BC00044F8042CDA463C461AE029294CD1039B09F10201196016E00132082A0BF1010B06DDAC420CD9002244F8042C043C0122216800F00F0040EA0111216000E00822D1
:404C000009F10109C0E7BBF1000F2DD0BC4205D2072A03DC20463946FFF789FFAC420CD92B4654F8042B444543F8042BF9D9002243F8042B4345FAD90DE0029B5BB1C3F114
:404C400020094FF0FF3323FA09F956F8043C03EA090346F8043C56F8043C043E33B9B542F9D101232B6001E0042000E0052005B0BDE8F08F004870479081FF1F10B5C9B2F9
:404C800002449042034605D01C7801308C42F8D1184610BD002010BD814270B501D300230EE08C18A042FAD28518134613F1FF3305D351426618F65C2944CE54F6E770BD2B
:404CC000934203D0CC5CC4540133F9E770BD70B5456A04460E463DB9102000F00FFD6062456085600560C560656AEB6843B1636ADA6852F8260078B1016842F8261017E093
:404D000020460421212200F0E0FB636AE860DB68002BECD1002070BD012101FA06F56A1D2046920000F0D1FB0028F3D04660856000220261C26070BD70B5446A06460D463E
:404D40003CB9102000F0DAFC7062446084600460C4603DB1736A6A68DB6853F82210296043F8225070BD2DE9F0410C461E460D69074614310023086801331FFA80FC000C39
:404D800002FB0C6C504300EB1C401FFA8CFC060CAB420CEB004041F8040BECDBD6B1A3689D4212DB616838460131FFF790FF226904F10C010232804692000C30FEF7F8F927
:404DC00021463846FFF7B8FF444604EB850301355E6125612046BDE8F0812DE9F8431446984603F1080209230D4692FBF3F20646012300219A4202DD5B000131FAE7304681
:404E0000FFF765FF089B092C43614FF001030146036111DD05F109094F46254417F8013B30460A22303BFFF79EFFAF420146F5D109EB0407083F02E005F10A07092425460A
:404E4000454509DA3B1B5B5D30460A22303BFFF78AFF01350146F3E70846BDE8F883030C1B0413B90004102300E0002310F07F4F04BF0002083310F0704F04BF00010433AA
:404E800010F0404F04BF80000233002803DB420003D5581C70471846704720207047036813F007020BD0D90722D49A0703D55B080360012070479B0803600220704799B22B
:404EC00009B91B0C102213F0FF0F04BF1B0A0832190704BF1B090432990704BF9B080232D90702D45B0805D00132036010467047002070472020704710B50C460121FFF75F
:404F0000E6FE01224461026110BD2DE9F04F164633690A6985B09A420D4601DA35460E46D5F810803769AB68696808EB07049C42C8BF0131FFF7CBFE00F1140303EB840117
:404F400001911A46DDF804A0524503D2002142F8041BF7E705F1140106F1140201EB880802EB8707CDF808800397039E1546B24256D2B5F800C00432BCF1000F25D00F464B
:404F80001D46002657F8049BD5F800801FFA89FB1FFA88FA0CFB0BAA4FEA19494FEA18480CFB0988B24408EB1A481FFA8AFA4AEA084A4FEA1846DDF80880AB46B8454BF8DA
:404FC00004AB01D95D46DDE76E6032F8028CB8F1000F23D01E680F461D464FF00009B7F800A0B5F802C0B6B208FB0ACCE14446EA0946AC464CF8046B57F8046BB5F804A0B3
:40500000360C08FB06A6DDF808A006EB194657454FEA164901D26546E1E76E600433A4E7019B002C03DC046105B0BDE8F08F53F8042D002AF7D1013CF3E7000012F0030336
:405040002DE9F04105460E46174607D0214A013B52F823200023FFF786FE0646BF1035D06C6A3CB9102000F049FB6862446084600460C460D5F82480D8F808407CB92846F0
:4050800040F27121FFF738FF0023C8F808000446036004E07F1019D0206870B10446FB07F8D5314622462846FFF72FFF314680462846FFF741FE4646ECE72846214622465C
:4050C000FFF723FF002320600360E7E73046BDE8F08100BF686800002DE9F0470C4623694FEA621A0AEB03094968A3688046154609F101079F4202DD01315B00FAE7404635
:40510000FFF7E5FD0023064600F11402534504DA002142F823100133F8E720692AEAEA7104F1140315F01F0C02EB810103EB800E16D0CCF1200A002518680A4600FA0CF033
:40514000054342F8045B53F8045B734525FA0AF501D21146F0E74D6045B109F1020705E053F8042B734541F8042BF9D3013F404637612146FFF7E0FD3046BDE8F087026947
:405180000B6910B5D21A13D19C00143001F114020319224453F8044D52F8041D8C4203D008D24FF0FF3010BD9842F3D3002010BD104610BD012010BD2DE9F04706460C4636
:4051C000084611461546FFF7DAFF071E08D130463946FFF77CFD012303614761BDE8F08701DB002703E0234601272C461D4661683046FFF76CFD22692B69143405F11406D1
:4052000006EB830AC76004EB820C00F11403002154F8047B56F8049B1FFA87F81FFA89F541444FEA1949C5EB0108C9EB174707EB28471FFA88F83914B24548EA0747254628
:4052400043F8047BE4D865450DD255F8044BA6B20E44240C04EB2644B6B2211446EA044443F8044BEFE753F8041D09B9013AFAE70261BDE8F08700000F4B0B40A3F1507326
:40528000002B01DD194609E05B421B15132B4FF0000105DC4FF4002242FA03F100207047322B4FF00102DABFC3F1330302FA03F313461846704700BF0000F07F2DE9F0410E
:4052C000066900F1140707EB860656F8044C88462046FFF7C4FDC0F120030A28A6F10405C8F8003014DCBD42C0F10B0188BF56F8085C24FA01FC98BF0025153025FA01F104
:4053000084404CF07F5343F4401341EA040224E0BD4286BFA6F1080556F8081C0021B0F10B0615D0B440C0F12B0021FA00FC44F07F5444F44014BD4244EA0C038CBF55F87C
:40534000044C002424FA00F0B14040EA010204E044F07F5343F440130A4610461946BDE8F0812DE9F74301211D46DDF82890DDF82C801446FFF7ABFCC5F30A570646C5F307
:4053800013030FB143F480130193D4B102A840F8084D6846FFF783FD009B48B1019AC0F1200102FA01F1C2400B437361019200E07361019B002B0CBF01240224B3613461F9
:4053C00007E001A8FFF76BFD019B01247361346120303FB1A7F233470744C9F80070C0F135000AE0A0F2324006EB8403C9F800001869FFF734FDC0EB4410C8F800003046DC
:4054000003B0BDE8F0832DE9F3410E4669468046FFF754FF0D46044601A93046FFF74EFF009F0B46019902467F1AD8F810003169411A07EB41110029CCBF05EB0155A3EB39
:4054400001532046294600F04DFC02B0BDE8F08110B5013902F1140349111269013100EB810103EB8202934204D253F8044B40F8044BF8E7884203D2002340F8043BF9E74F
:4054800010BD00F1140200694B11834210B50CDC0CDA11F01F0109D052F8230020FA01F404FA01F181420ED100E0034602EB83039342194605D951F8041C043B0029F7D0AD
:4054C00001E0002010BD012010BD38B502FB01F4214600F04DF8054618B100212246FDF770FE284638BD000030B500293CD051F8042C0B1F1D49002AB8BF9B180A680C46D8
:4055000012B95A600B6030BD93420DD219685818904203D15A581144426819605A60236030BD994203D80A4651680029F9D1146815199D420AD11B682344D01888421360CA
:4055400012D10868034413604B680CE002D90C23036030BD18681C188C4203D10C684968204418605960536030BD00BF7C8AFF1F70B5CD1C25F0030508350C2D38BF0C25C9
:40558000002D06463FDB8D423DD3214B1C6818462146A1B10B685B1B0ED40B2B03D90B60CC18CD501FE08C4202D1626802601AE04B6863600C4616E00C464968E9E7154C71
:4055C00023681BB9304600F06FF820602946304600F06AF8431C014615D0C41C24F0030484420AD1256004F10B00231D20F00700C31A0BD05A42E25070BD3046611A00F031
:4056000053F80130EED10C233360002070BD00BF7C8AFF1F788AFF1FF8B5064614460D4621B91146BDE8F840FFF7A2BF1AB9FFF75BFF2046F8BD00F069F8A0420ED230464B
:405640002146FFF795FF074650B129462246FDF7AFFD30462946FFF747FF01E02846F8BD3846F8BD31F0004310B500D178B10C4AA3F5801494420CD9B3F5801F0BD3094A44
:4056800093420AD1D0F1010038BF002010BD022010BD042010BD032010BD002010BD00BFFFFFDF7F0000F07F38B5064C0023054608462360FBF704FB431C02D1236803B16D
:4056C0002B6038BD288BFF1F004870470000C07F70B58AB10B4605461C7810F8016B0131B44201D1012A03D128781B78C01A70BD013A002CEED1F7E7104670BD024B0146C9
:405700001868FFF735BF00BF8881FF1F51F8040C002802DA04390B58184404387047000081F0004102E000BF83F0004330B54FEA41044FEA430594EA050F08BF90EA020FFC
:405740001FBF54EA000C55EA020C7FEA645C7FEA655C00F0E2804FEA5454D4EB5555B8BF6D420CDD2C4480EA020281EA030382EA000083EA010180EA020281EA0303362D4A
:4057800088BF30BD11F0004F4FEA01314FF4801C4CEA113102D0404261EB410113F0004F4FEA03334CEA133302D0524263EB430394EA050F00F0A780A4F10104D5F1200E53
:4057C0000DDB02FA0EFC22FA05F2801841F1000103FA0EF2801843FA05F359410EE0A5F120050EF1200E012A03FA0EFC28BF4CF0020C43FA05F3C01851EBE37101F000456D
:4058000007D54FF0000EDCF1000C7EEB00006EEB0101B1F5801F1BD3B1F5001F0CD349085FEA30004FEA3C0C04F101044FEA445212F5800F80F09A80BCF1004F08BF5FEA8B
:40584000500C50F1000041EB045141EA050130BD5FEA4C0C404141EB010111F4801FA4F10104E9D191F0000F04BF01460020B1FA81F308BF2033A3F10B03B3F120020CDA63
:405880000C3208DD02F1140CC2F10C0201FA0CF021FA02F10CE002F11402D8BFC2F1200C01FA02F120FA0CFCDCBF41EA0C019040E41AA2BF01EB0451294330BD6FEA040474
:4058C0001F3C1CDA0C340EDC04F11404C4F1200220FA04F001FA02F340EA030021FA04F345EA030130BDC4F10C04C4F1200220FA02F001FA04F340EA0300294630BD21FAAE
:4059000004F0294630BD94F0000F83F4801306BF81F480110134013D4EE77FEA645C18BF7FEA655C29D094EA050F08BF90EA020F05D054EA000C04BF1946104630BD91EA01
:40594000030F1EBF0021002030BD5FEA545C05D14000494128BF41F0004130BD14F580043CBF01F5801130BD01F0004545F0FE4141F470014FF0000030BD7FEA645C1ABFB1
:40598000194610467FEA655C1CBF0B46024650EA013406BF52EA033591EA030F41F4002130BD00BF90F0000F04BF0021704730B54FF4806404F132044FF000054FF0000178
:4059C00050E700BF90F0000F04BF0021704730B54FF4806404F1320410F0004548BF40424FF000013EE700BF42004FEAE2014FEA31014FEA02701FBF12F07F4393F07F4FF7
:405A000081F06051704792F0000F14BF93F07F4F704730B54FF4607401F0004521F0004120E700BF50EA010208BF704730B54FF000050AE050EA010208BF704730B511F068
:405A4000004502D5404261EB41014FF4806404F132045FEA915C3FF4DCAE4FF003025FEADC0C18BF03325FEADC0C18BF033202EBDC02C2F1200300FA03FC20FA02F001FA56
:405A800003FE40EA0E0021FA02F11444C1E600BF70B54FF0FF0C4CF4E06C1CEA11541DBF1CEA135594EA0C0F95EA0C0F00F0DEF82C4481EA030621EA4C5123EA4C5350EAC6
:405AC000013518BF52EA033541F4801143F4801338D0A0FB02CE4FF00005E1FB02E506F00042E0FB03E54FF00006E1FB03569CF0000F18BF4EF0010EA4F1FF04B6F5007F25
:405B000064F5407404D25FEA4E0E6D4146EB060642EAC62141EA55514FEAC52040EA5E504FEACE2EB4F1FD0C88BFBCF5E06F1ED8BEF1004F08BF5FEA500E50F1000041EB1F
:405B4000045170BD06F0004646EA010140EA020081EA0301B4EB5C04C2BFD4EB0C0541EA045170BD41F480114FF0000E013C00F3AB8014F1360FDEBF002001F0004170BDC9
:405B8000C4F10004203C35DA0C341BDC04F11404C4F1200500FA05F320FA04F001FA05F240EA020001F0004221F0004110EBD37021FA04F642EB06015EEA430E08BF20EA0F
:405BC000D37070BDC4F10C04C4F1200500FA04F320FA05F001FA04F240EA020001F0004110EBD37041F100015EEA430E08BF20EAD37070BDC4F1200500FA05F24EEA020EE9
:405C000020FA04F301FA05F243EA020321FA04F001F0004121FA04F220EA020000EBD3705EEA430E08BF20EAD37070BD94F0000F0FD101F00046400041EB010111F4801F0D
:405C400008BF013CF7D041EA060195F0000F18BF704703F00046520043EB030313F4801F08BF013DF7D043EA0603704794EA0C0F0CEA135518BF95EA0C0F0CD050EA410622
:405C800018BF52EA4306D1D181EA030101F000414FF0000070BD50EA410606BF1046194652EA430619D094EA0C0F02D150EA013613D195EA0C0F05D152EA03361CBF104699
:405CC00019460AD181EA030101F0004141F0FE4141F470014FF0000070BD41F0FE4141F4780170BD70B54FF0FF0C4CF4E06C1CEA11541DBF1CEA135594EA0C0F95EA0C0F19
:405D000000F0A7F8A4EB050481EA030E52EA03354FEA013100F088804FEA03334FF0805545EA131343EA12634FEA022245EA111545EA10654FEA00260EF000419D4208BFD5
:405D4000964244F1FD0404F5407402D25B084FEA3202B61A65EB03055B084FEA32024FF480104FF4002CB6EB020E75EB030E22BFB61A754640EA0C005B084FEA3202B6EB55
:405D8000020E75EB030E22BFB61A754640EA5C005B084FEA3202B6EB020E75EB030E22BFB61A754640EA9C005B084FEA3202B6EB020E75EB030E22BFB61A754640EADC00E8
:405DC00055EA060E18D04FEA051545EA16754FEA06164FEAC30343EA52734FEAC2025FEA1C1CC0D111F4801F0BD141EA00014FF000004FF0004CB6E711F4801F04BF014348
:405E00000020B4F1FD0C88BFBCF5E06F3FF6AFAEB5EB030C04BFB6EB020C5FEA500C50F1000041EB045170BD0EF0004E4EEA113114EB5C04C2BFD4EB0C0541EA045170BDE3
:405E400041F480114FF0000E013C90E645EA060E8DE60CEA135594EA0C0F08BF95EA0C0F3FF43BAF94EA0C0F0AD150EA01347FF434AF95EA0C0F7FF425AF104619462CE74F
:405E800095EA0C0F06D152EA03353FF4FDAE1046194622E750EA410618BF52EA43067FF4C5AE50EA41047FF40DAF52EA43057FF4EBAE12E74FF0FF3C06E000BF4FF0010CFC
:405EC00002E000BF4FF0010C4DF804CD4FEA410C7FEA6C5C4FEA430C18BF7FEA6C5C1BD001B050EA410C0CBF52EA430C91EA030F02BF90EA020F0020704710F1000F91EAA4
:405F0000030F58BF994208BF90422CBFD8176FEAE37040F0010070474FEA410C7FEA6C5C02D150EA013C07D14FEA430C7FEA6C5CD6D152EA033CD3D05DF8040B704700BF25
:405F40008446104662468C461946634600E000BF01B5FFF7B7FF002848BF10F1000F01BD4DF808EDFFF7F4FF0CBF012000205DF808FB00BF4DF808EDFFF7EAFF34BF01200E
:405F800000205DF808FB00BF4DF808EDFFF7E0FF94BF012000205DF808FB00BF4DF808EDFFF7CEFF94BF012000205DF808FB00BF4DF808EDFFF7C4FF34BF012000205DF8CC
:405FC00008FB00BF4FEA410212F5001215D211D56FF47873B3EB625212D94FEAC12343F0004343EA505311F0004F23FA02F018BF404270474FF00000704750EA013005D1E9
:4060000011F0004008BF6FF0004070474FF00000704700BF4A0011D212F5001211D20DD56FF47873B3EB62520ED44FEAC12343F0004343EA505323FA02F070474FF0000058
:40604000704750EA013002D14FF0FF3070474FF0000070474FEA4102B2F1E04324BFB3F5001CDCF1FE5C0DD901F0004C4FEAC0024CEA5070B2F1004F40EB830008BF20F075
:406080000100704711F0804F21D113F13872BCBF01F00040704741F480114FEA5252C2F11802C2F1200C10FA0CF320FA02F018BF40F001004FEAC1234FEAD32303FA0CFC98
:4060C00040EA0C0023FA02F34FEA4303CCE77FEA625307D150EA01331EBF4FF0FE4040F44000704701F0004040F0FE4040F40000704700BF000000004446570033766F7586
:406100007778527046394A5166564E77484D4D7669303856344A6246627266644436467555635865416D694F5534684F0000000025732573257325642573257325732564DE
:406140000000000064657074685F736F6E6963002C6E6F64655F69643D0000002C736974653D00002076616C75653D006C6F636B2C746D70000000006C6F636B00000000ED
:406180002573206E6F7420666F756E6420696E207061636B65743A200A2573005A2C0000275A2C27206E6F7420666F756E6420696E207061636B65743A200A25730000007D
:4061C000270D27206E6F7420666F756E6420696E207061636B65743A200A2573000000006570632E746D6F62696C652E636F6D0041540D004F4B00004154235347414354E7
:406200003D312C310D00000041542353474143543D312C300D00000041542B434744434F4E543D312C224950222C222573220D00415423424E443D25640D000041542B43D5
:40624000434C4B3F0D00000041542B435245473F0D0000002C31000041542B4353510D0041542B4347534E0D00000000415426560D0000004154264B25750D0041542B43F4
:406280004D45453D25750D0041542B43474D520D0000000041542343444D4144433D25750D00000041542343444D4144433F0D004154235553455249443D222573220D00AB
:4062C00041542350415353573D222573220D0000415423534B54443D302C38302C227777772E676F6F676C652E636F6D220D0A00434F4E4E45435400474554202F676574C6
:406300005F7374617475732F20485454502F312E300D0A00000000000D0A000041542353443D312C302C383038362C226563322D35342D3134382D3232392D3233342E75E9
:40634000732D776573742D322E636F6D707574652E616D617A6F6E6177732E636F6D222C302C302C310D00004154235353454E443D310D003E000000504F5354202F777214
:406380006974653F64623D63656C6C426F6172645F7465737420485454502F312E300D0A0000000025732573257325642573257325730000486F73743A206563322D3534DC
:4063C0002D3134382D3232392D3233342E75732D776573742D322E636F6D707574652E616D617A6F6E6177732E636F6D3A383038360D0A00436F6E74656E742D4C656E6792
:4064000074683A20000000000D0A0D0A000000000D0A1A005352494E473A20310000000041542353524543563D312C313030300D00000000323030204F4B000041542353BF
:40644000443D312C302C38302C226170692E786976656C792E636F6D222C302C302C310D0A000000474554202F76322F66656564732F256C752E6373763F646174617374EC
:406480007265616D733D257320485454502F312E300D0A00582D4170694B65793A2025730D0A0000257325732573257325730000486F73743A206170692E786976656C79F0
:4064C0002E636F6D0D0A00004163636570743A20746578742F6373760D0A00000D0A1A0D000000006C6F636B000000007B226D6574686F64223A22707574222C2272657381
:406500006F75726365223A222F66656564732F256C75222C2268656164657273223A7B22582D4170694B6579223A222573227D2C22626F6479223A7B2276657273696F6E97
:40654000223A22312E302E30222C226461746173747265616D73223A5B7B2022696422203A20226C6F636B222C202263757272656E745F76616C756522203A202225752276
:406580007D5D7D7D0000000040510040300000000140800400050140000B00140140000800400140000A004C014000020050014020000000185200409404004807008004B3
:4065C00001409C04004880000C061803303E4A0002010300040506004300000000000000BC89D897B2D29C3C33A7A8D523F649393DA7F444FD0FA5329D978CCF08BA5B25E3
:40660000436FAC642806681135000000CEFBFFFFCB03000001000000000000006E6600696E69747900616E0034000000CEFBFFFFCB0300000100000000000000232D302BE1
:406640002000686C4C0065666745464700303132333435363738394142434445460030313233343536373839616263646566000020202020202020202028282828282020AA
:40668000202020202020202020202020202020208810101010101010101010101010101004040404040404040404101010101010104141414141410101010101010101013B
:4066C000010101010101010101010110101010101042424242424202020202020202020202020202020202020202021010101020000000000000000000000000000000001B
:406700000000000000000000000000000000000000000000000000000000000000000000000000000000000000000000000000000000000000000000000000000000000059
:40674000000000000000000000000000000000000000000000000000000000000000000000000000000000000000000000000000504F534958002E00000000000000F03F29
:40678000000000000000244000000000000059400000000000408F40000000000088C34000000000006AF8400000000080842E4100000000D01263410000000084D7974174
:4067C0000000000065CDCD41000000205FA00242000000E876483742000000A2941A6D42000040E59C30A2420000901EC4BCD64200003426F56B0C430080E03779C341435D
:4068000000A0D8855734764300C84E676DC1AB43003D9160E458E143408CB5781DAF154450EFE2D6E41A4B4492D54D06CFF08044F64AE1C7022DB544B49DD9794378EA4475
:406840000080E03779C34143176E05B5B5B89346F5F93FE9034F384D321D30F94877825A3CBF737FDD4F157505000000190000007D000000F8B500BFF8BC08BC9E4670477F
:406880004D000000AD0D0000F8B500BFF8BC08BC9E46704729000000A86800000881FF1FC00000006809000000000000F8600000FC600000308BFF1F00366E01C05D0000F2
:4068C000180000000000E02E0000000000000000000000000000000000000000000000000000000000000000D8650000000000000000000000000000000000000000000035
:40690000000000000000000000000000000000000000000000000000000000000000000000000000000000002881FF1F6F66000076670000416600004166000041660000E9
:40694000416600004166000041660000416600004166000041660000FFFFFFFFFFFFFFFFFFFFFFFFFFFF00000000000000000000000000000000000000000000000000003B
:4069800000000000000000000000000000000000000000000000000000000000000000000000000000000000000000000000000000000000000000000000000000000000D7
:4069C0000000000000000000000000000000000000000000000000000000000000000000000000000000000000000000000000000000000000000000000000000000000097
:406A00000000000000000000000000000000000000000000000000000000000000000000000000000000000000000000000000000000000000000000000000000000000056
:406A40000000000000000000000000000000000000000000000000000000000000000000000000000000000000000000000000000000000000000000000000000000000016
:020000040003F7
:0200000480007A
:4000000001520040026400400365004014040140320501405B060140430701403D1401403C15014057160140401701400440014002410140044201400643014006480140CE
:400040000F49014004500140015101406408840F8672847285388638000208010C0117011B011D0128012B012D013202360137013E043F405401580459045B045C015F01DC
:400080000102030504210504060407020D080E261204172419081A031C111D041E082240240825042601276229102B012E263008314032103610374A3C113D093F40441070
:4000C0004722480849204C044E014F48570259295A80C0FBC2E0C462CAECCCFECEF0D0E0D230D60F020D08080C0D160D18041A021E0C200C280D2B012F0130023201330188
:40010000340C38083F0440024615480C49FF4A074BFF4C404D204EF04F05500856025712580459045A045B045C015D105F01604061A8624063208020863E89148C038E1CDC
:400140008F1093039429984099099B509C039D6C9E349F11A803A93CAA04AB02AD70AF0CB00FB11FB240B440B560B638B920BA82BE10BF10C042C105C5E0C6B0C70CC81A79
:40018000C9FFCAFFCBFFCEF0CF44D00CD804D904DA04DF01E6C0EA40EB0200400108024004100742084809100D080E05100815011720184419481A201B011E801F282122EA
:4001C0002608280829102B012F0A30403142321039203A404044452049634A0850085110551056405E086C106F0576367708901091019205942096209B629C109D539E2263
:400200009F0DA204A306A408A508A701AE04C0DDC2E7C452CA3CCC0DCE0CD025D208D640000101FF0240041C0518062308020BE60C030D1011C01223141F15081620193968
:400240001BC41C331DE71E0C1F18200823012404251927E2280C29802C3F2D413040322C33383410351F360F37C03A883B203E1056025711580459045B045F0180028602C0
:400280008A0192019602A002B002B201B802BE04D418D604D804DB04DF0100A60120030104260780088009020A110E901080120213A81480191A1A111B801E801F0420040B
:4002C00022242301296A310832203381388A39204508470859105F0165806602670869406B1470C47328820284018552902091209540960899809C809D409F14A050A20282
:40030000AA40C07FC23DC41FCA0FCC0FCE0FD684D8B000190222070108080C3F12011439160418011E262418270128272A182C10321F343837013A083B023F4054185604DE
:40034000580459045B045C015D105F01800881028315840885448602872A8C028D808E04901095E7960E99E79A01A002A20CA601AD21AF4AB010B107B360B40EB580B6010B
:40038000B718BA20BE41BF40C042C105C203C401C50CC6E0C809C9FFCAFFCBFFCC62CDA0CEF0CF41D00CD804D904DA04DB04DF01E640E702E910EA30EB10ED10EE10EF12ED
:4003C0000044024006040742082009020A280D080E851040122016121720180419901A801D081F1020A121152602270129402C102F103314394A3F0840A141104680470107
:400400004A2250105D02652066806740698081428320874090409225984099209A569B629C109D10A102A240A324A508C0DDC2FEC4ECCA48CC06CE4BD00FD208D680D8B071
:40044000311032083640CC709D10A64807809D10A648C02026089D10A648AF80C880E840820486409D10A640E280E6400F0262207604811087019A049D10A220AA20C280A4
:40048000D840DC40E410E620EE8000030A0310031A03002F0040404080000000020305202443120C3702001008000043004F000008040000110C2243080F00400008000072
:4004C00037010010080C000000000000004C300F083007000000008A0000101025040300060C00E021FFFFFF62A0F0410C0000000000000004040400110100010000000092
:400500000000400200103010001010120000000000000000000000000000000000FBEB000000000008F6F6000000000003000033330000000000000000C0C0000000000034
:4005400000FFFF00000000004000807F7F0040400000000000000000000000000000000000000000000000000000000000000000000000000000000000000000000000003F
:40058000000000000000000000000000000000000000000000000000000000000000000000000000000000000000000000000000000000000000000000000000000000003B
:4005C00000000000000000000000000000000000000000000000000000000000000000000000000000000000000000000000000000000000000000000000000000000000FB
:4006000000000000000000000000000000000000000000000000000000000000000000000000000000000000000000000000000000000000000000000000000000000000BA
:40064000000000000000000000000000000000000000000000000000000000000000000000000000000000000000000000000000000000000000000000000000000000007A
:0200000490006A
:0400000000004005B7
:0200000490105A
:04000000BC90ACAF55
:0200000490303A
:020000007E5D23
:0200000490402A
:4000000000000000000000000000000000000000000000000000000000000000000000000000000000000000000000000000000000000000000000000000000000000000C0
:400040000000000000000000000000000000000000000000000000000000000000000000000000000000000000000000000000000000000000000000000000000000000080
:400080000000000000000000000000000000000000000000000000000000000000000000000000000000000000000000000000000000000000000000000000000000000040
:4000C0000000000000000000000000000000000000000000000000000000000000000000000000000000000000000000000000000000000000000000000000000000000000
