:4000000000800020B1020000A9020000A902000080B51448144B21E05C689968DD688C420CD0002205E0A6180832D6E9008941E902898C460831AA42F5D101E004EB050CD8
:400040001C696146002204E008320026002741E902670831A242F7D1143301380028DBD100F0B0FD01000000A40C000048F22013C1F6FF731A780AB901201870704700BFA3
:4000800048F20810C1F6FF7008B503682BB140F20003C0F2000303B1984708BD80B582B000AF62B600F022F800F03CF84FF00003FB714FF00003FB710CE007F1060318467F
:4000C00000F058F841F2883000F07EF9FB7903F10103FB71FB79172BEFD900F039F800F019F807F10807BD4680BD00BF80B500AF40F28520C0F2000000F0CAF948F2231360
:40010000C1F6FF734FF000021A704FF00103184680BD00BF80B400AF4FF001031846BD4680BC704780B500AF4FF0000000F02CF94FF47A7000F048F948F22313C1F6FF7385
:400140004FF001021A704FF00103184680BD00BF80B500AF4FF0010000F016F948F22313C1F6FF734FF000021A704FF00103184680BD00BF80B586B000AF786048F2211392
:40018000C1F6FF731B78172B02D94FF0000374E04FF00003FB604FF064033B6148F22313C1F6FF734FF003021A704FF0010000F02FF94FF00003FB6013E04FF0000000F073
:4001C00027F94FF0640000F0FFF84FF0010000F01FF94FF0640000F0F7F8FB6803F10103FB60FB68132BE8D94DF2C043C0F201033A69B3FBF2F37B614FF00003FB600BE0E1
:40020000386900F0E1F800F025F90346002B08D1FB6803F10103FB60FA687B699A42EFD300E000BF00F016F90346002B1DD04AF68013C0F203033A69B3FBF2F37B614FF084
:400240000003FB600BE0386900F0BEF800F002F90346002B08D0FB6803F10103FB60FA687B699A42EFD300E000BF00F005F903461A467B681A704FF00103184607F11807C2
:40028000BD4680BD80B400AF48F22213C1F6FF731B7803F10103DAB248F22213C1F6FF731A70BD4680BC704780B400AFFEE700BF054B1C7844F001041C70044B1A78D2B2BF
:4002C000034B1A70FFF7A4FEE8460040FA460040BC76004080B582B000AF4EF60C53CEF2000340F20042C0F2FA521A604EF61453CEF200034EF61452CEF20002126842F43C
:4003000000721A604FF000037B6019E079687B68032B07D87A6840F20003C0F2000353F8223003E040F2A923C0F2000348F20002C1F6FF7242F821307B6803F101037B6046
:400340007B682F2BE2D947F2BC63C4F200031B78DAB248F22413C1F6FF731A704EF60853CEF2000348F20002C1F6FF721A6000F01BFA48F20013C1F6FF734FF000021A60BB
:4003800007F10807BD4680BD80B485B000AF0346FB7145F24013C4F200031B78DBB203F07F03FB7345F24013C4F20003FA794FEAC212D1B2FA7B41EA0202D2B21A7007F1F3
:4003C0001407BD4680BC704780B582B000AF78600BE048F21813C1F6FF731B68184600F0AFFA7B68A3F500437B607B68B3F5004FEFD848F21013C1F6FF731B687A6802FBE9
:4004000003F3184600F09CFA07F10807BD4680BD80B485B000AF0346FB7145F24013C4F200031B78DBB223F04003FB7345F24013C4F20003FA794FEA8212D2B202F040026C
:40044000F97B42EA0102D2B21A7007F11407BD4680BC704780B400AF45F24113C4F200031B78DBB203F010034FEA1313DBB21846BD4680BC704700BF80B400AF46F26043B8
:40048000C4F200031B78DBB21846BD4680BC704780B582B000AF786000F042F8786800F00BF84FF0070000F01BF800F02DF807F10807BD4680BD00BF80B485B000AF7860D0
:4004C0004EF60853CEF200031B68FB60FB6803F140037A681A6007F11407BD4680BC704780B483B000AF0346FB714EF20043CEF20003FA794FEA4212D2B21A7007F10C0793
:40050000BD4680BC704700BF80B400AF4EF20013CEF200034FF001021A60BD4680BC704780B400AF4EF28013CEF200034FF001021A60BD4680BC704780B582B000AF786042
:40054000396078684FF000013A6800F0D1FA07F10807BD4680BD00BF80B584B000AFF860B9607A60F868B9687A6800F0F9F907F11007BD4680BD00BF80B487B000AF7860B7
:4005800039604FF00003FB604FF00003BB602CE0BB684FEA83027B6813441B683B613B69FB753B6923F0FF033B6117E0FB684FEA43023B6813441B781A463B691344FA68D7
:4005C0004FEA42013A680A4452781A70FB6803F10103FB60FB7D03F1FF33FB75FB7D002BE4D1BB6803F10103BB60BB680C2BCFD907F11C07BD4680BC704700BF80B582B0B0
:4006000000AF44F28003C4F200034FF018021A8044F28203C4F200034FF01B021A7044F28403C4F200034FF018021A8044F28603C4F200034FF01B021A7044F20033C4F266
:4006400000034FF002021A7044F20003C4F200034FF008021A7044F20023C4F200034FF003021A7044F2A163C4F2000340F20812C4F600121278D2B21A7044F22223C4F231
:4006800000034FF008021A8044F22023C4F2000341F251021A804FF00003FB714FF019033B6019E0FB794FEA4303DAB244F22523C4F200031B78DBB203F0010342EA030366
:4006C000DBB203F00303FB714FF4F07000F038F93B6803F1FF333B603B68002B02D0FB79032BDFD144F20403C4F200034FF480721A8044F20403C4F200034FF007021A7061
:4007000044F20603C4F200034FF000021A7044F20803C4F200034FF048021A7044F20403C4F200034FF000021A7044F20103C4F200034FF002021A7044F2A233C4F20003A4
:4007400044F2A232C4F200021278D2B242F00302D2B21A7007F10807BD4680BD80B483B000AF40F2CF13C4F600131B78FB7145F66E03C4F20003FA7902F007021A7045F68F
:400780006F03C4F20003FA794FEA1212D2B21A7045F67603C4F200034FF044021A7007F10C07BD4680BC704780B582B000AF72B644F2E863C4F2000344F2E862C4F2000203
:4007C0001278D2B242F00402D2B21A704FF00003FB702FE0FA7813464FEA430313444FEA43031A4640F64843C0F2000313447B607B681A7859784FEA012141EA02029978E0
:400800004FEA014141EA0202DB784FEA036343EA02031A467B6819795B794FEA032343EA01039BB210461946FFF786FEFB7803F10103FB70FB78082BCCD94FF0904040F2D3
:400840003401C4F60001FFF797FE45F20303C4F2010345F20302C4F201021278D2B242F00202D2B21A7045F21303C4F2010345F21302C4F201021278D2B242F00202D2B2EB
:400880001A7044F2A033C4F2000344F2A032C4F200021278D2B242F04002D2B21A7044F2C233C4F2000344F2C232C4F200021278D2B242F01002D2B21A7045F24010C4F239
:4008C000000040F26411C4F600014FF00A02FFF743FE44F22233C4F2000344F22232C4F200021278D2B242F00802D2B21A7044F60003C4F200034FF001021A70FFF77EFE02
:4009000044F60003C4F200036FF07E021A7040F20403C4F208034FF001021A70FFF71EFF44F2B030C4F2000044F2A031C4F200014FF00E02FFF710FE07F10807BD4680BD5B
:400940000230800803D000BF01380046FCD17047EFF3108072B6704780F31088704700BF032A2DE9F0070BD83AB1002311F803C000F803C001339342F8D1BDE8F00770477F
:4009800082180C46034603E014F8011C03F8011C03F003061946A44601330134002EF3D11CF00304634608BFC1EB020C68D06542C4F1040A0CEB050733464FEACA0A5CF882
:4009C00005604FEAC408551A08E057F8044F264604FA0AF449EA0404CC5004335C18032D26FA08F9A5F104050CEB0306EDDC002302E0F15CE154013319199142F9D3BCE742
:400A000053F8404C41F8404C53F83C4C41F83C4C53F8384C41F8384C53F8344C41F8344C53F8304C41F8304C53F82C4C41F82C4C53F8284C41F8284C53F8244C41F8244CB6
:400A400053F8204C41F8204C53F81C4C41F81C4C53F8184C41F8184C53F8144C41F8144C53F8104C41F8104C53F80C4C41F80C4C53F8084C41F8084C53F8044C41F8044C76
:400A80001C460D4640334031BCF13F0FACF1400CB6DC21462B46541B0FE051F8105C43F8105C51F80C5C43F80C5C51F8085C43F8085C51F8045C43F8045C0F2C0D469C4641
:400AC00001F1100103F11003A4F11004E5DCCCEB0201002303E0EC584CF8034004335E19032903EB0C04A1F10401F4DC7FE700BF032AC9B230B407D822B10023C1540133E9
:400B00009342FBD130BC704700EB020C034601E003F8011C03F003041A460133002CF7D14FF00133C2EB0C0403FB01F31FE042F8403C42F83C3C42F8383C42F8343C42F899
:400B4000303C42F82C3C42F8283C42F8243C42F8203C42F81C3C42F8183C42F8143C42F8103C42F80C3C42F8083C42F8043C154640323F2CA4F14004D9DC2A46C5EB0C04F9
:400B800007E042F8103C42F80C3C42F8083C42F8043C154610320F2CA4F11004F1DC2A46C5EB0C0501E042F8043C14460432032DA5F10405F7DC01E004F8011B6445FBD3D2
:400BC000A0E700BF08B500F017F8074800B10068064901B109680022FFF760FA044B0BB1AFF30080FEE700BF000000000000000000000000FEE7000070B540F68C4640F68E
:400C00008C45C0F20006C0F20005761BB61006D0002455F8243001349847A642F9D840F68C4540F69446C0F20005C0F20006761B00F026F8B61006D0002455F824300134FA
:400C40009847A642F9D870BD005100404000505100402000C05100401000F0510040100000000140001000140140000800400140000A004C01400002005001402000000072
:400C8000F8B500BFF8BC08BC9E46704781000000D5020000F8B500BFF8BC08BC9E4670476D00000000000000B80C00000881FF1F18000000080000000000000000366E0141
:400CC000C05D0000180000000000E02E00000000000000000000000000000000000000000000000000000000000000000000000000000000000000000000000000000000B1
:400D000000000000000000000000000000000000000000000000000000000000000000000000000000000000000000000000000000000000000000000000000000000000B3
:400D40000000000000000000000000000000000000000000000000000000000000000000000000000000000000000000000000000000000000000000000000000000000073
:400D80000000000000000000000000000000000000000000000000000000000000000000000000000000000000000000000000000000000000000000000000000000000033
:400DC00000000000000000000000000000000000000000000000000000000000000000000000000000000000000000000000000000000000000000000000000000000000F3
:020000040003F7
:0200000480007A
:400000000152004032000140270101400C0201401C03014001050140010701400217014006400140054101400448014002500140015101402414005502AA062507250E95C4
:400040000F02120915801602175519401A551B951F0921D52255232A26552A552E55300C3103320333C03430353036C0370C3AAA3BA2580459045B045F018205850B8A0AE6
:40008000940B95089B0A9C08A705B20CB30CB503B603D804D904DC01DF01018003A0051006800A900B040E211208134A180519801A901B201E211F80229923462524270888
:4000C0002B802F103120328837183B443D0858085A62600562026320C05DC2AEC40FCA41CC6ECE4AD60FD80F020105020A0214021B02270133033403580459045C885F210C
:40010000051006800E201D1027102F1037103D087F2093209A809D109F10A104A210AA40AB10AE81AF10B008B280B65AC050C220CA40CC20CE40DE40A720A7208720A7200B
:40014000030809083120C040C210CC10AD28AF08E840EA10EC402B808780CA40E410000308030003C00014D4C0000000000000000000000000000000000000000000000061
:40018000000000000000000000000000000000000000000000000000000000000000000000000000000000000000000000000000000000000000000000000000000000003F
:4001C00000000000000000000000000000000000000000000000000000000000000000000000000000000000000000000000000000000000000000000000000000000000FF
:4002000000000000000000000000000000000000000000000000000000000000000000000000000000000000000000000000000000000000000000000000000000000000BE
:40024000000000000000000000000000000000000000000000000000000000000000000000000000000000000000000000000000000000000000000000000000000000007E
:0200000490006A
:0400000000004005B7
:0200000490105A
:04000000BC90ACAF55
:0200000490303A
:02000000ABC192
:0200000490501A
:0C00000000012E12306900012E17DC2ACE
:0200000490402A
:4000000000000000000000000000000000000000000000000000000000000000000000000000000000000000000000000000000000000000000000000000000000000000C0
:400040000000000000000000000000000000000000000000000000000000000000000000000000000000000000000000000000000000000000000000000000000000000080
:400080000000000000000000000000000000000000000000000000000000000000000000000000000000000000000000000000000000000000000000000000000000000040
:4000C0000000000000000000000000000000000000000000000000000000000000000000000000000000000000000000000000000000000000000000000000000000000000
:00000001FF
