:400000000080002011000000910100009101000008B5044B1A6803F53F5302331A6000F0D1F800BFFA46004010B5054C237833B9044B13B10448AFF300800123237010BD8A
:400040008881FF1F00000000A4120000084B10B51BB108480849AFF300800848036803B910BD074B002BFBD0BDE81040184700BF00000000A41200008C81FF1F0881FF1FD5
:400080000000000008B500F04DFA40B1044B1B781D2B04D80349C8540133014A137008BDCE81FF1FB081FF1F30B587B0054608461A4900F043FB00242C7115E018496A465D
:4000C00000F008FB60B106AB03EB8403009A43F8142C0134E4B2052C02D101232B7105E000200E4900F02AFB0028E7D100232B6009E0296806AA02EB830252F8142C0A44BF
:400100002A600133DBB2042BF3D92B68054AA2FB03239B082B60284607B030BDA8120000AC120000CDCCCCCC10B50446002000F041FA4FF47A7000F077FA00F0CDF900222B
:400140000A4B1A700A4800F01DFA4FF47A7000F06BFA00F025FA00F0CDF9012000F02AFA20460449FFF7A0FF204610BDCE81FF1F85000000B081FF1F00B583B062B6684661
:40018000FFF7D2FF4FF47A7000F04EFAF7E700BFFEE700BF08B5094B1A681044084BC31A802B02DC054B186005E000F053FA0C2303604FF0FF32104608BD00BF0C81FF1FC1
:4001C000D881FF1F08B5104E104D16E029686B68AC68002204E051F8040B43F8040B0432A242F8D1E868002203E0002143F8041B04328242F9D11035013E002EE6D100F02A
:400200002FFAFFF7B9FFFEE701000000AC14000008B5124A124B1A60124A136843F40073136000230AE0032B03D80F4A52F8231000E00E490E4A42F8231001332F2BF2D91C
:400240000C4B1A780C4B1A70094A0C4B1A6000F0AFF800220A4B1A6008BD00BF0004FA050CED00E014ED00E000000000910100000080FF1FBC7600400481FF1F08ED00E0AD
:400280000081FF1FFEE700BFF0B40022174611E050F82760F3B226F0FF0608E001EB420511F812406D78A5550132013BDBB2002BF4D101370A2FEBD9F0BC7047064B1B789B
:4002C000DBB203F00701054A11701B09013213704422034B1A707047CF0100496E5800407658004008B50A46002100F0EAF908BD38B54FF49C72244B1A80182202331A70A4
:40030000022203F27E231A7008224FF040231A70032103F5007319701C4B1B78DBB21C490B701C4B1A8041F25122023B1A80002419250CE0184B1B7803F0010343EA440476
:4003400004F003044FF4F07000F05EF9013D0DB1032CEFD115B90320FFF794FF0F4B4FF480721A8007221A7000220D490A704820023108701A700222033B1A70094A1378FE
:4003800043F00103137038BD8040004008010049A146004022420040254200400440004006400040A243004008B500F07FF908BD70B572B62D4A137843F004031370002481
:4003C0000CE02B4963001A1952000A4423445B00C8589188FFF786FF0134E4B2092CF0D900240BE02249A3001A1952000A44D06B116C8022FFF7D8FF0134E4B2002CF1D059
:400400004FF090401B49FFF73FFF1B4A137843F0020313701032137843F002031370174C237843F040032370A2F58632513A137843F010031370124812490A22FFF7B4FF23
:40044000114A137843F008031370104E01253570FFF74EFF812333700D4B1D70FFF72EFF0C4821460E22FFF79FFF70BDE8460040B01200002C00004803500140A043004013
:4004800040510040E8010048224300400048004004000840B04300407222034B1A70202201331A70704700BF8164004010B500F0B3F80446074A137843F0200313700132F5
:4004C000137843F01003137000F080F8204600F0A7F810BD9164004008B5054B1B7823B9FFF7DAFF0122024B1A70FFF7DFFF08BDA481FF1F10B500F08FF80446074A1378C6
:4005000003F0DF03137000F06FF8054A137803F0EF031370204600F083F810BD9164004092640040084B1B78DBB213F0200F06D0064A1078C0B213F01E0F02D17047002022
:4005400070470020704700BF6264004042640040014B1B681864704708ED00E04001C0B2014B1870704700BF00E400E00122014B1A60704700E100E00122014B1A607047A9
:4005800080E100E010B50446FFF7F6FF2046FFF7DFFF0720FFF7E2FFFFF7E8FF10BD00BF08B5FFF7E9FF0248FFF7D2FF08BD00BF91010000044A137803F07F03C001C0B21C
:4005C00003431370704700BF40510040054A137843F0010313701032137843F001031370704700BFA2430040054A137803F0FE0313701032137803F0FE031370704700BF2A
:40060000A2430040000000000230800803D000BF01380046FCD17047EFF3108072B6704780F31088704700BF10B5044605E0084B1868FFF7E9FFA4F50044B4F5004FF6D82C
:40064000034B586800FB04F0FFF7DEFF10BD00BF1081FF1F014B1868704700BF8081FF1F0E4B70B51E460E4C0025E41AA410A54204D056F8253098470135F8E700F004FFB6
:40068000084B094C1E46E41AA4100025A54204D056F8253098470135F8E770BD9414000094140000941400009C14000010B5431E0A44914204D011F8014B03F8014FF8E796
:4006C00010BD03460244934202D003F8011BFAE7704700000EB430B59CB01FAC4FF4017254F8045BADF814200290069000F01EF80B4B03900B9300230F9314934FF6FF7378
:40070000ADF81630074B079002A918682A462346019400F06DF91CB0BDE8304003B07047290700008081FF1F00207047034613F8012B002AFBD1181A01387047174B2DE975
:40074000F0411D680646AC6D0F46FCB9502000F053F8A8658460AB6D046044601C61DC60AB6D9C615C61AB6DDC629C62AB6D5C631C63AB6DDC639C63AB6D5C641C64AB6D9D
:40078000DC649C64AB6D1C77AB6D5C6230463946AA6D0123BDE8F04100F002B88081FF1FF0B548B9106838B9F0BD17F8016B5EB1B542FAD12BB1204604460F4614F8015B58
:4007C000F3E714600370F0BD4DB915602846F0BD17F8016BAE4207D0002EF9D11C4623460F4613F8015BF3E715B10021217000E02B461360F0BD0000024B0146186800F06D
:4008000047B800BF8081FF1F30B500293CD051F8042C0B1F1D49002AB8BF9B180A680C4612B95A600B6030BD93420DD219685818904201BF5A5852181A60426823605A600F
:4008400030BD994203D80A4651680029F9D1146815199D420AD11B682344D0188842136012D10868034413604B680CE002D90C23036030BD1C681819884201BF0868496800
:40088000001918605960536030BD00BFAC81FF1F70B5CC1C24F0030408340C2C38BF0C24002C064603DA0C233360002070BD8C42F9D3204A136810461946A1B10A68121BF8
:4008C0000ED40B2A03D90A608B188C501FE08B420BBF5A684A6802605A6018BF0B4616E00B464968E9E7144D2B681BB9304600F01DFB28603046214600F018FB421C0346B1
:40090000D1D0C51C25F0030585420AD11C6003F10B001A1D20F00700821A0AD05142995070BD3046E91A00F001FB0130BBD02B46ECE770BDAC81FF1FA881FF1F38B54B1C16
:40094000144602D14FF0FF3038BD9389CDB223F020039381536B526883B1A36B9A4207DA23685A1E226003F8015C636801331FE0214600F01FFC0028F2D0E3E72169236875
:4009800051B18B4208D913F8010CA84204D1013B01322360626038BDE36304F1440363630323A3632346226403F8465F236001236360284638BD10B50C46496B69B104F15D
:4009C0004403994201D0FFF71FFF236C00206063636013B1E36B236010BD23694FF0FF30236000236360A38943F02003A38110BD2DE9F04707460C469046ADF5247D0193EA
:400A00000023469347939C4B0DF10C0AA2939B4BCDF820A1A39398F80050002D00F0248197490B6889462B445B7803F0080303F0FF02EBB16368002B10DD2368D9F800102B
:400A40001A780A44527815070ED5479A01330132479262682360013A6260EBE7A39B3846214698470028E8D008F10106B046D2E7252D08F101064FD14592439298F8013020
:400A80002A2B03D11023439308F1020631783546A1F13003092B06F1010606D8459B0A2202FB0313303B4593F0E7DFF8DC810322404600F0B8FB40B135460123C8EB00000C
:400AC00003FA00F2439B134343936E1C2D78672D0FD8652D78D25B2D54D005D8002D00F0C580252D18D071E0632D57D0642D3FD06CE0702D32D007D86E2D55D03AD8692D78
:400B000064D1002344933BE0752D31D0782D29D0732D5BD102233FE06368002B0DDD23681A78AA4240F0A080013362682360479B013A01336260479398E7A39B38462146D1
:400B400098470028EBD04698002800F08F80A38913F0400F18BF4FF0FF3089E0439B43F020034393439B43F400734393102302E00A2300E008236E2D449301DD04230BE06B
:400B8000032309E03146504600F0E0F90646439B43F040034393012349931BE0439B43F0400343930023F7E7439AD0063FF55EAF12F0010F019A479B02F10401019112682D
:400BC00014BF1380136051E70523E5E7032349930A2344936368002B03DD439B590611D518E0A39B3846214698470028F5D0AAE7479A013247926268013A002A626013DDAB
:400C0000013323602368D9F800101A780A4452781207EDD4499B022B0DDC384643A9224601AB00F033F819E0A39B3846214698470028E7D087E7042B06DC384643A922464F
:400C400001AB00F081F809E00E4B002B3FF40EAF384643A9224601ABAFF30080012803D002287FF403AF6EE7469801E04FF0FF300DF5247DBDE8F0873D090000B7090000D0
:400C80008481FF1F00000000FA1200002DE9F04115468A6880460C4632B98A69002A0CBF01224FF0FF328A6022680026D1065FBF1A68111D19601768A069F8B92368013640
:400CC000DA065EBF2B681B783B702A686B6802F101022A60A26803F1FF3302F1FF326B6058BF0137A260EAB1002BE5DCD4F880314046294698470028DED013E0012807D12F
:400D00002B6862691B78D35C002BD7D1C6B109E0022807D12B680B4A1B78126813445B781B07CBD5236813F0100305D1E2680132E260A26902B13B70236900201E44266149
:400D4000BDE8F0818481FF1F2DE9F04F0C469A46724B87B08346164693E8070003AB83E807006F4BA1696F4A04F11C09032918BF1A46A36800925A1EB2F5AE7F82BF6FF471
:400D8000AE7503EB050840F25D134F4688BFA360236898BF4FF0000843F4506323600023326803A951F8230011780222019300F03AFA019B002835D0012B0BD162682AB946
:400DC00008226260226842F400722260226822F4A0620BE0022B0AD1226802F4C061B1F5007F1FD11021616042F480722260A268511EA160B2B132687D1C511C31601278D4
:400E00003A707268013A002A72600ADCD4F880215846314601939047002841D12F46019B00E02F460133032BBAD163680BB90A23636063683C496069C91A00F087F83D462A
:400E40000027A3686BB3316860690A78805C40B3302A22680AD1100508D50137B8F1000F0BD0013308F1FF38A36006E022F4106222600B78013505F8013C7368013B002B67
:400E8000736003DD33680133336005E0D4F8803158463146984720B9A368013BA360D0E700272368D9050DD54D4509D915F8011C05F1FF38D4F87C315846324698474546B7
:400EC0004D4527D0226812F010021BD12A70636858464946009EB0472268DAF8003012F0200F07D1D20705D51A1DCAF800201B68188004E01A1DCAF800201B681860E368F9
:400F00000133E360C9EB05053D44276900203D44256100E0012007B0BDE8F08F00130000BD100000B10F00001C13000038B5064C0023054608462360FFF72CF9431C02D1CE
:400F4000236803B12B6038BDD081FF1FF0B50A78441E5E2A13BF4B1C8B1C4A78002108BF012100F1FF0504F8011FAC42FBD10AB9581EF0BDC1F10104E7B2875419785E1C9F
:400F80002D2905D05D290ED079B10A463346F3E75D785D2DF9D09542F7DB02330132AA428754FBDBEAE73046F0BD1846F0BD00002DE9F0470F46404CD4F800903D4615F8E6
:400FC00001EB09EB0E04667806F0080404F0FF060CB12F46F2E774462D2C03D1BD1C7C78012603E02B2C04BF7C78BD1C13B1102B0AD15AE0302C56D12C7804F0DF04582CE0
:401000004CD16C7810230235002E14BF4FF000486FF00048B8FBF3FA0027BE4603FB1A8809EB040C9CF801C01CF0040F01D0303C0BE01CF0030C1BD0BCF1010F0CBF4FF03E
:40104000370C4FF0570CCCEB04049C4210DAB7F1FF3F0AD0D64506D801D1444503DC03FB0E4E012701E04FF0FF3715F8014BD7E77C1C73460AD1002E4FF0220114BF4FF054
:4010800000436FF0004301602AB911E00EB1CEF100036AB107B1691E116009E03024002BB2D10823B0E70A23AEE7302CACD1A3E71846BDE8F08700BF8481FF1F2DE9F0474F
:4010C0000E463B4CD4F80090354615F801EB09EB0E04677807F0080404F0FF070CB12E46F2E774462D2C03D1B51C7478012703E02B2C04BF7478B51C13B1102B0AD151E0C8
:40110000302C4DD12C7804F0DF04582C43D16C78102302354FF0FF38B8FBF3F803FB08FA00266FEA0A0AB64609EB040C9CF801C01CF0040F01D0303C0BE01CF0030C1BD08B
:40114000BCF1010F0CBF4FF0370C4FF0570CCCEB04049C4210DAB6F1FF3F0AD0C64506D801D1544503DC03FB0E4E012601E04FF0FF3615F8014BD7E7741C734603D12223FB
:401180000360334602E00FB1CEF100036AB106B1691E116009E03024002BBBD10823B9E70A23B7E7302CB5D1ACE71846BDE8F0878481FF1F2DE9F0410C46496B04F1440300
:4011C00099421AD14FF48061FFF762FB18B94FF0FF30BDE8F0814FF48063A36394F84630606380F8FF3394F8453000F2FD30437094F844300370206012E0A66B77003A4602
:4012000000F01FF805460028E1D000EB0608404629463246FFF74AFAC4F800806563A7630020BDE8F08110B5C9B202449042034605D01C7801308C42F8D1184610BD002082
:4012400010BDF8B5074615460E4621B91146BDE8F840FFF71DBB1AB9FFF7D6FA2846F8BD00F015F8A8420ED238462946FFF710FB044650B131462A46FFF718FA384631467C
:40128000FFF7C2FA01E03046F8BD2046F8BD51F8040C0028BEBF091851F8043CC018043870470000000000000D00000052256400005100404000505100402000C0510040D7
:4012C0001000F0510040100000000140000280020140800D00140140000800400140000A004C014000020050014020000002014068010048800000004300686C4C000000BB
:401300001E1300002113000024130000412D46612D66383930313233343536375D002B2D00303000785800002020202020202020202828282828202020202020202020204F
:4013400020202020202020208810101010101010101010101010101004040404040404040404101010101010104141414141410101010101010101010101010101010101C6
:4013800001010110101010101042424242424202020202020202020202020202020202020202021010101020000000000000000000000000000000000000000000000000B6
:4013C00000000000000000000000000000000000000000000000000000000000000000000000000000000000000000000000000000000000000000000000000000000000ED
:4014000000000000000000000000000000000000000000000000000000000000000000000000000000000000000000000000000000000000000000000000000000000000AC
:40144000000000000000000000000000000000000000000000000000000000000000000000000000000000000000000000000000000000000000000000000000000000006C
:401480000000000000000000F8B500BFF8BC08BC9E4670474D00000011020000F8B500BFF8BC08BC9E46704729000000C01400000881FF1F8000000050000000000000005A
:4014C00000000000D881FF1F0000E02EC05D00001800000000366E010000000028140000481400006814000000000000000000000000000000000000F8120000000000006F
:4015000000000000000000000000000000000000000000000000000000000000000000000000000000000000000000000000000000000000000000002081FF1F27130000B2
:40154000000000000000000000000000000000000000000000000000000000000000000000000000000000000000000000000000000000000000000000000000000000006B
:40158000000000000000000000000000000000000000000000000000000000000000000000000000000000000000000000000000000000000000000000000000000000002B
:4015C00000000000000000000000000000000000000000000000000000000000000000000000000000000000000000000000000000000000000000000000000000000000EB
:4016000000000000000000000000000000000000000000000000000000000000000000000000000000000000000000000000000000000000000000000000000000000000AA
:020000040003F7
:0200000480007A
:400000000152004002640040290001402701014006020140360301400105014005400140064101400250014001510140244081728238801F8154832185E78603881C89E744
:400040008A038C038D8090029118940C9718981F9B189C139E0CA008A12AA341A404A718A801A918AD19AF06B107B380B410B560B60FB718BA80BE10D602D712D804D9048D
:40008000DB04DF010480051407400C580DA00F4017251D801E0A248126282C102E802F483514360938803A803C023D603E0448014B405E086D606E0474087610770583480F
:4000C00086208740C0F0C2F0C470CAF0CCE0CEF0D64083018701B701BF40D904DF010480051106100710080809040C400D200F60158017251D991F282301240625242740AB
:400100002C402F283755380239043C043F22444045884C014D044E084F225C016488670180809081934098409A109B259D10A208A520A708AF60C0F0C2F0C4F0CAE0CCF075
:40014000CEE3D0D0D230D680D8B0A94809200B043340C240CC1083409F40AD20AF04E680E850000108010003000010086006003170000811000001000004020000020C00BA
:40018000700604001C0060084031000620160021103782007C000000802000087C07031600022820000040044603050001EC000003FFFFFF62A0F0410C00000018000400C6
:4001C000040404040000000100000000000040020010301000101012000000000000000000000000000000008000408080000000000000000000000000000000000000006A
:4002000000000000000000000000000000000000000000000000000000000000000000000000000000000000000000000000000000000000000000000000000000000000BE
:40024000000000000000000000000000000000000000000000000000000000000000000000000000000000000000000000000000000000000000000000000000000000007E
:40028000000000000000000000000000000000000000000000000000000000000000000000000000000000000000000000000000000000000000000000000000000000003E
:4002C00000000000000000000000000000000000000000000000000000000000000000000000000000000000000000000000000000000000000000000000000000000000FE
:0200000490006A
:0400000000004005B7
:0200000490105A
:04000000BC90ACAF55
:0200000490303A
:02000000C995A0
:0200000490402A
:4000000000000000000000000000000000000000000000000000000000000000000000000000000000000000000000000000000000000000000000000000000000000000C0
:400040000000000000000000000000000000000000000000000000000000000000000000000000000000000000000000000000000000000000000000000000000000000080
:400080000000000000000000000000000000000000000000000000000000000000000000000000000000000000000000000000000000000000000000000000000000000040
:4000C0000000000000000000000000000000000000000000000000000000000000000000000000000000000000000000000000000000000000000000000000000000000000
:0200000490501A
:0C00000000012E12306900012E19F9FEDB
:00000001FF