:10000000008000206106000059060000590600002B
:1000100080B51448144B21E05C689968DD688C4217
:100020000CD0002205E0A6180832D6E9008941E983
:1000300002898C460831AA42F5D101E004EB050C97
:100040001C696146002204E008320026002741E9CD
:1000500002670831A242F7D1143301380028DBD1FE
:1000600001F0ACFD01000000301D000048F220133B
:10007000C1F6FF731A780AB901201870704700BFE3
:1000800048F20810C1F6FF7008B503682BB140F2C2
:100090000003C0F2000303B1984708BD80B400AF6D
:1000A00048F2A813C1F6FF731B781846BD4680BC02
:1000B000704700BF80B58AB000AFF860B9607A6061
:1000C0004FF00003FB754FF00003BB614FF064037A
:1000D000FB617A68FB69B2FBF3F33B6200F01EF947
:1000E000F86800F091FBBA6841F64043C0F20003A3
:1000F0009A421ED04FF00003BB6116E048F2281070
:10010000C1F6FF70B96801F077FB0346FB84FB8CF6
:10011000002B03D04FF00103FB750AE0F86900F0F3
:100120000BFBBB6903F10103BB61BA693B6A9A42ED
:10013000E4D3FB7D184607F12807BD4680BD00BF0C
:1001400080B500AF41F64440C0F2000041F6544192
:10015000C0F2000142F21072FFF7ACFF0346002B21
:1001600002D04FF0010301E04FF00003184680BDBC
:1001700080B582B000AF4FF0FF33FB7141F65840BD
:10018000C0F2000041F65441C0F2000141F2883251
:10019000FFF790FF03467B717B79002B39D041F646
:1001A0006440C0F2000041F65441C0F2000141F247
:1001B0008832FFF77FFF0346BB71BB79002B28D045
:1001C00041F67C40C0F2000041F65441C0F200010B
:1001D00044F62062FFF76EFF0346FB7141F6844050
:1001E000C0F2000041F65441C0F2000149F640421D
:1001F000FFF760FF0346FB71FB79002B09D048F243
:10020000A813C1F6FF734FF003021A704FF00103F9
:1002100001E04FF00003184607F10807BD4680BD16
:1002200080B582B000AF78600B46FB7041F6944019
:10023000C0F2000041F65441C0F2000143F698229A
:10024000FFF738FF0346002B24D041F6BC40C0F234
:10025000000041F6C841C0F2000141F28832FFF7C8
:1002600029FF0346002B15D0786841F65441C0F2AF
:10027000000144F62062FFF71DFF0346002B09D062
:1002800048F2A813C1F6FF734FF003021A704FF043
:10029000010301E04FF00003184607F10807BD46CF
:1002A00080BD00BF80B500AF4FF0000000F0F6FB4E
:1002B0004FF0000000F0D2FB40F2DC5000F03CFABE
:1002C0004FF0010000F0CAFB41F2883000F034FA30
:1002D00048F2A813C1F6FF734FF001021A7080BDF7
:1002E00080B500AF4FF0000000F0B8FB40F2DC50EA
:1002F00000F022FA4FF0010000F0B0FB41F288302C
:1003000000F01AFA4FF0010000F0C8FB48F2A81301
:10031000C1F6FF734FF000021A7080BD80B582B045
:1003200000AF4FF00003FB714FF00003FB710BE0D7
:10033000FA7948F22813C1F6FF734FF0000199547F
:10034000FB7903F10103FB71FB795BB2002BEFDA60
:1003500048F22113C1F6FF734FF000021A7000F04B
:100360000FFA07F10807BD4680BD00BF80B500AF9A
:1003700000F0B4FB80BD00BF80B5A6B000AF4FF069
:10038000000000F04BFC4FF0FA0000F0D5F94FF000
:10039000000387F8943017E000F01AFC034687F852
:1003A000973097F89730002B0ED097F8943007F1DC
:1003B00098010B4497F8972003F8842C97F8943011
:1003C00003F1010387F8943097F894305BB2002B67
:1003D000E2DA4FF0000387F894300EE097F894309B
:1003E00007F1980213444FF0000203F8942C97F899
:1003F000943003F1010387F8943097F894300F2B71
:10040000ECD94FF0000387F896304FF0000387F8DF
:1004100094304FF0000387F895303BE097F8943024
:1004200007F198010B4413F8843C87F8973097F84C
:100430009730522B05D197F8963003F1010387F8D6
:10044000963097F89630002B13D097F8953097F8A0
:10045000942007F198010A4412F8842C07F19801BE
:100460000B4403F8942C97F8953003F1010387F8B7
:10047000953097F894307E2B03D897F895300E2B53
:1004800002D94FF0000310E097F8943003F1010314
:1004900087F8943097F89630012BBFD94FF00000C1
:1004A00000F0BCFB07F10403DBB2184607F1980724
:1004B000BD4680BD80B582B000AFFFF757FF00F0AA
:1004C0000DFA40F28D50C0F2000000F073FA00F017
:1004D0006BF848F23023C1F6FF734FF001021A7037
:1004E00062B6FFF749FF0346FB7104E000BF02E07C
:1004F00000BF00E000BF48F23023C1F6FF731B7855
:10050000002BF3D0FFF7CAFD03461A4648F2A813A2
:10051000C1F6FF731A7048F2A813C1F6FF731B7877
:10052000002B02D1FFF7BEFEE5E748F2A813C1F6A3
:10053000FF731B78012B09D1FFF71AFE0346002B2E
:10054000D6D1FFF7FDFDFFF7CBFED4E748F2A813A5
:10055000C1F6FF731B78032BCCD148F2AC13C1F664
:10056000FF731B7848F2B010C1F6FF701946FFF711
:1005700057FE0346002B04D1FFF7E2FDFFF7B0FE64
:10058000B9E7FFF7ADFE00F00FF8B4E780B500AFB4
:1005900041F6CC40C0F200004FF0050100F02EF80B
:1005A00000F0C2F980BD00BF80B483B000AF4FF04F
:1005B0000003FB710BE0FA7948F2B013C1F6FF7348
:1005C0004FF000019954FB7903F10103FB71FB79B2
:1005D0005BB2002BEFDA48F23023C1F6FF734FF025
:1005E00000021A7048F2AC13C1F6FF734FF000021C
:1005F0001A7007F10C07BD4680BC704780B485B007
:1006000000AF78600B46FB704FF00003FB730DE00A
:10061000FA7BF97B7B680B44197848F2B013C1F67A
:10062000FF739954FB7B03F10103FB73FA7BFB78A7
:100630009A42EDD348F23023C1F6FF734FF0010226
:100640001A7048F2AC13C1F6FF73FA781A7007F10A
:100650001407BD4680BC704780B400AFFEE700BF02
:10066000054B1C7844F001041C70044B1A78D2B27C
:10067000034B1A70FFF7CCFCE8460040F8460040F8
:10068000BC76004080B582B000AF4EF60C53CEF27F
:10069000000340F20042C0F2FA521A604EF61453C0
:1006A000CEF200034EF61452CEF20002126842F46B
:1006B00000721A604FF000037B6019E079687B6874
:1006C000032B07D87A6840F20003C0F2000353F806
:1006D000223003E040F25963C0F2000348F2000206
:1006E000C1F6FF7242F821307B6803F101037B60A1
:1006F0007B682F2BE2D947F2BC63C4F200031B785E
:10070000DAB248F23123C1F6FF731A704EF608537D
:10071000CEF2000348F20002C1F6FF721A6000F048
:1007200049FC48F20013C1F6FF734FF000021A6053
:1007300007F10807BD4680BD80B582B000AF786084
:100740000BE048F21813C1F6FF731B68184600F05F
:1007500083FD7B68A3F500437B607B68B3F5004FA6
:10076000EFD848F21013C1F6FF731B687A6802FBDA
:1007700003F3184600F070FD07F10807BD4680BD81
:1007800080B582B000AF00F06FFD0346FB7146F20A
:100790009743C4F2000346F29742C4F20002127873
:1007A000D2B242F00102D2B21A7046F29743C4F2BA
:1007B000000346F29742C4F200021278D2B202F06D
:1007C000FE021A70FB79184600F052FD07F1080787
:1007D000BD4680BD80B483B000AF0346FB7146F2D6
:1007E0006143C4F200031B78DBB203F00403002B67
:1007F000F5D146F24143C4F20003FA791A7007F1C9
:100800000C07BD4680BC704780B584B000AF7860EF
:100810004FF00003FB8148F22213C1F6FF731B78EF
:10082000002B11D00AE0FA897B6813441B78184624
:10083000FFF7D0FFFB8903F10103FB81FA897B6895
:1008400013441B78002BEED107F11007BD4680BD85
:1008500080B582B000AF4AF2FF10C4F62F5000F00E
:100860006FF84AF2FF10C4F62F5000F085F800F040
:10087000FBFC0346FB7146F29453C4F2000346F2BC
:100880009452C4F200021278D2B242F01002D2B2F4
:100890001A70FB79184600F0EBFC00F07DF84FF081
:1008A000010000F031F807F10807BD4680BD00BF28
:1008B00080B400AF46F27453C4F2000346F274529F
:1008C000C4F200021278D2B26FEA42626FEA526258
:1008D000D2B21A70BD4680BC704700BF80B500AF71
:1008E00048F22413C1F6FF731B78002B08D1FFF7E1
:1008F000AFFF48F22413C1F6FF734FF001021A70E4
:10090000FFF7D6FF80BD00BF80B483B000AF0346C1
:10091000FB7146F28453C4F20003FA791A7007F1AE
:100920000C07BD4680BC704780B400AF46F26453EC
:10093000C4F200031B78DBB21846BD4680BC70478A
:1009400080B483B000AF786046F22453C4F2000351
:100950007A681A6007F10C07BD4680BC704700BF7B
:1009600080B400AF46F24453C4F200031B6818463B
:10097000BD4680BC704700BF80B483B000AF7860D4
:1009800046F20453C4F200037A681A6007F10C07B8
:10099000BD4680BC704700BF80B500AF01E0FFF7E7
:1009A000DFFFFFF7C1FF034603F00803002BF6D17A
:1009B00080BD00BF80B582B000AF786000F042F823
:1009C000786800F00BF84FF0070000F01BF800F01B
:1009D0002DF807F10807BD4680BD00BF80B485B083
:1009E00000AF78604EF60853CEF200031B68FB6040
:1009F000FB6803F148037A681A6007F11407BD46E3
:100A000080BC704780B483B000AF0346FB714EF2E8
:100A10000243CEF20003FA794FEA4212D2B21A70C0
:100A200007F10C07BD4680BC704700BF80B400AF23
:100A30004EF20013CEF200034FF004021A60BD46DE
:100A400080BC704780B400AF4EF28013CEF200033A
:100A50004FF004021A60BD4680BC704780B485B078
:100A600000AF0346FB7145F23013C4F200031B785C
:100A7000DBB203F07F03FB7345F23013C4F20003D3
:100A8000FA794FEAC212D1B2FA7B41EA0202D2B23B
:100A90001A7007F11407BD4680BC704780B485B05A
:100AA00000AF0346FB7145F24013C4F200031B780C
:100AB000DBB203F07F03FB7345F24013C4F2000383
:100AC000FA794FEAC212D1B2FA7B41EA0202D2B2FB
:100AD0001A7007F11407BD4680BC704780B500AF9F
:100AE00048F22513C1F6FF731B78002B08D100F0E4
:100AF0000BF848F22513C1F6FF734FF001021A708C
:100B000000F02AF880BD00BF80B400AF46F28E43EB
:100B1000C4F200034FF072021A7046F28C43C4F222
:100B200000034FF020021A7046F22443C4F200037F
:100B30004FF007021A7046F23443C4F200034FF03C
:100B400048021A7046F28243C4F200034FF00002DA
:100B50001A70BD4680BC704780B582B000AF00F00F
:100B600083FB0346FB7146F29E43C4F2000346F248
:100B70009E42C4F200021278D2B242F02002D2B2F7
:100B80001A7046F29C43C4F2000346F29C42C4F23F
:100B900000021278D2B242F01002D2B21A7046F2BB
:100BA0009243C4F2000346F29242C4F20002127869
:100BB000D2B242F01002D2B21A7000F051F8FB79B2
:100BC000184600F055FB07F10807BD4680BD00BF81
:100BD00080B483B000AF4FF00003BB7146F26C43AA
:100BE000C4F200031B78FB71FB7903F02003002B98
:100BF0000DD046F24F43C4F200031B78BB71FB7962
:100C000003F01E03002B02D04FF00003BB71BB7931
:100C1000184607F10C07BD4680BC704780B485B00C
:100C200000AF0346FB7145F24013C4F200031B788A
:100C3000DBB223F02003FB7345F24013C4F2000340
:100C4000FA794FEA4212D2B202F02002F97B42EA6C
:100C50000102D2B21A7007F11407BD4680BC70477A
:100C600080B400AF44F2A233C4F2000344F2A232D3
:100C7000C4F200021278D2B242F00202D2B21A706A
:100C800044F2B233C4F2000344F2B232C4F20002BE
:100C90001278D2B242F00202D2B21A70BD4680BCC3
:100CA000704700BF80B485B000AF786039607B6862
:100CB000BB604FF00003FB6009E0BA68FB681344B7
:100CC0004FF000021A70FB6803F10103FB60FA6841
:100CD0003B689A42F1D307F11407BD4680BC7047C8
:100CE00080B489B000AFF860B9607A60FB687B615E
:100CF000BB68BB614FF00003FB610BE07A69FB69E5
:100D00001344B969FA690A4412781A70FB6903F14D
:100D10000103FB61FA697B689A42EFD307F124076C
:100D2000BD4680BC704700BF80B582B000AF786020
:100D3000396078684FF000013A6800F065FB07F110
:100D40000807BD4680BD00BF80B584B000AFF86025
:100D5000B9607A60F868B9687A6800F08DFA07F1CE
:100D60001007BD4680BD00BF80B487B000AF78607B
:100D700039604FF00003FB604FF00003BB602CE0D4
:100D8000BB684FEA83027B6813441B683B613B6985
:100D9000FB753B6923F0FF033B6117E0FB684FEAFB
:100DA00043023B6813441B781A463B691344FA68B4
:100DB0004FEA42013A680A4452781A70FB6803F11C
:100DC0000103FB60FB7D03F1FF33FB75FB7D002B13
:100DD000E4D1BB6803F10103BB60BB681C2BCFD916
:100DE00007F11C07BD4680BC704700BF80B500AF4F
:100DF00044F28003C4F200034FF019021A8044F257
:100E00008203C4F200034FF018021A7044F2840304
:100E1000C4F200034FF49C721A8044F28603C4F2B9
:100E200000034FF018021A7044F20033C4F20003BA
:100E30004FF002021A7044F20003C4F200034FF0B4
:100E400008021A7044F20023C4F200034FF00302B8
:100E50001A7044F2A163C4F2000340F20812C4F60F
:100E600000121278D2B21A7044F22223C4F20003A4
:100E70004FF008021A8044F22023C4F2000341F22A
:100E800051021A8040F6B83000F0E6F944F204034B
:100E9000C4F200034FF003021A7044F20503C4F2D7
:100EA00000034FF001021A7044F20403C4F200037D
:100EB0004FF000021A7044F20403C4F200034FF032
:100EC00007021A7044F20603C4F200034FF0000256
:100ED0001A7044F20803C4F200034FF048021A707B
:100EE00044F20403C4F200034FF000021A7044F20B
:100EF0000103C4F200034FF002021A7044F2A2335D
:100F0000C4F2000344F2A232C4F200021278D2B258
:100F100042F00302D2B21A7080BD00BF80B400AFAD
:100F200044F2AA33C4F200034FF444721A8045F627
:100F30002003C4F200034FF01E021A7045F624038A
:100F4000C4F200034FF01E021A7045F62803C4F2E3
:100F500000034FF01E021A7045F62C03C4F2000382
:100F60004FF01E021A7045F60013C4F200036FF032
:100F70003F021A7045F60313C4F200034FF00C024F
:100F80001A7045F60813C4F200036FF03F021A709E
:100F900045F60B13C4F200034FF00C021A7045F62D
:100FA0007603C4F200034FF044021A70BD4680BCC1
:100FB000704700BF80B582B000AF72B644F6000340
:100FC000C4F200034FF000021A70FFF70FFF44F65F
:100FD0000003C4F200036FF07F021A7047F210039F
:100FE000C4F200034FF000021A7047F22003C4F26B
:100FF00000034FF000021A7045F67C03C4F20003B0
:101000004FF001021A7044F2E863C4F2000344F2A4
:10101000E862C4F200021278D2B242F00102D2B207
:101020001A704FF00003FB702FE0FA7813464FEA76
:10103000430313444FEA43031A4641F6D443C0F234
:10104000000313447B607B681A7859784FEA0121CA
:1010500041EA020299784FEA014141EA0202DB7853
:101060004FEA036343EA02031A467B6819795B7906
:101070004FEA032343EA01039BB210461946FFF7E8
:1010800053FEFB7803F10103FB70FB78082BCCD9EE
:101090004FF0904040F27401C4F60001FFF764FE87
:1010A00045F20020C4F200004FF00701FFF7FAFDFF
:1010B00045F20820C4F2000040F6A001C4F6000189
:1010C0004FF00702FFF70CFE45F21020C4F20000BB
:1010D0004FF00701FFF7E6FD45F21820C4F20000CB
:1010E0004FF00701FFF7DEFD45F22020C4F20000BB
:1010F00040F6A801C4F600014FF00702FFF7F0FD2B
:1011000045F22820C4F2000040F6B001C4F6000108
:101110004FF00702FFF7E4FD45F23020C4F2000073
:101120004FF00701FFF7BEFD45F26020C4F200005A
:101130004FF00601FFF7B6FD45F27820C4F200003B
:101140004FF00701FFF7AEFD45F20303C4F20103C0
:1011500045F20302C4F201021278D2B242F0020256
:10116000D2B21A7045F21303C4F2010345F213021E
:10117000C4F201021278D2B242F00202D2B21A7064
:1011800044F2A033C4F2000344F2A032C4F20002DD
:101190001278D2B242F04002D2B21A7044F2C23394
:1011A000C4F2000344F2C232C4F200021278D2B296
:1011B00042F01002D2B21A7045F21010C4F20000D0
:1011C00040F67401C4F600014FF00A02FFF7BCFDBF
:1011D00045F23010C4F2000040F68001C4F6000170
:1011E0004FF00A02FFF7B0FD45F24010C4F20000D4
:1011F00040F68C01C4F600014FF00A02FFF7A4FD8F
:1012000045F25210C4F2000040F69801C4F6000105
:101210004FF00802FFF798FDFFF780FE44F2B03070
:10122000C4F2000044F2A031C4F200014FF00C02FD
:10123000FFF78AFD44F2B033C4F2000344F2B03247
:10124000C4F200021278D2B202F0FD021A7007F165
:101250000807BD4680BD00BF0230800803D000BF34
:1012600001380046FCD17047EFF3108072B670472A
:1012700080F31088704700BF032A2DE9F0070BD8D0
:101280003AB1002311F803C000F803C001339342C0
:10129000F8D1BDE8F007704782180C46034603E01A
:1012A00014F8011C03F8011C03F003061946A446B8
:1012B00001330134002EF3D11CF00304634608BF50
:1012C000C1EB020C68D06542C4F1040A0CEB0507BF
:1012D00033464FEACA0A5CF805604FEAC408551A5B
:1012E00008E057F8044F264604FA0AF449EA0404D1
:1012F000CC5004335C18032D26FA08F9A5F1040537
:101300000CEB0306EDDC002302E0F15CE154013359
:1013100019199142F9D3BCE753F8404C41F8404CBD
:1013200053F83C4C41F83C4C53F8384C41F8384C9D
:1013300053F8344C41F8344C53F8304C41F8304CAD
:1013400053F82C4C41F82C4C53F8284C41F8284CBD
:1013500053F8244C41F8244C53F8204C41F8204CCD
:1013600053F81C4C41F81C4C53F8184C41F8184CDD
:1013700053F8144C41F8144C53F8104C41F8104CED
:1013800053F80C4C41F80C4C53F8084C41F8084CFD
:1013900053F8044C41F8044C1C460D464033403190
:1013A000BCF13F0FACF1400CB6DC21462B46541B80
:1013B0000FE051F8105C43F8105C51F80C5C43F8F6
:1013C0000C5C51F8085C43F8085C51F8045C43F885
:1013D000045C0F2C0D469C4601F1100103F1100333
:1013E000A4F11004E5DCCCEB0201002303E0EC588F
:1013F0004CF8034004335E19032903EB0C04A1F1FC
:101400000401F4DC7FE700BF032AC9B230B407D877
:1014100022B10023C15401339342FBD130BC704749
:1014200000EB020C034601E003F8011C03F0030487
:101430001A460133002CF7D14FF00133C2EB0C04F4
:1014400003FB01F31FE042F8403C42F83C3C42F809
:10145000383C42F8343C42F8303C42F82C3C42F8EC
:10146000283C42F8243C42F8203C42F81C3C42F81C
:10147000183C42F8143C42F8103C42F80C3C42F84C
:10148000083C42F8043C154640323F2CA4F140048D
:10149000D9DC2A46C5EB0C0407E042F8103C42F8C0
:1014A0000C3C42F8083C42F8043C154610320F2C24
:1014B000A4F11004F1DC2A46C5EB0C0501E042F86A
:1014C000043C14460432032DA5F10405F7DC01E0C9
:1014D00004F8011B6445FBD3A0E700BF01232DE9FD
:1014E000F0071C4600254FF0FF3604EB050CA7194A
:1014F0008C450DD23F5C10F80C80B8452FD2C6EB5E
:101500000C030124654604EB050CA7198C45F1D3A7
:101510004FF0010A002554464FF0FF3704EB050C4D
:101520001360614504EB07080FD918F8008010F824
:101530000C90C14524D9C7EB0C0A0124654604EB85
:10154000050C04EB07086145EFD80137701C874292
:1015500024BF534638461360BDE8F007704706D0F5
:1015600001232E4605EB030C1C466546CBE79C4247
:1015700004F1010418BFAC46C4D101246546C2E79A
:1015800007D04FF0010A2F4605EB0A0C544665467A
:10159000D5E7544504F1010418BFAC46CED101246F
:1015A0006546CCE72DE9F04FADF5846D81B0064678
:1015B0001046894603920DF5826219460C321C468C
:1015C000FFF78CFF002307AA8046D4500433B3F5FD
:1015D000806FFAD164B1DDF80CC0621E002307A849
:1015E0001CF80310013340F82120013A9C42F7D83F
:1015F00003984246DDF81C14411800F04DFA0546E8
:10160000002840F08B8002948246029BC8F10102C0
:101610000399671E05920AEB03044A4608F1FF305E
:10162000414401900491B0180021A21ADDF80CB0D9
:1016300000F0F8F90346002859D1002C57D0A21920
:1016400007A812F8012C50F82220002A5BD145454A
:101650002CBF2B464346BB4213D203EB0A001BF8B8
:1016600003C032180BEB0301305C844506D044E024
:1016700011F801CF12F8010F84453ED10133BB426E
:10168000F6D3454580F0B0800199019B01EB0A0239
:101690001BF80110925D914240F0A6800AEB08020F
:1016A0000499B218A14608E011F8024C013912F869
:1016B00002CC013A644504D103469D4203F1FF3058
:1016C000F2D301354C469D4200F29380DDF81C5464
:1016D000029AAA44551B2246029BB01800210AEB2D
:1016E0000304A21A00F09EF903460028A5D00020AA
:1016F00009B00DF5806DBDE8F08F059900252246F3
:101700008A449A44E8E735B1DDF81C148A4202D2D3
:1017100002981D46421A92442246DDE70398C8EB20
:1017200004034A460027651E08F1FF3A00EB080B48
:10173000A146434538BF4346C8F101010133019139
:10174000CDF81C3407EB0904B0180021A21A00F0F0
:1017500069F90028CBD1002CC9D0A31907AA13F826
:10176000013C52F82330002B35D1A84514D207EBA9
:1017700008039BF80020F118F35C9A4204BF5A4614
:10178000434606D02AE012F801CF11F8010F844534
:1017900025D10133AB42F6D3BAF1FF3F534616D001
:1017A00003980AEB0702925D10F80A10914210D1DB
:1017B00007EB08025946B21807E011F802CC0139CC
:1017C00012F8020C013A844503D1013BF5D2F0191D
:1017D0008EE7DDF81C34FF182246B3E74346019A32
:1017E000D7192246FF18ADE7434601359D427FF6E3
:1017F0006DAF06EB0A007BE72DE9F04F037887B069
:1018000006460D46002B00F004810A7892B101468D
:101810002C46012001E0227882B1934214BF0020BF
:1018200000F001004B7801340131002BF3D1237813
:1018300023B10026304607B0BDE8F08F0028F9D16B
:10184000701C297800F05AF9641B012C14BF002386
:101850000123002808BF43F0010307467BB936196E
:10186000B0428CBF4FF0010AC0EB060A1F2C08D90A
:1018700051462A462346FFF795FE0646DAE7064616
:10188000D8E7214605AA2846FFF728FE05996918DA
:1018900080462846424600F0FFF80646002858D108
:1018A00008F1FF3205EB08030192C346C8F10102BB
:1018B00081460392A8465246029309EB0405B818E4
:1018C0000021AA1A00F0AEF80028B2D1002DB0D045
:1018D0005E452CBF33465B469C4213D903EB09009F
:1018E00018F803C03A1808EB0301385C844506D0A9
:1018F00085E011F801CF12F8010F84457FD1013343
:101900009C42F6D8B34540F28780019B03EB090265
:1019100018F80310D25D91427ED109EB0B020299B7
:10192000BA18AA4608E011F8025C013912F802CC94
:10193000013A654504D103469E4203F1FF30F2D3DC
:10194000554601369E4269D8059E2A46B144A61BDB
:10195000B3E7C8F10102C8EB040301920026524626
:1019600005EB080908F1FF3BAA46434538BF43464B
:10197000013305933519B8180021AA1A00F052F85E
:1019800000287FF456AF002D3FF453AF444515D9DE
:1019900006EB080399F80020F918FB5C9A4212BF85
:1019A00043464A46434606D024E012F801CF11F8D8
:1019B000010F84451ED101339C42F6D8BBF1FF3F95
:1019C0005B4615D006EB0B021AF80B10D25D914264
:1019D0001BD106EB08024946BA1807E011F802CC01
:1019E000013912F8020C013A84450ED1013BF5D2BF
:1019F000BE191FE7019A96192A46F618BAE7039A04
:101A0000002691442A46994457E7059B2A46F61832
:101A1000B0E70C4601200AE75B4692E707EB0906B0
:101A200008E700BF10F0030FC9B210B410D0002AAD
:101A30002FD003788B422AD0013A05E0002A28D023
:101A40000378013A8B4222D0013010F0030FF5D118
:101A5000032A11D941EA012444EA0444036884EAD0
:101A60000303A3F1013C2CEA030313F0803F03D1ED
:101A7000043A0430032AF1D85AB103788B4206D0D5
:101A8000013A32B110F8013F013A8B42F9D110BC52
:101A900070470020FBE700BF032A30B405460C4620
:101AA00025D941EA000313F0030F15D0287894F8E4
:101AB00000C060451ED1013A002306E040780133A2
:101AC00091F801C0013A604514D1E818E118002AE4
:101AD000F4D1002030BC704704680B689C4204D1EC
:101AE000043A04300431032AF6D805460C46002A8D
:101AF000DCD1EEE7CCEB0000ECE700BFC9B230B4BC
:101B000019B124E00378D3B1013010F0030FF9D1FB
:101B10000368A3F1013222EA030313F0803F08D1E6
:101B200050F8043FA3F1013222EA030313F0803F8F
:101B3000F6D003781BB110F8013F002BFBD130BC6D
:101B400070470378002B36D09942F8D0013010F05E
:101B5000030FF6D1036841EA0125A3F1013245EAFA
:101B6000054522EA030212F0803F1BD185EA0303F8
:101B7000A3F1013222EA030313F0803F03D011E006
:101B800012F0803F0ED150F8043FA3F1013485EAF2
:101B9000030224EA0303A2F1013C13F0803F2CEA84
:101BA0000202EDD003781BB905E010F8013F13B134
:101BB0009942FAD1C3E70020C1E700BF08B500F0A1
:101BC00017F8074800B10068064901B1096800220A
:101BD000FEF770FC044B0BB1AFF30080FEE700BFD3
:101BE000000000000000000000000000FEE7000010
:101BF00070B541F6185641F61855C0F20006C0F20D
:101C00000005761BB61006D0002455F824300134A8
:101C10009847A642F9D841F6185541F62056C0F229
:101C20000005C0F20006761B00F070F8B61006D072
:101C3000002455F8243001349847A642F9D870BDE5
:101C4000000000004154234D4F44453D524553454B
:101C5000540D00004F4B000041542B435245473D6B
:101C6000310D0000415423534346473D312C312C64
:101C7000302C302C313230302C300D0041542B437D
:101C800053510D0041542353474143543D312C31AE
:101C90000D00000041542353443D312C302C35308D
:101CA0003332312C2235302E31392E3234322E3827
:101CB00037222C302C302C310D000000415423539E
:101CC00053454E443D310D003E00000050536F43DC
:101CD0001A00000000510040100020510040100088
:101CE000605100401000C05100401000F051004011
:101CF00010000000014000100014014000080040E6
:101D00000140000A004C014000020000F8B500BF8D
:101D1000F8BC08BC9E4670478100000085060000A4
:101D2000F8B500BFF8BC08BC9E4670476D000000C7
:101D300000000000481D00000881FF1F180000007F
:081D4000180100000000000082
:101D48000000000000366E01C05D000018000000B1
:081D58000000E02E0000000075
:040000030000066192
:00000001FF
