:100000000080002001070000F9060000F90600004A
:1000100080B51448144B21E05C689968DD688C4217
:100020000CD0002205E0A6180832D6E9008941E983
:1000300002898C460831AA42F5D101E004EB050C97
:100040001C696146002204E008320026002741E9CD
:1000500002670831A242F7D1143301380028DBD1FE
:100060000DF0DCFF01000000A4E5000048F2A063F1
:10007000C1F6FF731A780AB901201870704700BFE3
:1000800048F20810C1F6FF7008B503682BB140F2C2
:100090000003C0F2000303B1984708BD80B500AF6C
:1000A00062B600F0C5F800F03DFA40F24110C0F22F
:1000B000000001F011FB4FF0010002F031F902F0F5
:1000C0003DF902F0A5FB01F01DFBFCE780B588B00F
:1000D00000AFF860B9607A603B604FF0000000F05C
:1000E000F9FD07F110034FF0000019464FF0090227
:1000F00002F042FD0346002B1AD0F868B96802F0FE
:10010000D9FC0346FB61FB69002B09D102F006FB19
:1001100002F07EFBF868B96802F0CCFC0346FB6194
:10012000F86979683A6802F073FEF86902F0FCFB3E
:100130004FF0010000F0CEFD07F12007BD4680BD65
:100140002DE9F04F91B00AAF0346FB73FB7B012B07
:1001500069D148F2A460C1F6FF7000F083F848F25C
:10016000B060C1F6FF7000F0F7F907F11003184610
:1001700002F0F0F8BB7C9A467B7C1E463B7C3B60E1
:10018000FB7C7B607B7DBB60FB8A9B4648F2A46363
:10019000C1F6FF735B68184606F044FB804689464B
:1001A00048F2A463C1F6FF731B68184606F03AFBD9
:1001B00004460D4648F2B063C1F6FF735B6818460B
:1001C00006F030FB02460B463968009179680191D0
:1001D000B9680291CDF80CB0CDE90489CDE90645A6
:1001E000CDE9082349F22870C1F6FF704EF2F801FC
:1001F000C0F200015246334607F0F6FC49F228707F
:10020000C1F6FF7007F03AFD03464EF22410C0F22B
:1002100000004EF23011C0F2000149F22872C1F61E
:10022000FF72FFF753FF07F11C07BD46BDE8F08FD3
:1002300080B500AF00F056FB80BD00BF80B500AFB9
:100240004FF0000000F002FD4FF00103184680BDA2
:1002500080B500AF4FF0000000F0F8FC4FF0000355
:10026000184680BD90B58FB000AF78604FF00103A5
:10027000FB624FF001033B634FF0000387F8373018
:100280004EF23412C0F2000207F10C0392E80300B0
:10029000186003F1040319807B684FF000021A72A2
:1002A0007B68734A1A607B68714A5A6000F012F9E1
:1002B00040F27540C0F2000000F068FCFFF7BEFF9E
:1002C0004FF0640000F094FA07F10C0318464FF069
:1002D000060100F037FC4FF47A7000F089FA00F064
:1002E00069FCFFF7B5FF4FF00003BB624FF000035E
:1002F0007B623AE07A6A49F2A873C1F6FF739B5CAD
:1003000087F8363097F836302F2B03D997F83630E8
:10031000392B03D997F836302E2B0CD1BB6A07F155
:100320003802134497F8362003F81C2CBB6A03F1FB
:100330000103BB6215E097F836302B2B10D097F8ED
:1003400036302D2B03D14FF0FF33FB6209E097F8D5
:100350003630432B05D14FF0010387F8373007E0E3
:1003600000BF7B6A03F101037B627B6A7F2BC1D9EB
:100370004FF00003BB623CE07A6A49F2A873C1F611
:10038000FF739B5C87F8363097F836302F2B03D9F4
:1003900097F83630392B03D997F836302E2B0CD1FD
:1003A000BB6A07F13802134497F8362003F8242C6F
:1003B000BB6A03F10103BB6217E097F836302B2BC1
:1003C00012D097F836302D2B03D14FF0FF333B631B
:1003D0000BE097F836306D2B07D197F8373003F0E4
:1003E00001037A68137207E000BF7B6A03F101031F
:1003F0007B627B6A7F2BBFD97B681B7A002B2FD057
:10040000F86A06F06DFB044607F11C03184606F077
:100410000BFD02460B461046194606F057FA0346F6
:100420002046194606F0B0FB03461A467B681A6060
:10043000386B06F055FB044607F11403184606F026
:10044000F3FC02460B461046194606F03FFA0346F7
:100450002046194606F098FB03461A467B685A6008
:100460007B681B7A184607F13C07BD4690BD00BF6C
:10047000003C1CC680B582B000AF00F0B7FA03465E
:10048000FB71FB79002B20D048F2BC63C1F6FF73EF
:100490001B785BB2002B18DB48F2BC63C1F6FF731C
:1004A0001B781A4649F2A873C1F6FF73F97999547B
:1004B00048F2BC63C1F6FF731B7803F10103DAB2A3
:1004C00048F2BC63C1F6FF731A7007F10807BD4616
:1004D00080BD00BF80B582B000AF4FF00003FB715C
:1004E0004FF00003FB710BE0FA7949F2A873C1F6F3
:1004F000FF734FF000019954FB7903F10103FB7185
:10050000FB795BB2002BEFDA48F2BC63C1F6FF73F4
:100510004FF000021A7000F08FFA07F10807BD468D
:1005200080BD00BF80B500AF00F0F4FB80BD00BF10
:1005300080B500AF4FF0000000F00AFD4FF001035E
:10054000184680BD80B500AF4FF0010000F000FDFF
:100550004FF00003184680BD80B588B000AF7860CA
:100560007B684FF000021A727B68334A1A607B681E
:10057000314A5A6000F062F840F28D60C0F200002B
:1005800000F092FCFFF7D4FF4FF47A7000F030F9DE
:10059000FFF7D8FF4FF000037B614FF00003BB6112
:1005A0004FF000033B612AE03A6949F62803C1F69F
:1005B000FF739B5CFB77BB69072B07DDFB7F0D2B74
:1005C00004D17B684FF001021A721BE0BB69072B54
:1005D0000ADD7B6907F120021344FA7F03F8142C2B
:1005E0007B6903F101037B61FB7F522B03D1BB6964
:1005F00003F10103BB613B6903F101033B613B690B
:100600007F2BD1D97B681B7A002B0DD007F10C030F
:10061000184606F009FC02460B461046194606F03D
:1006200055F902467B685A607B681B7A184607F1C9
:100630002007BD4680BD00BF003C1CC680B582B00F
:1006400000AF4FF00003FB714FF00003FB710BE0B4
:10065000FA7949F62803C1F6FF734FF00001995467
:10066000FB7903F10103FB71FB795BB2002BEFDA3D
:1006700048F2BD63C1F6FF734FF000021A7000F03C
:10068000E9FB07F10807BD4680BD00BF80B582B019
:1006900000AF00F0B9FB0346FB71FB79002B27D0BC
:1006A00048F2BD63C1F6FF731B781A4649F628036A
:1006B000C1F6FF73F979995448F2BD63C1F6FF732F
:1006C0001B7803F10103DAB248F2BD63C1F6FF7390
:1006D0001A7048F2BD63C1F6FF731B785BB2002B42
:1006E00006DA48F2BD63C1F6FF734FF000021A70DC
:1006F00007F10807BD4680BD80B400AFFEE700BF2C
:10070000054B1C7844F001041C70044B1A78D2B2DB
:10071000034B1A70FFF77CFCE8460040F8460040A7
:10072000BC76004080B582B000AF4EF60C53CEF2DE
:10073000000340F20042C0F2FA521A604EF614531F
:10074000CEF200034EF61452CEF20002126842F4CA
:1007500000721A604FF000037B6019E079687B68D3
:10076000032B07D87A6840F20003C0F2000353F865
:10077000223003E040F2F963C0F2000348F20002C5
:10078000C1F6FF7242F821307B6803F101037B6000
:100790007B682F2BE2D947F2BC63C4F200031B78BD
:1007A000DAB249F6A803C1F6FF731A704EF6085381
:1007B000CEF2000348F20002C1F6FF721A6000F0A8
:1007C000AFFD48F20013C1F6FF734FF000021A604C
:1007D00007F10807BD4680BD80B483B000AF034673
:1007E000FB7101BE07F10C07BD4680BC704700BF1E
:1007F00080B582B000AF78600BE048F21813C1F604
:10080000FF731B68184600F057FF7B68A3F5004391
:100810007B607B68B3F5004FEFD848F21013C1F648
:10082000FF731B687A6802FB03F3184600F044FF6D
:1008300007F10807BD4680BD80B584B000AF034610
:100840003960FB714EF60853CEF200031B68FB6063
:10085000FB791F2B03D94FF00000FFF7BDFFFB7999
:1008600003F01F0303F110034FEA8302FB681344F4
:100870001B68BB60FB7903F01F0303F110034FEA11
:100880008302FB6813443A681A60BB68184607F194
:100890001007BD4680BD00BF80B582B000AF0246E4
:1008A0000B46FA71BB71BB79072B03D94FF00000DF
:1008B000FFF792FFFB791F2B03D94FF00000FFF7E2
:1008C0008BFFFB7903F01F0303F1604303F56443DF
:1008D000BA794FEA4212D2B21A7007F10807BD4640
:1008E00080BD00BF80B500AF48F2BE63C1F6FF73A4
:1008F0001B78002B08D100F00BF848F2BE63C1F65C
:10090000FF734FF001021A7000F034F880BD00BF91
:1009100080B500AF4FF0030000F0B8F84FF0FF00D3
:1009200000F0D6F84FF0000000F0E2F846F28653EF
:10093000C4F200034FF072021A7046F28753C4F2F9
:1009400000034FF020021A7046F22743C4F200035E
:100950004FF007021A7046F23743C4F200034FF01B
:1009600048021A7046F28643C4F200034FF00002B8
:100970001A7080BD80B582B000AF00F0A5FE0346BE
:10098000FB7146F29653C4F2000346F29652C4F24B
:1009900000021278D2B242F02002D2B21A7046F2AD
:1009A0009753C4F2000346F29752C4F20002127841
:1009B000D2B242F01002D2B21A7046F29643C4F29A
:1009C000000346F29642C4F200021278D2B242F01C
:1009D0001002D2B21A7000F05BF9FB79184600F0F1
:1009E00077FE07F10807BD4680BD00BF80B483B025
:1009F00000AF4FF00003BB7146F26753C4F200032F
:100A00001B78FB71FB7903F02003002B0DD046F21D
:100A10004843C4F200031B78BB71FB7903F01E034B
:100A2000002B02D04FF00003BB71BB79184607F1D1
:100A30000C07BD4680BC704780B582B000AF00F0A7
:100A400043FE0346FB7146F29843C4F2000346F2AC
:100A50009842C4F200021278D2B242F00102D2B23D
:100A60001A7046F29843C4F2000346F29842C4F268
:100A700000021278D2B202F0FE021A70FB79184618
:100A800000F026FE07F10807BD4680BD80B485B0A2
:100A900000AF0346FB7146F27743C4F200031B78B4
:100AA000DBB203F01F03FB73FB794FEA4313DAB2A7
:100AB000FB7B42EA0303FB7346F27743C4F2000375
:100AC000FA7B1A7007F11407BD4680BC704700BF5F
:100AD00080B483B000AF0346FB7146F22843C4F2F2
:100AE0000003FA791A7007F10C07BD4680BC704705
:100AF00080B483B000AF0346FB7146F23843C4F2C2
:100B00000003FA791A7007F10C07BD4680BC7047E4
:100B100080B483B000AF0346FB7146F26643C4F273
:100B200000031B78DBB203F00403002BF5D146F27F
:100B30004643C4F20003FA791A7007F10C07BD4668
:100B400080BC704780B584B000AF78600B46FB7006
:100B50004FF00003FB7348F2BE63C1F6FF731B78CE
:100B6000002B0ED0FA7B7B6813441B781846FFF7E6
:100B7000CFFFFB7B03F10103FB73FA7BFB789A4207
:100B8000F0D307F11007BD4680BD00BF80B582B02D
:100B900000AF786000F04EF8786800F017F84FF07A
:100BA000070000F027F800F039F807F10807BD4604
:100BB00080BD00BF80B500AF00F03CF840F2F960A6
:100BC000C0F2000000F002F880BD00BF80B485B024
:100BD00000AF78604EF60853CEF200031B68FB604E
:100BE000FB6803F14C037A681A6007F11407BD46ED
:100BF00080BC704780B483B000AF0346FB714EF2F7
:100C00000343CEF20003FA794FEA4212D2B21A70CD
:100C100007F10C07BD4680BC704700BF80B400AF31
:100C20004EF20013CEF200034FF008021A60BD46E8
:100C300080BC704780B400AF4EF28013CEF2000348
:100C40004FF008021A60BD4680BC704780B485B082
:100C500000AF0346FB7145F2C013C4F200031B78DA
:100C6000DBB223F00803FB7345F2C013C4F20003A8
:100C7000FA794FEAC202D2B202F00802F97B42EAE4
:100C80000102D2B21A7007F11407BD4680BC70474A
:100C900080B400AF44F2A233C4F2000344F2A232A3
:100CA000C4F200021278D2B242F00802D2B21A7034
:100CB00044F2B233C4F2000344F2B232C4F200028E
:100CC0001278D2B242F00802D2B21A70BD4680BC8D
:100CD000704700BF80B485B000AF0346FB7145F29A
:100CE0002013C4F200031B78DBB223F00103FB7373
:100CF00045F22013C4F20003FA7902F00102F97BF5
:100D000042EA0102D2B21A7007F11407BD4680BC54
:100D1000704700BF80B500AF48F2C063C1F6FF73F3
:100D20001B78002B08D100F00BF848F2C063C1F625
:100D3000FF734FF001021A7000F02AF880BD00BF67
:100D400080B400AF46F28F43C4F200034FF072024A
:100D50001A7046F28843C4F200034FF020021A7062
:100D600046F22943C4F200034FF007021A7046F21C
:100D70003943C4F200034FF048021A7046F28C4324
:100D8000C4F200034FF000021A70BD4680BC7047E9
:100D900080B582B000AF00F097FC0346FB7146F2CD
:100DA0009F43C4F2000346F29F42C4F2000212784D
:100DB000D2B242F02002D2B21A7046F29843C4F284
:100DC000000346F29842C4F200021278D2B242F016
:100DD0001002D2B21A7046F29C43C4F2000346F2EB
:100DE0009C42C4F200021278D2B242F01002D2B297
:100DF0001A7000F0CFF8FB79184600F069FC07F193
:100E00000807BD4680BD00BF80B483B000AF4FF07F
:100E10000003BB7146F26843C4F200031B78FB7108
:100E2000FB7903F02003002B0DD046F24C43C4F2B3
:100E300000031B78BB71FB7903F01E03002B02D06B
:100E40004FF00003BB71BB79184607F10C07BD4694
:100E500080BC704780B582B000AF00F035FC03461F
:100E6000FB7146F29C43C4F2000346F29C42C4F27A
:100E700000021278D2B242F00102D2B21A7046F2E7
:100E80009C43C4F2000346F29C42C4F20002127872
:100E9000D2B202F0FE021A70FB79184600F018FC7C
:100EA00007F10807BD4680BD80B582B000AF78600D
:100EB00000F042F8786800F00BF84FF0070000F0FF
:100EC0001BF800F02DF807F10807BD4680BD00BFF4
:100ED00080B485B000AF78604EF60853CEF20003C0
:100EE0001B68FB60FB6803F148037A681A6007F12E
:100EF0001407BD4680BC704780B483B000AF034682
:100F0000FB714EF20243CEF20003FA794FEA42122D
:100F1000D2B21A7007F10C07BD4680BC704700BF03
:100F200080B400AF4EF20013CEF200034FF0040283
:100F30001A60BD4680BC704780B400AF4EF280138B
:100F4000CEF200034FF004021A60BD4680BC704729
:100F500080B485B000AF0346FB7145F20013C4F2C4
:100F600000031B78DBB223F00403FB7345F200138C
:100F7000C4F20003FA794FEA8202D2B202F004020C
:100F8000F97B42EA0102D2B21A7007F11407BD469A
:100F900080BC704780B400AF44F2A233C4F20003B7
:100FA00044F2A232C4F200021278D2B242F0040239
:100FB000D2B21A7044F2B233C4F2000344F2B23235
:100FC000C4F200021278D2B242F00402D2B21A7015
:100FD000BD4680BC704700BF80B485B000AF78606C
:100FE00039607B68BB604FF00003FB6009E0BA68C2
:100FF000FB6813444FF000021A70FB6803F1010311
:10100000FB60FA683B689A42F1D307F11407BD46CA
:1010100080BC704780B489B000AFF860B9607A6076
:10102000FB687B61BB68BB614FF00003FB610BE0B9
:101030007A69FB691344B969FA690A4412781A702B
:10104000FB6903F10103FB61FA697B689A42EFD304
:1010500007F12407BD4680BC704700BF80B582B051
:1010600000AF7860396078684FF000013A6806F0A8
:10107000A3FA07F10807BD4680BD00BF80B584B064
:1010800000AFF860B9607A60F868B9687A6806F00D
:10109000CBF907F11007BD4680BD00BF80B487B013
:1010A00000AF786039604FF00003FB604FF0000341
:1010B000BB602CE0BB684FEA83027B6813441B686B
:1010C0003B613B69FB753B6923F0FF033B6117E024
:1010D000FB684FEA43023B6813441B781A463B699E
:1010E0001344FA684FEA42013A680A4452781A7087
:1010F000FB6803F10103FB60FB7D03F1FF33FB752C
:10110000FB7D002BE4D1BB6803F10103BB60BB682E
:10111000242BCFD907F11C07BD4680BC704700BF08
:1011200080B500AF44F28003C4F200034FF0000228
:101130001A8044F28203C4F200034FF058021A707E
:1011400044F28403C4F200034FF019021A8044F2FF
:101150008603C4F200034FF018021A7044F28803A9
:10116000C4F200034FF49C721A8044F28A03C4F262
:1011700000034FF018021A7044F28C03C4F200030B
:101180004FF49C721A8044F28E03C4F200034FF0B5
:1011900018021A7044F20033C4F200034FF0020246
:1011A0001A7044F20003C4F200034FF008021A70F0
:1011B00044F20023C4F200034FF003021A7044F219
:1011C000A163C4F2000340F20812C4F600121278C0
:1011D000D2B21A7044F22223C4F200034FF0080284
:1011E0001A8044F22023C4F2000341F251021A8013
:1011F00040F6B83000F060FA44F20403C4F2000391
:101200004FF003021A7044F20503C4F200034FF0DA
:1012100001021A7044F20403C4F200034FF000020A
:101220001A7044F20403C4F200034FF007021A706C
:1012300044F20603C4F200034FF000021A7044F2B5
:101240000803C4F200034FF048021A7044F204038A
:10125000C4F200034FF000021A7044F20103C4F21A
:1012600000034FF002021A7044F2A233C4F20003EA
:1012700044F2A232C4F200021278D2B242F00F025B
:10128000D2B21A7080BD00BF80B400AF44F2AA335E
:10129000C4F200034FF444721A8045F62003C4F2EE
:1012A00000034FF01E021A7045F62403C4F2000337
:1012B0004FF01E021A7045F62803C4F200034FF0E7
:1012C0001E021A7045F62C03C4F200034FF01E02F2
:1012D0001A7045F60013C4F200036FF03F021A7053
:1012E00045F60313C4F200034FF00C021A7045F6E2
:1012F0000813C4F200036FF03F021A7045F60B1397
:10130000C4F200034FF00C021A7045F67603C4F2E3
:1013100000034FF044021A70BD4680BC704700BF06
:1013200080B586B000AF72B644F60003C4F2000385
:101330004FF000021A70FFF7F3FE44F60003C4F208
:1013400000036FF07F021A7047F21003C4F200032B
:101350004FF000021A7047F22003C4F200034FF06E
:1013600000021A7045F67C03C4F200034FF001023C
:101370001A7044F2E863C4F2000344F2E862C4F273
:1013800000021278D2B242F00102D2B21A704FF0CB
:101390000003FB702FE0FA7813464FEA430313442F
:1013A0004FEA43031A464EF23C13C0F200031344C3
:1013B0007B607B681A7859784FEA012141EA020282
:1013C00099784FEA014141EA0202DB784FEA036370
:1013D00043EA02031A467B6819795B794FEA0323D3
:1013E00043EA01039BB210461946FFF737FEFB782C
:1013F00003F10103FB70FB78072BCCD94FF00003FE
:10140000FB7043E0FA7813464FEA830313444FEA34
:1014100043031A464EF26C13C0F200031344BB6040
:10142000BB681A7859784FEA012141EA020299789B
:101430004FEA014141EA0202DB784FEA036343EAE3
:101440000203FB60BB681A7959794FEA012141EA2E
:10145000020299794FEA014141EA0202DB794FEA3F
:10146000036343EA02033B61BB681A7A5B7A4FEA83
:10147000032343EA0203FB82FB8AF86839691A46B0
:10148000FFF7FCFDFB7803F10103FB70FB78012BF8
:10149000B8D94FF0904040F29401C4F60001FFF734
:1014A000FDFD45F20020C4F2000040F6D061C4F614
:1014B00000014FF00702FFF7ADFD45F20820C4F22E
:1014C000000040F6D861C4F600014FF00702FFF7B4
:1014D000A1FD45F21020C4F2000040F6E061C4F620
:1014E00000014FF00702FFF795FD45F21820C4F206
:1014F00000004FF00701FFF76FFD45F22020C4F216
:10150000000040F6E861C4F600014FF00702FFF763
:1015100081FD45F22820C4F200004FF00701FFF7DB
:101520005BFD45F23020C4F2000040F6F061C4F6E5
:1015300000014FF00702FFF76DFD45F26020C4F295
:10154000000040F6F861C4F600014FF00602FFF714
:1015500061FD45F27820C4F200004FF00701FFF76B
:101560003BFD45F20303C4F2010345F20302C4F25A
:1015700001021278D2B242F00202D2B21A7045F2DF
:101580001303C4F2010345F21302C4F201021278FC
:10159000D2B242F00202D2B21A7044F2A033C4F2C4
:1015A000000344F2A032C4F200021278D2B242F038
:1015B0004002D2B21A7044F2C233C4F2000344F2C1
:1015C000C232C4F200021278D2B242F01002D2B299
:1015D0001A7045F20010C4F2000040F68461C4F6AF
:1015E00000014FF00A02FFF749FD45F2C010C4F2B6
:1015F000000040F69061C4F600014FF00A02FFF7C8
:1016000009FD45F21010C4F2000040F69C61C4F6DA
:1016100000014FF00A02FFF731FD45F22010C4F23D
:10162000000040F6A861C4F600014FF00A02FFF77F
:1016300025FD45F23010C4F2000040F6B461C4F656
:1016400000014FF00A02FFF719FD45F24210C4F203
:10165000000040F6C061C4F600014FF00802FFF739
:101660000DFD45F26210C4F2000040F6C861C4F6F8
:1016700000014FF00802FFF701FDFFF705FE44F2FD
:10168000B030C4F2000044F2A031C4F200014FF0C7
:101690000C02FFF7F3FC44F2B033C4F2000344F24F
:1016A000B032C4F200021278D2B202F0FD021A7017
:1016B00007F11807BD4680BD0230800803D000BF87
:1016C00001380046FCD17047EFF3108072B67047C6
:1016D00080F31088704700BF80B582B000AF78609B
:1016E00000F050FE00F03EFA00F052F800F09AF9D7
:1016F00049F6C803C1F6FF737A681A6007F1080754
:10170000BD4680BD80B500AF00F0E6FD0346002B6E
:1017100001D000F005F84FF00103184680BD00BF6E
:1017200080B582B000AF00F0ADF90346FB71FB79E4
:1017300003F00103DBB2002B07D049F6C803C1F662
:10174000FF731B684FF000009847FB7903F002031A
:10175000002B07D049F6C803C1F6FF731B684FF092
:101760000100984707F10807BD4680BD80B500AF6E
:1017700000F008FE00F0F6F900F00AF800F052F967
:1017800080BD00BF80B500AF03F01CFE80BD00BF70
:1017900080B582B000AF4FF000033B714FF0000303
:1017A0007B7107F104034FF0000019464FF002026D
:1017B00000F040F807F10807BD4680BD80B582B053
:1017C00000AF02460B46FA71BB71FA79BB794FF054
:1017D000680011461A4600F03BFE07F10807BD46B7
:1017E00080BD00BF80B582B000AF0346FB71FB79BE
:1017F0004FF06800194600F045FE0346184607F111
:101800000807BD4680BD00BF80B582B000AF02466C
:101810000B46FA71BB71FA79BB794FF0680011463B
:101820001A4600F04FFE0346184607F10807BD466A
:1018300080BD00BF80B584B000AFB96013460246DA
:10184000FA73FB71FA7BFB794FF068001146BA68B6
:1018500000F056FE07F11007BD4680BD80B584B08C
:1018600000AF00F011FA03463B7200F06DFA034638
:101870007B7200F0B9FA0346BB7200F005FB034629
:10188000FB7200F051FB03463B7300F091FB0346F3
:101890007B7300F0DDFB0346FB813B46184600F0FE
:1018A00027FC4FF00A033B704FF00A037B7040F2B5
:1018B000DC73FB803B4693E8030000F075FC07F106
:1018C0001007BD4680BD00BF80B485B000AFF86092
:1018D000B9607A603B6007F11407BD4680BC704771
:1018E00080B584B000AF0346FB7149F6B803C1F67A
:1018F000FF73FA791A704FF00000FFF773FF034689
:10190000FB73FB7B43F00203FB73FB7B4FF0000098
:101910001946FFF753FF00F005F807F11007BD4621
:1019200080BD00BF80B582B000AF00F00DFA034665
:10193000BB7149F6B803C1F6FF731B781946B87935
:1019400049F6B803C1F6FF731A78BB79B3FBF2FC12
:1019500002FB0CF2C2EB0303DBB2C3EB000249F65D
:10196000B803C1F6FF731B7892FBF3F303F1010395
:1019700003FB01F148F68903C8F6880383FB0123C2
:101980000B444FEA63124FEAE173C3EB02021346C2
:101990004FEA0313C2EB03034FEA8303C3EB0102D5
:1019A0001346FB71FB79184600F00AFA034603F070
:1019B0007F034FF00A001946FFF700FF07F1080701
:1019C000BD4680BD80B582B000AF4FF00000FFF78C
:1019D00009FF0346FB71FB7943F00403FB71FB79BC
:1019E0004FF000001946FFF7E9FE07F10807BD4672
:1019F00080BD00BF80B582B000AF4FF00000FFF7A0
:101A0000F1FE0346FB71FB7923F00403FB71FB79C4
:101A10004FF000001946FFF7D1FE07F10807BD4659
:101A200080BD00BF80B582B000AF4FF00F00FFF760
:101A3000D9FE0346FB71FB7943F03803FB71FB7958
:101A40004FF00F001946FFF7B9FE07F10807BD4632
:101A500080BD00BF80B582B000AF4FF00100FFF73E
:101A6000C1FE0346FB71FB7923F01003FB71FB7988
:101A70004FF001001946FFF7A1FE07F10807BD4628
:101A800080BD00BF80B582B000AF4FF00003BB71D6
:101A90004FF00100FFF7A6FE0346FB71FB7903F050
:101AA0001003002B07D0FB7923F01003FB71BB79E7
:101AB00043F00103BB71FB7903F00803002B09D04D
:101AC000FB7923F00803FB71FFF72CFFBB7943F090
:101AD0000203BB71FB794FF001001946FFF76EFE60
:101AE000BB79184607F10807BD4680BD80B58CB0AC
:101AF00002AF07F12003184600F0FAFA97F82230F7
:101B00001A4697F8213097F82010084607F104018B
:101B1000009008464EF28011C0F2000106F064F811
:101B200007F12807BD4680BD80B58CB002AF07F134
:101B30002003184600F0DCFA97F822301A4697F88E
:101B4000213097F82010084607F10401009008465C
:101B50004EF29811C0F2000106F046F807F128078E
:101B6000BD4680BD80B582B000AF4FF00200FFF7E8
:101B700039FE0346FB71FB7903F0E003E02B05D14E
:101B80004FF002004FF08001FFF718FE07F1080741
:101B9000BD4680BD80B483B000AF13460246FA71E3
:101BA0000A46BA717B71FA79BB7902EA0303DBB2A8
:101BB0004FEA1313DBB21A464FEA820213444FEA8C
:101BC0004303DAB2F9797B7901EA0303DBB2134408
:101BD000DBB2184607F10C07BD4680BC704700BF5A
:101BE00080B483B000AF13460246FA710A46BA7158
:101BF0007B71FA794CF6CD43CCF6CC43A3FB0213B0
:101C00004FEAD3010B464FEA83030B444FEA4303E9
:101C1000C3EB0203DAB27B7902EA0303DBB21846B4
:101C200097F807C0FA794CF6CD43CCF6CC43A3FB2A
:101C300002134FEAD3010B464FEA83030B444FEAEA
:101C40004303C3EB0203DBB2C3EB0C0246F2676350
:101C5000C6F2666383FB02134FEAA3014FEAE27305
:101C6000C3EB01034FEA0313DAB2BB7902EA0303C1
:101C7000DBB2024642EA0303DBB2DBB2184607F1ED
:101C80000C07BD4680BC704780B500AF4FF0030025
:101C9000FFF7A8FD0346184600F01EF80346184655
:101CA00080BD00BF80B582B000AF0346FB71FB79F9
:101CB0003C2B02D94FF03C03FB71FB79184600F036
:101CC0002FF803464FF003001946FFF777FD07F1A1
:101CD0000807BD4680BD00BF80B582B000AF034697
:101CE000FB71FB794FEAD313DBB2012B0AD1FB79ED
:101CF000032B07D1FB7903F07F034FF00300194654
:101D0000FFF75CFDFB7918464FF070014FF00F02B2
:101D1000FFF740FF0346184607F10807BD4680BDA0
:101D200080B582B000AF0346FB71FB7918464FF0D7
:101D300070014FF00F02FFF753FF0346184607F1FB
:101D40000807BD4680BD00BF80B500AF4FF004005E
:101D5000FFF748FD0346184600F01EF803461846F4
:101D600080BD00BF80B582B000AF0346FB71FB7938
:101D70003C2B02D94FF03C03FB71FB79184600F075
:101D80001FF803464FF004001946FFF717FD07F14F
:101D90000807BD4680BD00BF80B582B000AF0346D6
:101DA000FB71FB7918464FF070014FF00F02FFF7FF
:101DB000F1FE0346184607F10807BD4680BD00BF87
:101DC00080B582B000AF0346FB71FB7918464FF037
:101DD00070014FF00F02FFF703FF0346184607F1AB
:101DE0000807BD4680BD00BF80B500AF4FF00500BD
:101DF000FFF7F8FC0346184600F01EF803461846A5
:101E000080BD00BF80B582B000AF0346FB71FB7997
:101E1000182B02D94FF00003FB71FB79184600F034
:101E20001FF803464FF005001946FFF7C7FC07F1FE
:101E30000807BD4680BD00BF80B582B000AF034635
:101E4000FB71FB7918464FF030014FF00F02FFF79E
:101E5000A1FE0346184607F10807BD4680BD00BF36
:101E600080B582B000AF0346FB71FB7918464FF096
:101E700030014FF00F02FFF7B3FE0346184607F19B
:101E80000807BD4680BD00BF80B500AF4FF006001B
:101E9000FFF7A8FC0346184600F01EF80346184654
:101EA00080BD00BF80B582B000AF0346FB71FB79F7
:101EB0001F2B02D94FF01F03FB71FB79184600F06E
:101EC0001FF803464FF006001946FFF777FC07F1AD
:101ED0000807BD4680BD00BF80B582B000AF034695
:101EE000FB71FB7918464FF030014FF00F02FFF7FE
:101EF00051FE0346184607F10807BD4680BD00BFE6
:101F000080B582B000AF0346FB71FB7918464FF0F5
:101F100030014FF00F02FFF763FE0346184607F14A
:101F20000807BD4680BD00BF80B500AF4FF0070079
:101F3000FFF758FC0346184600F01EF80346184603
:101F400080BD00BF80B582B000AF0346FB71FB7956
:101F5000072B02D94FF00703FB71FB79184600F0FD
:101F600019F803464FF007001946FFF727FC07F161
:101F70000807BD4680BD00BF80B483B000AF0346F4
:101F8000FB71FB7903F00303184607F10C07BD460C
:101F900080BC704780B483B000AF0346FB71FB790F
:101FA00003F00303184607F10C07BD4680BC7047D9
:101FB00080B500AF4FF00800FFF714FC0346184649
:101FC00000F01EF80346184680BD00BF80B582B001
:101FD00000AF0346FB71FB790C2B02D94FF00C03C9
:101FE000FB71FB79184600F01FF803464FF008001C
:101FF0001946FFF7E3FB07F10807BD4680BD00BFA8
:1020000080B582B000AF0346FB71FB7918464FF0F4
:1020100010014FF00F02FFF7BDFD0346184607F110
:102020000807BD4680BD00BF80B582B000AF034643
:10203000FB71FB7918464FF010014FF00F02FFF7CC
:10204000CFFD0346184607F10807BD4680BD00BF17
:1020500080B500AF4FF00900FFF7C4FB03461846F8
:1020600000F01EF8034603F5FA639BB2184680BDE4
:1020700080B582B000AF0346FB80FB88A3F5FA630E
:10208000FB80FB88DBB2184600F01EF803464FF0D9
:1020900009001946FFF792FB07F10807BD4680BD0E
:1020A00080B582B000AF0346FB71FB7918464FF054
:1020B000F0014FF00F02FFF76DFD0346184607F1E0
:1020C0000807BD4680BD00BF80B582B000AF0346A3
:1020D000FB71FB7918464FF0F0014FF00F02FFF74C
:1020E0007FFD0346184607F10807BD4680BD00BFC7
:1020F00090B585B000AF04464FF003004FF00701E4
:10210000FFF782FB0346FB60FB681B781846FFF76E
:10211000E3FD03463B71FB6803F101031B7818469E
:10212000FFF73AFE03467B71FB6803F102031B785D
:102130001846FFF781FE0346BB71FB6803F10303FA
:102140001B781846FFF7C8FE0346FB71FB6803F1D6
:1021500004031B781846FFF70FFF03463B72FB682A
:1021600003F105031B781846FFF74AFF03467B720D
:10217000FB6803F106031B781846FFF791FF03463F
:1021800003F5FA639BB27B81214607F104024FF00D
:102190000803084611461A4605F046F9204607F19D
:1021A0001407BD4690BD00BF80B584B000AF3B466C
:1021B00083E803003B781846FFF7B2FD03463B7205
:1021C0007B781846FFF7FCFD03467B72BB78184608
:1021D000FFF746FE0346BB72FB781846FFF790FEFA
:1021E0000346FB723B791846FFF7D4FE03463B7368
:1021F0007B791846FFF718FF03467B73FB88DBB239
:1022000003F13003DBB21846FFF75EFF0346BB73F2
:1022100007F108034FF0030019464FF00702FFF7DC
:1022200009FB07F11007BD4680BD00BF80B584B033
:1022300000AF786007F108031846796800F00AF8E3
:1022400007F1080393E80300FFF7AEFF07F110075B
:10225000BD4680BD90B587B000AF044679607B680D
:102260003B6107F11003184604F0E2FD03467B6171
:102270007B691B68DBB23B727B695B68DBB27B729C
:102280007B699B68DBB2BB727B69DB68DBB2FB728C
:102290007B699B69DBB23B737B691B69DBB203F132
:1022A0000103DBB27B737B695B699BB203F5EC6373
:1022B00003F10C039BB2FB81214607F108024FF0AA
:1022C0000803084611461A4605F0AEF8204607F105
:1022D0001C07BD4690BD00BF80B500AF03F060F89D
:1022E0000346002B14BF00230123184680BD00BF06
:1022F00080B500AF02F0FEFD80BD00BF80B500AF2D
:1023000002F06AFE80BD00BF80B500AFFFF7F0FFAE
:1023100080BD00BF80B500AFFFF7F0FF80BD00BFFC
:1023200080B582B000AF0346FB71FB791846FFF71A
:10233000D7FA07F10807BD4680BD00BF80B500AFE2
:10234000FFF740FB80BD00BF80B500AFFFF752FB39
:1023500080BD00BF98B500AF04462046FFF7C8FE19
:10236000204698BD80B582B000AF3B4683E80300AD
:102370003B4693E80300FFF717FF07F10807BD4648
:1023800080BD00BF80B500AF02F070FA80BD00BF15
:1023900080B586B000AFB96013460246FA73FB7190
:1023A00002F0ACFF4FF000037B614FF000037B6154
:1023B0000DE07A697969BB680B44197849F6AC037A
:1023C000C1F6FF7399547B6903F101037B61FA79CC
:1023D0007B699A42EDDCFA7BFB79104649F6AC0149
:1023E000C1F6FF711A464FF0000302F00BFE02F037
:1023F00067FF034603F00203002BF8D007F118072C
:10240000BD4680BD80B582B000AF02460B46FA7172
:10241000BB7102F073FFFA79BB79104649F6BC0133
:10242000C1F6FF711A464FF0000302F099FE02F068
:1024300047FF034603F00103002BF8D049F6BC0325
:10244000C1F6FF73184607F10807BD4680BD00BFFF
:1024500080B584B000AF13460246FA710A46BA71DD
:102460007B71BB793B737B797B73FA7907F10C0342
:10247000104619464FF00202FFF78AFF07F11007D6
:10248000BD4680BD80B584B000AF02460B46FA71F0
:10249000BB71FA7907F10603104619464FF00102A5
:1024A000FFF776FFFB7918464FF00101FFF7AAFF0F
:1024B0000346FB60FB681B78184607F11007BD4612
:1024C00080BD00BF80B582B000AF13460246FA71EE
:1024D0000A46BA717B71FA7907F10603104619466C
:1024E0004FF00102FFF754FFFA797B791046194645
:1024F000FFF788FF0346184607F10807BD4680BD71
:102500002DE9F04F89B000AFBA600246FA730A466F
:10251000BA73FB716B461E46FB7903F1010101F1B1
:10252000FF337B610B461A464FF000034FF0FF3A32
:102530004FF00F0B02EA0A0203EA0B034FEA527054
:102540004FEAC30940EA09094FEAC2084FF0FF32D7
:102550004FF00F0308EA020809EA03090B461A467E
:102560004FF000034FF0FF384FF00F0902EA080266
:1025700003EA09034FEA52704FEAC30540EA050532
:102580004FEAC2044FF0FF324FF00F0304EA020497
:1025900005EA03050B4603F1070303F107034FEABE
:1025A000D3034FEAC303ADEB030D6B4603F10703FF
:1025B0004FEAD3034FEAC303BB61BB69BA7B1A700E
:1025C0004FF00003FB614FF00003FB610CE0FB697F
:1025D00003F10103F969BA680A441178BA69D15460
:1025E000FB6903F10103FB61FA79FB699A42EEDCB6
:1025F000BA69FB7903F10103DBB2F97B08461146A6
:102600001A46FFF7C5FEB54607F12407BD46BDE8EB
:10261000F08F00BFC9B203E00BB918467047013014
:1026200003788B42F8D1704742780178431C42EA24
:1026300001205A789B7842EA002043EA0020704744
:102640008378C27803EB0222437803EB02220378FB
:1026500003EB0220704703460A0A03F8011B42708D
:102660000A0C090E5A70997070470170090A41707E
:1026700070474278037843EA02207047094A0A4BC0
:10268000C11C10B5146821F00301186809198142B2
:1026900001D9002010BD11609A68586801322018D5
:1026A0009A6010BD5099FF1FC486FF1F08B5FFF741
:1026B000E5FF00B9FEE708BDFFF7E0BF30B1044A0F
:1026C0009368013B93600BB9024A1360704700BFE7
:1026D000C486FF1F5099FF1F014B58601960704757
:1026E000C486FF1F38B50546FFF7E0FF002104460A
:1026F0002A4601F0EFFD204638BD000010B5064C1B
:10270000A37C13F0010F05D000F0C2F8A37C23F0E6
:102710000103A37410BD00BFCC98FF1F10B5134C6C
:10272000FFF7ECFFA37C13F0020F1ED0A3685868DC
:10273000FFF7C4FFA068FFF7C1FF0023E360A069B3
:1027400003E0446AFFF7BAFF20460028F9D1074B9F
:10275000586903E0C468FFF7B1FF20460028F9D1AB
:10276000024B9A7C22F002029A7410BDCC98FF1F93
:1027700010B5084CA37C0BB1002010BD4FF40073C2
:10278000238202F031FEA37C012043F00103A374F5
:1027900010BD00BFCC98FF1F094B10B5D8689A68D0
:1027A000002308E0114652F8084B1CB901230B60C6
:1027B000486810BD01338342F4D3002010BD00BF30
:1027C000CC98FF1F084B30B50022DC689B6808E0FE
:1027D0005D6819460833854202D100230B6030BD85
:1027E0000132A242F4D330BDCC98FF1F0123037302
:1027F000704700230373704710B100228272026099
:10280000704718B1027B0AB1013A027370470000A9
:1028100038B5FFF7ADFF20B3124C4200E260000173
:10282000FFF760FF238AA060E0685843FFF75AFF74
:10283000A568E168228A002304E005EBC304606018
:10284000013380188B42F8D31020FFF74BFF054C63
:1028500060612820FFF746FFA37CA06143F00203DC
:10286000A37438BDCC98FF1F38B510220D46002147
:10287000044601F02FFDFFF78FFF08B9013038BD86
:10288000A0604FF0FF33002065602360A07338BD67
:10289000F8B5154C0025E66F1C341FE0204601F00A
:1028A00099FD18B9204600F025FA02E0204600F014
:1028B0004BFA0022134640F2F331204600F0FEF9B5
:1028C000002160222046E76D01F004FD074B9C4289
:1028D00002D02046FFF7F2FE01353C46B542DDDB73
:1028E000014B0022DA67F8BDCC98FF1FE898FF1F64
:1028F00038B5837A044643B1056801F0D5FB284614
:10290000FFF77FFF2046FFF777FF002038BD08B5AF
:102910000368827A03B19B6822B11BB1FFF7E8FF1D
:10292000002008BD012008BD08B901307047FFF73D
:10293000EEBF000038B5104B9C69217B59B921606E
:102940006160A16004F11000142201F0C3FC237B3C
:10295000013323730DE0656A45B92820FFF7ACFE0B
:10296000606218B12946282201F0B4FC646A002C88
:10297000E3D1204638BD00BFCC98FF1F38B50E4BC1
:102980005C69A17AE56839B92046102201F0A2FC01
:102990000123A372E5600CE045B91020FFF78CFE1F
:1029A000E06018B12946102201F094FCE468002C84
:1029B000E7D1204638BD00BFCC98FF1F2DE9F74F67
:1029C00006460020884691469B469DF830A09DF81B
:1029D0003470FFF7AFFF054608B9044610E0FFF773
:1029E000CDFF044660B180F80B900560AE604046B4
:1029F000214652463B46CDF800B001F089F930B18E
:102A00002046FFF7F9FE2846FFF7FBFE002420468C
:102A1000BDE8FE8F2DE9FF410C461F4604A90023A7
:102A200041F8043D15469DF8286000F0D5F8804631
:102A3000B8B1039B0BB11B789BB1404600F0C1F9C4
:102A400000280EDD14F0150F01D0032809D10399D9
:102A500039B1404622462B4600970196FFF7AEFF5C
:102A600000E0002004B0BDE8F08100002DE9F34152
:102A70000646884600240E4D404655F83410E700BF
:102A800001F05EFC10B9002C04DA0DE001340F2CCB
:102A9000F1D109E07D19A87929790090EA796B795B
:102AA0003046FFF7B7FF00E00020BDE8FC8100BF23
:102AB000B0E10000FFF7DABF10B5437B04460BB16D
:102AC000012010BD40682168A268A37B01F01AFDB7
:102AD00010B10120607310BD207310BD10B5437B91
:102AE000044663B9037B53B140682168A268A37BA5
:102AF00001F008FD08B1012363730023237310BDA7
:102B0000036870B5994204460D46164607D0037B0C
:102B10000BB1FFF7E3FF00232560A673E37370BDDD
:102B2000FFF7DCBF10B50446FFF7D8FFA068BDE88B
:102B30001040FFF747BE01230373FFF7CFBF10B567
:102B40000446407B08B1012010BDE37B5BB960689F
:102B50002168A268A37B01F06FFC10B101206073B3
:102B600010BD0122E27310BD08B5436813B94FF0E0
:102B7000FF3008BD984708BDF8B50C46174600233E
:102B8000144D01E0ED6D01338342FBDB2B682879A6
:102B90001B68984706460CB92046F8BD01F0DDFBDE
:102BA0000530B84214DC22460020335C0132235445
:102BB0000130315C0029F8D113464FF03A0C03F88C
:102BC00001CB2C7903303034547083F801C09970F4
:102BD000F8BD00BFE898FF1F2DE9F0470F463A21E6
:102BE0000646FFF717FD044610B93446174D27E097
:102BF0000378C6EB000A5BB114F8013F43B1627879
:102C00003A2A05D1A3F130085FFA88F8023401E0CE
:102C10004FF000080D4D2B6828791B6898478146B6
:102C200001F09BFB504508D148463146524601F021
:102C30009CFB10B92B79434502D0ED6D002DEAD1F4
:102C400007B13C602846BDE8F08700BFE898FF1F49
:102C5000F8B5174C064694F85B10E56D69B960222B
:102C60000127204601F036FB84F85B70E5653046AD
:102C7000FFF77AFF00280EDA18E045B96020FFF769
:102C80001BFDE06518B12946602201F023FBE46DCD
:102C9000002CE0D10AE0074B2660DA6F0132DA67D8
:102CA0000323207184F85B7084F85A302046F8BD05
:102CB000E898FF1FCC98FF1FFFF7CABFA1F57C7CE7
:102CC000BCF1030F2DE9F04106460C4615461F46A0
:102CD0000BD901F07FFB002803DA4FF0FF30BDE88D
:102CE000F081304621462A463B46BDE8F04101F0DE
:102CF00010BC000010B590F8593004469BB1114B40
:102D00005B690EE09A7A5AB11A684AB19168A14299
:102D100006D1002199721960117B09B10139117333
:102D2000DB68002BEED100221346204640F2F13141
:102D3000FFF7C4FF002384F8593063712361636196
:102D400010BD00BFCC98FF1F38B590F8593004462D
:102D50005BB10F4B5D6906E0AB7A1BB12B689B68DA
:102D6000A34210D0ED68002DF6D100221346204674
:102D70004FF47C71FFF7A2FF002384F85930637190
:102D80002361636138BD2846FFF7B2FDEAE700BF63
:102D9000CC98FF1F38B504460D4601F01BFB08B95F
:102DA000013838BD204601F028FB204601F0D6FC52
:102DB000204600F0D7FC08B184F8595094F8590027
:102DC00038BD90F8593023B990F85A1009B1FFF77F
:102DD000E1BF1846704730B51346BAB1B0B10268CA
:102DE000857A0AB1946804B900247DB172B16CB1DE
:102DF000C27A12F0100204D14FF6FA730381104622
:102E000030BD1A46BDE8304001F070B9002030BD39
:102E1000FFF7E1BF0C2802D0102805D102E001EB3A
:102E20005100704748007047880070470368406849
:102E30009B685B6AB0FBF3F0704710B5046D836C60
:102E4000E4B199421AD3E318994217D2013B99424F
:102E50000CBF4FF0FF31013172B190F836300C2BBE
:102E600002D0102B05D102E00905090D03E089B25B
:102E700001E021F070411160012010BD002010BD63
:102E800040F6F473984201D80C2070474FF6F47363
:102E9000984294BF102020207047027F8368023937
:102EA00002FB01307047431EDBB21F2B13D92F28C2
:102EB00011D007D826280ED002D8222809D10AE03E
:102EC0002A3804E03A2804D33F2804D95B38022882
:102ED00001D90120704700207047034638B30B2A00
:102EE00001DD0B2200E0013A00201CE0082809D196
:102EF00091F808C0BCF1200F0DD04FF02E0C03F854
:102F000001CB08E038B991F800C0BCF1050F02D13F
:102F1000ACF1200C04E011F800C0BCF1200F01D08E
:102F200003F801CB01309042E0DB00221A707047B9
:102F30002DE9F04788B005AE04460D4630461146EF
:102F400000229A469DF84490BDF84C80BDF8507020
:102F500000F01EFD08B1002413E020462946524629
:102F600000F00FFE044660B1129B31460093109AA8
:102F70004B46CDF80480029700F0C6FF2846FFF7C5
:102F800035FC204608B0BDE8F08710B59DF80C4030
:102F90000394BDE8104000F0D9BD00002DE9F04FCA
:102FA000144E87B0109DDDF848809DF84440376886
:102FB00000950194CDF8088005937F68934682467A
:102FC0008946B84732680C4BDDF814C09A420DD0E0
:102FD00060B9504649465A46634610951194CDF85B
:102FE000488007B0BDE8F04FFFF7CFBF07B0BDE89E
:102FF000F08F00BF1C81FF1F58E2000070B5C37A3C
:1030000004460B7010300D46FFF733FB064604F103
:103010000E00FFF72EFB40EA0640686004F1120044
:10302000FFF727FB0004A86004F11800FFF721FB5D
:10303000064604F11600FFF71CFB40EA0640E86074
:1030400004F11C00FFF7FCFA286170BD2DE9F8457A
:10305000038A04460E46924687692BB907F1180089
:103060002146626900F064FC38465146224600F071
:10307000E7FC0546204600F065FCD5B12B78C3B1CE
:10308000E52BF1D095F80B80B8F10F0FECD018F0CC
:103090000808E9D170692946B269FFF71EFF284682
:1030A0003146FFF7ABFF238A404601332382BDE858
:1030B000F8854FF0FF30BDE8F8850222FFF720BD0C
:1030C0002DE9F04790F8366005460C46304611462B
:1030D0009146FFF79FFEB5F81E80AB6A20FA08F80C
:1030E0009845824602D30020BDE8F0876B8E05F13B
:1030F00018079844204641463A46FFF7DEFF20462F
:10310000FFF71DFD18B14FF0FF30BDE8F087AA8B27
:10311000A168013A0AEA020A1FFA8AFA92450AEB02
:1031200001031AF8015001D0013309E0204608F1EB
:1031300001013A46FFF7C1FF2046FFF700FDA368F3
:1031400018780C2E45EA002009D0202E0FD15D788A
:1031500040EA05409D7840EA0560BDE8F08719F037
:10316000010F02D00009BDE8F0870005000DBDE8A1
:10317000F08700002DE9F34190F83630144603FB48
:1031800002F7828B8846D200511E0F40D71B05469E
:10319000B7FBF3F7002618E00E4B93F88030022BB4
:1031A00005D12846214601AAFFF747FE28B928463F
:1031B00041462246FFF784FF0190019B0134A34260
:1031C00005D10136B6B2013F1C46002FE4DC304683
:1031D000BDE8FC81CC98FF1F2DE9F34105460E4662
:1031E000144698461F681CE0114B93F88030022B60
:1031F00005D12846214601AAFFF71FFE28B9284617
:1032000031462246FFF75CFF0190737B0BB100242F
:103210000BE0AA6B019B0132934204D81BB1013F22
:103220001C46002FE0D1C8F800702046BDE8FC81A4
:10323000CC98FF1F73B504680E4623681BB9FFF7CF
:10324000F5FD013039E0FFF7F1FD236998423CBFFD
:103250004FF0FF3323612369B3F1FF3F04D12268AC
:10326000013323616261E3832169E28B451A954250
:1032700034BF2B4613463BB16069C918C018D21A37
:1032800060612161E283ED1A0DB9284615E002ABB9
:1032900043F8045D31466269A068FFF79DFF6061F5
:1032A000019B21690246C91A4D19256123B9A068FD
:1032B0003146FFF75FFFE08301987CBD13B502AC98
:1032C00044F8043D2346FFF787FF019B002B18BFFE
:1032D00000201CBD2DE9F0410746884615461E46D4
:1032E0000024384641462A460123FFF7E7FF30B164
:1032F000BA6B0134944201D80546F2E7002406B1C6
:1033000034602846BDE8F0812DE9F74F04460D46AC
:103310001E461746002A00F0B98090F83600114684
:10332000FFF778FDB4F81EA0A36A20FA0AFA9A45BE
:10333000814680F0AB80638E04F118089A442846D9
:1033400051464246FFF7B9FE2846FFF7F8FB6B7B74
:10335000002B40F09B80A38BAA68013B09EA03097C
:103360001FFA89F303EB020926B9216C8F4203D2BD
:10337000276401E0791C216494F8361010290AD0E2
:10338000202911D14846FFF75BF9314607464846E8
:10339000FFF761F94EE04846FFF76BF9B1B2074617
:1033A0004846FFF762F945E0284600920193FFF78F
:1033B0001DFA009A019B17F0010F13F802B01BD001
:1033C0000BF00F0141EA06119954A28B013A934286
:1033D00002D009F1010309E028460AF10101424641
:1033E000FFF76BFE2846FFF7AAFBAB681F78320990
:1033F0003F0147EA1B171CE09E54A28B013A9342FF
:1034000002D009F1010309E028460AF10101424610
:10341000FFF753FE2846FFF792FBAB681A78310A94
:1034200002F00F0701F00F0122F00F024BEA07270D
:103430000A431A702846FFF7D9F994F83630202B42
:1034400018D1B4F84620AAB9B4F844102846FFF7BA
:1034500057FB2846FFF773FBA8684FF0FF3100F5D4
:10346000F470FFF7F8F82846FFF7C0F94FF00103B2
:10347000A4F84630E36BB3F1FF3F09D00FB101333D
:10348000E3632EB1E36B013BE36301E0012000E065
:103490000020BDE8FE8F6FF07043FFF735BF70B5B9
:1034A000036D04460E4693B1002506E0AA18204697
:1034B0003146531CFFF728FF0135236DA26C013BF9
:1034C0009D42F3D320463146AA18FFF7E4FF0023BC
:1034D000A3642365E364636570BD70B506460D465D
:1034E0001C460AB1FFF710FF304629462246BDE8C8
:1034F0007040FFF7D0BF00002DE9F84504460E46A6
:1035000015461F46002B36D01C4B93F88030022BFB
:1035100031D190F8368011464046FFF77BFCB4F875
:103520001CA00AF1FF3A2AEA000A4FEACA0ABAFBCB
:10353000F8FAAA44A8460EE0204631464246FFF774
:10354000BFFD50B9A36C0BB9C4F84880E36C08F117
:1035500001080133E364D045EED9E36C5BB16765E4
:103560003B685A6922B1204631462B46FFF7CCFE14
:10357000236D01332365BDE8F88500BFCC98FF1F9C
:103580002DE9F8459846274B054693F880300F46BD
:10359000022B1646846B19D1436D984503D0C36C3A
:1035A0000BB1FFF77CFFB8F1000F0FD06B6D4345F7
:1035B0000CD12B6DEA6C9A4204D9AC6C1C19013306
:1035C0002B652CE028463946FFF769FF012E04F1F0
:1035D000010A01D9564505D92E6C012E01D956454F
:1035E00000D902263446284639462246FFF768FDB0
:1035F00050B101345445F6D902240DE0284639462D
:103600002246FFF75DFD30B928463946224643463B
:10361000FFF772FF03E00134B442EFD300242046E9
:10362000BDE8F885CC98FF1FF8B507460E4615464D
:10363000FFF7A6FF044628B1384631462A462346FE
:10364000FFF74BFF2046F8BDB2F1FF3F73B50446CC
:103650000D4614D0561A013611D0FFF761FA084B07
:1036600000211A8AA06800F035FE022300936068EA
:10367000A3682946324600F020FF0023E3737CBD97
:10368000CC98FF1F2DE9F84F984690F83630044645
:103690000C2B0D4616465AD04FF0FF3AD1463CE06F
:1036A00094F836003146FFF7B5FBB4F81CB0678ECE
:1036B0000BF1FF3B10EA0B0BE38B1DD1D840013F10
:1036C0003F18022228463946FFF71AFAA38BAA6848
:1036D0009B0852F80B1079B9013B0BF1040BF8D1A0
:1036E0003BE0494628465246FFF7AEFFB946BB4687
:1036F0002846FFF77EF8DA4629463246012320465F
:10370000FFF7DCFD29460746324620460023FFF737
:10371000FBFD2FB108F1FF383E46B8F1000FBFD1D5
:10372000284649465246FFF78FFF13E029463246A6
:1037300001232046FFF7C2FD2946074632462046B0
:103740000023FFF7E1FD2FB108F1FF383E46B8F145
:10375000000FEBD14046BDE8F88F0AF1010B5F4541
:10376000BFD1C5E72DE9F8450546FFF715F8044632
:1037700008B90546D0E0284600F0E0FE684E338ADE
:10378000834208D338B10021284622460B4600F078
:1037900053FE002804DA2046FFF714F80025BBE0AA
:1037A00004F5FF70FEF765FF4AF65523984240F096
:1037B000AD8004F10B00FEF75CFF10F47E4F07466E
:1037C00000F0A480338A8342C0F0A080237C022BC7
:1037D00040F09C8094F80D80B8F1000F00F09680C6
:1037E0000021402205F1180000F074FD04F11300DF
:1037F000FEF73FFF064620B904F12000FEF720FF48
:10380000064604F11600FEF734FF824680B904F143
:103810002800FEF72EFF10F08F0F77D104F124005F
:10382000FEF70EFF824604F12C00FEF709FFE86266
:10383000022385F83530C5F828A0AE6185F83480BC
:1038400004F10E00FEF715FF688604F11100FEF783
:1038500010FF95F835206B8E288602FB0A3A7A090C
:1038600092B2B0FBF2F25244AF832A6209230121E3
:103870009940B94201D1EB8302E00133102BF6D11C
:1038800008FB07F7B61AB6FBF8F6AE636F62304670
:10389000FFF7F6FA202818BFC5F82CA04FF0FF3329
:1038A000202885F83600EB6332D104F13000FEF7B2
:1038B000E0FE00230146A5F844002246284600F019
:1038C000BBFD002822DB2046FEF7BAFE804604F549
:1038D000F270FEF7B5FE074604F5FE70FEF7B0FE87
:1038E000104B984514D1104B9F4211D10F4B984269
:1038F0000ED104F5F670FEF7A3FE286404F5F4700B
:10390000FEF79EFEB04203D8E86301E0002500E028
:1039100001252046FEF756FF2846BDE8F88500BF82
:10392000CC98FF1F5252614172724161000055AA4A
:1039300000238B60837F202B01D102B942694A604A
:103940000A60704783680133836070472DE9F04156
:103950000C46202105461F469DF818604FF00008D0
:1039600000F0B8FC10E014F8080036B9E52804D1DE
:10397000B8F1000F01D1E03802E000F009FDC0B25B
:1039800005F8080008F10108B845ECDBBDE8F08156
:103990002DE9F74506460D4608462849002A14BF7A
:1039A00092464FF0FF3A00F0CBFC804650B93046CB
:1039B0002946022200F0E9FDB01C2021092200F076
:1039C00089FC37E04FF0FF34002715F80780B8F185
:1039D000000F01D0574505D1B4F1FF3F08BF3C4669
:1039E00064B925E04046FFF75EFA08B3B8F12E0F40
:1039F00008BF3C4601370D2FE7D119E0082C17DC32
:103A00003F1B042F14DC30462946082223464FF082
:103A10000008CDF80080FFF799FF0123611C009397
:103A200006F10800691803227B1EFFF78FFF01E0F3
:103A30004FF001084046BDE8FE8500BF68E2000087
:103A40002DE9F74FD2F808B0436A4FEA4B18B8FB9C
:103A5000F3F8D368054698450E461446D2F8009010
:103A600001D20023D360B5F81EA0E368AAF1050ACD
:103A70000BB9D4F804902BFA0AF7B9F1000F17D05C
:103A800095F83420B8EB0303019206D04A46284645
:103A90003146FFF713FC814640B3494605F1180053
:103AA000FFF7FBF9019B591E01EA0707C11906E060
:103AB0002B8E43FA0AF39F4218D2E96A79183046EE
:103AC000C4F80090C4F80C800122FFF719F83046C2
:103AD000FFF735F850B9013000FA0AFAB3680AF175
:103AE000FF3A0AEA0B0B03EB4B1000E00020BDE8A5
:103AF000FE8F2DE9FF4107460E4601A811461A46E2
:103B00000A9D9DF82C40FFF743FFC8B9384631465F
:103B10002A46FFF795FF8046A0B1037883B101A93B
:103B20000B2200F0C7FB38B998F80B3004EA030207
:103B3000A24201D1082B05D12846FFF703FFE5E794
:103B40004FF00008404604B0BDE8F0812DE9F04593
:103B500087B002AF04460E46154698469DF83CA035
:103B600039460E9A1830FFF7E3FE204631462A46C2
:103B700043460097CDF804A0FFF7BBFF07B0BDE8B0
:103B8000F0852DE9F04500F1180785B005460C4693
:103B9000384669469246FFF7CBFE284621466A46DC
:103BA000FFF74EFF06466846E846FFF7CBFE002EBD
:103BB00037D1BAF1000F02D12B8E002B35D121461F
:103BC000009A00232846FFF785FB21460246002382
:103BD0002846FFF729FD80462046FEF7ACFFB8F1E6
:103BE000000F22D0AA8B0021A06800F073FB38469A
:103BF0004146FFF752F995F8347000257E1E3618BD
:103C000008E0314620460122FEF77AFF2046FEF703
:103C100053FF013E01357B1BB3F1FF3FF1D1A66895
:103C200003E033780BB1E52BB7D1304605B0BDE8E2
:103C3000F08538B504461A30FEF71BFD054604F141
:103C40001400FEF716FD45EA004038BD2DE9F045A9
:103C50001D4685B007460E462A6010465C219046F8
:103C6000FEF7D8FC4FF0000A0446A04508D108F141
:103C70000108C5F8008040465C21FEF7CBFC0446F5
:103C800094B1C8EB0403002B0EDD10220192103A10
:103C90000292384631464246CDF800A0FFF77EF941
:103CA00070B1FFF7C6FF824628685C21FEF7B2FCC0
:103CB000A04604460028D8D10C9B0130C3F800A0D0
:103CC00005B0BDE8F085F8B505460C461E4617461A
:103CD000DAB16FF01A0313700846FEF787FD16B9C4
:103CE0004FF47A7608E007F11C00FEF7A9FC6B6A36
:103CF0005E1E3618B6FBF3F63846FFF79AFF2146EC
:103D0000024633462846FFF7BDFC607BF8BD000045
:103D10002DE9F04FD1F8008093B0D8F808700BADC2
:103D2000044608930E464FF0FF3339462846099261
:103D30000F939DF870A0FEF797FD10AB00933846E7
:103D40002946224611ABFFF781FFD0B1F27A109BD2
:103D500007920FAA00930292002338462946119A2F
:103D60000193FFF71BF9044680B1C37A13F0100FDB
:103D700007D10D9BDDF82CB0C3EB00094FEA6919A0
:103D800006E02846FEF7CEFE0125A3E083468146E5
:103D9000099B002B3CD0002C33D0524B5D6912E0C4
:103DA0002B687BB1AA7A6AB19A8B4A450AD19A6983
:103DB0005A4507D19B68BB4204D14FF6F772328156
:103DC00000257EE0ED68002DEAD10DF12C0C614656
:103DD000384622460123CDF818C0FFF774FFDDF8FE
:103DE00018C018B14FF0FF3333816AE03E4B1B68B7
:103DF000DC6824B138466146109A0F9BA0472C46D8
:103E000006E0BAF1000F03D1089A002A44D065E019
:103E1000089BEBB1CCB1E37A13F0010F0BD0079AFA
:103E200012F0150F07D04FF6FA733381BAF1000F75
:103E300001D1012500E000252046FFF7FAFE0746E4
:103E400004F11C00FEF7FCFB29E0BAF1000F45D09D
:103E5000BAF1010F01D000251BE0ECB901F0D6FA50
:103E6000214B20221B68019282B2000C0392049025
:103E7000009402949D6838460BA9119A109BA8479C
:103E800050B10D9ADDF82CB0C2EB00094FEA691968
:103E9000254628462F4602E00125002007464FF020
:103EA000FF33C8F81030C8F818B0A8F81C90079A6B
:103EB000C8F8040012F0010308BF1846C8F80070E3
:103EC0007060B6F908300BA835EA230528BF012534
:103ED000FEF728FE284613B0BDE8F08F01255046B6
:103EE000DCE700BFCC98FF1F1C81FF1F70B50546A3
:103EF0000C461A3089B2FEF7B8FB05F11400210C0C
:103F0000BDE87040FEF7B1BB2DE9F0470446BDF8AF
:103F100024700D469146002120229A46BDF8286063
:103F2000DDF8208000F0D6F90B222046294600F06B
:103F30002CFB04F10E00394684F80BA0FEF795FB2C
:103F400004F110003146FEF790FB04F116003946EB
:103F5000FEF78BFB04F118003146FEF786FB204686
:103F60004946FFF7C3FF04F11C004146BDE8F04796
:103F7000FEF771BB07B5426803460AB910460AE06E
:103F800081680020009048681968DB6800F073FAC7
:103F9000003818BF01200EBD2DE9F0470468054622
:103FA0000F46A668FFF746F981468246002841D0B1
:103FB000D4F80080B8F1000F1BD142463046394694
:103FC0002B46FFF7DDFA0246D8B11C4B6061C4F8FE
:103FD000108093F880302060022B07D0304639469D
:103FE000FFF759FA10B10120BDE8F087B9F1010AD5
:103FF00020D03046394662692B46FFF7C1FA804629
:1040000028B94FF6FE732B810130BDE8F0870B4BCA
:1040100093F88030022B05D030463946626943461A
:10402000FFF75BFA2369C4F8148001332361BAF106
:10403000010ADDE70020BDE8F08700BFCC98FF1F34
:104040002DE9F041836804460D4608460122A16926
:104050009E8BFEF755FD2846B4F81C80AF68FEF72E
:104060006EFDF8B9013E06EA4816B6B2BE1906F171
:104070001C006168FEF7EFFA21683046FFF736FF53
:1040800001F0C4F90446A1B206F11600FEF7EDFAFC
:1040900006F11800210CFEF7E8FA2846BDE8F041C9
:1040A000FEF749BDBDE8F0817FB50668B0F908307C
:1040B000B568C3B9C37A13F0110F14D02946684606
:1040C000FEF7D2FB30466946FFF7BAFF064B6C4657
:1040D00093F88030022B03D128466946FFF7DFF9B9
:1040E0006846FEF71FFD7FBDCC98FF1F03682DE9D2
:1040F000F04F9F68038995B001339BB2012B0446B2
:104100000E46059201D90025CEE0394610AD0CA827
:10411000FEF7AAFB39462846FEF7A6FB039626685B
:104120000023D6F808909A4609F118010791D9F8AA
:104130002420059906924FF0FF32099308920A95C0
:104140000291049320460CA9FFF726FF38B108A876
:10415000FFF710FF5546002818BF00258FE0326991
:10416000069901324A43B9F81CB063680BF1FF3B72
:10417000D21A0BEA030B029B0798934228BF1346FF
:1041800001937169FEF789FE99F83430B9F81C2063
:104190006768013BB7FBF2F703EA0707C719B9F8ED
:1041A0001C300199CBEB03058D4228BF0D469D4283
:1041B00028D0BBF1000F03D1626873689A420FD018
:1041C0000DF14008404639460022FEF799FC404672
:1041D000FEF7B5FC20B14FF6F9725546228154E046
:1041E0001298039958442A460DF1400800F0CDF981
:1041F000404639460022FEF783FC4046FEF75CFC51
:1042000090B141E0099B089A9A1897420AD008A8F1
:10421000FFF7B0FE002837D101230993039B0897CD
:104220000B9301E001330993029B03995B1B019AF5
:10423000029363684919521BAA44ED1865607368BC
:1042400003919D42019207D91BB1194B93F880301D
:104250000BB9012104917560019A1AB101374FF031
:10426000000B9CE7029B002B7FF46CAF08A8FFF7C4
:1042700081FE04995546002818BF002529B1304613
:1042800010A9FFF7DDFE00E05546059A954205D0DE
:10429000B4F9083013B94FF6F87323810CA8FEF770
:1042A00041FC10A8FEF73EFC284615B0BDE8F08F93
:1042B000CC98FF1F10B5002308E0C45C11F803C0C0
:1042C000013A0133644501D0012010BD002AF4D128
:1042D000104610BD70B5034602E003F8011C013A18
:1042E0001C4622B103F003050133002DF5D19308DC
:1042F0001ED04FF001354D4308E044F8105C44F8FF
:104300000C5C44F8085C44F8045C043B032BA446B2
:1043100004F11004F1DC1C46002603E04CF80650C2
:10432000013B0436002BF9D102F003020CEB8404AC
:10433000002302E0E154013A0133002AFAD170BDB2
:10434000002310F803C0CA5C624501D00120704709
:104350000133002AF5D110467047002300E00133F5
:10436000C25C002AFBD11846704710B500230BE051
:10437000C45C11F803C0644501D0012010BDC4180D
:104380006478013314B1013A002AF1DC002010BD39
:10439000A0F16103192B98BF00F0DF00704708B54A
:1043A00083680BB10020984708BD08B583680BB13E
:1043B0000120984708BD10B504680079A468A0479B
:1043C00010BD37B59DF81850046800790095E46871
:1043D000A0473EBD08B5036800799B69984708BDB2
:1043E000036810B55B69044623B10079984708B1AA
:1043F000002000E00120607110BD10B54379044633
:104400000BB9FFF7EDFF607910BDF7B504461F4605
:104410000E461546FFF7F1FF2046FFF7C6FF2A4676
:104420003146012320460097FFF7C5FF0546204689
:10443000FFF7B5FF2846FEBD10B504690919BDE8B0
:104440001040FFF7E2BFF7B5044615461F460E467B
:10445000FFF7D3FF2046FFF7A8FF00230093314664
:104460002B463A462046FFF7ACFF05462046FFF7AD
:1044700096FF2846FEBD30B504699DF80C50091919
:104480000395BDE83040FFF7DEBFF7B5044615469B
:104490001F460E46FFF7B1FF2046FFF786FF0123B8
:1044A000009331462B463A462046FFF78AFF0546E1
:1044B0002046FFF774FF2846FEBD30B504699DF81D
:1044C0000C5009190395BDE83040FFF7DEBF73B506
:1044D00004460E461546FFF790FF2046FFF765FF9E
:1044E00000232A460093314601332046FFF769FF37
:1044F00005462046FFF753FF002D14BF4FF0FF3055
:1045000000207CBD10B504690919BDE81040FFF713
:10451000DEBF2DE9F0411F46A1F57C73012B044657
:104520000E469046056801D9FFF767FF2D6920798F
:10453000314642463B46A847BDE8F08130B50546C6
:1045400085B0FFF75AFF2B6828791C694FF47B71FF
:10455000002201ABA04708B1002001E0BDF80C002B
:1045600005B030BD70B506460D46FFF746FF33680F
:1045700030791C694FF47B7100222B46A04700283C
:1045800014BF4FF0FF30002070BD11F0030F70B565
:1045900084460B4632D110F0030F2FD195100446FC
:1045A000AC4611E053F8106CACF1040C44F8106CFC
:1045B00053F80C6C44F80C6C53F8086C44F8086C15
:1045C00053F8046C44F8046C10341033BCF1030F3E
:1045D000E8D8AB081B0100EB030CCB1815F0030562
:1045E0000AD0284600215C584CF8014004310138BB
:1045F000F9D1AD00AC445B1902F0030213F0010FD6
:1046000019462FD11CF0010F60462BD154102546BE
:1046100010E031F8086C043D20F8086C31F8066CA5
:1046200020F8066C31F8046C20F8046C31F8026C48
:1046300020F8026C08300831032DEAD8A108C9001F
:104640005B1814F003048C440AD0204600215D5A04
:104650002CF8015002310138F9D16400A4441B192F
:1046600002F00102614610E013F8040C043A01F86C
:10467000040C13F8030C01F8030C13F8020C01F8F6
:10468000020C13F8010C01F8010C18460433032A3C
:104690008C4601F10401E7DC32B10023C15C0CF867
:1046A000031001339342F9D170BD0378E92B01D196
:1046B00001207047EB2B01D00020704780789028B4
:1046C00014BF00200120704708B500F5FF70FDF70A
:1046D000D0FF4AF65523984214BF0020012008BDA0
:1046E00001EB001000F5E370FDF7AABFF0B50D4631
:1046F00085B01446064658B352B300210B46FFF767
:1047000084FE002824DB2046FFF7DEFF00B32046AE
:10471000FFF7CBFF10B10024274616E02146FFF734
:10472000DFFF074604F5E570FDF78AFF01A904469F
:104730003046FFF717FF5CB157B1E219FF23120AA9
:10474000B2FBF3F2029B9A4202D81DB12C6001E049
:104750004FF0FF37384605B0F0BD000073B5044692
:10476000FFF7ECFE0646FEF717F80C4B05461B8AD2
:10477000B3420DD366B1204601A92A46FFF7B6FF22
:10478000B0F1FF3F04D02061019B6361002400E091
:10479000FF242846FEF716F860B27CBDCC98FF1FB8
:1047A00080B500AF44F6D613C4F200034FF0020206
:1047B0001A7044F6C813C4F200036FF07E021A7038
:1047C00044F6DB13C4F200034FF004021A704EF2F9
:1047D0008013CEF200034FF001021A604FF0000088
:1047E0004FF00701FCF758F84FF0000044F6451170
:1047F000C0F20001FCF720F849F65413C1F6FF732C
:104800004FF010021A7000F091FD00F0A9FD00F0C9
:1048100075FD80BD80B582B000AFFCF755FF034643
:10482000FB7144F2A533C4F2000344F2A532C4F292
:1048300000021278D2B242F00402D2B21A7044F2EC
:10484000B533C4F2000344F2B532C4F20002127868
:10485000D2B242F00402D2B21A70FB791846FCF7C9
:1048600037FF07F10807BD4680BD00BF80B500AF28
:1048700048F2D063C1F6FF731B78002B08D1FFF715
:104880008FFF48F2D063C1F6FF734FF001021A7038
:10489000FFF7C0FF4EF20013CEF200034FF001020B
:1048A0001A6080BD80B582B000AF4EF28013CEF2A8
:1048B00000034FF001021A6044F6D613C4F200035D
:1048C00044F6D612C4F200021278D2B202F0EF021D
:1048D0001A7044F6D713C4F200031B78FCF7F4FEF9
:1048E0000346FB7144F2A533C4F2000344F2A5323F
:1048F000C4F200021278D2B202F0FB021A7044F243
:10490000B533C4F2000344F2B532C4F200021278A7
:10491000D2B202F0FB021A70FB791846FCF7D8FEFF
:104920004EF28023CEF200034FF001021A6049F6E6
:104930005413C1F6FF734FF010021A7007F1080705
:10494000BD4680BD80B582B000AF44F6D713C4F237
:1049500000031B78FB7149F65413C1F6FF731B78F3
:10496000DBB203F04003002B00F08782FB7903F0F9
:104970000103DBB2002B00F0498249F65413C1F663
:10498000FF731B78DBB2A3F14503052B00F23A82DB
:1049900001A252F823F000BFB1490000814B000092
:1049A000054E0000054E0000B14900001D4D0000FD
:1049B000FB7923F02003FB71FB7903F00A03082B3A
:1049C00076D149F65413C1F6FF731B78DBB2452B41
:1049D0005FD149F66813C1F6FF731B78DBB2002B79
:1049E00021D044F6D813C4F2000349F65812C1F698
:1049F000FF7212681278D2B21A7044F6D713C4F25A
:104A000000034FF004021A7049F66013C1F6FF73F9
:104A10004FF001021A7049F65413C1F6FF734FF0BC
:104A200046021A70F2E149F65C13C1F6FF731B7877
:104A3000DBB203F00203002B15D044F6D613C4F208
:104A4000000344F6D612C4F200021278D2B242F049
:104A50001002D2B21A7044F6D713C4F200034FF01A
:104A600000021A70D2E144F6D613C4F2000344F6F1
:104A7000D612C4F200021278D2B242F01002D2B2C0
:104A80001A7044F6D713C4F200034FF000021A70F4
:104A9000BCE144F6D713C4F200034FF000021A70D1
:104AA00049F65413C1F6FF734FF04A021A70ADE194
:104AB000FB7903F00A030A2B5DD149F65E13C1F6B8
:104AC000FF731B78DBB26FEA030303F05F036FEA47
:104AD0000303DAB249F65E13C1F6FF731A7049F6A2
:104AE0005C13C1F6FF731B78DBB203F00203002BEB
:104AF0002BD049F65413C1F6FF731B78DBB203F0D9
:104B00000803002B02D04FF0090201E04FF00A0227
:104B100049F65E13C1F6FF731B78DBB242EA03036A
:104B2000DAB249F65E13C1F6FF731A7049F65413F0
:104B3000C1F6FF734FF060021A704EF28013CEF28E
:104B400000034FF001021A6060E144F6D613C4F28C
:104B5000000344F6D612C4F200021278D2B242F038
:104B60001002D2B21A7044F6D713C4F200034FF009
:104B700000021A704AE14FF00000FBF72DFE45E1FC
:104B8000FB7903F00203002B75D149F66013C1F6DF
:104B9000FF731B78DAB249F66813C1F6FF731B780E
:104BA000DBB29A4228D244F6D813C4F2000349F685
:104BB0005812C1F6FF72116849F66012C1F6FF7211
:104BC0001278D2B20A441278D2B21A7044F6D713CD
:104BD000C4F200034FF004021A7049F66013C1F6E4
:104BE000FF731B78DBB203F10103DAB249F66013FD
:104BF000C1F6FF731A7009E149F65C13C1F6FF7341
:104C00001B78DBB203F00203002B1CD049F65E13C5
:104C1000C1F6FF731B78DBB243F00A03DAB249F640
:104C20005E13C1F6FF731A7049F65413C1F6FF7391
:104C30004FF060021A704EF28013CEF200034FF074
:104C400001021A60E2E000F0A5FB44F6D613C4F2BC
:104C5000000344F6D612C4F200021278D2B242F037
:104C60001002D2B21A7044F6D713C4F200034FF008
:104C700000021A70CAE049F65C13C1F6FF731B7894
:104C8000DBB203F00203002B20D049F65E13C1F61D
:104C9000FF731B78DBB26FEA030303F065036FEA6F
:104CA0000303DAB249F65E13C1F6FF731A7049F6D0
:104CB0005413C1F6FF734FF060021A704EF2801366
:104CC000CEF200034FF001021A609FE044F6D613C3
:104CD000C4F2000344F6D612C4F200021278D2B233
:104CE00042F01002D2B21A7044F6D713C4F2000395
:104CF0004FF000021A7049F65E13C1F6FF731B787D
:104D0000DBB26FEA030303F06F036FEA0303DAB267
:104D100049F65E13C1F6FF731A7077E049F6641323
:104D2000C1F6FF731A6849F65F13C1F6FF731B786B
:104D3000DBB21A4444F6D813C4F200031B78DBB28A
:104D4000137049F65F13C1F6FF731B78DBB203F1F2
:104D50000103DAB249F65F13C1F6FF731A7049F620
:104D60005F13C1F6FF731B78DAB249F65D13C1F623
:104D7000FF731B78DBB29A4207D244F6D713C4F212
:104D800000034FF010021A7040E049F65C13C1F6C0
:104D9000FF731B78DBB203F00203002B1CD049F633
:104DA0005E13C1F6FF731B78DBB243F00903DAB27E
:104DB00049F65E13C1F6FF731A7049F65413C1F633
:104DC000FF734FF060021A704EF28013CEF20003B0
:104DD0004FF001021A6019E044F6D613C4F2000342
:104DE00044F6D612C4F200021278D2B242F0100297
:104DF000D2B21A7044F6D713C4F200034FF0000287
:104E00001A7003E04FF00000FBF7E6FCFB7903F0BB
:104E10002003002B43D049F65413C1F6FF731B78CF
:104E2000DBB203F00803002B02D04FF0010201E0D7
:104E30004FF0020249F65E13C1F6FF731B78DBB236
:104E400042EA0303DAB249F65E13C1F6FF731A7041
:104E500044F6D613C4F2000344F6D612C4F200029C
:104E60001278D2B202F0EF021A7049F65413C1F66A
:104E7000FF734FF010021A7012E049F65413C1F696
:104E8000FF731B78DBB203F01003002B08D149F647
:104E90005413C1F6FF734FF010021A7000E000BF08
:104EA00007F10807BD4680BD80B400AF44F6D613B5
:104EB000C4F200031B78DAB248F22013C1F6FF7384
:104EC0009A7044F6C813C4F200031B78DAB248F2B1
:104ED0002013C1F6FF735A7044F6DB13C4F20003CB
:104EE0001B78DAB248F22013C1F6FF73DA70BD46C0
:104EF00080BC704780B500AF44F2A533C4F2000314
:104F00001B78DBB203F00403002B0CBF002201224C
:104F100048F22013C1F6FF731A7044F2A533C4F2AD
:104F200000031B78DBB203F00403002B01D0FFF772
:104F3000B9FCFFF7B9FF80BD80B582B000AF44F285
:104F40003133C4F200031B78DBB203F00403002BFF
:104F50001FD0FCF7B9FB0346FB7144F23133C4F2B6
:104F6000000344F23132C4F200021278D2B202F0ED
:104F7000FB021A70FB791846FCF7AAFB44F6D6131D
:104F8000C4F2000348F22012C1F6FF7292781A7040
:104F90001DE044F6C813C4F2000348F22012C1F623
:104FA000FF7252781A7044F6D613C4F2000348F226
:104FB0002012C1F6FF7292781A7044F6DB13C4F225
:104FC000000348F22012C1F6FF72D2781A7007F17E
:104FD0000807BD4680BD00BF80B500AFFFF7ACFF3E
:104FE00048F22013C1F6FF731B78002B08D0FFF79F
:104FF00011FC4EF20013CEF200034FF001021A60D2
:1050000080BD00BF80B487B000AFB9600146F973BE
:10501000FA71BB714FF00203FB75BB68002B00F007
:10502000978049F65413C1F6FF731B78DBB2102B3F
:1050300011D144F6D913C4F200031B78DBB203F09C
:105040000803002B03D14FF00003FB7523E04FF062
:105050000103FB751FE049F65413C1F6FF731B787B
:10506000DBB2602B17D14FF00003FB754EF28023AB
:10507000CEF200034FF001021A6049F65E13C1F64A
:10508000FF731B78DBB21A4602F0F70249F65E1393
:10509000C1F6FF731A70FB7D002B59D149F65413EA
:1050A000C1F6FF734FF045021A7044F6D813C4F2EC
:1050B0000003FA7B4FEA4202D2B21A7049F660133B
:1050C000C1F6FF734FF000021A7049F66813C1F67B
:1050D000FF73FA791A70BA6849F65813C1F6FF736C
:1050E0001A6049F65C13C1F6FF73BA791A70BB797E
:1050F00003F00103DBB2002B0ED044F6D913C4F247
:1051000000034FF002021A7044F6D713C4F20003F2
:105110004FF000021A7006E044F6D913C4F20003FF
:105120004FF001021A7049F65E13C1F6FF731B7847
:10513000DBB21A4602F0FD0249F65E13C1F6FF73B8
:105140001A704EF20013CEF200034FF001021A6003
:10515000FB7D184607F11C07BD4680BC704700BFA9
:1051600080B487B000AFB9600146F973FA71BB71C2
:105170004FF00203FB75BB68002B00F09A8049F6E4
:105180005413C1F6FF731B78DBB2102B11D144F618
:10519000D913C4F200031B78DBB203F00803002B21
:1051A00003D14FF00003FB7523E04FF00103FB75C3
:1051B0001FE049F65413C1F6FF731B78DBB2602B76
:1051C00017D14FF00003FB754EF28023CEF200039F
:1051D0004FF001021A6049F65E13C1F6FF731B78A7
:1051E000DBB21A4602F0F70249F65E13C1F6FF730E
:1051F0001A70FB7D002B5CD149F65413C1F6FF7386
:105200004FF049021A7044F6D813C4F20003FA7B37
:105210004FEA4202D2B242F00102D2B21A7049F60B
:105220005F13C1F6FF734FF000021A7049F65D1369
:10523000C1F6FF73FA791A70BA6849F66413C1F6B9
:10524000FF731A6049F65C13C1F6FF73BA791A70DE
:10525000BB7903F00103DBB2002B0ED044F6D91367
:10526000C4F200034FF002021A7044F6D713C4F2DE
:1052700000034FF000021A7006E044F6D913C4F29E
:1052800000034FF001021A7049F65E13C1F6FF7376
:105290001B78DBB21A4602F0FE0249F65E13C1F635
:1052A000FF731A704EF20013CEF200034FF00102AA
:1052B0001A60FB7D184607F11C07BD4680BC70478D
:1052C00080B483B000AF49F65E13C1F6FF731B785C
:1052D000FB7149F65413C1F6FF731B78DBB203F080
:1052E0004003002B03D0FB7943F00403FB71FB79EF
:1052F000184607F10C07BD4680BC704780B483B0E8
:1053000000AF49F65E13C1F6FF731B78FB7149F6D7
:105310005E13C1F6FF734FF000021A70FB79184656
:1053200007F10C07BD4680BC704700BF80B400AFDA
:1053300049F65F13C1F6FF734FF000021A7049F689
:105340005E13C1F6FF731B78DBB21A4602F0FE0251
:1053500049F65E13C1F6FF731A70BD4680BC7047F4
:1053600080B400AF49F66013C1F6FF734FF000023E
:105370001A7049F65E13C1F6FF731B78DBB21A464A
:1053800002F0FD0249F65E13C1F6FF731A70BD46C6
:1053900080BC704780B400AFBD4680BC704700BF82
:1053A00080B400AF45F21113C4F200031B78DBB2E6
:1053B00003F040034FEA9313DBB21846BD4680BCAE
:1053C000704700BF80B400AF44F28153C4F20003C1
:1053D0001B78DBB203F040034FEA9313DBB21846AD
:1053E000BD4680BC704700BF80B500AF48F2D460B6
:1053F000C1F6FF704FF48051FDF76EF94EF2B42004
:10540000C0F20000FDF758FC80BD00BF80B485B03D
:1054100000AF4FF00003BB804FF00003FB804FF064
:1054200000033B814FF001037B814FF00103BB81FF
:105430004FF00003FB81BB884FEA53039BB21A462F
:10544000FB884FEA43131A443B894FEAC3231344B2
:105450003B607A89BB894FEA43131A44FB894FEAC0
:10546000432313444FEA03433A6842EA03033B6091
:105470003B68184607F11407BD4680BC704700BF63
:105480004FF6FF7070470000014B1868704700BF6F
:10549000D496FF1F00487047D4E2000000F0B2BD70
:1054A00037B501220DF10701054600F0C7FD9DF853
:1054B0000740FF2C14BF0A240724284601220DF1BF
:1054C000070100F0BBFD9DF80700FF2803D1013C58
:1054D000E4B2002CF1D13EBD37B504698578284689
:1054E0000DF10701012200F0A9FD9DF807300BB175
:1054F000002003E0013CF2D14FF0FF303EBD37B554
:105500004FF0FF3305460C468DF8073006E028467D
:105510000DF10701012200F0B1FD013C002CF6DC89
:105520003EBD000038B5094C2368032B02DD4FF067
:10553000FF3509E0DDB2013323601420FDF7D2F816
:1055400004EB850460608570284638BDD496FF1F43
:1055500008B5034B4FF400711B68984708BD00BFA6
:105560002481FF1F4FEAD20CACEBD103CCF10F0C1E
:1055700010B501336044002410F801CB013B4CEA24
:105580000424F9D101F00703511A02228A40DC40B9
:10559000013A04EA020010BD7FB5130E85788DF83C
:1055A0000530130C01F03F018DF80630130A41F06D
:1055B00040018DF8073000238DF808208DF8041085
:1055C0001A4601A911F802C000215B00DBB283EA90
:1055D0000C0E1EF0800F18BF83F00903013108295B
:1055E00004D04FEA4C0C5FFA8CFCEEE70132052A3E
:1055F000E7D15B0043F001038DF809308678C46879
:105600000122304603A900F019FD9DF80C30FF2B54
:1056100004D00CB9FF2009E0013CF1E7284601A9BC
:10562000062200F02BFD2846FFF73AFF04B070BDBC
:10563000F7B5847806460F4620460121FFF75FFF45
:10564000204600F01BFC304609210022FFF7A4FF92
:105650008DF8070028BBF6680546012220460DF1AB
:10566000060100F0EBFC9DF80630FE2B06D0FC2B6B
:1056700004D00135ADB2B542EFD112E00DF107050E
:1056800020463946102200F0D9FC29462046012246
:1056900000F0D4FC29462046012200F0CFFC002572
:1056A00000E0FF25204600F0FFFB20460121FFF728
:1056B00026FF2846FEBD00002DE9F04F9B46494BD2
:1056C00089B003EB800305925C684A020291039261
:1056D0004FF00309029AA578E678039B2846022E2C
:1056E00008BF13461E4600F0DFFB01212846FFF7E6
:1056F00006FFBBF1010F0CBF4FF0110A4FF0120A69
:10570000284600F0BBFB204651463246FFF744FFD7
:10571000002851D1059F5E46A378E268B446049202
:105720004FF000081E460FE0012230460DF11F0128
:10573000CDF804C000F082FC9DF81F20DDF804C005
:10574000FE2A05D008F10108049B9845ECD333E00C
:10575000284639464FF40072664600F06FFC02227C
:10576000284607A900F06AFC9DF81C3038460193D2
:105770009DF81D80FFF7ECFE4FF6FF729042019BF3
:105780000CD048EA0328404508D0BAF1120F13D1D3
:1057900020460C210022FFF7FFFE0DE0013E02D063
:1057A00007F50077B8E7BAF1120F07D120460C21B0
:1057B0003246FFF7F1FE01E04FF0FF36284600F0D9
:1057C00073FB28460121FFF79AFE3EB1B9F1000FA5
:1057D00002D009F1FF397DE74FF0FF36304609B0BE
:1057E000BDE8F08FD496FF1F2DE9F04F99464C4B42
:1057F00087B0029203EB80039DF840205D68009122
:1058000003926B78002B40F085804B0201930327B5
:10581000009BAC78EE78019A2046022E08BF1A460B
:10582000164600F041FB01212046FFF768FEB9F162
:10583000010F0CBF4FF0180A4FF0190A204600F074
:105840001DFB284651463246FFF7A6FE8DF817008D
:10585000002850D120460121FFF751FE029ECB4681
:10586000B8463046FFF774FE0DF11707BAF1180F6E
:105870000CBFFE23FC2301228DF817308DF8150094
:10588000030A394620468DF8143000F0F7FB204615
:1058900031464FF4007200F0F1FB0222204605A9C8
:1058A00000F0ECFB01222046394600F0C7FB9DF8D2
:1058B000173003F01F03052B1CD12846FFF70CFE01
:1058C000C0B9039A0AB906F50076BBF1010BC8D13D
:1058D000BAF1190F474611D106A96FF0020320460D
:1058E00001F8013D012200F0C9FB2846FFF7F4FD55
:1058F00020B100E047464FF0FF3600E0002620468A
:1059000000F0D2FA20460121FFF7F9FD26B10FB1D0
:10591000013F7DE74FF0FF36304607B0BDE8F08F1E
:10592000D496FF1F2DE9F04F877887B0044638469C
:105930000D4600F0A3FA20463A210022FFF72CFE84
:10594000064638B1384600F0AFFA38460121FFF775
:10595000D6FD58E00DF1140804224146384600F007
:105960006DFB4046FCF760FE8046384600F09CFA2E
:1059700001213846FFF7C3FDB8F1000F28F07F0280
:10598000B8BF4FEA987BD2B240F272634FEA182850
:10599000B8BF0BF0010B1FFA88F8002A14BF1A4693
:1059A0000022012111EA080F05D10136F6B24900A3
:1059B000102E89B2F6D140F27260824233460DD089
:1059C0006422724302F5FA6208E011EA080F07D078
:1059D00049000133013689B2DBB2F6B20F2EF4D999
:1059E00064214B434FF6FE7103F5FA6302EA0101AD
:1059F0004FF6FC72384603EA020200F0C9FA10F0D2
:105A0000FF0F40F099804FF0FF3092E028467E2152
:105A10007F22FFF7A7FD8246EB78DFF82C8103F0A9
:105A2000030203F0780308EBD30358F822101B7C21
:105A30003846594389B200F063FA0646002877D009
:105A40006B7803F00702DB1003F00F0308EB820210
:105A50004344126A93F810800292B8F1000F67D0A5
:105A6000A978284603911C221A21FFF77BFD01909B
:105A7000BAF1000F1FD1502153222846FFF772FDC3
:105A80004FF0010909FA00F92F2131222846FFF7CA
:105A900069FD1FFA89F982463E21284649224FEACC
:105AA0005929FFF75FFD0AF1020A09FA0AF90130E4
:105AB00000FB09F910E0BAF1010F01D0012038E034
:105AC000284630214522FFF74DFD4FEA8029BBF1E2
:105AD000000F01D00223E37008FB06F2029B03993A
