:4000000000800020A9030000A1030000A103000080B51448144B21E05C689968DD688C420CD0002205E0A6180832D6E9008941E902898C460831AA42F5D101E004EB050CED
:400040001C696146002204E008320026002741E902670831A242F7D1143301380028DBD104F04CFA01000000AC47000048F25063C1F6FF731A780AB901201870704700BF43
:4000800048F20810C1F6FF7008B503682BB140F20003C0F2000303B1984708BD80B584B000AF00F00BF862B607F10403184600F00BF841F2883000F0E3F9F5E780B500AF98
:4000C00000F002FA80BD00BF80B58CB000AF786044F2D052C0F2000207F10C0392E80300186003F10403198000F032F97B68784A1A607B68764A5A607B684FF000021A723D
:4001000040F20130C0F2000000F032FB00F0E4F84FF0640000F0B4F907F10C0318464FF0060100F001FB4FF47A7000F0A9F900F033FB00F0DBF84FF00003BB624FF00003A9
:400140007B6234E07A6A48F29C63C1F6FF739B5C87F82F3097F82F302F2B03D997F82F30392B03D997F82F302E2B0CD1BB6A07F13002134497F82F2003F8142CBB6A03F125
:400180000103BB620FE097F82F302B2B08D097F82F302D2B06D097F82F30432B0BD002E000BF00E000BF7B6A03F101037B627B6A7F2BC7D900E000BF4FF00003BB6234E085
:4001C0007A6A48F29C63C1F6FF739B5C87F82F3097F82F302F2B03D997F82F30392B03D997F82F302E2B0CD1BB6A07F13002134497F82F2003F81C2CBB6A03F10103BB626D
:400200000FE097F82F302B2B08D097F82F302D2B06D097F82F306D2B0BD002E000BF00E000BF7B6A03F101037B627B6A7F2BC7D900E000BF07F11C03184601F095F8024633
:400240000B461046194601F03FF802467B681A6007F11403184601F087F802460B461046194601F031F802467B685A607B681B68184600F04DFF02460B461046194612A37E
:40028000D3E9002300F0EEFF0346002B14D17B685B68184600F03CFF02460B461046194609A3D3E9002300F0DDFF0346002B03D17B684FF001021A727B681B7A184607F18E
:4002C0003007BD4680BD00BF85EB51B8FE87C3C0F63F1CC6AFF3008080B500AF4FF0000000F0A6FA4FF00103184680BD80B500AF4FF0000000F09CFA4FF00003184680BDF7
:4003000080B582B000AF00F063F90346FB71FB79002B18D048F25463C1F6FF731B781A4648F29C63C1F6FF73F979995448F25463C1F6FF731B7803F10103DAB248F254632F
:40034000C1F6FF731A7007F10807BD4680BD00BF80B582B000AF4FF00003FB714FF00003FB710BE0FA7948F29C63C1F6FF734FF000019954FB7903F10103FB71FB795BB20C
:40038000002BEFDA48F25463C1F6FF734FF000021A7000F043F907F10807BD4680BD00BF80B400AFFEE700BF054B1C7844F001041C70044B1A78D2B2034B1A70FFF728FEA9
:4003C000E8460040F8460040BC76004080B582B000AF4EF60C53CEF2000340F20042C0F2FA521A604EF61453CEF200034EF61452CEF20002126842F400721A604FF000037F
:400400007B6019E079687B68032B07D87A6840F20003C0F2000353F8223003E040F2A133C0F2000348F20002C1F6FF7242F821307B6803F101037B607B682F2BE2D947F23A
:40044000BC63C4F200031B78DAB248F21C73C1F6FF731A704EF60853CEF2000348F20002C1F6FF721A6000F0A1FB48F20013C1F6FF734FF000021A6007F10807BD4680BDC5
:4004800080B582B000AF78600BE048F21813C1F6FF731B68184600F0C7FC7B68A3F500437B607B68B3F5004FEFD848F21013C1F6FF731B687A6802FB03F3184600F0B4FC2B
:4004C00007F10807BD4680BD80B500AF48F26463C1F6FF731B78002B08D100F00BF848F26463C1F6FF734FF001021A7000F034F880BD00BF80B500AF4FF0030000F0B8F849
:400500004FF0FF0000F0D6F84FF0000000F0E2F846F28A43C4F200034FF072021A7046F28B43C4F200034FF020021A7046F22843C4F200034FF007021A7046F23843C4F27A
:4005400000034FF048021A7046F28943C4F200034FF000021A7080BD80B582B000AF00F06BFC0346FB7146F29A43C4F2000346F29A42C4F200021278D2B242F02002D2B2FE
:400580001A7046F29B43C4F2000346F29B42C4F200021278D2B242F01002D2B21A7046F29943C4F2000346F29942C4F200021278D2B242F01002D2B21A7000F05BF9FB7905
:4005C000184600F03DFC07F10807BD4680BD00BF80B483B000AF4FF00003BB7146F26B43C4F200031B78FB71FB7903F02003002B0DD046F24943C4F200031B78BB71FB790A
:4006000003F01E03002B02D04FF00003BB71BB79184607F10C07BD4680BC704780B582B000AF00F009FC0346FB7146F29943C4F2000346F29942C4F200021278D2B242F010
:400640000102D2B21A7046F29943C4F2000346F29942C4F200021278D2B202F0FE021A70FB79184600F0ECFB07F10807BD4680BD80B485B000AF0346FB7146F27B43C4F2DE
:4006800000031B78DBB203F01F03FB73FB794FEA4313DAB2FB7B42EA0303FB7346F27B43C4F20003FA7B1A7007F11407BD4680BC704700BF80B483B000AF0346FB7146F276
:4006C0002943C4F20003FA791A7007F10C07BD4680BC704780B483B000AF0346FB7146F23943C4F20003FA791A7007F10C07BD4680BC704780B483B000AF0346FB7146F29E
:400700006943C4F200031B78DBB203F00403002BF5D146F24953C4F20003FA791A7007F10C07BD4680BC704780B584B000AF78600B46FB704FF00003FB7348F26463C1F6AA
:40074000FF731B78002B0ED0FA7B7B6813441B781846FFF7CFFFFB7B03F10103FB73FA7BFB789A42F0D307F11007BD4680BD00BF80B582B000AF786000F04EF8786800F0A2
:4007800017F84FF0070000F027F800F039F807F10807BD4680BD00BF80B500AF00F03CF840F2A130C0F2000000F002F880BD00BF80B485B000AF78604EF60853CEF20003B9
:4007C0001B68FB60FB6803F140037A681A6007F11407BD4680BC704780B483B000AF0346FB714EF20043CEF20003FA794FEA4212D2B21A7007F10C07BD4680BC704700BF3D
:4008000080B400AF4EF20013CEF200034FF001021A60BD4680BC704780B400AF4EF28013CEF200034FF001021A60BD4680BC704780B485B000AF0346FB7145F2C013C4F255
:4008400000031B78DBB223F00803FB7345F2C013C4F20003FA794FEAC202D2B202F00802F97B42EA0102D2B21A7007F11407BD4680BC704780B400AF44F2A233C4F20003B5
:4008800044F2A232C4F200021278D2B242F00102D2B21A7044F2B233C4F2000344F2B232C4F200021278D2B242F00102D2B21A70BD4680BC704700BF80B485B000AF786089
:4008C00039607B68BB604FF00003FB6009E0BA68FB6813444FF000021A70FB6803F10103FB60FA683B689A42F1D307F11407BD4680BC704780B489B000AFF860B9607A6069
:40090000FB687B61BB68BB614FF00003FB610BE07A69FB691344B969FA690A4412781A70FB6903F10103FB61FA697B689A42EFD307F12407BD4680BC704700BF80B582B050
:4009400000AF7860396078684FF000013A6800F0D7FD07F10807BD4680BD00BF80B584B000AFF860B9607A60F868B9687A6800F0FFFC07F11007BD4680BD00BF80B487B0A1
:4009800000AF786039604FF00003FB604FF00003BB602CE0BB684FEA83027B6813441B683B613B69FB753B6923F0FF033B6117E0FB684FEA43023B6813441B781A463B6905
:4009C0001344FA684FEA42013A680A4452781A70FB6803F10103FB60FB7D03F1FF33FB75FB7D002BE4D1BB6803F10103BB60BB68142BCFD907F11C07BD4680BC704700BF52
:400A000080B500AF44F28003C4F200034FF49C721A8044F28203C4F200034FF018021A7044F20033C4F200034FF002021A7044F20003C4F200034FF008021A7044F2002311
:400A4000C4F200034FF003021A7044F2A163C4F2000340F20812C4F600121278D2B21A7044F22223C4F200034FF008021A8044F22023C4F2000341F251021A8040F6B830C5
:400A800000F0D2F944F20403C4F200034FF003021A7044F20503C4F200034FF001021A7044F20403C4F200034FF000021A7044F20403C4F200034FF007021A7044F206032C
:400AC000C4F200034FF000021A7044F20803C4F200034FF048021A7044F20403C4F200034FF000021A7044F20103C4F200034FF002021A7044F2A233C4F2000344F2A23216
:400B0000C4F200021278D2B242F00102D2B21A7080BD00BF80B400AF44F2AA33C4F200034FF444721A8045F62003C4F200034FF01E021A7045F62403C4F200034FF01E02F4
:400B40001A7045F62803C4F200034FF01E021A7045F62C03C4F200034FF01E021A7045F60013C4F200036FF03F021A7045F60313C4F200034FF00C021A7045F60813C4F2B9
:400B800000036FF03F021A7045F60B13C4F200034FF00C021A7045F67603C4F200034FF044021A70BD4680BC704700BF80B582B000AF72B644F60003C4F200034FF0000279
:400BC0001A70FFF71DFF44F60003C4F200036FF07F021A7047F21003C4F200034FF000021A7047F22003C4F200034FF000021A7045F67C03C4F200034FF001021A7044F2D4
:400C0000E863C4F2000344F2E862C4F200021278D2B242F00102D2B21A704FF00003FB702FE0FA7813464FEA430313444FEA43031A4644F2D853C0F2000313447B607B68C0
:400C40001A7859784FEA012141EA020299784FEA014141EA0202DB784FEA036343EA02031A467B6819795B794FEA032343EA01039BB210461946FFF761FEFB7803F10103AD
:400C8000FB70FB78062BCCD94FF0904040F25401C4F60001FFF772FE45F20020C4F200004FF00701FFF708FE45F20820C4F200004FF00701FFF700FE45F21020C4F200000C
:400CC0004FF00701FFF7F8FD45F21820C4F200004FF00701FFF7F0FD45F22020C4F2000040F20061C4F600014FF00702FFF702FE45F22820C4F200004FF00701FFF7DCFD6F
:400D000045F23020C4F200004FF00701FFF7D4FD45F26020C4F200004FF00601FFF7CCFD45F27820C4F200004FF00701FFF7C4FD45F20303C4F2010345F20302C4F2010287
:400D40001278D2B242F00202D2B21A7045F21303C4F2010345F21302C4F201021278D2B242F00202D2B21A7044F2A033C4F2000344F2A032C4F200021278D2B242F04002BF
:400D8000D2B21A7044F2C233C4F2000344F2C232C4F200021278D2B242F01002D2B21A7045F20210C4F2000040F2E451C4F600014FF00802FFF7D2FD45F2C010C4F2000013
:400DC00040F2EC51C4F600014FF00A02FFF792FD45F24210C4F2000040F2F851C4F600014FF00802FFF7BAFDFFF794FE44F2B030C4F2000044F2A031C4F200014FF00C022F
:400E0000FFF7ACFD44F2B033C4F2000344F2B032C4F200021278D2B202F0FD021A7007F10807BD4680BD00BF0230800803D000BF01380046FCD17047EFF3108072B6704742
:400E400080F31088704700BF81F0004102E000BF83F0004330B54FEA41044FEA430594EA050F08BF90EA020F1FBF54EA000C55EA020C7FEA645C7FEA655C00F0E2804FEACD
:400E80005454D4EB5555B8BF6D420CDD2C4480EA020281EA030382EA000083EA010180EA020281EA0303362D88BF30BD11F0004F4FEA01314FF4801C4CEA113102D040420C
:400EC00061EB410113F0004F4FEA03334CEA133302D0524263EB430394EA050F00F0A780A4F10104D5F1200E0DDB02FA0EFC22FA05F2801841F1000103FA0EF2801843FA58
:400F000005F359410EE0A5F120050EF1200E012A03FA0EFC28BF4CF0020C43FA05F3C01851EBE37101F0004507D54FF0000EDCF1000C7EEB00006EEB0101B1F5801F1BD31A
:400F4000B1F5001F0CD349085FEA30004FEA3C0C04F101044FEA445212F5800F80F09A80BCF1004F08BF5FEA500C50F1000041EB045141EA050130BD5FEA4C0C404141EB03
:400F8000010111F4801FA4F10104E9D191F0000F04BF01460020B1FA81F308BF2033A3F10B03B3F120020CDA0C3208DD02F1140CC2F10C0201FA0CF021FA02F10CE002F11B
:400FC0001402D8BFC2F1200C01FA02F120FA0CFCDCBF41EA0C019040E41AA2BF01EB0451294330BD6FEA04041F3C1CDA0C340EDC04F11404C4F1200220FA04F001FA02F3FB
:4010000040EA030021FA04F345EA030130BDC4F10C04C4F1200220FA02F001FA04F340EA0300294630BD21FA04F0294630BD94F0000F83F4801306BF81F480110134013DE8
:401040004EE77FEA645C18BF7FEA655C29D094EA050F08BF90EA020F05D054EA000C04BF1946104630BD91EA030F1EBF0021002030BD5FEA545C05D14000494128BF41F067
:40108000004130BD14F580043CBF01F5801130BD01F0004545F0FE4141F470014FF0000030BD7FEA645C1ABF194610467FEA655C1CBF0B46024650EA013406BF52EA03358D
:4010C00091EA030F41F4002130BD00BF90F0000F04BF0021704730B54FF4806404F132044FF000054FF0000150E700BF90F0000F04BF0021704730B54FF4806404F1320425
:4011000010F0004548BF40424FF000013EE700BF42004FEAE2014FEA31014FEA02701FBF12F07F4393F07F4F81F06051704792F0000F14BF93F07F4F704730B54FF4607415
:4011400001F0004521F0004120E700BF50EA010208BF704730B54FF000050AE050EA010208BF704730B511F0004502D5404261EB41014FF4806404F132045FEA915C3FF4CB
:40118000DCAE4FF003025FEADC0C18BF03325FEADC0C18BF033202EBDC02C2F1200300FA03FC20FA02F001FA03FE40EA0E0021FA02F11444C1E600BF4FF0FF3C06E000BF22
:4011C0004FF0010C02E000BF4FF0010C4DF804CD4FEA410C7FEA6C5C4FEA430C18BF7FEA6C5C1BD001B050EA410C0CBF52EA430C91EA030F02BF90EA020F0020704710F12F
:40120000000F91EA030F58BF994208BF90422CBFD8176FEAE37040F0010070474FEA410C7FEA6C5C02D150EA013C07D14FEA430C7FEA6C5CD6D152EA033CD3D05DF8040B5E
:40124000704700BF8446104662468C461946634600E000BF01B5FFF7B7FF002848BF10F1000F01BD4DF808EDFFF7F4FF0CBF012000205DF808FB00BF4DF808EDFFF7EAFFF9
:4012800034BF012000205DF808FB00BF4DF808EDFFF7E0FF94BF012000205DF808FB00BF4DF808EDFFF7CEFF94BF012000205DF808FB00BF4DF808EDFFF7C4FF34BF01207A
:4012C00000205DF808FB00BF4FEA4102B2F1E04324BFB3F5001CDCF1FE5C0DD901F0004C4FEAC0024CEA5070B2F1004F40EB830008BF20F00100704711F0804F21D113F19E
:401300003872BCBF01F00040704741F480114FEA5252C2F11802C2F1200C10FA0CF320FA02F018BF40F001004FEAC1234FEAD32303FA0CFC40EA0C0023FA02F34FEA43031C
:40134000CCE77FEA625307D150EA01331EBF4FF0FE4040F44000704701F0004040F0FE4040F40000704700BF002101F033B900BF032A2DE9F0070BD83AB1002311F803C0D4
:4013800000F803C001339342F8D1BDE8F007704782180C46034603E014F8011C03F8011C03F003061946A44601330134002EF3D11CF00304634608BFC1EB020C68D0654238
:4013C000C4F1040A0CEB050733464FEACA0A5CF805604FEAC408551A08E057F8044F264604FA0AF449EA0404CC5004335C18032D26FA08F9A5F104050CEB0306EDDC0023A4
:4014000002E0F15CE154013319199142F9D3BCE753F8404C41F8404C53F83C4C41F83C4C53F8384C41F8384C53F8344C41F8344C53F8304C41F8304C53F82C4C41F82C4C70
:4014400053F8284C41F8284C53F8244C41F8244C53F8204C41F8204C53F81C4C41F81C4C53F8184C41F8184C53F8144C41F8144C53F8104C41F8104C53F80C4C41F80C4CEC
:4014800053F8084C41F8084C53F8044C41F8044C1C460D4640334031BCF13F0FACF1400CB6DC21462B46541B0FE051F8105C43F8105C51F80C5C43F80C5C51F8085C43F8FF
:4014C000085C51F8045C43F8045C0F2C0D469C4601F1100103F11003A4F11004E5DCCCEB0201002303E0EC584CF8034004335E19032903EB0C04A1F10401F4DC7FE700BF71
:40150000032AC9B230B407D822B10023C15401339342FBD130BC704700EB020C034601E003F8011C03F003041A460133002CF7D14FF00133C2EB0C0403FB01F31FE042F8A5
:40154000403C42F83C3C42F8383C42F8343C42F8303C42F82C3C42F8283C42F8243C42F8203C42F81C3C42F8183C42F8143C42F8103C42F80C3C42F8083C42F8043C1546CA
:4015800040323F2CA4F14004D9DC2A46C5EB0C0407E042F8103C42F80C3C42F8083C42F8043C154610320F2CA4F11004F1DC2A46C5EB0C0501E042F8043C14460432032D0F
:4015C000A5F10405F7DC01E004F8011B6445FBD3A0E700BF000000002DE9F04FA3B0044600260A920A4600271F91CDE9186710782D2800F22381DFE810F0B2002101210183
:401600002101210121012101210121011E011E011E011E011E012101210121012101210121012101210121012101210121012101210121012101210121011E01210121017C
:40164000210121012101210121012101210121011B012101C30000273E463D464FF0000C0692E3461095CDF810C0652814BF00220122452808BF42F00102002A00F0F98044
:4016800045EA0C0252EA080269D01F9901F1010ACDF87CA048782B2800F021852D2800F0B88300220892A0F13002092A84BF1F914FF0000A48D8302807D11F9A109B0132DA
:4016C0001F9210783028FAD01093A0F13102082A00F2CF801F9AA0F1300A531C0B9309921F9350782F281ADD392818DC931C109AA9460B921A4602E0392800F325861F9295
:40170000A0F1300310780AEB8A0A154601322F2803EB4A0AF0DC0B9A0B954D461092099A44F61F690B9B9B1ACA45D4BF00220122082BC8BF42F001020993089B002A18BF91
:40174000CA460BB1CAF1000A002D40F097805CEA080C40F01981049F002F00F09F8200231F911A460F930A9F0FB11F9939600F9808B102F100421846114623B0BDE8F08F8D
:4017800001200F9001321F9210780028E7D0302818BF4FF0000858D02F2840F35F8539283FF759AF00273E463D4602E039283FF755AF06EB8603082D00EB4303D8BFA3F1BD
:4017C000300607DD07EB87030F2D00EB4300D8BFA0F130070135AB181F93505D2F28E5DC9C4610952E2840F0D280109B0CF101001F909CF80100002B00F02B824FF0000CBB
:401800001D46E3460692A0F1300ABAF1090F00F242821F980CF1010C04950890BAF1000F40F02285049D0898421C1F924078EAE700270F97A6E701321F92D8E6002330286D
:401840000F9318BF4FF00008A6D15378551C582B00F0C383782B00F0C0832A461F95013510783028F9D0002800F08E804FF0010892E74FF0000A002D3FF469AF3046CBEB8F
:401880000A0ACDF820A0FFF721FCDDF84090102DB4BFA8464FF01008B9F1000F08BFA946B8F1090FCDE9180116DD44F26063C0F2000303EBC80353E9122302F04FFB824614
:4018C00038468B46FFF702FC02460B4650465946FFF7C0FACDE918010F2D60DC089F002F4FD040F337850898162800F3FA84089A44F26063C0F20003DDE9180103EBC203CB
:40190000D3E9002302F02AFB03460A462BE74946069802F035FDFFF7E9FB02460B4606984946FFF795FA099ACDE90401002A40F03C83189B002B40F038832BF07F4323F45C
:401940007003002B40F031830FF25C73D3E90023FFF792FC002800F0678120461E9901F081FB2046394601F07DFB2046314601F079FB20460B9901F075FB2046414601F04F
:4019800071FB189B199AEEE600231A46EBE64FF0000C0692109DE346CDF810C065E6089FC8EB050ABA44BAF1000F40F34F841AF00F020DD044F26063DDE91801C0F20003E8
:4019C00003EBC203D3E9002302F0C8FACDE918013AF00F0A40F0B681DDE91823CDE904232B4606994A462046009601F00DFE089F7F42119700F10C030B9010930B98416818
:401A0000204601F04BFB0B990A6910990232920007460C30FFF7ACFCDDE90423204621A9009120A9019101F06FFB01211E90204601F046FD089A002A0646C0F22C82DDF841
:401A40002090002293464B46219D6FF47F702099002DACBF02EB050B5B1BCAEB050505EB010C8445B6BF05F58661C1F13601033103EB0A0501EB0B086D18A845B4BF4346F4
:401A80002B465B45A8BF5B46002BC2BFC3EB0B0BC3EB0808ED1A8AB13146204601F05EFD1E9A06462046314601F070FC1E9903462046039301F0D6FA039B1E93B8F1000F72
:401AC00005DD424620461E9901F002FC1E90B9F1000F05D039464A46204601F03FFD0746002D05DD39462A46204601F0F1FB0746BBF1000F05DD31465A46204601F0E8FBC9
:401B000006461E993A46204601F066FB00223146C3688046C260099301F06AF90028C0F2E18200F02E834046314601F0FBF900224FF08043CDE90601FFF7A8FB002800F07C
:401B40009481099A002A00F0AC8140F20009DDF864C0C3F6F07940F200030022C3F6F073CDE91A230022069240F2000540F20003C7F6F075C7F6E0730CEA050540F2000B15
:401B80009D42C7F6F07B00F0C581BAF1000318BF0123B5F1D46F8CBF002303F001030BB3069849460FF20853D3E90023FFF76EFB98B14946069802F00BFC002808BF0120ED
:401BC000FFF784FA099B06908946002B00F002820B4606981946CDE91A011B9B03F1D6635B1B1B93DDE91A01CDE90C01DDE9040101F01EF902460B46DDE90C0102F0AEF927
:401C0000DDE90423FFF726F9CDE91801DDF864B0BAF1000F08D140F20003C7F6F0730BEA03039D423FF473AE20461E9901F01AFA2046394601F016FA2046314601F012FAF2
:401C40002046414601F00EFADDE91801CDE90401D4E6302818BFDDF840C00CD10CF10205DDF840C063461F950CF1010C15F8010B3028F8D01093A0F13105082D00F2C380FC
:401C80001F9AE3460023A0F1300A04934FF0010C06920892C2E501230493E6E4493825283FF65DAD01A252F820F000BF471E00005F1700005F1700005F1700005F1700000D
:401CC000231E00005F1700005F1700005F1700005F1700005F1700005F1700005F1700005F1700005F1700005F1700005F1700005F1700005F1700005F1700005F170000B9
:401D00005F1700005F1700005F1700005F1700005F1700005F1700005F1700005F1700005F1700005F1700005F170000471E00005F1700005F1700005F1700005F17000054
:401D4000231E0000BAF59A7F00F377824FEA2A1744F2387B012FDCBF4FF0000AC0F2000B1FDD2146C0F2000BDDE91823A8464FF0000A5C460D4617F0010F104619460AF126
:401D8000010A4FEA670705D0D4E9002302F0E6F802460B460834012FEDDC2C464546CDE91823199A0BEBCA03A2F154721992DDE91801D3E9002302F0D1F840F20003C7F64B
:401DC000F07340F20002C7F6A042CDE91801199901EA0303934200F2308240F20002C7F69042934240F2FD824FF6FF734FF0FF32C7F6EF73189219934FF0000ADDE91801B5
:401E0000CDE90401ECE500250692AB46012204922BE4012308930AF101021F929AF8010041E41F9A9E4810F8014C0130002C00F0E38253780132402B02DD5A2BD8BF20331D
:401E4000A342F0D08BE41F9A964810F8014C0130002C00F0E98253780132402B02DD5A2BD8BF2033A342F0D079E440F20003DDE906010022C3F6E07302F070F8099A06902E
:401E800089460AB901F10041069A0B46DDF864C0CDE91A2368E6119A4FF000094B469346D2E5189B002B74D1DDF864C02CF07F43624623F47003F3B940F20003DDE9060144
:401EC0000022C3F6F073CDF80CC0FFF7D5F9DDF80CC0002800F0F08040F2000340F20009CBF6E073C3F6E0790022069210461946CDE91A0138E640F2000940F20001CBF603
:401F0000F07100209446CDE91A01C3F6F0790021069129E6ACF154731993DDE91A23DDE91801CDE91223DDE90423CDE90C01CDE9162300F07DFF02460B46DDE9120102F040
:401F40000DF802460B46DDE90C01FEF783FF4FF6FF7CC7F69F4CCDE91801199A02EA0B0363459CBF02F1547BCDF864B07FF650AE4FF6FF73179AC7F6EF739A4200F0508160
:401F80004FF6FF734FF0FF32C7F6EF73189219934AE6012B199AAED1002AACD100230022CDE9182322232360D7E4DDE9040138A3D3E90023FFF760F900287FF4CEACDDE9E8
:401FC000040135A3D3E90023FFF774F900283FF42BAEC2E401F10043FBE50F9F48F21C16C1F6FF7620461FA932461DAB01971EAF009700F06FFB10F0070807463FF4C4ACCA
:40200000B8F1060F00F068811E9A3AB1316814A800F0D4FF20461E9901F024F81D9BB8F1060F0BD8DFE808F02D211C1404212D006FF0004319934FF0FF33189317F0080FB4
:402040003FF49FAC199A189B42F00042FFF78BBB40F200030022C7F6F07318921993EDE7149B1893159B1993E8E703F58663159A1499033322F4801242EA035319931891B4
:40208000DCE7002318931993D8E700BFAFF300809535A094FFFFDF3F35E5AF350000E03F3D460000314600009535A094FFFFCF3F0000C0FFFFFFDF4140F20003DDE9060129
:4020C0000022C3F6E073CDF80CC001F047FFDDF80CC006908946024601F1004306E70023089398E6099B002B7CD1189B002B79D1199A22F07F4323F47003002B72D140F249
:402100000005C7F6F07502EA0505B5F1D66F69D9D8F814301BB9D8F81030012B62DD41460122204601F0D4F83146804600F060FE002857DDBAF1000F00F06B81B5F1D66FBD
:4021400000F26781B5F15C7F7FF628AF40F200030022C3F6501316921793DDE91601DDE9042301F0FBFECDE91801199B002B7FF4F4AB189B002B7FF4F0AB22232360FFF7D5
:40218000ECBB0998002800F0CC80199A4FF6FF73C0F20F0322F07F4121F4700199422AD1189BBAF1000F00F0AB8140F20001C7F6F07102EA0101B1F1D46F00F2A181090D40
:4021C000C1F16B004FF0FF3181408B4214D140F200030021C7F6F073189102EA030303F580131993BAF1000F3FF4B7ABDDE91823CDE90423AAE7189B13F0010FF2D00999B0
:40220000002900F0DA80DDE9040100F011FE02460B46DDE90401FEF71DFECDE91801E1E7169BB3F1FF3F7FF4ABAE2223CDF864B02360223B1893FFF790BB40F20002222394
:40224000C7F6F07223600023FFF78DBA40F09980DDE91801CDE90401FFF7C2BB002794463E461097FFF7BEBABCF1010FE3441DD00498109D00EB0C09024609F1FF3902E0F6
:4022800046004A450BD0013206EB8600531E082BF6DD07EB8703102AD8BF5F00F1E7049A109594440CF1FF3CCDF810C0049B5D1C082BDEBF06EB86064FF0000C0AEB4606F0
:4022C0007FF7B1AA102D4FF0000C3FF7ACAA0A2202FB07A7FFF7A7BA00231F951A46FFF742BAC5F10F07089807F1160398423FF756AB44F26064DDE91801C0F2000404EB96
:40230000C703D3E9002301F029FE089AD71B04EBC704D4E9002301F021FE03460A46FFF722BA199A22F07F4323F47003002B7FF462AF189B002B7FF45FAF40F20005C7F620
:40234000F07502EA0505F5E60B9B0B954D461093FFF7E5B9089B13F1160FFFF620ABC3EB437244F26063C0F20003DDE9180103EBC203D3E9002301F01BFF03460A46FFF76F
:40238000F2B9CAF1000717F00F020DD044F26063DDE91801C0F2000303EBC203D3E9002301F006FFCDE918013F1157D1DDE91823BA46CDE90423FFF713BBDDE9040100F002
:4023C00037FD02460B46DDE90401FEF741FD00220023CDE91801FEF745FF00283FF402AFDCE501F154711991DDE918234FF0000ACDE90423FFF7F4BA531C1F935378282B8D
:4024000000F0848040F200020023CFF6F872FFF7AAB9A5F580134FF0FF3218926FEA13536FEA03531993DDE6454811461F9210F8014C0130002C66D04B780131402B02DDE9
:402440005A2BD8BF2033A342F1D001321F9240F200020023C7F6F072FFF785B91F2F49DC17F0100A18BF4FF06A0A002F16DD44F20868DDE91823C0F2000817F0010F1046AB
:40248000194605D0D8E9002301F068FD02460B467F1008F10808F0D1CDE91823BAF1000F1DD0199A40F20003C7F6F07302EA03031B0DC3F16B03002B11DD1F2B36DD002149
:4024C000342BC8BF4FF05C731891C8BF199306DC4FF0FF31203B11FA03F31A401992DDE9180100220023CDE90401FEF7BBFE00283FF476AA0023222222601A46FFF733B927
:402500004FF0FF3161E601311F91A0E71FA80D4914AA00F03DFB05287FF474AF159A149B42F0FE4242F47002FFF71DB94FF0FF3212FA03F3189A02EA03031893CFE700BF3C
:40254000354600003081FF1FF8B548F24414C1F6FF740A4601462068FFF73EF80F460646FEF7B2FE0021054601F096FF58B13046394600220023FEF775FE20B923682222D2
:402580001A602846F8BD4FF6FF712846C7F67F7101F0AAFF58B14FF6FF73304639464FF0FF32C7F6EF73FEF785FE0028E6D028466FF4000101F07AFF0028E2D0304639466F
:4025C0004FF0FF326FF48013FEF756FE0028D5D02846F8BD48F244130A46C1F6FF7301461868FEF7F9BF00BF44F2506048F22073C0F20000C1F6FF7310213022D154013197
:4026000010F8012FC9B2002AF8D144F248601A21C0F200006122D154013110F8012FC9B2002AF8D144F240601A21C0F200004122D154013110F8012FC9B2002AF8D17047CF
:402640002DE9F00104694B1100F11402A342174627DA043300EB8404143400EB83031D1D11F01F0125D05E682B1DC1F12008CE409C4214D94FF0000C1F6807FA08F73E4379
:4026800042F80C6053F8046B0CF1040CCE409C42F2D8671B053F27F00307C71918373E60B6B9BA1A9210026102B94261BDE8F0017047AC42F5D96B58535004314B199C42B7
:4026C000F9D8EF433F1927F00307C7191837E8E70437E6E72DE9F04F48F2207485B0C1F6FF749346029394F830300190002B00F005810B689E1C93F802C0BCF1300F40F0B4
:40270000CC81033300201E4613F801CB0130BCF1300FF8D014F80C5048F22072C1F6FF72002D3AD04FF0000833464546327801E013F8012FA75C002FFAD1D5F1010C38BF6B
:402740004FF0000C2E2A14BF00220CF0010262B15A785F1CA35C002B00F0E0813B4613F8012FA25C002AFAD13D461F46002D00F05981ED1B3B78AD00502B18D0702B16D00D
:402780003A460A60B8F1000F4DD000280CBF06240024204605B0BDE8F08FBCF12E0F00F02C81337837464FF00108502BE6D17B7807F101092B2B00F049812D2B00F04181A2
:4027C0000022039214F803C048F22073C1F6FF73BCF1000FD4D0BCF1190FD1DC99F801A0ACF1100C09F1010213F80A3093B1192B10DCA94601E0192B0BDC12F801AFA3F191
:4028000010050CEB8C0C14F80A3005EB4C0C002BF1D14D46039B0BB1CCF1000C65440A60B8F1000FB1D17B1E41469B1B072B03DD5B100131072BFBDC019800F02FFCBE4234
:40284000804600F1140A80F064810023AC461A46554609E0615C01F00F0111FA02F21343013F0246BE4210D217F8011C101D2E2908BF1046F4D0202AECD145F8043B002381
:4028800017F8011C1A460420E4E72A46654694466246184642F8043BCAEB0204A410C8F8104000F053FADBF800606401241AB44200F3D180C0F2AB800027DBF808309D426F
:4028C00000F39280DBF804309D4280F29E805C1BA64218DCDBF80C20022A00F0F980032A00F03581012A00F023810198414600F0B9FB0E9A0023502413604AE70091FFF7B6
:4029000073FE0099F5E6651E002F40F0D980002D04DD4046294600F079FB07466B11012205F01F0521465AF82330AA4040461A4218BF47F00207FFF783FEDBF80450361B2D
:402940000224002F77D0DBF80C30022B6CD0032B00F0E980012B6CD117F0020F69D0DAF800301F4317F0010F63D0D8F810705346002008EB870114311A68B2F1FF3F40F0F8
:40298000ED8043F8040B9942F6D8D8F808203B469742B8BFC24680F2E4800AEB8302D0460133CAF8103001235361022C00F0A080D8F810309F420DDB16F01F0600F0A78019
:4029C00008EB8707C6F12006386900F0BFF9B04280F29D8001214046FFF732FEDBF8083001359D4240F393800198414600F03AFB0E9A0023A3241360CBE67378771CD55CD1
:402A0000002D4CD14FF00108B6E6012499E7341B41460198224600F05BFC2D1B804600F1140A49E73B78A7E60F9AC2F10103002B9BD144F010040E9B029AC3F800801560E4
:402A4000A7E60122039219F8013FBBE60023039319F8013FB6E6A41B4046214600F0D6FA0746A0B1611E012701F01F024B1117FA02F208EB83035B691A4208D0B9424BDDC1
:402A80000139404600F0C2FA002845D0023740462146FFF7D5FD2D190FE700203AE6302B3B4618BF3A780DD113F8012F302AFBD0A05C38B94FF001083D461E46404639E69F
:402AC00001272BE73D461E464FF00008012031E60F9A002A7FF409AF029A6224136001230E9ACAF80030C8F81030C2F8008050E6DBF80030013BB3422ED17311012206F0A5
:402B00001F0608EB8303B2405B691A4224D0212491E7D4460023BBE60227B8E73D46002D7FF427AE7EE70F9B002B7FF41EAF80E7B4427FF4DAAE012ECEDD711E404600F0E5
:402B400065FA00283FF4D1AEDBF80430C4E70F9A002A3FF4CAAEBFE722246CE701321A6023E7D8F804100198013100F097FAD8F8102008F10C010232920082460C30FEF701
:402B8000F7FB0198414600F06DFADAF8103004E72DE9F04F48F22074C1F6FF7485B00D46914694F830300290002B00F0AF802A680299531112F01F02039209EB83030E6802
:402BC00018BF04330022181F92468046014693461746019043F8042C16F8013F002B35D0E25C002A75D1202B00F28A805F45F3DD41452CBF00230123BAF1070FCCBF002349
:402C000003F001039BB1CAF108050A680B468C46AD00C5F1200A596801FA0AF002431A6031FA05F243F8042F9845F4D86146494598BF4FF0080ACFD9002241F8042D16F89A
:402C4000013FBB4688469246002BC9D1002F59D041452CBF00230123BAF1070FCCBF002303F001039BB1CAF1080A0A680B464FEA8A0ACAF12004586800FA04FC42EA0C02B6
:402C80001A6020FA0AF243F8042F9845F3D889453FD201984B4651F8042B884243F8042BF9D20199002243F8042B9942FBD20198036863B90199894518BF019B02D137E03B
:402CC000994535D053F8042C043B002AF8D0052019E00AF1010A0137BAF1080F07DC0B681B0102F00F0243EA02020A6074E749457FF672AF00234FF0010A41F8043DF0E7DA
:402D0000292B1DD0042005B0BDE8F08FFFF76CFC4DE7039989B101984FF0FF31039BC3F12002036831FA02F202EA03030360C0E701230520C9F80030E5E7019A1368B8E730
:402D4000029B01361E60002F82D1DBE7020C03461204B2B1002013F07F4F01D108301B0213F0704F01D104301B0113F0404F01D102309B00002B03DB13F0804F04D00130E0
:402D8000704703041020E6E7202070470368024613F0070009D013F0010F21D113F0020F22D19B0802201360704799B209B91B0C102013F0FF0F01D108301B0A13F00F0F0B
:402DC00001D104301B0913F0030F01D102309B0813F0010F02D15B0804D001301360704700207047202070475B0801201360704703460A69006910B4801A11D1043203F16A
:402E0000140C92009B1889180431043353F8044C043B51F8042C0439944203D19C45F5D310BC704738BF4FF0FF30F9D30120F7E740F20003C7F6F07301EA0303A3F15073ED
:402E4000002B02DD1946002070475B421B15132B0EDD143B1E2B03DD01230021184670470122C3F11F03002112FA03F3184670474FF40022002052FA03F170472DE9F04156
:402E8000046900F114060F46043450F8245000EB8404A0462846FFF759FF0A28C0F120033B6014DCA642C0F10B0337D254F8041CD94025FA03FC15304CF07E53854043F40A
:402EC000E00341EA050210461946BDE8F081A64220D300210B3802BF45F07E530A4643F4E003F0D0B442C0F1200319D954F8044CDC40854021FA03FC45F07E5511FA00F06C
:402F000045F4E00544EA000245EA0C0310461946BDE8F08154F8041C043CDBE70021C8E70024E6E72DE9F04383B00E4601A90746FFF7A4FF0D46044669463046FFF79EFF56
:402F4000DDF804C0A946A0460B4602463169164638691F46401A0099C1EB0C0101EB40110029C9BF05EB0159A3EB015724464D46DCBF12463B462046294601F019F903B088
:402F8000BDE8F083172810B504460EDD40F200010020C3F6F07140F200030022C4F2240300F0DCFF013CF6D110BD44F26063C0F2000303EBC003D3E9000110BD13690139E4
:402FC00002F1140C10B402EB83024C1114320134944500EB84040FD200235CF80310C150043303EB0C018A42F7D86FEA0C0C624422F0030204328018844204D9002340F821
:40300000043B8442FBD810BC704700BF02694B119A4210DB0EDD11F01F010BD01A4600EB83035B6923FA01FC0CFA01F1994202D0012070471A46043200F1140100EB8203C9
:4030400003F1040C61450BD250F82220002AEFD1994205D253F8042D002AE9D19942F9D30020704730B5456A83B0044655B139B1636A4A68DB6853F82200086043F82210C0
:4030800003B030BD1020019100F042FB01996062C560456085600560E9E700BF70B5446A06460D4664B1E268A2B152F82530EBB1196842F825100022DA601A61184670BDD1
:4030C000102000F025FB002304467062C36043608360036010223046042100F0E3FA736AE060DA68002AE0D11346E7E7012430462146AC40621D920000F0D4FA034600281C
:40310000DCD045608460D6E72DE9F04583B001211D4614460A9F0B9EFFF7C0FF25F0004225F07F4323F4700315465FEA125A00931CBF43F4801300938046002C23D002A817
:4031400040F8044DFFF722FE0346002837D10199009AC8F81410002A14BF02240124C8F81820C8F81040BAF1000F1BD0AAF5866AC3F13502AAF1030A53443B6032604046BE
:4031800003B0BDE8F0856846FFF700FE01231C46C8F81030009BC8F8143000F12003BAF1000FE3D108EB8402A3F58663023B3B601069FFF7CBFDC0EB44103060DFE7009A01
:4031C000C0F1200112FA01F1C24001980143C8F814100092BFE700BF2DE9F84F13690F690C461546FF1A002F4FD06ADB002701F114066168FFF752FFD5F81080D4F810C05F
:4032000005F11401002205EB880504EB8C0405F11408143400F11403C76051F8047B56F8045BBB461FFA87FA3F0C1FFA85F9C7EB1547CAEB090A524407EB224792B242EAB3
:40324000074243F8042B3A148845E6D8A6420ED256F8041B8DB2090C521901EB224192B242EA014243F8042B0A14B442F0D853F8042C32B953F8082C0CF1FF3C043B002A00
:40328000F8D0C0F810C0BDE8F88F043301F114069B00D218CB180433043253F804CC043B52F8041C043A8C450AD19E42F5D30021FFF7F4FE0123036100234361BDE8F88FA0
:4032C00097D223462C4601271D4604F1140690E72DE9F8450D698B68561101350C46AD1990469D428246496803DD5B0001319D42FBDC5046FFF7D2FE002E074600F11402D9
:403300000ADD0023194642F823100133B342FAD107EB830303F11402206904F1140304EB8000143018F01F081BD0C8F1200E00211E6806FA08FC41EA0C0142F8041B53F871
:40334000041B984221FA0EF1F2D8116001B101355046013D21463D61FFF784FE3846BDE8F88553F8081042F8081008F1040808EB03018842ECD953F8081042F8081008F138
:40338000040808EB03018842EBD8E1E72DE9F04FD1F8108017690D46164687B0B845B5BF15463B460B464746B4BF1E469846AB6808EB070469689C42C8BF0131FFF76EFEE6
:4033C00000EB840300F1140B143303909B45049306D204995B46002243F8042B9942FBD806EB880806F1140908F1140805EB870C1435C145CDF804800CF1140C02954BD214
:403400004FF0000A059459F80A400AEB0B08A0B2D8B1029A4346002452F8045B1968AFB22D0C8EB2090C00FB076600FB0511361901EB1641B6B20C0C944546EA014643F8B4
:40344000046BE9D81C6059F80A40240C1CD05BF80A204146029B002510461E8897B206FB045505EB104547EA05470F6051F8040F53F8042B86B2120C02FB046202EB154280
:40348000150C9C45E9D80A600AF1040A019A0AEB09039A42B7D8059C002C0BDD049A52F8043C3BB9134603E053F8082C043B0AB9013CF9D1039B18461C6107B0BDE8F08FE6
:4034C00010B50C460121FFF7E9FD01224461026110BD00BF2DE9F0450D46002106462C6983B005F11408084658F8017001301FFA87FA4FEA174C0AFB02330CFB02FC0CEB6F
:40350000134C9BB203EB0C4348F80130043184424FEA1C43E8DC3BB1AA68944208DA05EB840201342C615361284603B0BDE8F0856968304601930131FFF7B0FD2A6905F1C4
:403540000C010232920007460C30FDF711FF294630463D46FFF786FD019BE0E72DE9F041154612F00302044688462CD1AD101ED0666A002E34D0B768002F3BD015F0010FCE
:4035800008D16D1013D03E68A6B13046074615F0010FF6D041463A462046FFF7F7FE414606462046FFF75EFD6D10B046EBD14046BDE8F08139463A462046FFF7E7FE3860B2
:4035C00007460660E3E744F2606C0023C0F2000C0CEB8202D2F8C420FFF77CFF8046C5E7102000F095F8002306466062C360436083600360204640F27121FFF761FF0023D2
:40360000B06007460360B9E72DE9F8451E4648F6396306F1080CC3F6E30388460546174683FB0C134FEAEC7CCCEB630CBCF1010F35DD00210122520001319445FBDC284660
:40364000FFF72CFD089B43610123092F036122DD08F1090A092418F8043001460A220134303B2846FFF736FFA742F4DC0AEB0708A8F10808BE420CDD002418F804300146FE
:4036800001340A22303B2846FFF724FFE3199E42F3DCBDE8F88508F10A080927EAE70021CDE700BF38B501FB02F100F039F80446F8B150F8042C22F00302043A242A1AD84D
:4036C000132A03460FD9002140F8041B031D1B2A616008D91D1D416059602B1D242A02BF6960596008331A46002142F8041B59605160204638BD0021FDF702FF204638BD25
:4037000048F244130146C1F6FF73186800F046BB48F244130146C1F6FF73186800F000B82DE9F04F01F10B04162C83B006462FD8002310248C422CBF194643F00101002903
:4037400030D1304600F0BEFAB4F5FC7F2ED24FEAD40E48F23825C1F6FF7505EBCE02D368934200F006825A6803F10805D968304622F0030C9A6863445C688A6044F00104B6
:40378000D1605C6000F0A0FA284603B0BDE8F08F24F00704E30F8C422CBF194643F001010029CED00C2300253360EDE75FEA542E04BF4FEAD40E4FEACE0040F0908048F243
:4037C0003825C1F6FF752818C368984206D10DE0002A80F26F81DB68984207D0596821F003010A1B0F2AF3DD0EF1FF3E0EF1010E48F23827C1F6FF7707F108018B689942D5
:4038000008BF7A6826D05A6822F0030CC4EB0C020F2A00F39481002AC960896080F29980BCF5007F80F065814FEADC0C4FF0010A7A6807EBCC004FEAAC0C0AFA0CFCD8607B
:40384000D0F808804CEA02027A60C3F80880C8F80C3083604FF0010C4FEAAE030CFA03FC944500F2828012EA0C0F08D12EF0030E4FEA4C0C0EF1040E12EA0C0FF8D007EB28
:40388000CE09F246C846D8F80C30984507D168E1002A80F27881DB68984500F06281586820F00300021B0F2AF2DD1D461F19D3F80CC044F0010E55F8084F3046BA5042F096
:4038C0000102C3F804E0CCF80840C4F80CC08F60CF607A60B960F96000F0F6F954E7BEF1040F9EBF4FEA941E0EF1380E4FEACE007FF665AFBEF1140F9CBF0EF15B0E4FEA61
:40390000CE007FF65CAFBEF1540F9EBF4FEA143E0EF16E0E4FEACE007FF651AFBEF5AA7F9EBF4FEAD43E0EF1770E4FEACE007FF646AF40F254539E4595BF4FEA944E4FF461
:403940007C700EF17C0E4FF07E0E98BF4FEACE0035E703EB0C0203F108053046536843F00103536000F0B0F90EE7D7F80880D8F8043023F00309C4EB09024C4594BF0023AC
:4039800001230F2AD8BF43F00103002B00F0A18048F2686BD5F80824C1F6FF7BDBF8003010331B19B2F1FF3F06D003F57E631F3323F47E6323F01F0319463046019300F087
:4039C00085F9019BB0F1FF3F824600F0F48008EB0901814200F2EC80DBF804209A185145CBF8042000F04581D5F8085448F23820C1F6FF70B5F1FF3F08BFC0F808A403D0E5
:403A00005244511ACBF804101AF00705304617BFC5F108054FF48055AA4405F5805553441B051B0DED1A294600F050F9B0F1FF3F00F02C81CAEB0001491941F00101DBF88C
:403A4000042048F26863C7F808A0C1F6FF73AA18B845CBF80420CAF8041017D0B9F10F0F40F2DF80A9F10C01052521F0070108EB01000F2985604560D8F8040000F001006C
:403A800041EA0000C8F8040000F2AC80D04648F26863DBF82C10C1F6FF738A42DBF8301088BFDA6248F26863C1F6FF738A4288BF1A6382E05C189A68D9683046666803F135
:403AC00008058A6046F00103D160636000F0FCF85AE608EB040342F0010244F001043046C8F8044008F108055A60BB6000F0ECF84AE64FEA5C22042A54D9142A00F2898071
:403B00005B324FEAC208A84448F23827C1F6FF77D8F80800404503D16FE08068804504D0426822F003029445F7D3D0F80CC0C3F80CC098607A68C360CCF808308AE61F1922
:403B4000304644F00104CF605C6003F10805BA5042F001028F607A60B960F96000F0B4F812E60AF1010A1AF0030F5FD003F1080889E603F10802D3689A4208BF0EF1020EED
:403B80003FF436AEEFE51D461918DA68304655F8083F4C68936044F00104DA604C6000F093F8F1E54FEA9C1238324FEAC208AAE7B8453FF411AFD7F80880D8F8042022F0F1
:403BC0000302944294BF00230123121B0F2AD8BF43F00103002B3FF47CAF3046002500F073F8D1E508F108013046019300F0D6F8019BD7F808805A6849E74FF0010AD7F81F
:403C00000480921084460AFA02F248EA02027A608DE7542A24D84FEA1C326E324FEAC20871E70123D046CAF80430C6E74A461EF0030F13460EF1FF3E33D053F808299A429F
:403C4000F5D07B684FEA4C0C9C453FF68EAEBCF1000F3FF48AAE1CEA030F27D0D6460EE6B2F5AA7F15D84FEADC3277324FEAC20849E70805000D00287FF4B6AED7F8088023
:403C80004B4443F00103C8F8043000E701210025D5E640F2545082420DD94FF47C787E2231E77B6823EA0C037B60CBE74FEA4C0C0AF1040ACFE74FEA9C427C324FEAC2084E
:403CC00021E700BF704700BF704700BF38B548F62004C1F6FF74054608460023236000F025FCB0F1FF3F00D038BD2368002BFBD02B6038BDF8B548F23824C1F6FF740F46E1
:403D00000546FFF7DFFFA3685E6826F0030606F57E630F33DF1B3F0B013F3F03B7F5805F07DB00212846FFF7D1FFA368F318834204D02846FFF7C8FF0020F8BD79422846F6
:403D4000FFF7C4FFB0F1FF3F10D0A26848F26C63C1F6FF73F61B46F00106284656601A68D71B1F60FFF7B0FF0120F8BD00212846FFF7ACFFA368C21A0F2ADADD48F24064CA
:403D800048F26C61C1F6FF74C1F6FF7142F001022468001B08605A60CBE700BF2DE9F04105460C46002900F08880FFF78BFFA4F1080248F238205668C1F6FF7026F0010388
:403DC000D0F808C0D1188C454F6827F0030700F0958016F001064F605FD00026CC19646814F0010F06D1DB19002E7AD08C68C9688C60E16043F00101D3505160002E47D1E2
:403E0000B3F5007F5BD3590A04299EBF4FEA931C0CF1380C4FEACC0428D914299CBF01F15B0C4FEACC0421D954299EBF4FEA133C0CF16E0C4FEACC0418D9B1F5AA7F9EBF1A
:403E40004FEAD33C0CF1770C4FEACC040ED940F2545C614595BF4FEA934C4FF47C740CF17C0C4FF07E0C98BF4FEACC040419A168A14203D164E089688C4204D0486820F041
:403E800003008342F7D3CB68D3609160CA609A602846BDE8F041FFF717BF54F8084C00F1080C121B1B199468644547D0D2F80CC0CCF80840C4F80CC090E7BDE8F081DB0889
:403EC0004FF0010C466800EBC3019B100CFA03F3D1608C6846EA030343609460E2608A60D6E78C681C4FBC4281D1D35043F00103E260A26053609460D460C9E7FB1816F0A6
:403F0000010F07D154F8081C521A5B18D4689168A160CC6048F244618260C1F6FF7143F0010050600A689342B2D348F268632846C1F6FF731968FFF7DDFEA9E701264DE777
:403F4000012644684FEAAC0C0B4606FA0CFC44EA0C04446098E700BF4082FF1F70B54FF0FF0C4CF4E06C1CEA11541DBF1CEA135594EA0C0F95EA0C0F00F0DEF82C4481EAA0
:403F8000030621EA4C5123EA4C5350EA013518BF52EA033541F4801143F4801338D0A0FB02CE4FF00005E1FB02E506F00042E0FB03E54FF00006E1FB03569CF0000F18BFF8
:403FC0004EF0010EA4F1FF04B6F5007F64F5407404D25FEA4E0E6D4146EB060642EAC62141EA55514FEAC52040EA5E504FEACE2EB4F1FD0C88BFBCF5E06F1ED8BEF1004F47
:4040000008BF5FEA500E50F1000041EB045170BD06F0004646EA010140EA020081EA0301B4EB5C04C2BFD4EB0C0541EA045170BD41F480114FF0000E013C00F3AB8014F1AA
:40404000360FDEBF002001F0004170BDC4F10004203C35DA0C341BDC04F11404C4F1200500FA05F320FA04F001FA05F240EA020001F0004221F0004110EBD37021FA04F6A7
:4040800042EB06015EEA430E08BF20EAD37070BDC4F10C04C4F1200500FA04F320FA05F001FA04F240EA020001F0004110EBD37041F100015EEA430E08BF20EAD37070BDB9
:4040C000C4F1200500FA05F24EEA020E20FA04F301FA05F243EA020321FA04F001F0004121FA04F220EA020000EBD3705EEA430E08BF20EAD37070BD94F0000F0FD101F0AE
:404100000046400041EB010111F4801F08BF013CF7D041EA060195F0000F18BF704703F00046520043EB030313F4801F08BF013DF7D043EA0603704794EA0C0F0CEA1355F3
:4041400018BF95EA0C0F0CD050EA410618BF52EA4306D1D181EA030101F000414FF0000070BD50EA410606BF1046194652EA430619D094EA0C0F02D150EA013613D195EABD
:404180000C0F05D152EA03361CBF104619460AD181EA030101F0004141F0FE4141F470014FF0000070BD41F0FE4141F4780170BD70B54FF0FF0C4CF4E06C1CEA11541DBF7E
:4041C0001CEA135594EA0C0F95EA0C0F00F0A7F8A4EB050481EA030E52EA03354FEA013100F088804FEA03334FF0805545EA131343EA12634FEA022245EA111545EA1065D4
:404200004FEA00260EF000419D4208BF964244F1FD0404F5407402D25B084FEA3202B61A65EB03055B084FEA32024FF480104FF4002CB6EB020E75EB030E22BFB61A754613
:4042400040EA0C005B084FEA3202B6EB020E75EB030E22BFB61A754640EA5C005B084FEA3202B6EB020E75EB030E22BFB61A754640EA9C005B084FEA3202B6EB020E75EB1F
:40428000030E22BFB61A754640EADC0055EA060E18D04FEA051545EA16754FEA06164FEAC30343EA52734FEAC2025FEA1C1CC0D111F4801F0BD141EA00014FF000004FF0B4
:4042C000004CB6E711F4801F04BF01430020B4F1FD0C88BFBCF5E06F3FF6AFAEB5EB030C04BFB6EB020C5FEA500C50F1000041EB045170BD0EF0004E4EEA113114EB5C04A9
:40430000C2BFD4EB0C0541EA045170BD41F480114FF0000E013C90E645EA060E8DE60CEA135594EA0C0F08BF95EA0C0F3FF43BAF94EA0C0F0AD150EA01347FF434AF95EAD6
:404340000C0F7FF425AF104619462CE795EA0C0F06D152EA03353FF4FDAE1046194622E750EA410618BF52EA43067FF4C5AE50EA41047FF40DAF52EA43057FF4EBAE12E798
:404380004FEA410212F5001215D211D56FF47873B3EB625212D94FEAC12343F0004343EA505311F0004F23FA02F018BF404270474FF00000704750EA013005D111F00040C6
:4043C00008BF6FF0004070474FF00000704700BF4A0011D212F5001211D20DD56FF47873B3EB62520ED44FEAC12343F0004343EA505323FA02F070474FF00000704750EA05
:40440000013002D14FF0FF3070474FF0000070474FF0FF3C06E000BF4FF0010C02E000BF4FF0010C4DF804CD4FEA40024FEA41037FEA226C18BF7FEA236C11D001B052EA63
:40444000530C18BF90EA010F58BFB2EB030088BFC81738BF6FEAE17018BF40F0010070477FEA226C02D15FEA402C05D17FEA236CE4D15FEA412CE1D05DF8040B704700BFFC
:40448000844608466146FFE70FB5FFF7C9FF002848BF10F1000F0FBD4DF808EDFFF7F4FF0CBF012000205DF808FB00BF4DF808EDFFF7EAFF34BF012000205DF808FB00BF20
:4044C0004DF808EDFFF7E0FF94BF012000205DF808FB00BF4DF808EDFFF7D2FF94BF012000205DF808FB00BF4DF808EDFFF7C8FF34BF012000205DF808FB00BF08B500F067
:404500003FF8074800B10068064901B109680022FBF7C4FD044B0BB1AFF30080FEE700BF00000000000000000000000008B50E4B1A680E4B1B6818184AB1121A002A06DAEF
:4045400000F018F80C2303604FF0FF3008BDADEB0302002A03DBADEB0002FF2AF0DD034A1060184608BD00BF4C86FF1F4886FF1FFEE7000048F24413C1F6FF7318687047F0
:4045800070B544F2947644F29475C0F20006C0F20005761BB61006D0002455F8243001349847A642F9D844F2947544F29C76C0F20005C0F20006761B00F0E6F8B61006D038
:4045C000002455F8243001349847A642F9D870BD0061FF1824100000105100403000505100402000F0510040100000000140001000140140000800400140000A004C014027
:404600000002000000000000BC89D897B2D29C3C33A7A8D523F649393DA7F444FD0FA5329D978CCF08BA5B25436FAC642806180E6E660000696E697479000000616E0000C0
:404640004142434445460000616263646566000030313233343536373839000043000000000000000000F03F000000000000244000000000000059400000000000408F40C5
:40468000000000000088C34000000000006AF8400000000080842E4100000000D01263410000000084D797410000000065CDCD41000000205FA00242000000E876483742DF
:4046C000000000A2941A6D42000040E59C30A2420000901EC4BCD64200003426F56B0C430080E03779C3414300A0D8855734764300C84E676DC1AB43003D9160E458E143D8
:40470000408CB5781DAF154450EFE2D6E41A4B4492D54D06CFF08044F64AE1C7022DB544B49DD9794378EA4405000000190000007D000000000000000080E03779C341430C
:40474000176E05B5B5B89346F5F93FE9034F384D321D30F94877825A3CBF737FDD4F1575BC89D897B2D29C3C33A7A8D523F649393DA7F444FD0FA5329D978CCF08BA5B253F
:40478000436FAC642806C80AF8B500BFF8BC08BC9E46704781000000CD030000F8B500BFF8BC08BC9E4670476D00000000000000C04700000881FF1F48050000D8010000A7
:4047C0000000000000366E01C05D0000180000000000E02E35000000CEFBFFFFCB030000010000000000000034000000CEFBFFFFCB03000001000000000000004881FF1F55
:4048000000000000000000000000000000000000000000000000000000000000000000005C46000000000000000000000000000000000000000000000000000000000000D6
:404840000000000000000000000000000000000000000000000000000000000000000000000000000000000000000000000000000000000000000000000000000000000038
:4048800000000000000000000000000000000000000000000000000000000000000000000000000000000000000000000000000000000000000000000000000000000000F8
:4048C00000000000000000000000000000000000000000000000000000000000000000000000000000000000000000000000000000000000000000003882FF1F3882FF1F08
:404900004082FF1F4082FF1F4882FF1F4882FF1F5082FF1F5082FF1F5882FF1F5882FF1F6082FF1F6082FF1F6882FF1F6882FF1F7082FF1F7082FF1F7882FF1F7882FF1FB7
:404940008082FF1F8082FF1F8882FF1F8882FF1F9082FF1F9082FF1F9882FF1F9882FF1FA082FF1FA082FF1FA882FF1FA882FF1FB082FF1FB082FF1FB882FF1FB882FF1F77
:40498000C082FF1FC082FF1FC882FF1FC882FF1FD082FF1FD082FF1FD882FF1FD882FF1FE082FF1FE082FF1FE882FF1FE882FF1FF082FF1FF082FF1FF882FF1FF882FF1F37
:4049C0000083FF1F0083FF1F0883FF1F0883FF1F1083FF1F1083FF1F1883FF1F1883FF1F2083FF1F2083FF1F2883FF1F2883FF1F3083FF1F3083FF1F3883FF1F3883FF1FE7
:404A00004083FF1F4083FF1F4883FF1F4883FF1F5083FF1F5083FF1F5883FF1F5883FF1F6083FF1F6083FF1F6883FF1F6883FF1F7083FF1F7083FF1F7883FF1F7883FF1FA6
:404A40008083FF1F8083FF1F8883FF1F8883FF1F9083FF1F9083FF1F9883FF1F9883FF1FA083FF1FA083FF1FA883FF1FA883FF1FB083FF1FB083FF1FB883FF1FB883FF1F66
:404A8000C083FF1FC083FF1FC883FF1FC883FF1FD083FF1FD083FF1FD883FF1FD883FF1FE083FF1FE083FF1FE883FF1FE883FF1FF083FF1FF083FF1FF883FF1FF883FF1F26
:404AC0000084FF1F0084FF1F0884FF1F0884FF1F1084FF1F1084FF1F1884FF1F1884FF1F2084FF1F2084FF1F2884FF1F2884FF1F3084FF1F3084FF1F3884FF1F3884FF1FD6
:404B00004084FF1F4084FF1F4884FF1F4884FF1F5084FF1F5084FF1F5884FF1F5884FF1F6084FF1F6084FF1F6884FF1F6884FF1F7084FF1F7084FF1F7884FF1F7884FF1F95
:404B40008084FF1F8084FF1F8884FF1F8884FF1F9084FF1F9084FF1F9884FF1F9884FF1FA084FF1FA084FF1FA884FF1FA884FF1FB084FF1FB084FF1FB884FF1FB884FF1F55
:404B8000C084FF1FC084FF1FC884FF1FC884FF1FD084FF1FD084FF1FD884FF1FD884FF1FE084FF1FE084FF1FE884FF1FE884FF1FF084FF1FF084FF1FF884FF1FF884FF1F15
:404BC0000085FF1F0085FF1F0885FF1F0885FF1F1085FF1F1085FF1F1885FF1F1885FF1F2085FF1F2085FF1F2885FF1F2885FF1F3085FF1F3085FF1F3885FF1F3885FF1FC5
:404C00004085FF1F4085FF1F4885FF1F4885FF1F5085FF1F5085FF1F5885FF1F5885FF1F6085FF1F6085FF1F6885FF1F6885FF1F7085FF1F7085FF1F7885FF1F7885FF1F84
:404C40008085FF1F8085FF1F8885FF1F8885FF1F9085FF1F9085FF1F9885FF1F9885FF1FA085FF1FA085FF1FA885FF1FA885FF1FB085FF1FB085FF1FB885FF1FB885FF1F44
:404C8000C085FF1FC085FF1FC885FF1FC885FF1FD085FF1FD085FF1FD885FF1FD885FF1FE085FF1FE085FF1FE885FF1FE885FF1FF085FF1FF085FF1FF885FF1FF885FF1F04
:404CC0000086FF1F0086FF1F0886FF1F0886FF1F1086FF1F1086FF1F1886FF1F1886FF1F2086FF1F2086FF1F2886FF1F2886FF1F3086FF1F3086FF1FFFFFFFFF000002006E
:404D00002888FF1F00400020000000000000000000000000000000000000000000000000000000000000000000000000000000000000000000000000000000000000000045
:404D40000000000000000000000000000000000000000000000000000000000000000000000000000000000000000000000000000000000000000000000000000000000033
:404D800000000000000000000000000000000000000000000000000000000000000000000000000000000000000000000000000000000000000000000000000000000000F3
:404DC00000000000000000000000000000000000000000000000000000000000000000000000000000000000000000000000000000000000000000000000000000000000B3
:404E00000000000000000000000000000000000000000000000000000000000000000000000000000000000000000000000000000000000000000000000000000000000072
:020000040003F7
:0200000480007A
:4000000003640040010501405808014048090140360A0140490B0140490C0140400D0140460E01402E0F0140531801403D19014002400140014101400342014002440140FC
:400040000345014001460140034701400750014001510140890F8A728B79E6080201040108010B1C0DFF0E01100113FF15DB160117241BE01DFF2001212423DB2592260122
:40008000276D296D2A022B922F0333FF34033A203B803F0440024751483049FF4A074BFF4C404D204EF04F055008580459045A04604061A862406320850786018D04950202
:4000C000960297019907A901AA02AB02B104B203B303BE04C041C105C202C403C50EC64CC81DC9FFCAFFCBFFCC62CDA0CEF0CF41D00CD401D804D904DA04DB04E640E70235
:40010000E910EA30EB10ED10EE10EF12022004400528068009080F6010041480172419041A101F2020402108220325402680272028042B302D202E902FA031083210348320
:4001400035103602370439843D803E203F404086421047104B485050510455045701581059015A4889088B808E4090049184922094A0950896129708988499109AA09B04E9
:400180009C019D04A380A680A720C0F4C234C472CAF4CCF6CE3AD02FD208D60F00070220060807010A100C010F011021120614061A101E012027240228062A212C0430075C
:4001C00032203410360E370138083A823E103F4056025712580459045B04810883018508870489088B028D079307970799109D20A307A707A907B107B318B728B988BF4428
:40020000D459D604D904DB040008020203880540060109080A420B0812891304184019201A401B8823012504264027402D102FA034013610374438843C423E2840C0442048
:4002400045045A045E82642065206602670169846A20714873047411751076E87718860289108A808E1290049204946095089602970498049B049D549EE09F18A004A21907
:40028000A410A508A680A780B584C00FC20FC40FCAE0CCF0CEFAD692D8F000270208040C06220A010C080D01120413011408150118201A011C0C1D011E21202F2301260122
:4002C000270228042A102B042E232F013010340F350736203B203E10580459048001811F8202840485018602883089018C2F8D038E108F0C9030920F931F94109710981041
:40030000990C9B039E089F1FA03FA11FA401A502A60CA705A90CAA08AB03AD0AAE0FB21FB420B51FBE14BF10D804D904004002490314040A055009880B840C800D080E8815
:400340001040128613081444154016101A041B081E821F20200824082704284229142B022D402FA8308032013394340235043684382239083A553B083C404D404E037FC017
:40038000900494289602970C98049D549EF19F10A210A302A410A508A682A780AC04C0FFC2FFC4FFCAFFCCDFCE1FEA080004010F020303100402051F06010A010B080D0111
:4003C0000E030F021202130F14041510180419041B021D1F1E0820072110230F2407270829012A012B0C2C032D102E04340F371F3F40580459048007813F8238843F873F47
:4004000088388A078B0C8E3F8F0390369209933F94099612983F9B309D3F9E3FA23FA33FA409A624A72AA838AA07AB15AC3FB03FB53FBA02D804D9040020020203A0040830
:400440000510068209880A400B040C080E4A1008110412811611171118041E401F022180261029542A022BA02C082F9431083281331135103682382839043A413B213D04BB
:400480003EA03F018D048E85C0FFC2FFC4FFCAEFCCBFCEFF050307040A070E05111916031C021D331F0C20062408272E29332B04320733303408370F39083A083B803F0442
:4004C0005804590480428230830784248538864289088A0C8B308C708D018E0A8F06910492409301943295209644970899389A029D019F02A140A401A580A850A910AB08D5
:40050000AD04B002B107B27CB340B401B538B780BB02BE11BF44C052C103C5E0C6C0C70BC81AC9FFCAFFCBFFCEF0CF44D00CD804D904DA04E6C0EA40EB020010028203204F
:400540000590081109200A100B040E100F0211081204130815021708181019041A441D101E101F382111226626802710280529052B012F18310832923580368239243B42CE
:400580003F04420443084981512052048B488F219104922096C898049C109D019F10A10CA301A620C0CFC2AEC436CA6FCC9FCE4FD006D2083380CC10A7808780A780E610BE
:4005C0000620C0045B40AE20D4019F408F409F40E008000102100C010E01100112101C010003000002000000000000000800000808000000000000000002020002000000BC
:4006000000020000000000000000000000000000000000000000000000000000000000000000000000000000000000000000000000000000000000000000000000000000B8
:40064000000000000000000000000000000000000000000000000000000000000000000000000000000000000000000000000000000000000000000000000000000000007A
:40068000000000000000000000000000000000000000000000000000000000000000000000000000000000000000000000000000000000000000000000000000000000003A
:4006C00000000000000000000000000000000000000000000000000000000000000000000000000000000000000000000000000000000000000000000000000000000000FA
:4007000000000000000000000000000000000000000000000000000000000000000000000000000000000000000000000000000000000000000000000000000000000000B9
:0200000490006A
:0400000000000006F6
:0200000490105A
:04000000BC90ACAF55
:0200000490303A
:02000000BEC080
:0200000490501A
:0C00000000010E13C06901010E357F29BC
:0200000490402A
:4000000000000000000000000000000000000000000000000000000000000000000000000000000000000000000000000000000000000000000000000000000000000000C0
:400040000000000000000000000000000000000000000000000000000000000000000000000000000000000000000000000000000000000000000000000000000000000080
:400080000000000000000000000000000000000000000000000000000000000000000000000000000000000000000000000000000000000000000000000000000000000040
:4000C0000000000000000000000000000000000000000000000000000000000000000000000000000000000000000000000000000000000000000000000000000000000000
:00000001FF
