:100000000080002089160000811600008116000083
:1000100080B51448144B21E05C689968DD688C4217
:100020000CD0002205E0A6180832D6E9008941E983
:1000300002898C460831AA42F5D101E004EB050C97
:100040001C696146002204E008320026002741E9CD
:1000500002670831A242F7D1143301380028DBD1FE
:1000600012F080FB010000006435010048F2C0631B
:10007000C1F6FF731A780AB901201870704700BFE3
:1000800048F20810C1F6FF7008B503682BB140F2C2
:100090000003C0F2000303B1984708BD80B483B0E9
:1000A00000AF786039604AF2C023C1F6FF737A6806
:1000B0001A604AF2C423C1F6FF733A681A604FF01F
:1000C0000103184607F10C07BD4680BC704700BF0E
:1000D00080B500AF03F08CF94FF0000004F0AEFAE9
:1000E0004FF0000003F0FCFB40F61110C0F20000DE
:1000F00003F082FB4AF2C823C1F6FF734FF00002FF
:100100001A7080BD80B58AB000AFF860B9607A60BF
:100110004FF00003FB754FF00003BB614FF0640329
:10012000FB617A68FB69B2FBF3F33B6200F0DAFB38
:10013000F86803F093FABB681B78002B1ED04FF0D1
:100140000003BB6116E048F2C860C1F6FF70B968F1
:100150000CF0C6F903467B627B6A002B03D04FF09C
:100160000103FB750AE0F86901F0EAFFBB6903F1DE
:100170000103BB61BA693B6A9A42E4D3FB7D18462E
:1001800007F12807BD4680BD80B500AF4FF00100E4
:1001900003F0A6FB4FF0010003F082FB4FF00000DC
:1001A00003F0C0FB4FF0010004F048FA4FF00000EC
:1001B00003F096FB4FF4FA6001F0C2FF4FF001002C
:1001C00003F08EFB42F2107001F0BAFF4AF2C8232E
:1001D000C1F6FF734FF001021A704AF2C823C1F64C
:1001E000FF731B78184680BD80B500AF4FF000004C
:1001F00003F076FB40F6C41001F0A2FF4FF00100BF
:1002000003F06EFB41F2883001F09AFF4FF00000DE
:1002100004F014FA4FF0010003F084FB4FF00000EB
:1002200003F05EFB4FF0000003F03AFB4AF2C823F4
:10023000C1F6FF734FF000021A704AF2C823C1F6EC
:10024000FF731B78184680BD80B500AF4AF2C82303
:10025000C1F6FF731B78002B16D04FF0000003F09F
:100260001FFB4FF4FA7001F06BFF4FF0010003F039
:1002700017FB42F2107001F063FF4AF2C823C1F687
:10028000FF734FF001021A704AF2C823C1F6FF73E0
:100290001B78184680BD00BF80B500AF42F6400015
:1002A000C0F2010042F65001C0F2010143F698226B
:1002B000FFF728FF0346012B07D14AF2C823C1F6F6
:1002C000FF734FF003021A7005E042F65400C0F2CB
:1002D000010001F061F84AF2C823C1F6FF731B78F0
:1002E000184680BD80B500AF4AF2C823C1F6FF733F
:1002F0001B78032B33D042F67C00C0F2010042F69B
:100300005001C0F2010142F21072FFF7FBFE0346FA
:10031000012B1DD142F68400C0F2010042F65001CB
:10032000C0F2010142F21072FFF7ECFE0346012B0E
:1003300007D14AF2C823C1F6FF734FF001021A70C9
:1003400028E042F69400C0F2010001F025F821E017
:1003500042F6BC00C0F2010001F01EF81AE04AF2B9
:10036000C823C1F6FF731B78002B06D142F6E000CC
:10037000C0F2010001F010F80CE04AF2C823C1F607
:10038000FF731B78012B05D142F62410C0F2010047
:1003900001F002F84AF2C823C1F6FF731B78184631
:1003A00080BD00BF80B5ADF53E7D00AF07F1040311
:1003B00018604FF0000387F8F7324FF0000387F81A
:1003C000F73271E04AF2C823C1F6FF731B78032BA2
:1003D00004D0FFF761FF0346002B59D042F66810A6
:1003E000C0F2010042F65001C0F2010142F2107267
:1003F000FFF788FE0346002B44D042F69010C0F26F
:10040000010042F69C11C0F2010142F21072FFF7A6
:1004100079FE0346002B2ED007F1080207F10403F2
:10042000104642F6A011C0F201011A680BF056FD09
:1004300007F10803184642F65001C0F2010143F6E5
:100440009822FFF75FFE0346002B0DD04AF2C82327
:10045000C1F6FF734FF001021A704FF47A7001F089
:100460006FFE4FF001032DE042F6A410C0F2010030
:1004700000F092FF0CE042F6E410C0F2010000F040
:100480008BFF05E042F62020C0F2010000F084FF5F
:1004900097F8F732002B01D1FFF7D6FE97F8F73225
:1004A00003F1010387F8F73297F8F732012B89D966
:1004B00042F66820C0F2010000F06EFFFFF712FF65
:1004C0004FF00003184607F53E77BD4680BD00BFDC
:1004D00080B5CEB000AF07F1040318603B46196049
:1004E00007F16C024FF0C80310464FF000011A46A6
:1004F0000BF002F807F108031A464FF064031046A8
:100500004FF000011A460AF0F7FF4FF0000387F89A
:1005100037313B4618680BF0E9FD03467D2B08D9BF
:1005200042F68420C0F2010000F036FF4FF00003D5
:10053000EAE04FF0000387F83731D6E04AF2C823EB
:10054000C1F6FF731B78032B05D0FFF7A5FE03460A
:10055000002B00F0BE8042F6AC20C0F2010042F653
:100560005001C0F2010142F21072FFF7CBFD0346C9
:10057000002B00F0A88042F69010C0F2010042F675
:100580009C11C0F2010142F21072FFF7BBFD03465D
:10059000002B00F091804AF2C023C1F6FF731A6865
:1005A00007F16C013B46084642F6D421C0F2010136
:1005B0001B680BF093FC4AF2C423C1F6FF731B685F
:1005C00007F10802104642F60431C0F201011A4652
:1005D0000BF084FC00F086F907F16C03184642F634
:1005E0009C11C0F2010142F21072FFF78BFD42F63E
:1005F0001830C0F2010042F69C11C0F2010142F233
:100600001072FFF77FFD42F63030C0F2010042F673
:100610009C11C0F2010142F21072FFF773FD07F165
:100620000803184642F69C11C0F2010142F2107212
:10063000FFF768FD42F64430C0F2010042F6500177
:10064000C0F2010143F69822FFF75CFD0346002B40
:100650002BD000F047F941F2883001F071FD42F6ED
:100660004830C0F2010042F65001C0F2010143F6E9
:100670009822FFF747FD48F2C860C1F6FF7042F6C6
:100680005831C0F201010BF02BFF034603F10403C4
:1006900007F10402106819460BF0CAFC4FF47A7097
:1006A00001F04EFD4FF001032EE042F6A410C0F21F
:1006B000010000F071FE0CE042F6E410C0F201000F
:1006C00000F06AFE05E042F66030C0F2010000F082
:1006D00063FE97F83731002B01D1FFF7B5FD97F88E
:1006E000373103F1010387F8373197F83731012BA0
:1006F0007FF624AF42F6A430C0F2010000F04CFEB9
:10070000FFF7F0FD4FF00003184607F59C77BD4654
:1007100080BD00BF80B5D2B002AF4FF0000387F8B4
:1007200033314FF00003C7F834314FF06403C7F89A
:1007300038314FF00203C7F83C3107F104031A4681
:100740004FF4967310464FF000011A460AF0D4FE9B
:100750004FF00003C7F834315BE007F1040318469B
:1007600042F6C031C0F20101FFF7B2FE0346002B92
:1007700045D007F1040207F5987303F1030310460F
:1007800042F6C031C0F201011A4600F00FFF0346E5
:10079000002B34D097F83331002B30D107F104030C
:1007A00018464FF000014FF496720AF0A5FE4AF287
:1007B000C023C1F6FF731A684AF2C423C1F6FF735F
:1007C0001B6807F104014FF001000090084642F653
:1007D000C831C0F201010BF081FB07F10403184698
:1007E000FFF7E0FD0346002B09D048F2C463C1F6D1
:1007F000FF734FF001021A704FF0010311E0D7F8B8
:10080000380101F09DFCD7F8343103F10103C7F83A
:100810003431D7F83421D7F83C319A429DD34FF088
:100820000003184607F5A077BD4680BD80B5D0B05F
:1008300002AF4FF00003C7F82C314FF06403C7F844
:1008400030314FF00203C7F834313B461A464FF4BB
:10085000967310464FF000011A460AF04DFE4AF218
:10086000C023C1F6FF731A684AF2C423C1F6FF73AE
:100870001B6839464FF000000090084642F6C83128
:10088000C0F201010BF02AFB4FF00003C7F82C3136
:100890001AE03B461846FFF785FD0346002B09D0BA
:1008A00048F2C463C1F6FF734FF000021A704FF0B4
:1008B000010311E0D7F8300101F042FCD7F82C31E8
:1008C00003F10103C7F82C31D7F82C21D7F83431C4
:1008D0009A42DED34FF00003184607F59C77BD46D9
:1008E00080BD00BF80B500AF48F2C860C1F6FF70A0
:1008F0004FF000014FF42F720AF0FEFD48F2C6637C
:10090000C1F6FF734FF000021A8002F063FE80BD53
:1009100080B582B000AF1FE002F01CFE0346FB7101
:10092000FB79002B18D048F2C663C1F6FF731B8811
:100930001A4648F2C863C1F6FF73F979995448F230
:10094000C663C1F6FF731B8803F101039AB248F234
:10095000C663C1F6FF731A8002F022FE0346002B25
:10096000DAD107F10807BD4680BD00BF80B500AFF2
:1009700003F098F980BD00BF80B500AF4FF00000D4
:1009800002F0F2FF4FF00103184680BD80B500AFC2
:100990004FF0010002F0E8FF4FF00003184680BD61
:1009A00080B5A6B000AF78607B684FF000021A7285
:1009B0007B68464A1A607B68444A5A6000F088F8AF
:1009C00040F6FD20C0F2000002F0F0FFFFF7D4FF78
:1009D00040F2DC5001F0B4FB02F0FCFFFFF7D6FF61
:1009E00007F10C0318464AF2CC21C1F6FF710BF057
:1009F0001FFB4FF00003C7F8903040E0D7F890306D
:100A000007F198010B4413F88C3C522B31D1D7F8E5
:100A1000903003F1050307F19802134413F88C3C5E
:100A20000D2B26D14FF00003C7F8943018E0D7F80B
:100A30009430D7F89010D7F894200A4402F10102BC
:100A400007F198010A4412F88C2C07F198010B4425
:100A500003F80C2CD7F8943003F10103C7F8943055
:100A6000D7F89430032BE2DD7B684FF001021A7255
:100A700009E0D7F8903003F10103C7F89030D7F8B8
:100A800090307A2BBADD7B681B7A002B0AD007F1F5
:100A90008C0318464FF000010CF0F2FD02467B6813
:100AA0005A600BE042F66440C0F2010000F074FCB2
:100AB0004AF2CC20C1F6FF7000F06EFC7B681B7A16
:100AC000184607F19807BD4680BD00BF003C1CC614
:100AD00080B500AF4AF2CC20C1F6FF704FF00001A4
:100AE0004FF080020AF008FD48F68413C1F6FF7348
:100AF0004FF000021A7003F0ADF980BD80B582B0EE
:100B000000AF03F081F90346FB71FB79002B27D07E
:100B100048F68413C1F6FF731B781A464AF2CC23B9
:100B2000C1F6FF73F979995448F68413C1F6FF733F
:100B30001B7803F10103DAB248F68413C1F6FF73A0
:100B40001A7048F68413C1F6FF731B785BB2002B52
:100B500006DA48F68413C1F6FF734FF000021A70EC
:100B600007F10807BD4680BD80B500AF02F0D0FD9B
:100B700003F0D0F903F018FC03F034F803F096FF0B
:100B800005F044FB80BD00BF80B500AF02F0E0FD82
:100B900003F0E0F903F028FC03F02AF803F0B8FFB3
:100BA00005F03AFB80BD00BF80B500AFFFF7DCFF6A
:100BB00001F054FB4FF000004FF4006101F0F2FE31
:100BC00001F0F4FCFFF7E0FF80BD00BF80B500AF8F
:100BD00002F0FEFF80BD00BF80B582B000AF4FF0D5
:100BE000010003F0ADFF4FF00A0001F0A9FA03F095
:100BF000A5FE4FF00A0001F0A3FA03F0C5FE03467C
:100C00009BB21BB2184603F01DFF03467B6003F046
:100C1000A9FE4FF0000003F093FF7868054909F042
:100C20008FFE03467B607B68184607F10807BD46C8
:100C300080BD00BF000030412DE9F04F99B00EAFEC
:100C400062B602F013FF40F6CD30C0F2000003F0B0
:100C5000A1FC05F05FFD48F20C13C1F6FF731B68A1
:100C600049F65760C3F69D101946FFF717FAFFF7CC
:100C70002FFAFFF77BFE00F005FA03F0FFFC4AF2C3
:100C80005533C1F6FF734FF000021A704AF2543325
:100C9000C1F6FF734FF001021A704AF24D33C1F6EC
:100CA000FF734FF002021A704AF25633C1F6FF7317
:100CB0004FF000021A7040F6E970C0F2000004F034
:100CC0008DFC4AF24D33C1F6FF731B78184605F0D0
:100CD000A9FA04F099FC4AF25433C1F6FF731B7869
:100CE000002B00F047814AF2C823C1F6FF731B783E
:100CF000002B01D1FFF748FA48F68810C1F6FF70C3
:100D000000F0ACFC0346002B06D04AF25533C1F686
:100D1000FF734FF000021A70FFF7FCFC48F68810D2
:100D2000C1F6FF7042F6B441C0F20101FFF7D0FBFB
:100D30000346002B35D048F68810C1F6FF7042F606
:100D4000D041C0F201014AF24C32C1F6FF7200F00C
:100D50002DFC0346002B09D04AF24C33C1F6FF7339
:100D60001A784AF24D33C1F6FF731A7048F68810AC
:100D7000C1F6FF7042F6DC41C0F201014AF24C328A
:100D8000C1F6FF7200F012FC0346002B09D04AF2B4
:100D90004C33C1F6FF731A784AF25633C1F6FF732B
:100DA0001A70FFF743FD49F26410C1F6FF7000F0BE
:100DB0008BF949F25810C1F6FF70FFF7F1FDFFF70C
:100DC0000BFF02464AF25033C1F6FF731A6007F177
:100DD0002003184605F040FA97F822307B6097F818
:100DE0002130BB6097F820301E4697F82330FB6017
:100DF00097F825303B61FB8C7B6148F21013C1F6FC
:100E0000FF731B78BB6149F25813C1F6FF735B682F
:100E1000184609F033FC82468B4649F26413C1F64A
:100E2000FF735B68184609F029FC8046894649F241
:100E30006413C1F6FF731B68184609F01FFC0446D3
:100E40000D464AF25033C1F6FF731B68184609F08D
:100E500015FC02460B460096F9680191396902912A
:100E600079690391B9690491CDE906ABCDE90889A7
:100E7000CDE90A45CDE90C2348F68810C1F6FF708C
:100E800042F6EC41C0F201017A68BB680BF026F82B
:100E900048F68810C1F6FF700BF028F9034642F6B9
:100EA0002850C0F2010042F63451C0F2010148F668
:100EB0008812C1F6FF7200F0ABF848F20C13C1F6CD
:100EC000FF731E6849F25813C1F6FF735B6818463A
:100ED00009F0D4FB82468B4649F26413C1F6FF73D6
:100EE0005B68184609F0CAFB8046894649F26413DC
:100EF000C1F6FF731B68184609F0C0FB04460D4697
:100F00004AF25633C1F6FF731B7803F10103FB610C
:100F10004AF25033C1F6FF731B68184609F0AEFB66
:100F200002460B46CDE900ABCDE90289CDE9044587
:100F3000F9690691CDE9082348F68810C1F6FF70DB
:100F400042F63851C0F2010149F65762C3F69D12CC
:100F500033460AF0C3FF4AF25533C1F6FF734FF030
:100F600001021A704AF25433C1F6FF734FF00002C7
:100F70001A7034E04AF25533C1F6FF731B78002B28
:100F800021D04AF2C823C1F6FF731B78002B01D190
:100F9000FFF7FAF848F68810C1F6FF70FFF702FA7B
:100FA000FFF722F948F68810C1F6FF7000F056FBF3
:100FB0000346002B12D04AF25533C1F6FF734FF0AF
:100FC00000021A700BE04AF24D33C1F6FF731B7832
:100FD000184605F027F9FFF7E7FD00E000BF4FF0E6
:100FE000010001F0ADF874E680B483B000AF0346B1
:100FF000FB71FB79012B06D14AF25433C1F6FF7322
:101000004FF001021A7007F10C07BD4680BC704713
:1010100080B588B000AFF860B9607A603B604FF08F
:10102000000002F01FFE07F110034FF00000194608
:101030004FF0090205F022FD0346002B1AD0F86894
:10104000B96805F0B9FC0346FB61FB69002B09D1C7
:1010500005F0E6FA05F05EFBF868B96805F0ACFC4F
:101060000346FB61F86979683A6805F053FEF86950
:1010700005F0DCFB4FF0010002F0F4FD07F1200762
:10108000BD4680BD80B500AF02F0B8FF80BD00BF97
:1010900080B500AF4FF0010003F0E0FA4FF0000020
:1010A00003F014FA4FF00103184680BD80B500AF7D
:1010B0004FF0010003F00AFA4FF0000003F0CEFAFF
:1010C0004FF00003184680BD90B58FB000AF786038
:1010D0004FF0000387F82B3042F6CC62C0F20102D9
:1010E00007F1180392E80300186003F10403198064
:1010F000834BFB62824B3B634FF000033B614FF03D
:101100000003BB8207F108034FF000021A6003F1ED
:1011100004034FF000021A8003F102034FF00002B3
:101120001A7003F101037B684FF000021A727B68AA
:10113000744A1A607B68734A5A6000F017F941F2EA
:101140000D30C0F2000003F061F9FFF7A1FF4FF08E
:10115000640000F0F5FF07F1180318464FF0060190
:1011600003F0B4F84FF47A7000F0EAFF03F062F98C
:10117000FFF79CFF4FF000037B624FF000033B62E0
:1011800039E03A6A49F27013C1F6FF739B5C87F845
:10119000373097F837302F2B03D997F83730392B62
:1011A00003D997F837302E2B0CD17B6A07F1380220
:1011B000134497F8372003F8282C7B6A03F10103C6
:1011C0007B6214E097F837302B2B0FD097F837302D
:1011D0002D2B02D14C4BFB6209E097F83730432BA3
:1011E00005D14FF0010387F82B3007E000BF3B6AC1
:1011F00003F101033B623B6A7F2BC2D94FF000032E
:101200007B623BE03A6A49F27013C1F6FF739B5C64
:1012100087F8373097F837302F2B03D997F83730C6
:10122000392B03D997F837302E2B0CD17B6A07F175
:101230003802134497F8372003F8302C7B6A03F107
:1012400001037B6216E097F837302B2B11D097F80B
:1012500037302D2B02D12C4B3B630BE097F8373006
:101260006D2B07D197F82B3003F001037A681372C6
:101270000EE000BF3B6A03F101033B623C6A49F2A6
:101280007010C1F6FF700AF031FF03469C42B9D3DB
:101290007B681B7A002B20D007F1100318464FF013
:1012A00000010CF0EDF903461846F96A09F048FB15
:1012B00003461A467B681A6007F1080318464FF088
:1012C00000010CF0DDF903461846396B09F038FBD4
:1012D00003461A467B685A600BE042F69860C0F2FB
:1012E000010000F059F849F27010C1F6FF7000F0EB
:1012F00053F87B681B7A184607F13C07BD4690BD42
:101300000000803F003C1CC6000080BF80B582B05A
:1013100000AF02F02FFF0346FB71FB79002B20D0BA
:1013200049F2F013C1F6FF731B785BB2002B18DB98
:1013300049F2F013C1F6FF731B781A4649F2701395
:10134000C1F6FF73F979995449F2F013C1F6FF73AE
:101350001B7803F10103DAB249F2F013C1F6FF730F
:101360001A7007F10807BD4680BD00BF80B500AF09
:1013700049F27010C1F6FF704FF000014FF080028B
:101380000AF0BAF849F2F013C1F6FF734FF0000209
:101390001A7002F015FF80BDB0B58AB006AF786054
:1013A00048F21413C1F6FF731B78002B40D007F1ED
:1013B0000803184604F050FFBB7A1A467B7A9C4615
:1013C0003B7A1D46FB7A1C467B7B9E46FB89184672
:1013D00048F21013C1F6FF731B7819467B6800951D
:1013E0000194CDF808E003900491059348F67050FD
:1013F000C1F6FF7042F6E461C0F2010163460AF0F3
:101400006DFD48F21813C1F6FF731C6848F6705062
:10141000C1F6FF700AF06AFE0346204642F60871E4
:10142000C0F2010148F67052C1F6FF7200F004F8F4
:1014300007F11007BD46B0BD80B588B000AFF860B9
:10144000B9607A603B604FF0000002F00BFC07F1DE
:1014500010034FF0000019464FF0090205F00EFB93
:101460000346002B1AD0F868B96805F0A5FA0346C0
:10147000FB61FB69002B09D105F0D2F805F04AF9B0
:10148000F868B96805F098FA0346FB61F86979686D
:101490003A6805F03FFCF86905F0C8F94FF0010023
:1014A00002F0E0FB07F12007BD4680BD80B586B0A5
:1014B00000AFF860B9607A60F868B9680BF010F8AE
:1014C00003463B613B69002B18D14AF25833C1F601
:1014D000FF731B68184642F60C71C0F20101BA682E
:1014E000FB680AF0FBFC4AF25833C1F6FF731B6835
:1014F0001846FFF751FF4FF0000352E0386942F6FB
:101500002871C0F201010AF0EBFF034603F1020368
:101510003B613B69002B17D14AF25833C1F6FF7388
:101520001B68184642F62C71C0F20101FA680AF0F5
:10153000D5FC4AF25833C1F6FF731B681846FFF713
:101540002BFF4FF000032CE038694FF00A010AF03E
:101550000FFD03467B617B69002B17D14AF258339C
:10156000C1F6FF731B68184642F64C71C0F20101C8
:10157000FA680AF0B3FC4AF25833C1F6FF731B68ED
:101580001846FFF709FF4FF000030AE07A693B694C
:10159000C3EB0203786839691A460AF0D7FD4FF0A9
:1015A0000103184607F11807BD4680BD80B58AB013
:1015B00000AFF860B9607A6007F114034FF00002E1
:1015C0001A6003F104034FF000021A6003F10403F0
:1015D0004FF000021A6003F104034FF000021A609A
:1015E00003F104034FF000021A6003F1040307F152
:1015F0001403F868B9681A46FFF758FF0346002B32
:101600000FD007F1140318464FF000014FF00A0203
:101610000CF026F90346DAB27B681A704FF001032A
:1016200017E04AF25833C1F6FF731B68184642F6BA
:101630000C71C0F20101BA68FB680AF04FFC4AF273
:101640005833C1F6FF731B681846FFF7A5FE4FF02D
:101650000003184607F12807BD4680BD80B582B05B
:1016600000AF786078684FF000014FF0040209F095
:1016700043FF4FF00103184607F10807BD4680BD40
:1016800080B400AFFEE700BF054B1C7844F00104B6
:101690001C70044B1A78D2B2034B1A70FEF7B8FCD8
:1016A000E8460040FA460040BC76004080B582B073
:1016B00000AF4EF60C53CEF2000340F20042C0F2EF
:1016C000FA521A604EF61453CEF200034EF614523C
:1016D000CEF20002126842F400721A604FF000036A
:1016E0007B6019E079687B68032B07D87A6840F241
:1016F0000003C0F2000353F8223003E041F281639B
:10170000C0F2000348F20002C1F6FF7242F8213035
:101710007B6803F101037B607B682F2BE2D947F2E2
:10172000BC63C4F200031B78DAB24AF25C33C1F640
:10173000FF731A704EF60853CEF2000348F200020F
:10174000C1F6FF721A6003F01BFC48F20013C1F6E9
:10175000FF734FF000021A6007F10807BD4680BD15
:1017600080B584B000AF0346FB714FF00003BB604F
:1017700044F22023C4F2000344F22022C4F2000207
:101780001278D2B242F00102D2B21A70FB79002B69
:101790004DD044F20033C4F200031B787B7344F253
:1017A0008033C4F200031B78BB7344F28233C4F26B
:1017B00000031B78FB734FF0180001F03DFA4FF067
:1017C0001003BB6019E044F22523C4F200031B7828
:1017D000DBB203F00103DBB2002B0ED044F2252371
:1017E000C4F200031B78DBB203F00103DBB2002B71
:1017F00003D04FF00003BB6006E04FF0010001F0A2
:10180000DDF90346012BDED17B7B03F00403002BC3
:1018100001D100F0E5FB44F28033C4F20003BA7B4F
:101820001A7044F28233C4F20003FA7B1A70BB6868
:10183000184607F11007BD4680BD00BF80B400AF59
:1018400044F22023C4F2000344F22022C4F2000236
:101850001278D2B202F0FE021A70BD4680BC704708
:1018600080B584B000AF0346FB7144F2A033C4F2EC
:10187000000344F2A032C4F200021278D2B242F065
:101880001002D2B21A70FB79002B4DD044F2003313
:10189000C4F200031B78FB73FB7B03F00403002BF3
:1018A00001D100F089FB44F28233C4F200031B78BB
:1018B0007B7344F28033C4F200031B78BB7344F2A1
:1018C0008233C4F2000344F28232C4F2000212787E
:1018D000D2B202F0FC021A7044F28033C4F2000368
:1018E0004FF000021A7044F28233C4F200034FF04A
:1018F00001021A704FF0010001F060F90346002B5D
:10190000F8D0FB7B03F00403002B01D100F068FB4F
:1019100044F28033C4F20003BA7B1A7044F282337B
:10192000C4F200037A7B1A7007F11007BD4680BD30
:1019300080B400AF44F2A033C4F2000344F2A032FA
:10194000C4F200021278D2B202F0EF021A70BD4661
:1019500080BC704780B483B000AF4FF00003FB71D0
:1019600044F29333C4F200031B78DBB203F00703A5
:10197000002B0AD144F2A533C4F200031B78DBB27A
:1019800003F00103DBB2002B14D144F29333C4F211
:1019900000031B78DBB203F00703012B0DD144F2E7
:1019A000B533C4F200031B78DBB203F00103DBB2F2
:1019B000002B02D04FF00103FB71FB79184607F1B1
:1019C0000C07BD4680BC704780B584B000AF0346AD
:1019D000FB71FFF7BFFF0346FB73FB7B012B0CD1B1
:1019E00046F20903C4F2000346F20902C4F20002FF
:1019F0001278D2B202F0FD021A70FB79082B7AD865
:101A000001A252F823F000BF2D1A0000451A000071
:101A10005D1A0000751A00008D1A0000A51A00005A
:101A2000F71A0000F71A0000BD1A000044F2A16383
:101A3000C4F2000340F20812C4F600121278D2B2C7
:101A40001A705EE044F2A163C4F2000340F209128E
:101A5000C4F600121278D2B21A7052E044F2A163B6
:101A6000C4F2000340F20A12C4F600121278D2B295
:101A70001A7046E044F2A163C4F2000340F20B1274
:101A8000C4F600121278D2B21A703AE044F2A1639E
:101A9000C4F2000340F28912C4F600121278D2B2E6
:101AA0001A702EE044F2A163C4F2000340F20C125B
:101AB000C4F600121278D2B21A7022E044F2A16386
:101AC000C4F2000340F20F12C4F600121278D2B230
:101AD0001A70FB7B012B13D146F20903C4F20003F9
:101AE00046F20902C4F200021278D2B242F00202B7
:101AF000D2B21A7005E04FF0000000F015FB00E0D4
:101B000000BF07F11007BD4680BD00BF80B584B09F
:101B100000AF0346FB7144F20023C4F200031B78BC
:101B2000DBB203F00703BB73FB79082B01D0FB7911
:101B300001E04FF00303FB73BB7B052B26D801A20A
:101B400052F823F05D1B0000651B00006D1B0000B8
:101B5000751B00007D1B0000851B00004FF0020379
:101B6000BB7317E04FF00103BB7313E04FF00303A7
:101B7000BB730FE04FF00003BB730BE04FF00403A7
:101B8000BB7307E04FF00503BB7303E04FF00000A9
:101B900000F0CAFAFA7BBB7B9A4203D3FB79184662
:101BA000FFF712FFFB79082B00F28A8001A252F89E
:101BB00023F000BFD91B0000FB1B00001D1C000010
:101BC000391C00005B1C00007D1C0000C11C0000D3
:101BD000C11C00009F1C000044F20023C4F200035B
:101BE00044F20022C4F200021278D2B202F0B8022B
:101BF00042F00302D2B21A7066E044F20023C4F24B
:101C0000000344F20022C4F200021278D2B202F0C1
:101C1000B80242F00102D2B21A7055E044F2002339
:101C2000C4F2000344F20022C4F200021278D2B2DD
:101C300002F0B8021A7047E044F20023C4F2000335
:101C400044F20022C4F200021278D2B202F0B802CA
:101C500042F00202D2B21A7036E044F20023C4F21B
:101C6000000344F20022C4F200021278D2B202F061
:101C7000B80242F00402D2B21A7025E044F2002306
:101C8000C4F2000344F20022C4F200021278D2B27D
:101C900002F0B80242F00502D2B21A7014E044F227
:101CA0000023C4F2000344F20022C4F200021278BE
:101CB000D2B202F0B80242F04202D2B21A7003E08D
:101CC0004FF0000000F030FAFB79082B02D100F051
:101CD0006BF801E000F07CF8FA7BBB7B9A4203D200
:101CE000FB791846FFF770FE07F11007BD4680BD6F
:101CF00080B582B000AF0346FB71FB79012B20D089
:101D0000022B02D0002B39D046E044F20003C4F28B
:101D1000000344F20002C4F200021278D2B202F0D0
:101D2000BF021A7044F20023C4F2000344F20022FE
:101D3000C4F200021278D2B242F02002D2B21A707B
:101D40002EE044F20003C4F2000344F20002C4F2A5
:101D500000021278D2B242F04002D2B21A7044F2BB
:101D60000023C4F2000344F20022C4F200021278FD
:101D7000D2B242F02002D2B21A7011E044F2002333
:101D8000C4F2000344F20022C4F200021278D2B27C
:101D900002F0DF021A7003E04FF0000000F0C4F917
:101DA00007F10807BD4680BD80B400AF44F20023B0
:101DB000C4F2000344F20022C4F200021278D2B24C
:101DC00042F01002D2B21A70BD4680BC704700BF0C
:101DD00080B400AF44F20023C4F2000344F20022B6
:101DE000C4F200021278D2B202F0EF021A70BD46BD
:101DF00080BC704780B483B000AF0346FB7144F2EF
:101E00000503C4F2000344F20502C4F20002127892
:101E1000D2B2114601F0FC01FA7902F0030241EA64
:101E20000202D2B21A7007F10C07BD4680BC70479F
:101E300080B483B000AF0346FB7144F20403C4F2E4
:101E40000003FA791A7007F10C07BD4680BC704791
:101E500080B483B000AF0346FB8044F21403C4F2A5
:101E6000000344F21402C4F200021278D2B202F06B
:101E7000F0021A7044F21003C4F200034FF00002A3
:101E80001A7044F20803C4F2000344F20802C4F2D8
:101E900000021278D2B26FEA42626FEA5262D2B2A4
:101EA0001A7044F20203C4F20003FA88D2B21A7024
:101EB00044F20303C4F20003FA884FEA122292B2FA
:101EC000D2B21A7044F20103C4F2000344F20102D8
:101ED000C4F200021278D2B242F00102D2B21A70F9
:101EE00007F10C07BD4680BC704700BF80B584B0C9
:101EF00000AF0346FB8003F0CBF90346FB7344F2CB
:101F00000703C4F200031B78DBB24FEA03239AB243
:101F100044F20603C4F200031B78DBB242EA030377
:101F2000BB81FB88002B02D0BB89002B38D144F247
:101F30000403C4F200031B78FB72FB7A062B03D860
:101F40004FF00700FFF774FFFB88002B12D144F21B
:101F50000803C4F2000344F20802C4F2000212783B
:101F6000D2B242F04002D2B21A70FB881846FFF794
:101F70006FFF10E0FB881846FFF76AFF44F2080382
:101F8000C4F2000344F20802C4F200021278D2B292
:101F900002F0BF021A70FB7A1846FFF749FF03E010
:101FA000FB881846FFF754FFFB7B184603F074F9D3
:101FB00007F11007BD4680BD80B400AF44F2003386
:101FC000C4F2000344F20032C4F200021278D2B22A
:101FD00042F00402D2B21A70BD4680BC704700BF06
:101FE00080B400AF44F20033C4F2000344F2003284
:101FF000C4F200021278D2B202F0FB021A70BD469F
:1020000080BC704780B586B000AF0346FB714FF0CF
:1020100000033B61FB79FB7344F21023C4F200031D
:1020200044F21022C4F200021278D2B242F001024D
:10203000D2B21A70FB79002B5DD044F20033C4F2A7
:1020400000031B787B7544F28033C4F200031B78D5
:10205000BB7544F28233C4F200031B78FB754FF06A
:10206000180000F0E9FD4FF010033B612CE044F252
:102070001023C4F200031B784FF00403BB730CE081
:102080004FF0010000F09AFD0346012BF8D1BB7B15
:10209000DBB203F1FF33DBB2BB73BB7BDBB2002BE4
:1020A000EED144F21023C4F200031B78DBB25BB222
:1020B000002B03DB4FF000033B6109E0FB7BDBB24D
:1020C00003F1FF33DBB2FB73FB7BDBB2002BCED122
:1020D0007B7D03F00403002B01D1FFF781FF44F265
:1020E0008033C4F20003BA7D1A7044F28233C4F222
:1020F0000003FA7D1A703B69184607F11807BD46C0
:1021000080BD00BF80B400AF44F21023C4F20003CE
:1021100044F21022C4F200021278D2B202F0FE029F
:102120001A70BD4680BC704780B483B000AF0346D0
:10213000FB7101BE07F10C07BD4680BC704700BFB4
:1021400080B582B000AF78600BE048F22813C1F68A
:10215000FF731B68184603F093F87B68A3F50043F0
:102160007B607B68B3F5004FEFD848F22013C1F6CF
:10217000FF731B687A6802FB03F3184603F080F8CC
:1021800007F10807BD4680BD80B582B000AF0346A9
:10219000FB80FA8848F22413C1F6FF731B7803FB17
:1021A00002F3184603F06CF807F10807BD4680BD3E
:1021B00080B584B000AF03463960FB714EF608531A
:1021C000CEF200031B68FB60FB791F2B03D94FF095
:1021D0000000FFF7A9FFFB7903F01F0303F11003D1
:1021E0004FEA8302FB6813441B68BB60FB7903F072
:1021F0001F0303F110034FEA8302FB6813443A689C
:102200001A60BB68184607F11007BD4680BD00BFC5
:1022100080B582B000AF02460B46FA71BB71BB7944
:10222000072B03D94FF00000FFF77EFFFB791F2B30
:1022300003D94FF00000FFF777FFFB7903F01F038E
:1022400003F1604303F56443BA794FEA4212D2B214
:102250001A7007F10807BD4680BD00BF80B500AF0A
:1022600044F2A133C4F200031B78DBB21A4602F039
:102270000F0249F22423C1F6FF731A7044F2A2330D
:10228000C4F200031B78DAB249F22423C1F6FF73CB
:102290005A7044F2A133C4F2000344F2A132C4F2F2
:1022A00000021278D2B202F0F0021A7044F2A233A5
:1022B000C4F200031B7844F2A233C4F200034FF0CF
:1022C00000021A7044F60003C4F200031B78DBB26C
:1022D0001A4602F0C00249F22423C1F6FF735A7174
:1022E0004FF0370002F0DCFF44F20023C4F2000399
:1022F0001B78DBB21A4602F0070249F22423C1F62A
:10230000FF73DA7044F20023C4F200031B78DBB2DF
:102310001A4602F0400249F22423C1F6FF731A71F3
:1023200044F20023C4F200031B78DBB203F0100375
:10233000002B07D049F22423C1F6FF734FF00102AE
:102340005A7206E049F22423C1F6FF734FF00002EF
:102350005A724FF00400FFF7D9FB44F2A033C4F2E5
:1023600000031B78DBB203F01003002B07D049F207
:102370002423C1F6FF734FF001029A710AE049F27B
:102380002423C1F6FF734FF000029A714FF0000052
:10239000FFF766FA44F20023C4F200031B78DBB2B5
:1023A00003F02003002B18D044F20003C4F2000312
:1023B0001B78DBB203F04003002B02D14FF0020286
:1023C00001E04FF0010249F22423C1F6FF73DA71F4
:1023D0004FF00000FFF78CFC06E049F22423C1F621
:1023E000FF734FF00002DA7144F20003C4F20003FD
:1023F0001B78DBB21A4602F0300249F22423C1F600
:10240000FF731A7249F22423C1F6FF731B7A002B63
:102410000CD044F20003C4F2000344F20002C4F200
:1024200000021278D2B202F0CF021A7044F20023F6
:10243000C4F200031B78DBB203F01003002B01D0C1
:10244000FFF7C6FC44F20403C4F200031B78DAB2BF
:1024500049F22423C1F6FF739A7249F22423C1F68C
:10246000FF739B7A002B03D04FF00000FFF7E0FCD6
:1024700044F20503C4F200031B78DBB21A4602F0F3
:10248000030249F22423C1F6FF739A7049F2242310
:10249000C1F6FF739B78002B03D04FF00000FFF7CD
:1024A000A9FC44F20703C4F200031B78DBB24FEA35
:1024B00003239AB244F20603C4F200031B78DBB292
:1024C00042EA03039AB249F22423C1F6FF739A81C8
:1024D00049F22423C1F6FF739B89002B03D04FF0F0
:1024E0000000FFF703FD44F20023C4F200031B7851
:1024F000DBB203F0070242F66C73C0F201039B5C8F
:10250000184602F0CDFE44F22023C4F200031B78EB
:10251000DBB203F00103DBB2002B09D049F2242324
:10252000C1F6FF734FF001029A73FFF787F906E0D7
:1025300049F22423C1F6FF734FF000029A7344F26C
:102540001023C4F200031B78DBB203F00103DBB2FB
:10255000002B09D049F22423C1F6FF734FF001028A
:10256000DA73FFF7CFFD06E049F22423C1F6FF73CB
:102570004FF00002DA7344F20B03C4F200031B783D
:10258000DBB203F00403002B07D049F22423C1F689
:10259000FF734FF001021A7406E049F22423C1F6DA
:1025A000FF734FF000021A7480BD00BF80B584B085
:1025B00000AF4FF01003BB6042F67472C0F201022C
:1025C0003B4692E80300186003F10403198003F10D
:1025D00002034FEA11421A7049F22423C1F6FF7335
:1025E0001B7C012B26D144F20023C4F200031B788C
:1025F000DBB203F0070242F66C73C0F201039B5C8E
:102600001A4613464FEA830313444FEA0312C3EBFF
:102610000203184602F034FE44F20B03C4F2000336
:1026200044F20B02C4F200021278D2B242F0040269
:10263000D2B21A7049F22423C1F6FF73DB7B012B5F
:1026400034D14FF00000FFF7DDFC44F21023C4F258
:1026500000031B784FF00503FB8124E044F20023C4
:10266000C4F200031B78DBB203F0070242F66C737E
:10267000C0F201039B5C4FF0C80202FB03F3184653
:1026800002F0FEFD44F21023C4F200031B78DBB21B
:102690005BB2002B03DB4FF00003BB6006E0FB895D
:1026A00003F1FF33FB81FB89002BD7D14FF03700BB
:1026B00002F0F6FD49F22423C1F6FF739B78022B4A
:1026C00006D049F22423C1F6FF739B78032B1CD15B
:1026D00044F20403C4F200031B78DAB249F2242363
:1026E000C1F6FF739B7A9A4207D049F22423C1F6C0
:1026F000FF739B7A1846FFF79BFB49F22423C1F630
:10270000FF739B781846FFF775FB49F22423C1F647
:10271000FF731B7903F04003002B10D049F22423F0
:10272000C1F6FF73DB7807F11002134413F8103C75
:10273000032B04D14FF00800FFF7E8F931E049F22C
:102740002423C1F6FF73DB7807F11002134413F85A
:10275000103C1846FFF7DAF949F22423C1F6FF735B
:102760001B7903F04003002B0ED044F20023C4F287
:10277000000344F20022C4F200021278D2B242F006
:102780004002D2B21A700CE044F20023C4F20003FB
:1027900044F20022C4F200021278D2B202F0BF0268
:1027A0001A7049F22423C1F6FF739B79012B0DD1D6
:1027B00044F2A033C4F200031B78DBB203F0100331
:1027C000002B03D14FF00000FFF74AF849F2242311
:1027D000C1F6FF739B79002B0BD144F2A033C4F2F6
:1027E00000031B78DBB203F01003002B01D0FFF7CE
:1027F0009FF849F22423C1F6FF73DB791846FFF7EF
:1028000077FA49F22423C1F6FF735B7A012B01D1D9
:10281000FFF7CAFA49F22423C1F6FF731B7A1A465E
:1028200044F20003C4F200031B78DBB203F0300370
:102830009A4219D044F20003C4F2000344F20002A9
:10284000C4F200021278D2B2D2B202F0CF0249F240
:102850002421C1F6FF71097A08461146024641EA71
:102860000202D2B2D2B21A7049F22423C1F6FF7327
:102870009B7B012B17D14FF00000FEF771FF44F254
:102880000023C4F200031B78DBB203F0070242F618
:102890006C73C0F201039B5C4FF0FA0202FB03F37E
:1028A000184602F0EDFC49F22423C1F6FF739B7831
:1028B000002B06D049F22423C1F6FF739B78012B2D
:1028C0001CD144F20403C4F200031B78DAB249F2CB
:1028D0002423C1F6FF739B7A9A4207D049F224233E
:1028E000C1F6FF739B7A1846FFF7A2FA49F2242338
:1028F000C1F6FF739B781846FFF77CFA49F2242350
:10290000C1F6FF739B891A4644F20703C4F2000321
:102910001B78DBB24FEA03239BB2194644F206034D
:10292000C4F200031B78DBB241EA03039A4207D0EA
:1029300049F22423C1F6FF739B891846FFF7D6FAA4
:1029400044F60003C4F2000344F60002C4F200029D
:102950001278D2B2D2B202F03F0249F22421C1F67B
:10296000FF71497908461146024641EA0202D2B295
:10297000D2B21A7044F2A133C4F2000349F2242205
:10298000C1F6FF7212781A7044F2A233C4F2000347
:1029900049F22422C1F6FF7252781A7007F110072B
:1029A000BD4680BD80B584B000AF02460B46FA71CB
:1029B000BB8002F06DFC0346FB7344F29333C4F218
:1029C00000031B78DBB203F00803002B10D144F2A4
:1029D0008363C4F2000344F28362C4F200021278FB
:1029E000D2B202F01F021A70FB79002B05D108E069
:1029F000FB7B184602F050FCDBE04FF00000FFF7D5
:102A000093FB00F087F944F29833C4F200031B787B
:102A1000DAB249F2F413C1F6FF731A7144F2983333
:102A2000C4F20003BA884FEA121292B2D2B21A70FC
:102A300044F29933C4F200031B78DAB249F2F4137A
:102A4000C1F6FF735A7144F29933C4F20003BA8895
:102A5000D2B202F00F021A7044F29A33C4F20003A9
:102A60001B78DAB249F2F413C1F6FF739A7144F29B
:102A70009A33C4F20003BA884FEA123292B2D2B249
:102A800002F001021A7044F20023C4F200031B7822
:102A9000DBB203F00703002B08D149F2F413C1F6AF
:102AA000FF734FF0010283F82D2023E049F2F41365
:102AB000C1F6FF734FF0000283F82D2044F200238B
:102AC000C4F200031B78DBB21A4602F0070249F297
:102AD000F413C1F6FF7383F82C2044F20023C4F2F0
:102AE000000344F20022C4F200021278D2B202F0D3
:102AF000F8021A7044F29333C4F2000344F29332A2
:102B0000C4F200021278D2B202F0F80242F00302DC
:102B1000D2B21A7044F29333C4F200031B7800BFA0
:102B200000BF30BF49F2F413C1F6FF7393F82D30A4
:102B3000012B1AD044F20023C4F2000344F2002215
:102B4000C4F200021278D2B2D2B202F0F80249F214
:102B5000F411C1F6FF7191F82C1008461146024697
:102B600041EA0202D2B2D2B21A7000F0D9F844F2AD
:102B70009833C4F2000349F2F412C1F6FF721279DD
:102B80001A7044F29933C4F2000349F2F412C1F608
:102B9000FF7252791A7044F29A33C4F2000349F278
:102BA000F412C1F6FF7292791A70FB7B184602F09C
:102BB00073FB07F11007BD4680BD00BF80B584B030
:102BC00000AF0346FB7102F063FB0346BB7344F2A4
:102BD0009033C4F200031B78DAB249F23623C1F60F
:102BE000FF731B7842EA0303DAB249F23623C1F6D7
:102BF000FF731A7049F23623C1F6FF731B78FB731B
:102C0000FB796FEA0303DAB249F23623C1F6FF73A8
:102C10001B7802EA0303DAB249F23623C1F6FF73E6
:102C20001A70BB7B184602F037FBFB7B184607F196
:102C30001007BD4680BD00BF80B582B000AF03461F
:102C4000FB7144F28233C4F2000344F28232C4F2D4
:102C500000021278D2B202F0FD021A70FFF7ACF94E
:102C600044F28233C4F200031B78DBB203F00103A9
:102C7000DBB2002B2AD044F28033C4F200031B786D
:102C8000DBB2FA799A423FD044F28233C4F20003B5
:102C900044F28232C4F200021278D2B202F0FE0292
:102CA0001A7044F28033C4F20003FA791A7044F2C5
:102CB0008233C4F2000344F28232C4F2000212787A
:102CC000D2B242F00102D2B21A701EE044F2803356
:102CD000C4F200031B78DBB2FA799A4205D044F2C1
:102CE0008033C4F20003FA791A7044F28233C4F2DA
:102CF000000344F28232C4F200021278D2B242F0EF
:102D00000102D2B21A7000E000BF07F10807BD4609
:102D100080BD00BF80B500AF00F008F880BD00BFE7
:102D200080B500AF00F02CFA80BD00BF80B400AFCA
:102D300045F60023C4F200031B78DAB249F2F4131B
:102D4000C1F6FF735A7245F60223C4F200031B78E2
:102D5000DAB249F2F413C1F6FF739A7245F603230F
:102D6000C4F200031B78DAB249F2F413C1F6FF7320
:102D7000DA7245F60423C4F200031B78DAB249F292
:102D8000F413C1F6FF731A7345F60623C4F2000369
:102D90001B78DAB249F2F413C1F6FF735A7345F6A1
:102DA0000823C4F200031B78DAB249F2F413C1F627
:102DB000FF739A7345F60A23C4F200031B78DAB254
:102DC00049F2F413C1F6FF73DA7345F61023C4F227
:102DD00000031B78DAB249F2F413C1F6FF731A74D8
:102DE00045F61223C4F200031B78DAB249F2F41359
:102DF000C1F6FF735A7445F61323C4F200031B781F
:102E0000DAB249F2F413C1F6FF739A7445F614234B
:102E1000C4F200031B78DAB249F2F413C1F6FF736F
:102E2000DA7445F61623C4F200031B78DAB249F2CD
:102E3000F413C1F6FF731A7545F61823C4F20003A4
:102E40001B78DAB249F2F413C1F6FF735A7545F6EE
:102E50001A23C4F200031B78DAB249F2F413C1F664
:102E6000FF739A7545F62023C4F200031B78DAB28B
:102E700049F2F413C1F6FF73DA7545F62223C4F262
:102E800000031B78DAB249F2F413C1F6FF731A7625
:102E900045F62323C4F200031B78DAB249F2F41397
:102EA000C1F6FF735A7645F62423C4F200031B785B
:102EB000DAB249F2F413C1F6FF739A7645F6262387
:102EC000C4F200031B78DAB249F2F413C1F6FF73BF
:102ED000DA7645F62823C4F200031B78DAB249F209
:102EE000F413C1F6FF731A7745F62A23C4F20003E0
:102EF0001B78DAB249F2F413C1F6FF735A7745F63C
:102F00003023C4F200031B78DAB249F2F413C1F69D
:102F1000FF739A7745F63223C4F200031B78DAB2C6
:102F200049F2F413C1F6FF73DA7745F63323C4F29E
:102F300000031B78DAB249F2F413C1F6FF7383F889
:102F4000202045F63423C4F200031B78DAB249F29C
:102F5000F413C1F6FF7383F8212045F63623C4F23B
:102F600000031B78DAB249F2F413C1F6FF7383F859
:102F7000222045F63823C4F200031B78DAB249F266
:102F8000F413C1F6FF7383F8232045F63A23C4F205
:102F900000031B78DAB249F2F413C1F6FF7383F829
:102FA000242045F60023C4F200034FF000021A70FB
:102FB00045F60223C4F200034FF000021A7045F6F2
:102FC0000323C4F200034FF000021A7045F60423F5
:102FD000C4F200034FF000021A7045F60623C4F253
:102FE00000034FF000021A7045F60823C4F20003F4
:102FF0004FF000021A7045F60A23C4F200034FF0A6
:1030000000021A7045F61023C4F200034FF00002CC
:103010001A7045F61223C4F200034FF000021A7032
:1030200045F61323C4F200034FF000021A7045F670
:103030001423C4F200034FF000021A7045F6162361
:10304000C4F200034FF000021A7045F61823C4F2D0
:1030500000034FF000021A7045F61A23C4F2000371
:103060004FF000021A7045F62023C4F200034FF01F
:1030700000021A7045F62223C4F200034FF000024A
:103080001A7045F62323C4F200034FF000021A70B1
:1030900045F62423C4F200034FF000021A7045F6EF
:1030A0002623C4F200034FF000021A7045F62823CD
:1030B000C4F200034FF000021A7045F62A23C4F24E
:1030C00000034FF000021A7045F63023C4F20003EB
:1030D0004FF000021A7045F63223C4F200034FF09D
:1030E00000021A7045F63323C4F200034FF00002C9
:1030F0001A7045F63423C4F200034FF000021A7030
:1031000045F63623C4F200034FF000021A7045F66C
:103110003823C4F200034FF000021A7045F63A2338
:10312000C4F200034FF000021A7044F22233C4F2DA
:1031300000031B78DBB203F00803002B15D049F223
:10314000F413C1F6FF734FF0010283F82E2044F20E
:103150002233C4F2000344F22232C4F20002127895
:10316000D2B202F0F7021A7007E049F2F413C1F686
:10317000FF734FF0000283F82E20BD4680BC7047DD
:1031800080B400AF45F60023C4F2000349F2F41204
:10319000C1F6FF72527A1A7045F60223C4F2000398
:1031A00049F2F412C1F6FF72927A1A7045F60323BF
:1031B000C4F2000349F2F412C1F6FF72D27A1A7017
:1031C00045F60423C4F2000349F2F412C1F6FF727B
:1031D000127B1A7045F60623C4F2000349F2F4127A
:1031E000C1F6FF72527B1A7045F60823C4F2000341
:1031F00049F2F412C1F6FF72927B1A7045F60A2367
:10320000C4F2000349F2F412C1F6FF72D27B1A70C5
:1032100045F61023C4F2000349F2F412C1F6FF721E
:10322000127C1A7045F61223C4F2000349F2F4121C
:10323000C1F6FF72527C1A7045F61323C4F20003E4
:1032400049F2F412C1F6FF72927C1A7045F614230B
:10325000C4F2000349F2F412C1F6FF72D27C1A7074
:1032600045F61623C4F2000349F2F412C1F6FF72C8
:10327000127D1A7045F61823C4F2000349F2F412C5
:10328000C1F6FF72527D1A7045F61A23C4F200038C
:1032900049F2F412C1F6FF72927D1A7045F62023AE
:1032A000C4F2000349F2F412C1F6FF72D27D1A7023
:1032B00045F62223C4F2000349F2F412C1F6FF726C
:1032C000127E1A7045F62323C4F2000349F2F41269
:1032D000C1F6FF72527E1A7045F62423C4F2000331
:1032E00049F2F412C1F6FF72927E1A7045F6262357
:1032F000C4F2000349F2F412C1F6FF72D27E1A70D2
:1033000045F62823C4F2000349F2F412C1F6FF7215
:10331000127F1A7045F62A23C4F2000349F2F41210
:10332000C1F6FF72527F1A7045F63023C4F20003D3
:1033300049F2F412C1F6FF72927F1A7045F63223F9
:10334000C4F2000349F2F412C1F6FF72D27F1A7080
:1033500045F63323C4F2000349F2F412C1F6FF72BA
:1033600092F820201A7045F63423C4F2000349F283
:10337000F412C1F6FF7292F821201A7045F6362336
:10338000C4F2000349F2F412C1F6FF7292F822204F
:103390001A7045F63823C4F2000349F2F412C1F65C
:1033A000FF7292F823201A7045F63A23C4F2000304
:1033B00049F2F412C1F6FF7292F824201A7049F211
:1033C000F413C1F6FF7393F82E30012B0DD144F2A4
:1033D0002233C4F2000344F22232C4F20002127813
:1033E000D2B242F00802D2B21A70BD4680BC704719
:1033F00080B500AF49F23823C1F6FF731B78002B6C
:1034000008D100F00BF849F23823C1F6FF734FF0F2
:1034100001021A7000F02AF880BD00BF80B400AF2E
:1034200046F28A53C4F200034FF072021A7046F259
:103430008953C4F200034FF020021A7046F225436C
:10344000C4F200034FF007021A7046F23543C4F28B
:1034500000034FF048021A7046F28643C4F200039C
:103460004FF002021A70BD4680BC704780B582B032
:1034700000AF01F00DFF0346FB7146F29A53C4F210
:10348000000346F29A52C4F200021278D2B242F01D
:103490002002D2B21A7046F29953C4F2000346F2E7
:1034A0009952C4F200021278D2B242F01002D2B2A3
:1034B0001A7046F29643C4F2000346F29642C4F2F2
:1034C00000021278D2B242F01002D2B21A7000F0AA
:1034D00051F9FB79184601F0DFFE07F10807BD46F8
:1034E00080BD00BF80B582B000AF01F0D1FE0346C1
:1034F000FB7146F29A53C4F2000346F29A52C4F2A8
:1035000000021278D2B202F0DF021A7000F054F911
:1035100046F29953C4F2000346F29952C4F20002F3
:103520001278D2B202F0EF021A7046F29643C4F259
:10353000000346F29642C4F200021278D2B202F0C0
:10354000EF021A70FB79184601F0A6FE07F1080792
:10355000BD4680BD80B483B000AF4FF00003BB71A7
:1035600046F26953C4F200031B78FB71FB7903F048
:103570002003002B0DD046F24953C4F200031B7800
:10358000BB71FB7903F01E03002B02D04FF0000348
:10359000BB71BB79184607F10C07BD4680BC70476C
:1035A00080B483B000AF46F26953C4F200031B78C5
:1035B000DBB203F02003002B02D04FF0010301E047
:1035C0004FF00003FB71FB79184607F10C07BD466D
:1035D00080BC704780B582B000AF01F059FE034651
:1035E000FB7146F29953C4F2000346F29952C4F2B9
:1035F00000021278D2B242F00102D2B21A7046F240
:103600009953C4F2000346F29952C4F200021278B0
:10361000D2B202F0FE021A70FB79184601F03CFEAD
:1036200007F10807BD4680BD80B483B000AF0346F4
:10363000FB7146F26643C4F200031B78DBB203F071
:103640000403002BF5D146F24143C4F20003FA799A
:103650001A7007F10C07BD4680BC704780B584B076
:1036600000AF78604FF00003FB8149F23823C1F6C8
:10367000FF731B78002B11D00AE0FA897B68134492
:103680001B781846FFF7D0FFFB8903F10103FB818C
:10369000FA897B6813441B78002BEED107F11007E1
:1036A000BD4680BD80B582B000AF01F0F1FD03469C
:1036B000FB7146F29143C4F2000346F29142C4F218
:1036C00000021278D2B242F00102D2B21A7046F26F
:1036D0009143C4F2000346F29142C4F20002127810
:1036E000D2B202F0FE021A70FB79184601F0D4FD46
:1036F00007F10807BD4680BD80B400AFBD4680BC61
:10370000704700BF80B400AFBD4680BC704700BFAB
:1037100080B500AF46F29953C4F200031B78DBB2C8
:1037200003F01003002B07D049F23C23C1F6FF73CE
:103730004FF001021A7006E049F23C23C1F6FF7314
:103740004FF000021A70FFF7CDFEFFF7D5FF80BDE6
:1037500080B500AFFFF7D6FFFFF73CFFFFF7A2FFF2
:1037600049F23C23C1F6FF731B78002B01D0FFF711
:103770007DFE80BD80B400AF44F2A233C4F20003EA
:1037800044F2A232C4F200021278D2B242F0020233
:10379000D2B21A7044F2B233C4F2000344F2B2322D
:1037A000C4F200021278D2B242F00202D2B21A700F
:1037B000BD4680BC704700BF80B400AF44F2A23366
:1037C000C4F2000344F2A232C4F200021278D2B270
:1037D00002F0FD021A7044F2B233C4F2000344F264
:1037E000B232C4F200021278D2B202F0FD021A70B4
:1037F000BD4680BC704700BF80B582B000AF786026
:1038000000F042F8786800F00BF84FF0070000F085
:103810001BF800F02DF807F10807BD4680BD00BF7A
:1038200080B485B000AF78604EF60853CEF2000346
:103830001B68FB60FB6803F14C037A681A6007F1B0
:103840001407BD4680BC704780B483B000AF034608
:10385000FB714EF20343CEF20003FA794FEA4212B3
:10386000D2B21A7007F10C07BD4680BC704700BF8A
:1038700080B400AF4EF20013CEF200034FF0080206
:103880001A60BD4680BC704780B400AF4EF2801312
:10389000CEF200034FF008021A60BD4680BC7047AC
:1038A00080B485B000AF0346FB7145F23013C4F21B
:1038B00000031B78DBB203F07F03FB7345F2301388
:1038C000C4F20003FA794FEAC212D1B2FA7B41EA9C
:1038D0000202D2B21A7007F11407BD4680BC7047CD
:1038E00080B485B000AF0346FB7145F2C013C4F24B
:1038F00000031B78DBB223F00403FB7345F2C01313
:10390000C4F20003FA794FEA8202D2B202F0040252
:10391000F97B42EA0102D2B21A7007F11407BD46E0
:1039200080BC704780B485B000AF0346FB7145F2A0
:103930000013C4F200031B78DBB223F02003FB73F7
:1039400045F20013C4F20003FA794FEA4212D2B2F0
:1039500002F02002F97B42EA0102D2B21A7007F1AA
:103960001407BD4680BC704780B485B000AF0346E5
:10397000FB7145F20013C4F200031B78DBB223F0A5
:103980000403FB7345F20013C4F20003FA794FEA13
:103990008202D2B202F00402F97B42EA0102D2B200
:1039A0001A7007F11407BD4680BC704780B582B01D
:1039B00000AF786000F04EF8786800F017F84FF02C
:1039C000070000F027F800F039F807F10807BD46B6
:1039D00080BD00BF80B500AF00F03CF841F28160CF
:1039E000C0F2000000F002F880BD00BF80B485B0D6
:1039F00000AF78604EF60853CEF200031B68FB6000
:103A0000FB6803F158037A681A6007F11407BD4692
:103A100080BC704780B483B000AF0346FB714EF2A8
:103A20000643CEF20003FA794FEA4212D2B21A707C
:103A300007F10C07BD4680BC704700BF80B400AFE3
:103A40004EF20013CEF200034FF040021A60BD4662
:103A500080BC704780B400AF4EF28013CEF20003FA
:103A60004FF040021A60BD4680BC704780B500AF81
:103A700049F24023C1F6FF731B78002B08D100F0F8
:103A80000BF849F24023C1F6FF734FF001021A70A0
:103A900000F00CF880BD00BF80B500AF4FF008000B
:103AA00000F06EF800F04EF880BD00BF80B582B027
:103AB00000AF44F20033C4F200031B78DBB203F022
:103AC0000203002B24D101F0E3FB0346FB7144F217
:103AD0000033C4F2000344F20032C4F20002127850
:103AE000D2B242F00202D2B21A7044F28233C4F26D
:103AF000000344F28232C4F200021278D2B242F0E1
:103B00000402D2B21A70FB79184601F0C5FB15E029
:103B100001F0BEFB0346FB7144F28233C4F20003A2
:103B200044F28232C4F200021278D2B242F00402AD
:103B3000D2B21A70FB79184601F0AEFB07F1080704
:103B4000BD4680BD80B582B000AF01F0A1FB034649
:103B5000FB7144F28233C4F2000344F28232C4F2B5
:103B600000021278D2B242F00802D2B21A70FB7987
:103B7000184601F091FB07F10807BD4680BD00BF64
:103B800080B483B000AF0346FB7144F28233C4F2C9
:103B900000031B78DBB203F00403002B13D144F2C3
:103BA0008133C4F2000344F28132C4F2000212787D
:103BB000D2B2114601F0F001FA7902F00F0241EAA7
:103BC0000202D2B21A7007F10C07BD4680BC7047E2
:103BD00080B500AF4FF00200FEF7F0FF0346184635
:103BE00080BD00BF80B500AF00F014F880BD00BFFD
:103BF00080B500AF00F026F880BD00BF80B400AFF4
:103C0000BD4680BC704700BF80B400AFBD4680BCDD
:103C1000704700BF80B500AF46F29F43C4F2000377
:103C20001B78DBB203F01003002B0CBF0022012233
:103C300048F22C13C1F6FF731A7001F005FCFFF770
:103C4000DDFF80BD80B500AFFFF7DEFF01F08CFC2B
:103C500048F22C13C1F6FF731B78002B01D001F042
:103C60009FFB80BD80B485B000AF0346FB7145F279
:103C70002013C4F200031B78DBB223F00103FB73B3
:103C800045F22013C4F20003FA7902F00102F97B35
:103C900042EA0102D2B21A7007F11407BD4680BC95
:103CA000704700BF80B500AF49F24123C1F6FF73F2
:103CB0001B78002B08D100F00BF849F24123C1F624
:103CC000FF734FF001021A7000F02AF880BD00BFA8
:103CD00080B400AF46F28143C4F200034FF0720299
:103CE0001A7046F28243C4F200034FF020021A70A9
:103CF00046F22B43C4F200034FF007021A7046F25B
:103D00003B43C4F200034FF048021A7046F2894365
:103D1000C4F200034FF000021A70BD4680BC704729
:103D200080B582B000AF01F0B3FA0346FB7146F2F2
:103D30009143C4F2000346F29142C4F200021278A9
:103D4000D2B242F02002D2B21A7046F29243C4F2CA
:103D5000000346F29242C4F200021278D2B242F05C
:103D60001002D2B21A7046F29943C4F2000346F22E
:103D70009942C4F200021278D2B242F01002D2B2DA
:103D80001A7000F0F9F8FB79184601F085FA07F18E
:103D90000807BD4680BD00BF80B582B000AF01F00E
:103DA00077FA0346FB7146F29143C4F2000346F2F0
:103DB0009142C4F200021278D2B202F0DF021A700D
:103DC00000F0FCF846F29243C4F2000346F292423D
:103DD000C4F200021278D2B202F0EF021A7046F278
:103DE0009943C4F2000346F29942C4F200021278E9
:103DF000D2B202F0EF021A70FB79184601F04CFAC9
:103E000007F10807BD4680BD80B483B000AF4FF016
:103E10000003BB7146F26243C4F200031B78FB71DE
:103E2000FB7903F02003002B0DD046F24243C4F28D
:103E300000031B78BB71FB7903F01E03002B02D03B
:103E40004FF00003BB71BB79184607F10C07BD4664
:103E500080BC704780B582B000AF01F019FA03460C
:103E6000FB7146F29243C4F2000346F29242C4F25E
:103E700000021278D2B242F00102D2B21A7046F2B7
:103E80009243C4F2000346F29242C4F20002127856
:103E9000D2B202F0FE021A70FB79184601F0FCF96A
:103EA00007F10807BD4680BD80B582B000AF01F0C4
:103EB000EFF90346FB7146F29943C4F2000346F260
:103EC0009942C4F200021278D2B242F00102D2B298
:103ED0001A7046F29943C4F2000346F29942C4F2C2
:103EE00000021278D2B202F0FE021A70FB79184674
:103EF00001F0D2F907F10807BD4680BD80B400AFDC
:103F0000BD4680BC704700BF80B400AFBD4680BCDA
:103F1000704700BF80B500AF46F29243C4F2000381
:103F20001B78DBB203F01003002B07D049F24423C7
:103F3000C1F6FF734FF001021A7006E049F2442304
:103F4000C1F6FF734FF000021A70FFF725FFFFF76D
:103F5000D5FF80BD80B500AFFFF7D6FFFFF77AFF32
:103F6000FFF7A2FF49F24423C1F6FF731B78002B31
:103F700001D0FFF7D5FE80BD80B400AF44F2A2337C
:103F8000C4F2000344F2A232C4F200021278D2B2A8
:103F900042F01002D2B21A7044F2B233C4F20003FB
:103FA00044F2B232C4F200021278D2B242F01002ED
:103FB000D2B21A70BD4680BC704700BF80B400AF5B
:103FC00044F2A233C4F2000344F2A232C4F200026B
:103FD0001278D2B202F0EF021A7044F2B233C4F295
:103FE000000344F2B232C4F200021278D2B202F0FC
:103FF000EF021A70BD4680BC704700BF80B500AFAD
:1040000049F24823C1F6FF731B78002B08D100F05A
:104010000BF849F24823C1F6FF734FF001021A7002
:1040200000F034F880BD00BF80B500AF4FF0030052
:1040300000F0F0F84FF0FF0000F00EF94FF0000034
:1040400000F01AF946F28753C4F200034FF07202EF
:104050001A7046F28553C4F200034FF020021A7022
:1040600046F22343C4F200034FF007021A7046F2EF
:104070003343C4F200034FF048021A7046F28443FF
:10408000C4F200034FF000021A7080BD80B582B008
:1040900000AF01F0FDF80346FB7146F29753C4F2FE
:1040A000000346F29752C4F200021278D2B242F0F4
:1040B0002002D2B21A7046F29553C4F2000346F2BF
:1040C0009552C4F200021278D2B242F01002D2B27B
:1040D0001A7046F29443C4F2000346F29442C4F2CA
:1040E00000021278D2B242F01002D2B21A7000F07E
:1040F0000FFAFB79184601F0CFF807F10807BD4623
:1041000080BD00BF80B582B000AF01F0C1F80346AA
:10411000FB7146F29753C4F2000346F29752C4F281
:1041200000021278D2B202F0DF021A7000F012FA26
:1041300046F29553C4F2000346F29552C4F20002CF
:104140001278D2B202F0EF021A7046F29443C4F22F
:10415000000346F29442C4F200021278D2B202F096
:10416000EF021A70FB79184601F096F807F108077C
:10417000BD4680BD80B483B000AF4FF00003BB717B
:1041800046F26553C4F200031B78FB71FB7903F020
:104190002003002B0DD046F24653C4F200031B78D7
:1041A000BB71FB7903F01E03002B02D04FF000031C
:1041B000BB71BB79184607F10C07BD4680BC704740
:1041C00080B582B000AF01F063F80346FB7146F2A0
:1041D0009653C4F2000346F29652C4F200021278DB
:1041E000D2B242F00102D2B21A7046F29653C4F231
:1041F000000346F29652C4F200021278D2B202F0E4
:10420000FE021A70FB79184601F046F807F108071C
:10421000BD4680BD80B485B000AF0346FB7146F259
:104220007653C4F200031B78DBB203F01F03FB7369
:10423000FB794FEA4313DAB2FB7B42EA0303FB73D9
:1042400046F27653C4F20003FA7B1A7007F11407A2
:10425000BD4680BC704700BF80B483B000AF03464A
:10426000FB7146F22653C4F20003FA791A7007F183
:104270000C07BD4680BC704780B483B000AF0346D6
:10428000FB7146F23653C4F20003FA791A7007F153
:104290000C07BD4680BC704780B483B000AF0346B6
:1042A000FB7146F26443C4F200031B78DBB203F0F7
:1042B0000403002BF5D146F24443C4F20003FA791B
:1042C0001A7007F10C07BD4680BC704780B584B0FA
:1042D00000AF78600B46FB704FF00003FB7349F2B0
:1042E0004823C1F6FF731B78002B0ED0FA7B7B6846
:1042F00013441B781846FFF7CFFFFB7B03F1010344
:10430000FB73FA7BFB789A42F0D307F11007BD46A6
:1043100080BD00BF80B582B000AF00F0B9FF03469A
:10432000FB7146F29443C4F2000346F29442C4F295
:1043300000021278D2B242F00102D2B21A7046F2F2
:104340009443C4F2000346F29442C4F2000212788D
:10435000D2B202F0FE021A70FB79184600F09CFF00
:1043600007F10807BD4680BD80B400AF46F2765322
:10437000C4F200031B78DAB249F24C23C1F6FF7392
:104380005A70BD4680BC704780B400AF46F2765389
:10439000C4F2000349F24C22C1F6FF7252781A703F
:1043A000BD4680BC704700BF80B500AF46F2955354
:1043B000C4F200031B78DBB203F01003002B07D01C
:1043C00049F24C23C1F6FF734FF001021A7006E068
:1043D00049F24C23C1F6FF734FF000021A70FFF749
:1043E00091FEFFF7C1FF80BD80B500AFFFF7CCFFA6
:1043F000FFF7E6FEFFF78EFF49F24C23C1F6FF738D
:104400001B78002B01D0FFF741FE80BD80B582B044
:1044100000AF786000F04EF8786800F017F84FF0C1
:10442000070000F027F800F039F807F10807BD464B
:1044300080BD00BF80B500AF00F03CF841F2816064
:10444000C0F2000000F002F880BD00BF80B485B06B
:1044500000AF78604EF60853CEF200031B68FB6095
:10446000FB6803F15C037A681A6007F11407BD4624
:1044700080BC704780B483B000AF0346FB714EF23E
:104480000743CEF20003FA794FEA4212D2B21A7011
:1044900007F10C07BD4680BC704700BF80B400AF79
:1044A0004EF20013CEF200034FF080021A60BD46B8
:1044B00080BC704780B400AF4EF28013CEF2000390
:1044C0004FF080021A60BD4680BC704780B485B052
:1044D00000AF0346FB7145F2C013C4F200031B7822
:1044E000DBB223F00803FB7345F2C013C4F20003F0
:1044F000FA794FEAC202D2B202F00802F97B42EA2C
:104500000102D2B21A7007F11407BD4680BC704791
:1045100080B400AF44F2A233C4F2000344F2A232EA
:10452000C4F200021278D2B242F02002D2B21A7063
:1045300044F2B233C4F2000344F2B232C4F20002D5
:104540001278D2B242F02002D2B21A70BD4680BCBC
:10455000704700BF80B400AF44F2A233C4F200033E
:1045600044F2A232C4F200021278D2B202F0DF02A8
:104570001A7044F2B233C4F2000344F2B232C4F20D
:1045800000021278D2B202F0DF021A70BD4680BC7F
:10459000704700BF80B582B000AF786000F042F88D
:1045A000786800F00BF84FF0070000F01BF800F0FF
:1045B0002DF807F10807BD4680BD00BF80B485B067
:1045C00000AF78604EF60853CEF200031B68FB6024
:1045D000FB6803F148037A681A6007F11407BD46C7
:1045E00080BC704780B483B000AF0346FB714EF2CD
:1045F0000243CEF20003FA794FEA4212D2B21A70A5
:1046000007F10C07BD4680BC704700BF80B400AF07
:104610004EF20013CEF200034FF004021A60BD46C2
:1046200080BC704780B400AF4EF28013CEF200031E
:104630004FF004021A60BD4680BC704780B483B05E
:1046400000AF0346FB7146F27943C4F20003FA79E6
:104650001A7007F10C07BD4680BC704780B483B068
:1046600000AF0346FB7146F27243C4F20003FA79CD
:104670001A7007F10C07BD4680BC704780B500AFCB
:1046800049F25023C1F6FF731B78002B08D100F0CC
:104690000BF849F25023C1F6FF734FF001021A7074
:1046A00000F030F880BD00BF80B500AF4FF01000C3
:1046B00000F066FA4FF000004FF00701FDF7A8FD8B
:1046C0004FF0000044F6A121C0F20001FDF770FD9B
:1046D00045F60113C4F2000345F60112C4F20002CC
:1046E0001278D2B242F00602D2B21A704FF00C0029
:1046F00000F0F6F84AF26233C1F6FF734FF00002A1
:104700001A8080BD80B582B000AF00F0C1FD0346C5
:10471000FB7144F2AB33C4F2000344F2AB32C4F297
:1047200000021278D2B242F00102D2B21A7044F200
:10473000BB33C4F2000344F2BB32C4F2000212786D
:10474000D2B242F00102D2B21A7044F2A133C4F2E2
:10475000000344F2A132C4F200021278D2B242F055
:104760000102D2B21A7044F2B133C4F2000344F22F
:10477000B132C4F200021278D2B242F00102D2B2D7
:104780001A7045F60313C4F200031B78BB71BB79A2
:1047900043F00203BB71BB7943F00103BB7145F6E3
:1047A0000313C4F20003BA791A7045F60613C4F273
:1047B00000034FF004021A7045F60513C4F200031B
:1047C00045F60512C4F200021278D2B202F0BF021E
:1047D0001A7045F60513C4F2000345F60512C4F23B
:1047E00000021278D2B242F02002D2B21A7045F61C
:1047F0000013C4F200034FF008021A7045F6273385
:10480000C4F2000345F62732C4F200021278D2B295
:1048100042F00802D2B21A704FF00A00FDF7B4FC61
:104820004EF28023CEF200034FF001021A60FB79B2
:10483000184600F031FD07F10807BD4680BD00BFF6
:1048400080B582B000AF00F023FD0346FB7145F652
:104850000013C4F2000345F60012C4F200021278FD
:10486000D2B202F0FE021A7044F2AB33C4F200037B
:1048700044F2AB32C4F200021278D2B202F0FE026D
:104880001A7044F2BB33C4F2000344F2BB32C4F2E8
:1048900000021278D2B202F0FE021A7044F2A13382
:1048A000C4F2000344F2A132C4F200021278D2B280
:1048B00002F0FE021A7044F2B133C4F2000344F273
:1048C000B132C4F200021278D2B202F0FE021A70C3
:1048D000FB79184600F0E0FC07F10807BD4680BDF3
:1048E00080B584B000AF0346FB71FB790A2B08D07A
:1048F0000C2B02D0082B08D00BE06FF03B03FB73AE
:104900000EE06FF07B03FB730AE04FF04403FB7390
:1049100006E06FF03B03FB734FF00000FDF704FC73
:1049200045F60213C4F20003FA7B1A70FB791846AD
:1049300000F046F807F11007BD4680BD80B400AF17
:1049400045F60013C4F2000345F60012C4F200025B
:104950001278D2B242F00102D2B21A70BD4680BCC7
:10496000704700BF80B400AF45F60013C4F20003E7
:1049700045F60012C4F200021278D2B202F0FE0232
:104980001A70BD4680BC704780B483B000AF45F656
:10499000A033C4F200031B88FB804AF26033C1F6E7
:1049A000FF731B889BB29BB2FA88C3EB02039BB2D6
:1049B0001BB2184607F10C07BD4680BC704700BF0C
:1049C00080B584B000AF0346FB71FB790A2B08D099
:1049D0000C2B02D0082B08D00BE040F6FF73FB60D5
:1049E0000EE040F2FF33FB600AE04FF0FF03FB6094
:1049F00006E04FF00003FB604FF00000FDF794FB72
:104A0000FB684FF47A7202FB03F3FB60FB6803F56B
:104A1000FE6202F10F02002BB8BF13464FEAE323F8
:104A20009AB24AF25E33C1F6FF731A804AF26033DB
:104A3000C1F6FF734FF000021A8007F11007BD4660
:104A400080BD00BF90B585B000AF0346FB80FA88FB
:104A50004AF26233C1F6FF731B889BB29BB2C3EB71
:104A600002039BB2FB80B7F90630184605F014FF2D
:104A700004464AF25E33C1F6FF731B889BB21BB239
:104A8000184605F009FF03462046194606F00CF8C3
:104A90000346FB60FB68184607F11407BD4690BD4E
:104AA00080B400AFBD4680BC704700BF80B500AF8A
:104AB00044F2AB33C4F200031B78DBB203F0010312
:104AC000DBB2002B1CD045F60013C4F200031B78A8
:104AD000DBB203F00103DBB2002B07D049F2542311
:104AE000C1F6FF734FF003021A7006E049F2542337
:104AF000C1F6FF734FF001021A70FFF7A1FE06E046
:104B000049F25423C1F6FF734FF000021A7080BDC2
:104B100080B500AF49F25423C1F6FF731B78002B18
:104B20000CD0FFF7EFFD49F25423C1F6FF731B7859
:104B300003F00203002B01D0FFF700FF80BD00BF90
:104B400080B485B000AF0346FB7145F2C013C4F2D8
:104B500000031B78DBB203F07F03FB7345F2C01345
:104B6000C4F20003FA794FEAC212D1B2FA7B41EAE9
:104B70000202D2B21A7007F11407BD4680BC70471A
:104B800080B483B000AF0346FB7144F20213C4F259
:104B9000000344F20212C4F200021278D2B21146AB
:104BA000FA79D2B202F0F80241EA0202D2B2D2B2EB
:104BB0001A7007F10C07BD4680BC704780B582B003
:104BC00000AF7860396078684FF000013A6806F00D
:104BD00093FC07F10807BD4680BD00BF80B584B0D7
:104BE00000AFF860B9607A60F868B9687A6806F072
:104BF0005FFB07F11007BD4680BD00BF80B487B0E2
:104C000000AF786039604FF00003FB604FF00003A5
:104C1000BB602CE0BB684FEA83027B6813441B68CF
:104C20003B613B69FB753B6923F0FF033B6117E088
:104C3000FB684FEA43023B6813441B781A463B6902
:104C40001344FA684FEA42013A680A4452781A70EB
:104C5000FB6803F10103FB60FB7D03F1FF33FB7590
:104C6000FB7D002BE4D1BB6803F10103BB60BB6893
:104C7000292BCFD907F11C07BD4680BC704700BF68
:104C800080B582B000AF44F28003C4F200034FF05D
:104C900000021A8044F28203C4F200034FF058026B
:104CA0001A7044F28403C4F200034FF019021A8010
:104CB00044F28603C4F200034FF018021A7044F263
:104CC0008803C4F200034FF019021A8044F28A03E9
:104CD000C4F200034FF018021A7044F28C03C4F2BD
:104CE00000034FF077021A8044F28E03C4F20003EF
:104CF0004FF018021A7044F29003C4F200034FF40C
:104D00009C721A8044F29203C4F200034FF018021E
:104D10001A7044F29403C4F200034FF49C721A8098
:104D200044F29603C4F200034FF018021A7044F2E2
:104D30009803C4F2000345F6BF521A8044F29A0366
:104D4000C4F200034FF019021A7044F20010C4F2CA
:104D5000000041F2F011C4F600014FF00402FFF729
:104D60003DFF44F20033C4F200034FF002021A7018
:104D700044F20003C4F200034FF008021A7044F238
:104D80000023C4F200034FF003021A7044F2A1633F
:104D9000C4F2000340F20812C4F600121278D2B234
:104DA0001A7044F22223C4F200034FF008021A8062
:104DB00044F22023C4F2000341F251021A804FF062
:104DC0000003FB714FF019033B6019E0FB794FEAD8
:104DD0004303DAB244F22523C4F200031B78DBB2AA
:104DE00003F0010342EA0303DBB203F00303FB71A8
:104DF0004FF4F07000F044FA3B6803F1FF333B607E
:104E00003B68002B02D0FB79032BDFD144F2040373
:104E1000C4F200034FF480721A8044F20403C4F217
:104E200000034FF007021A7044F20603C4F20003B5
:104E30004FF000021A7044F20803C4F200034FF06E
:104E400048021A7044F20403C4F200034FF0000257
:104E50001A7044F20103C4F200034FF002021A7008
:104E600044F20B03C4F200034FF004021A7044F240
:104E7000A233C4F2000344F2A232C4F20002127858
:104E8000D2B242F07F02D2B21A7044F2A133C4F21D
:104E9000000344F2A132C4F200021278D2B242F00E
:104EA0000102D2B21A7044F2A033C4F2000344F2F9
:104EB000A032C4F200021278D2B26FEA42626FEA04
:104EC0005262D2B21A7007F10807BD4680BD00BF1A
:104ED00080B483B000AF40F2CF13C4F600131B7848
:104EE000FB7145F66E03C4F20003FA7902F0070283
:104EF0001A7045F66F03C4F20003FA794FEA1212F2
:104F0000D2B21A7045F25D13C4F200034FF02002D2
:104F10001A7045F26C13C4F200034FF020021A70AD
:104F200045F60113C4F200036FF07F021A7045F6D4
:104F3000C323C4F200034FF021021A7045F6203358
:104F4000C4F200034FF002021A7045F62333C4F294
:104F500000034FF020021A7045F65833C4F20003E4
:104F60004FF002021A7045F67603C4F200034FF0C8
:104F700044021A7007F10C07BD4680BC704700BFA1
:104F800080B586B000AF72B644F2E863C4F20003A5
:104F900044F2E862C4F200021278D2B242F0040293
:104FA000D2B21A704FF00003FB702FE0FA7813466C
:104FB0004FEA430313444FEA43031A4642F67C7315
:104FC000C0F2010313447B607B681A7859784FEA7A
:104FD000012141EA020299784FEA014141EA0202C5
:104FE000DB784FEA036343EA02031A467B681979C8
:104FF0005B794FEA032343EA01039BB2104619464B
:10500000FFF7DCFDFB7803F10103FB70FB78082B55
:10501000CCD94FF00003FB7043E0FA7813464FEA17
:10502000830313444FEA43031A4642F6B473C0F2B3
:1050300001031344BB60BB681A7859784FEA012119
:1050400041EA020299784FEA014141EA0202DB7823
:105050004FEA036343EA0203FB60BB681A7959799C
:105060004FEA012141EA020299794FEA014141EAFE
:105070000202DB794FEA036343EA02033B61BB6848
:105080001A7A5B7A4FEA032343EA0203FB82FB8A24
:10509000F86839691A46FFF7A1FDFB7803F10103AF
:1050A000FB70FB78032BB8D94FF0904040F2A80179
:1050B000C4F60001FFF7A2FD45F64803C4F2000361
:1050C0004FF003021A8045F20303C4F2010345F2D4
:1050D0000302C4F201021278D2B242F00202D2B24A
:1050E0001A7045F21303C4F2010345F21302C4F22D
:1050F00001021278D2B242F00202D2B21A7044F225
:10510000A033C4F2000344F2A032C4F200021278C9
:10511000D2B242F04002D2B21A7044F2C233C4F2A8
:10512000000344F2C232C4F200021278D2B242F05A
:105130001002D2B21A7045F20010C4F2000041F21F
:105140008C11C4F600014FF00A02FFF747FD45F24B
:10515000C010C4F2000041F29811C4F600014FF0F3
:105160000A02FFF73BFD45F2F010C4F2000041F2E5
:10517000A411C4F600014FF00A02FFF72FFD45F21B
:105180001010C4F2000041F2B011C4F600014FF05B
:105190000A02FFF723FD45F22010C4F2000041F29D
:1051A000BC11C4F600014FF00A02FFF717FD45F2EB
:1051B0003010C4F2000041F2C811C4F600014FF0F3
:1051C0000A02FFF70BFD45F24010C4F2000041F265
:1051D000D411C4F600014FF00A02FFF7FFFC45F2BC
:1051E0005210C4F2000041F2E011C4F600014FF089
:1051F0000802FFF7F3FC45F26210C4F2000041F22E
:10520000E811C4F600014FF00802FFF7E7FC44F292
:105210002233C4F2000344F22232C4F200021278B4
:10522000D2B242F00802D2B21A7044F60003C4F2BD
:1052300000034FF001021A70FFF722FD44F600034D
:10524000C4F200036FF07E021A7040F20403C4F24D
:1052500008034FF001021A70FFF73AFE44F2B03033
:10526000C4F2000044F2A031C4F200014FF00E027B
:10527000FFF7B4FC07F11807BD4680BD0000000031
:105280000230800803D000BF01380046FCD17047CF
:10529000EFF3108072B6704780F31088704700BF3C
:1052A00080B584B000AF0346FB71FFF7F1FF034602
:1052B000FB73FB79102B12D844F60003C4F20003F1
:1052C00044F60002C4F200021278D2B2D2B202F066
:1052D0003F0242F04002D2B2D2B21A7039E0FB79FA
:1052E000212B14D844F60003C4F2000344F6000254
:1052F000C4F200021278D2B2D2B202F03F026FEAD8
:1053000042626FEA5262D2B2D2B21A7021E0FB79E5
:10531000322B11D844F60003C4F2000344F6000215
:10532000C4F200021278D2B26FEA82626FEA92622D
:10533000D2B2D2B21A700CE044F60003C4F20003F9
:1053400044F60002C4F200021278D2B202F03F0228
:105350001A70FB7B1846FFF79FFF07F11007BD4649
:1053600080BD00BF80B500AF46F28043C4F20003A9
:105370004FF00F021A7000F0F7F800F0ABF800F0F1
:10538000B9F846F28F43C4F200034FF000021A70DE
:1053900046F28343C4F200034FF000021A7080BD4E
:1053A00080B582B000AFFFF773FF0346FB7146F292
:1053B0009043C4F2000346F29042C4F20002127815
:1053C000D2B242F02002D2B21A7046F29F43C4F227
:1053D000000346F29F42C4F200021278D2B242F0B9
:1053E0001002D2B21A7046F29343C4F2000346F29E
:1053F0009342C4F200021278D2B242F01002D2B24A
:105400001A70FB791846FFF747FF00F04BF800F0E1
:105410004FF807F10807BD4680BD00BF80B500AF5B
:1054200049F25823C1F6FF731B78002B08D1FFF710
:1054300099FF49F25823C1F6FF734FF001021A7029
:10544000FFF7AEFF80BD00BF80B582B000AFFFF7B1
:105450001FFF0346FB7146F29F43C4F2000346F26E
:105460009F42C4F200021278D2B202F0EF021A7028
:1054700046F29343C4F2000346F29342C4F20002A0
:105480001278D2B202F0EF021A70FB791846FFF7D9
:1054900003FF00F013F800F017F807F10807BD4606
:1054A00080BD00BF80B400AFBD4680BC704700BF68
:1054B00080B400AFBD4680BC704700BF80B400AF71
:1054C000BD4680BC704700BF80B400AFBD4680BC05
:1054D000704700BF80B483B000AF46F26F43C4F2A0
:1054E00000031B78FB71FB79184607F10C07BD46DA
:1054F00080BC704780B483B000AF46F26343C4F20F
:1055000000031B78FB71FB79184607F10C07BD46B9
:1055100080BC704780B483B000AF0346FB7146F295
:105520006F43C4F200031B78DBB203F00403002BCB
:10553000F5D046F24C43C4F20003FA791A7007F131
:105540000C07BD4680BC704780B483B000AF46F204
:105550005C43C4F200031B78FB71FB79184607F12A
:105560000C07BD4680BC704780B582B000AF04E038
:1055700046F25C43C4F200031B7846F26343C4F274
:1055800000031B78DBB203F02003002BF0D1FFF700
:105590007FFE0346FB7146F29C43C4F2000346F2D1
:1055A0009C42C4F200021278D2B242F00102D2B29E
:1055B0001A7046F29C43C4F2000346F29C42C4F2C5
:1055C00000021278D2B202F0FE021A70FB7918467D
:1055D000FFF762FE07F10807BD4680BD80B582B0C7
:1055E00000AF786000F050FE00F03EFA00F052F894
:1055F00000F09AF94AF28033C1F6FF737A681A60B4
:1056000007F10807BD4680BD80B500AF00F0E6FD9C
:105610000346002B01D000F005F84FF001031846B7
:1056200080BD00BF80B582B000AF00F0ADF9034689
:10563000FB71FB7903F00103DBB2002B07D04AF2C8
:105640008033C1F6FF731B684FF000009847FB7969
:1056500003F00203002B07D04AF28033C1F6FF7338
:105660001B684FF00100984707F10807BD4680BD51
:1056700080B500AF00F008FE00F0F6F900F00AF87F
:1056800000F052F980BD00BF80B500AF03F0F4FE1A
:1056900080BD00BF80B582B000AF4FF000033B710A
:1056A0004FF000037B7107F104034FF0000019462F
:1056B0004FF0020200F040F807F10807BD4680BD38
:1056C00080B582B000AF02460B46FA71BB71FA7921
:1056D000BB794FF0680011461A4600F03BFE07F117
:1056E0000807BD4680BD00BF80B582B000AF03464D
:1056F000FB71FB794FF06800194600F045FE034648
:10570000184607F10807BD4680BD00BF80B582B0CE
:1057100000AF02460B46FA71BB71FA79BB794FF0C4
:10572000680011461A4600F04FFE0346184607F17E
:105730000807BD4680BD00BF80B584B000AFB9602A
:1057400013460246FA73FB71FA7BFB794FF068004F
:105750001146BA6800F056FE07F11007BD4680BD3D
:1057600080B584B000AF00F011FA03463B7200F040
:105770006DFA03467B7200F0B9FA0346BB7200F083
:1057800005FB0346FB7200F051FB03463B7300F040
:1057900091FB03467B7300F0DDFB0346FB813B4638
:1057A000184600F027FC4FF00A033B704FF00A0345
:1057B0007B7040F2DC73FB803B4693E8030000F013
:1057C00075FC07F11007BD4680BD00BF80B485B0F1
:1057D00000AFF860B9607A603B6007F11407BD461E
:1057E00080BC704780B584B000AF0346FB714AF2BD
:1057F0007033C1F6FF73FA791A704FF00000FFF7AB
:1058000073FF0346FB73FB7B43F00203FB73FB7BDD
:105810004FF000001946FFF753FF00F005F807F1BD
:105820001007BD4680BD00BF80B582B000AF00F05C
:105830000DFA0346BB714AF27033C1F6FF731B7851
:105840001946B8794AF27033C1F6FF731A78BB79FA
:10585000B3FBF2FC02FB0CF2C2EB0303DBB2C3EBC3
:1058600000024AF27033C1F6FF731B7892FBF3F328
:1058700003F1010303FB01F148F68903C8F688032D
:1058800083FB01230B444FEA63124FEAE173C3EB3E
:10589000020213464FEA0313C2EB03034FEA8303EA
:1058A000C3EB01021346FB71FB79184600F00AFABC
:1058B000034603F07F034FF00A001946FFF700FF8D
:1058C00007F10807BD4680BD80B582B000AF4FF03C
:1058D0000000FFF709FF0346FB71FB7943F0040367
:1058E000FB71FB794FF000001946FFF7E9FE07F165
:1058F0000807BD4680BD00BF80B582B000AF4FF045
:105900000000FFF7F1FE0346FB71FB7923F004036F
:10591000FB71FB794FF000001946FFF7D1FE07F14C
:105920000807BD4680BD00BF80B582B000AF4FF014
:105930000F00FFF7D9FE0346FB71FB7943F03803F4
:10594000FB71FB794FF00F001946FFF7B9FE07F125
:105950000807BD4680BD00BF80B582B000AF4FF0E4
:105960000100FFF7C1FE0346FB71FB7923F0100332
:10597000FB71FB794FF001001946FFF7A1FE07F11B
:105980000807BD4680BD00BF80B582B000AF4FF0B4
:105990000003BB714FF00100FFF7A6FE0346FB7149
:1059A000FB7903F01003002B07D0FB7923F01003E1
:1059B000FB71BB7943F00103BB71FB7903F0080372
:1059C000002B09D0FB7923F00803FB71FFF72CFFB4
:1059D000BB7943F00203BB71FB794FF0010019461C
:1059E000FFF76EFEBB79184607F10807BD4680BD7C
:1059F00080B58CB002AF07F12003184600F0FAFA28
:105A000097F822301A4697F8213097F82010084668
:105A100007F104010090084642F6DC71C0F2010172
:105A200006F05CFA07F12807BD4680BD80B58CB052
:105A300002AF07F12003184600F0DCFA97F8223095
:105A40001A4697F8213097F82010084607F104010C
:105A50000090084642F6F471C0F2010106F03EFAE9
:105A600007F12807BD4680BD80B582B000AF4FF07A
:105A70000200FFF739FE0346FB71FB7903F0E003F8
:105A8000E02B05D14FF002004FF08001FFF718FE28
:105A900007F10807BD4680BD80B483B000AF134650
:105AA0000246FA710A46BA717B71FA79BB7902EA49
:105AB0000303DBB24FEA1313DBB21A464FEA82024A
:105AC00013444FEA4303DAB2F9797B7901EA03031D
:105AD000DBB21344DBB2184607F10C07BD4680BCAD
