:1000000000800020AD070000A5070000A507000044
:1000100080B51448144B21E05C689968DD688C4217
:100020000CD0002205E0A6180832D6E9008941E983
:1000300002898C460831AA42F5D101E004EB050C97
:100040001C696146002204E008320026002741E9CD
:1000500002670831A242F7D1143301380028DBD1FE
:1000600002F084F9010000003825000048F2201356
:10007000C1F6FF731A780AB901201870704700BFE3
:1000800048F20810C1F6FF7008B503682BB140F2C2
:100090000003C0F2000303B1984708BD80B500AF6C
:1000A00000F020FC40F2CD30C0F2000000F044FD32
:1000B00048F22823C1F6FF734FF000021A7080BD8A
:1000C00080B58AB000AFF860B9607A604FF0000385
:1000D000FB754FF00003BB614FF06403FB617A686E
:1000E000FB69B2FBF3F33B6200F048F9F86800F0FB
:1000F000DDFCBA6842F2F033C0F200039A421ED02F
:100100004FF00003BB6116E048F22810C1F6FF7003
:10011000B96802F015F80346FB84FB8C002B03D072
:100120004FF00103FB750AE0F86900F0B7FBBB690B
:1001300003F10103BB61BA693B6A9A42E4D3FB7DD8
:10014000184607F12807BD4680BD00BF80B500AF47
:100150004FF0000000F06CFE4FF0000000F046FE93
:1001600040F2DC5000F09AFB4FF0010000F03EFE40
:1001700041F2883000F092FB48F22823C1F6FF7369
:100180004FF001021A7080BD80B500AF4FF0000043
:1001900000F02CFE40F2DC5000F080FB4FF001003C
:1001A00000F024FE41F2883000F078FB4FF00100AF
:1001B00000F03EFE48F22823C1F6FF734FF0000224
:1001C0001A7080BD80B400AFBD4680BC704700BFD0
:1001D00080B582B000AF42F2F430C0F2000042F2CB
:1001E000FC31C0F2000141F28832FFF769FF42F2B0
:1001F0000040C0F2000042F2FC31C0F2000141F2C6
:100200008832FFF75DFF42F20C40C0F2000042F27C
:10021000FC31C0F2000141F28832FFF751FF42F297
:100220002440C0F2000042F2FC31C0F2000141F271
:100230008832FFF745FF42F23440C0F2000042F23C
:10024000FC31C0F2000147F23052FFF739FF42F2B1
:100250004040C0F2000042F2FC31C0F2000147F21F
:100260003052FFF72DFF0346FB71FB79184607F16B
:100270000807BD4680BD00BF80B500AF42F25040C8
:10028000C0F2000042F2FC31C0F2000143F69822B5
:10029000FFF716FF0346002B11D042F25840C0F280
:1002A000000042F2FC31C0F2000143F69822FFF751
:1002B00007FF0346002B02D04FF0010301E04FF08F
:1002C0000003184680BD00BF80B584B000AF7860E1
:1002D0004FF0000001F006F84FF0000001F022F8A6
:1002E000FFF776FF0346BB7342F26840C0F200009E
:1002F00042F2FC31C0F2000141F28832FFF7E0FE29
:100300000346002B27D042F29440C0F2000042F294
:10031000A041C0F2000141F28832FFF7D1FE03464E
:10032000002B18D042F2A440C0F2000042F2FC318F
:10033000C0F2000144F62062FFF7C2FE0346002B24
:1003400009D048F22823C1F6FF734FF001021A705A
:100350004FF001030DE0FFF78FFF0346FB734FF0F3
:10036000010000F0BFFF4FF0010000F0BBFF4FF0B5
:100370000003184607F11007BD4680BD80B582B066
:1003800000AF4FF00003FB714FF00003FB710BE077
:10039000FA7948F22813C1F6FF734FF0000199541F
:1003A000FB7903F10103FB71FB795BB2002BEFDA00
:1003B00048F22113C1F6FF734FF000021A7000F0EB
:1003C00031FB07F10807BD4680BD00BF80B582B094
:1003D00000AF00F001FB0346FB71FB79002B18D046
:1003E00048F22113C1F6FF731B781A4648F228130E
:1003F000C1F6FF73F979995448F22113C1F6FF73DE
:100400001B7803F10103DAB248F22113C1F6FF733E
:100410001A7007F10807BD4680BD00BF80B500AF68
:1004200000F028FD40F2CD50C0F2000000F01AFEAE
:1004300080BD00BF2DE9F04387B000AF7860F97050
:1004400069460E4697F803C0614601F1FF31F96035
:100450000CF0FF004FF000014FF0FF384FF00F0994
:1004600000EA080001EA09014FEA507E4FEAC1059F
:100470004EEA05054FEAC0044FF0FF304FF00F0180
:1004800004EA000405EA01050CF0FF004FF000014A
:100490004FF0FF344FF00F0500EA040001EA0501B8
:1004A0004FEA507E4FEAC1034EEA03034FEAC0020F
:1004B0004FF0FF304FF00F0102EA000203EA0103A0
:1004C000634603F1070303F107034FEAD3034FEA3F
:1004D000C303ADEB030D6B4603F107034FEAD303F0
:1004E0004FEAC3033B614FF0000000F099FD4FF469
:1004F0007A7000F0D3F94FF000033B750EE000F086
:1005000057FD0346FB75FB7D002B07D03B7D3A6909
:10051000F97DD1543B7D03F101033B753A7DFB78B6
:100520009A42ECD34FF000033B7509E03A7D7B68BB
:1005300013444FF000021A703B7D03F101033B7539
:100540003A7DFB789A42F1D34FF00003BB754FF030
:1005500000033B754FF000037B7526E03B7D3A6955
:10056000D35CFB75FB7D522B03D1BB7D03F10103F3
:10057000BB75BB7D002B0AD07A7D7B6813443A7D26
:1005800039698A5C1A707B7D03F101037B753A7DC2
:10059000FB789A4202D87B7D0E2B02D94FF00003E4
:1005A0000CE03B7D03F101033B75BB7D012BD5D9ED
:1005B0004FF0010000F034FD4FF00103B54618463E
:1005C00007F11C07BD46BDE8F08300BF80B582B0CF
:1005D00000AF00F0EDFC03467B7100F00FFD034619
:1005E000BB7100F0C1FC0346FB7107F10807BD4673
:1005F00080BD00BF80B5A2B000AFFFF70FFF00F0D5
:1006000035FB40F20170C0F2000000F09BFB00F0EF
:100610009FFDFFF743FD62B648F2AD23C1F6FF73BD
:100620004FF001021A704FF00003C7F884305FE00A
:1006300048F2AD23C1F6FF731B78002B29D048F296
:100640002823C1F6FF731B78002B02D1FFF77EFD34
:1006500048E048F22823C1F6FF731B78012B40D1F4
:1006600042F2C040C0F20000FFF72EFE0346002B0E
:100670000AD0FFF789FD48F22C20C1F6FF704FF039
:10068000800100F06BF82DE0FFF79CFDFFF77CFD8B
:1006900028E048F2AC23C1F6FF731B78002B21D071
:1006A00007F1040318464FF08001FFF7C3FE07F17E
:1006B000040207F1040348F22C20C1F6FF70114632
:1006C0001A464FF0800300F027F848F2AD23C1F638
:1006D000FF734FF001021A7041F2883000F0DEF82B
:1006E00000E000BFD7F8843003F10103C7F884307D
:1006F000D7F88430022B9BDD07F18807BD4680BD0B
:1007000080B500AF48F2AC23C1F6FF734FF0010291
:100710001A7000F0D1FA80BD80B586B000AFF860E5
:10072000B9607A60FB704FF03B03BB824FF01A0355
:100730003B8248F22C20C1F6FF70B9684FF01402DA
:1007400001F044FB48F2AD23C1F6FF734FF0010204
:100750001A7007F11807BD4680BD00BF80B485B090
:1007600000AF78600B46FB704FF00003FB7309E0AD
:10077000FA7B7B6813444FF000021A70FB7B03F195
:100780000103FB73FA7BFB789A42F1D348F2AD2365
:10079000C1F6FF734FF000021A7007F11407BD464F
:1007A00080BC704780B400AFFEE700BF054B1C78EB
:1007B00044F001041C70044B1A78D2B2034B1A7037
:1007C000FFF726FCE8460040F8460040BC760040B3
:1007D00080B582B000AF4EF60C53CEF2000340F26B
:1007E0000042C0F2FA521A604EF61453CEF20003E1
:1007F0004EF61452CEF20002126842F400721A60F1
:100800004FF000037B6019E079687B68032B07D801
:100810007A6840F20003C0F2000353F8223003E08C
:1008200040F2A573C0F2000348F20002C1F6FF7265
:1008300042F821307B6803F101037B607B682F2B3A
:10084000E2D947F2BC63C4F200031B78DAB248F283
:10085000AE23C1F6FF731A704EF60853CEF20003B2
:1008600048F20002C1F6FF721A6000F005FF48F27C
:100870000013C1F6FF734FF000021A6007F108077A
:10088000BD4680BD80B483B000AF0346FB7101BE9E
:1008900007F10C07BD4680BC704700BF80B582B031
:1008A00000AF78600BE048F21813C1F6FF731B68C5
:1008B000184601F07DF87B68A3F500437B607B68F8
:1008C000B3F5004FEFD848F21013C1F6FF731B6861
:1008D0007A6802FB03F3184601F06AF807F108078B
:1008E000BD4680BD80B500AF48F22213C1F6FF734C
:1008F0001B78002B08D100F00BF848F22213C1F648
:10090000FF734FF001021A7000F02AF880BD00BF9B
:1009100080B400AF46F28553C4F200034FF0720278
:100920001A7046F28643C4F200034FF020021A7098
:1009300046F22443C4F200034FF007021A7046F255
:100940003443C4F200034FF048021A7046F2824367
:10095000C4F200034FF000021A70BD4680BC70471D
:1009600080B582B000AF01F02BF80346FB7146F270
:100970009553C4F2000346F29552C4F20002127875
:10098000D2B242F02002D2B21A7046F29643C4F2BA
:10099000000346F29642C4F200021278D2B242F04C
:1009A0001002D2B21A7046F29243C4F2000346F229
:1009B0009242C4F200021278D2B242F01002D2B2D5
:1009C0001A7000F097F8FB79184600F0FDFF07F168
:1009D0000807BD4680BD00BF80B483B000AF4FF0B4
:1009E0000003BB7146F26643C4F200031B78FB713F
:1009F000FB7903F02003002B0DD046F24643C4F2EE
:100A000000031B78BB71FB7903F01E03002B02D09F
:100A10004FF00003BB71BB79184607F10C07BD46C8
:100A200080BC704780B582B000AF00F0C9FF0346BC
:100A3000FB7146F29643C4F2000346F29642C4F2BA
:100A400000021278D2B242F00102D2B21A7046F21B
:100A50009643C4F2000346F29642C4F200021278B2
:100A6000D2B202F0FE021A70FB79184600F0ACFF19
:100A700007F10807BD4680BD80B483B000AF0346D0
:100A8000FB7146F26243C4F200031B78DBB203F051
:100A90000403002BF5D146F24343C4F20003FA7974
:100AA0001A7007F10C07BD4680BC704780B584B052
:100AB00000AF78604FF00003FB8148F22213C1F6CB
:100AC000FF731B78002B11D00AE0FA897B6813446E
:100AD0001B781846FFF7D0FFFB8903F10103FB8168
:100AE000FA897B6813441B78002BEED107F11007BD
:100AF000BD4680BD80B400AF44F2A233C4F200030F
:100B000044F2A232C4F200021278D2B242F00102E0
:100B1000D2B21A7044F2B233C4F2000344F2B232D9
:100B2000C4F200021278D2B242F00102D2B21A70BC
:100B3000BD4680BC704700BF80B582B000AF786012
:100B400000F042F8786800F00BF84FF0070000F072
:100B50001BF800F02DF807F10807BD4680BD00BF67
:100B600080B485B000AF78604EF60853CEF2000333
:100B70001B68FB60FB6803F144037A681A6007F1A5
:100B80001407BD4680BC704780B483B000AF0346F5
:100B9000FB714EF20143CEF20003FA794FEA4212A2
:100BA000D2B21A7007F10C07BD4680BC704700BF77
:100BB00080B400AF4EF20013CEF200034FF00202F9
:100BC0001A60BD4680BC704780B400AF4EF28013FF
:100BD000CEF200034FF002021A60BD4680BC70479F
:100BE00080B582B000AF43F6FF40C2F6627000F0FD
:100BF0006FF843F6FF40C2F6627000F085F800F02F
:100C0000DFFE0346FB7146F29753C4F2000346F23F
:100C10009752C4F200021278D2B242F01002D2B25D
:100C20001A70FB79184600F0CFFE00F07DF84FF007
:100C3000010000F031F807F10807BD4680BD00BF94
:100C400080B400AF46F27453C4F2000346F274520B
:100C5000C4F200021278D2B26FEA42626FEA5262C4
:100C6000D2B21A70BD4680BC704700BF80B500AFDD
:100C700048F22413C1F6FF731B78002B08D1FFF74D
:100C8000AFFF48F22413C1F6FF734FF001021A7050
:100C9000FFF7D6FF80BD00BF80B483B000AF03462E
:100CA000FB7146F28753C4F20003FA791A7007F118
:100CB0000C07BD4680BC704780B400AF46F2675356
:100CC000C4F200031B78DBB21846BD4680BC7047F7
:100CD00080B483B000AF786046F22453C4F20003BE
:100CE0007A681A6007F10C07BD4680BC704700BFE8
:100CF00080B400AF46F24453C4F200031B681846A8
:100D0000BD4680BC704700BF80B483B000AF786040
:100D100046F20453C4F200037A681A6007F10C0724
:100D2000BD4680BC704700BF80B500AF01E0FFF753
:100D3000DFFFFFF7C1FF034603F00803002BF6D1E6
:100D400080BD00BF80B582B000AF786000F042F88F
:100D5000786800F00BF84FF0070000F01BF800F087
:100D60002DF807F10807BD4680BD00BF80B485B0EF
:100D700000AF78604EF60853CEF200031B68FB60AC
:100D8000FB6803F14C037A681A6007F11407BD464B
:100D900080BC704780B483B000AF0346FB714EF255
:100DA0000343CEF20003FA794FEA4212D2B21A702C
:100DB00007F10C07BD4680BC704700BF80B400AF90
:100DC0004EF20013CEF200034FF008021A60BD4647
:100DD00080BC704780B400AF4EF28013CEF20003A7
:100DE0004FF008021A60BD4680BC704780B485B0E1
:100DF00000AF0346FB7145F2C013C4F200031B7839
:100E0000DBB223F00403FB7345F2C013C4F200030A
:100E1000FA794FEA8202D2B202F00402F97B42EA86
:100E20000102D2B21A7007F11407BD4680BC7047A8
:100E300080B485B000AF0346FB7145F20013C4F2E5
:100E400000031B78DBB223F02003FB7345F2001391
:100E5000C4F20003FA794FEA4212D2B202F0200241
:100E6000F97B42EA0102D2B21A7007F11407BD46BB
:100E700080BC704780B500AF48F22513C1F6FF7300
:100E80001B78002B08D100F00BF848F22513C1F6AF
:100E9000FF734FF001021A7000F02AF880BD00BF06
:100EA00080B400AF46F28D43C4F200034FF07202EB
:100EB0001A7046F28E43C4F200034FF020021A70FB
:100EC00046F22143C4F200034FF007021A7046F2C3
:100ED0003143C4F200034FF048021A7046F28343D4
:100EE000C4F200034FF000021A70BD4680BC704788
:100EF00080B582B000AF00F063FD0346FB7146F29F
:100F00009D43C4F2000346F29D42C4F200021278EF
:100F1000D2B242F02002D2B21A7046F29E43C4F21C
:100F2000000346F29E42C4F200021278D2B242F0AE
:100F30001002D2B21A7046F29343C4F2000346F292
:100F40009342C4F200021278D2B242F01002D2B23E
:100F50001A7000F0DBF8FB79184600F035FD07F158
:100F60000807BD4680BD00BF80B483B000AF46F225
:100F70004E43C4F200031B78FB71FB79184607F15E
:100F80000C07BD4680BC704780B483B000AF46F20A
:100F90006E43C4F200031B78DBB203F07F03FB71E6
:100FA000FB79184607F10C07BD4680BC704700BFAF
:100FB00080B483B000AF4FF00003BB7146F26E43C4
:100FC000C4F200031B78FB71FB7903F02003002BB4
:100FD0000DD046F24E43C4F200031B78BB71FB797F
:100FE00003F01E03002B02D04FF00003BB71BB794E
:100FF000184607F10C07BD4680BC704798B500AF96
:10100000FFF7C2FF03464FEA03239CB2FFF7ACFF92
:101010000346224642EA03039BB29BB2184698BDA0
:1010200080B485B000AF0346FB7145F20013C4F2F3
:1010300000031B78DBB223F00203FB7345F20013BD
:10104000C4F20003FA794FEA4202D2B202F002027D
:10105000F97B42EA0102D2B21A7007F11407BD46C9
:1010600080BC704780B582B000AF786000F042F875
:10107000786800F00BF84FF0070000F01BF800F064
:101080002DF807F10807BD4680BD00BF80B485B0CC
:1010900000AF78604EF60853CEF200031B68FB6089
:1010A000FB6803F148037A681A6007F11407BD462C
:1010B00080BC704780B483B000AF0346FB714EF232
:1010C0000243CEF20003FA794FEA4212D2B21A700A
:1010D00007F10C07BD4680BC704700BF80B400AF6D
:1010E0004EF20013CEF200034FF004021A60BD4628
:1010F00080BC704780B400AF4EF28013CEF2000384
:101100004FF004021A60BD4680BC704780B400AF47
:1011100044F2A233C4F2000344F2A232C4F2000249
:101120001278D2B242F00202D2B21A7044F2B23352
:10113000C4F2000344F2B232C4F200021278D2B216
:1011400042F00202D2B21A70BD4680BC704700BFA6
:1011500080B500AF48F22713C1F6FF731B78002B50
:1011600008D100F00BF848F22713C1F6FF734FF0D7
:1011700001021A7000F00CF880BD00BF80B500AF0E
:101180004FF0020000F06EF800F04EF880BD00BF96
:1011900080B582B000AF44F20033C4F200031B7884
:1011A000DBB203F00203002B24D100F009FC03465C
:1011B000FB7144F20033C4F2000344F20032C4F283
:1011C00000021278D2B242F00202D2B21A7044F295
:1011D0008233C4F2000344F28232C4F20002127875
:1011E000D2B242F00402D2B21A70FB79184600F073
:1011F000EBFB15E000F0E4FB0346FB7144F28233A5
:10120000C4F2000344F28232C4F200021278D2B275
:1012100042F00402D2B21A70FB79184600F0D4FBF7
:1012200007F10807BD4680BD80B582B000AF00F071
:10123000C7FB0346FB7144F28233C4F2000344F25D
:101240008232C4F200021278D2B242F00802D2B264
:101250001A70FB79184600F0B7FB07F10807BD4686
:1012600080BD00BF80B582B000AF0346FB7144F281
:101270008233C4F200031B78DBB203F00403002BBB
:101280002CD1FB79022B15D0FB79032B12D0FB79E3
:10129000042B0FD0FB79052B0CD0FB79062B09D042
:1012A000FB79072B06D0FB79082B03D04FF0000009
:1012B000FFF7E8FA44F28133C4F2000344F28132CA
:1012C000C4F200021278D2B2114601F0F001FA79AC
:1012D00002F00F0241EA0202D2B21A7007F10807C7
:1012E000BD4680BD80B485B000AF0346FB7145F2BA
:1012F0000013C4F200031B78DBB223F00103FB737D
:1013000045F20013C4F20003FA7902F00102F97BFE
:1013100042EA0102D2B21A7007F11407BD4680BC3E
:10132000704700BF80B485B000AF0346FB7145F243
:101330000013C4F200031B78DBB223F00403FB7339
:1013400045F20013C4F20003FA794FEA8202D2B2E6
:1013500002F00402F97B42EA0102D2B21A7007F1EC
:101360001407BD4680BC704780B485B000AF78607C
:1013700039607B68BB604FF00003FB6009E0BA682E
:10138000FB6813444FF000021A70FB6803F101037D
:10139000FB60FA683B689A42F1D307F11407BD4637
:1013A00080BC704780B489B000AFF860B9607A60E3
:1013B000FB687B61BB68BB614FF00003FB610BE026
:1013C0007A69FB691344B969FA690A4412781A7098
:1013D000FB6903F10103FB61FA697B689A42EFD371
:1013E00007F12407BD4680BC704700BF80B582B0BE
:1013F00000AF7860396078684FF000013A6800F01B
:101400001BFC07F10807BD4680BD00BF80B584B056
:1014100000AFF860B9607A60F868B9687A6800F07F
:1014200043FB07F11007BD4680BD00BF80B487B005
:1014300000AF786039604FF00003FB604FF00003AD
:10144000BB602CE0BB684FEA83027B6813441B68D7
:101450003B613B69FB753B6923F0FF033B6117E090
:10146000FB684FEA43023B6813441B781A463B690A
:101470001344FA684FEA42013A680A4452781A70F3
:10148000FB6803F10103FB60FB7D03F1FF33FB7598
:10149000FB7D002BE4D1BB6803F10103BB60BB689B
:1014A0001E2BCFD907F11C07BD4680BC704700BF7B
:1014B00080B500AF44F28003C4F200034FF019027C
:1014C0001A8044F28203C4F200034FF018021A702B
:1014D00044F28403C4F200034FF49C721A8044F275
:1014E0008603C4F200034FF018021A7044F200336E
:1014F000C4F200034FF002021A7044F20003C4F277
:1015000000034FF008021A7044F20023C4F20003F3
:101510004FF003021A7044F2A163C4F2000340F2D8
:101520000812C4F600121278D2B21A7044F22223C2
:10153000C4F200034FF008021A8044F22023C4F2E0
:10154000000341F251021A8040F6B83000F030FA40
:1015500044F20403C4F200034FF003021A7044F291
:101560000503C4F200034FF001021A7044F20403B1
:10157000C4F200034FF000021A7044F20403C4F2F4
:1015800000034FF007021A7044F20603C4F200038E
:101590004FF000021A7044F20803C4F200034FF047
:1015A00048021A7044F20403C4F200034FF0000230
:1015B0001A7044F20103C4F200034FF002021A70E1
:1015C00044F2A233C4F2000344F2A232C4F2000295
:1015D0001278D2B242F00302D2B21A7080BD00BFBC
:1015E00080B400AF44F2AA33C4F200034FF4447253
:1015F0001A8045F62003C4F200034FF01E021A7051
:1016000045F62403C4F200034FF01E021A7045F69B
:101610002803C4F200034FF01E021A7045F62C0393
:10162000C4F200034FF01E021A7045F60013C4F214
:1016300000036FF03F021A7045F60313C4F2000373
:101640004FF00C021A7045F60813C4F200036FF055
:101650003F021A7045F60B13C4F200034FF00C0260
:101660001A7045F67603C4F200034FF044021A7074
:10167000BD4680BC704700BF80B586B000AF72B673
:1016800044F60003C4F200034FF000021A70FFF7A3
:101690000FFF44F60003C4F200036FF07F021A70DC
:1016A00047F21003C4F200034FF000021A7047F231
:1016B0002003C4F200034FF000021A7045F67C03C9
:1016C000C4F200034FF001021A7044F2E863C4F25E
:1016D000000344F2E862C4F200021278D2B242F08F
:1016E0000102D2B21A704FF00003FB702FE0FA78BB
:1016F00013464FEA430313444FEA43031A4642F2A8
:10170000D843C0F2000313447B607B681A78597891
:101710004FEA012141EA020299784FEA014141EA88
:101720000202DB784FEA036343EA02031A467B684E
:1017300019795B794FEA032343EA01039BB2104610
:101740001946FFF753FEFB7803F10103FB70FB78AA
:10175000072BCCD94FF00003FB7043E0FA78134617
:101760004FEA830313444FEA43031A4642F20853F5
:10177000C0F200031344BB60BB681A7859784FEA83
:10178000012141EA020299784FEA014141EA02024D
:10179000DB784FEA036343EA0203FB60BB681A7914
:1017A00059794FEA012141EA020299794FEA014150
:1017B00041EA0202DB794FEA036343EA02033B6139
:1017C000BB681A7A5B7A4FEA032343EA0203FB827F
:1017D000FB8AF86839691A46FFF718FEFB7803F1AF
:1017E0000103FB70FB78002BB8D04FF0904040F223
:1017F0007C01C4F60001FFF719FE45F20020C4F297
:10180000000040F6CC01C4F600014FF00702FFF7DC
:10181000C9FD45F20820C4F2000040F6D401C4F628
:1018200000014FF00702FFF7BDFD45F21020C4F2A2
:1018300000004FF00701FFF797FD45F21820C4F2B2
:1018400000004FF00701FFF78FFD45F22020C4F2A2
:1018500000004FF00701FFF787FD45F22820C4F292
:10186000000040F6DC01C4F600014FF00702FFF76C
:1018700099FD45F23020C4F200004FF00701FFF758
:1018800073FD45F26020C4F200004FF00601FFF73F
:101890006BFD45F27820C4F200004FF00701FFF71E
:1018A00063FD45F20303C4F2010345F20302C4F2EF
:1018B00001021278D2B242F00202D2B21A7045F29C
:1018C0001303C4F2010345F21302C4F201021278B9
:1018D000D2B242F00202D2B21A7044F2A033C4F281
:1018E000000344F2A032C4F200021278D2B242F0F5
:1018F0004002D2B21A7044F2C233C4F2000344F27E
:10190000C232C4F200021278D2B242F01002D2B255
:101910001A7045F20010C4F2000040F69C01C4F6B3
:1019200000014FF00A02FFF771FD45F2C010C4F24A
:10193000000040F6A801C4F600014FF00A02FFF7CC
:1019400031FD45F21010C4F2000040F6B401C4F6B7
:1019500000014FF00A02FFF759FD45F25010C4F2A2
:10196000000040F6C001C4F600014FF00A02FFF784
:101970004DFDFFF735FE44F2B030C4F2000044F2F2
:10198000A031C4F200014FF00C02FFF73FFD44F21A
:10199000B033C4F2000344F2B032C4F20002127851
:1019A000D2B202F0FD021A7007F11807BD4680BDE1
:1019B0000230800803D000BF01380046FCD17047D8
:1019C000EFF3108072B6704780F31088704700BF45
:1019D00010F0030FC9B210B410D0002A2FD0037832
:1019E0008B422AD0013A05E0002A28D00378013A38
:1019F0008B4222D0013010F0030FF5D1032A11D908
:101A000041EA012444EA0444036884EA0303A3F19D
:101A1000013C2CEA030313F0803F03D1043A043065
:101A2000032AF1D85AB103788B4206D0013A32B179
:101A300010F8013F013A8B42F9D110BC70470020E9
:101A4000FBE700BF032A30B405460C4625D941EA1E
:101A5000000313F0030F15D0287894F800C06045F8
:101A60001ED1013A002306E04078013391F801C00D
:101A7000013A604514D1E818E118002AF4D1002099
:101A800030BC704704680B689C4204D1043A0430AF
:101A90000431032AF6D805460C46002ADCD1EEE7CD
:101AA000CCEB0000ECE700BF032A2DE9F0070BD8D0
:101AB0003AB1002311F803C000F803C00133934288
:101AC000F8D1BDE8F007704782180C46034603E0E2
:101AD00014F8011C03F8011C03F003061946A44680
:101AE00001330134002EF3D11CF00304634608BF18
:101AF000C1EB020C68D06542C4F1040A0CEB050787
:101B000033464FEACA0A5CF805604FEAC408551A22
:101B100008E057F8044F264604FA0AF449EA040498
:101B2000CC5004335C18032D26FA08F9A5F10405FE
:101B30000CEB0306EDDC002302E0F15CE154013321
:101B400019199142F9D3BCE753F8404C41F8404C85
:101B500053F83C4C41F83C4C53F8384C41F8384C65
:101B600053F8344C41F8344C53F8304C41F8304C75
:101B700053F82C4C41F82C4C53F8284C41F8284C85
:101B800053F8244C41F8244C53F8204C41F8204C95
:101B900053F81C4C41F81C4C53F8184C41F8184CA5
:101BA00053F8144C41F8144C53F8104C41F8104CB5
:101BB00053F80C4C41F80C4C53F8084C41F8084CC5
:101BC00053F8044C41F8044C1C460D464033403158
:101BD000BCF13F0FACF1400CB6DC21462B46541B48
:101BE0000FE051F8105C43F8105C51F80C5C43F8BE
:101BF0000C5C51F8085C43F8085C51F8045C43F84D
:101C0000045C0F2C0D469C4601F1100103F11003FA
:101C1000A4F11004E5DCCCEB0201002303E0EC5856
:101C20004CF8034004335E19032903EB0C04A1F1C3
:101C30000401F4DC7FE700BF032AC9B230B407D83F
:101C400022B10023C15401339342FBD130BC704711
:101C500000EB020C034601E003F8011C03F003044F
:101C60001A460133002CF7D14FF00133C2EB0C04BC
:101C700003FB01F31FE042F8403C42F83C3C42F8D1
:101C8000383C42F8343C42F8303C42F82C3C42F8B4
:101C9000283C42F8243C42F8203C42F81C3C42F8E4
:101CA000183C42F8143C42F8103C42F80C3C42F814
:101CB000083C42F8043C154640323F2CA4F1400455
:101CC000D9DC2A46C5EB0C0407E042F8103C42F888
:101CD0000C3C42F8083C42F8043C154610320F2CEC
:101CE000A4F11004F1DC2A46C5EB0C0501E042F832
:101CF000043C14460432032DA5F10405F7DC01E091
:101D000004F8011B6445FBD3A0E700BFC9B230B49F
:101D100019B124E00378D3B1013010F0030FF9D1E9
:101D20000368A3F1013222EA030313F0803F08D1D4
:101D300050F8043FA3F1013222EA030313F0803F7D
:101D4000F6D003781BB110F8013F002BFBD130BC5B
:101D500070470378002B36D09942F8D0013010F04C
:101D6000030FF6D1036841EA0125A3F1013245EAE8
:101D7000054522EA030212F0803F1BD185EA0303E6
:101D8000A3F1013222EA030313F0803F03D011E0F4
:101D900012F0803F0ED150F8043FA3F1013485EAE0
:101DA000030224EA0303A2F1013C13F0803F2CEA72
:101DB0000202EDD003781BB905E010F8013F13B122
:101DC0009942FAD1C3E70020C1E700BF10F0030F2A
:101DD00070B418BF044611D103680446A3F1013C56
:101DE0002CEA030313F0803F08D154F8043FA3F119
:101DF000013C2CEA030313F0803FF6D023781BB19B
:101E000014F8013F002BFBD100234AB1CD5CE6184A
:101E1000E5542DB10133013A08BF7270002AF5D1A3
:101E200070BC704701232DE9F0071C4600254FF0D8
:101E3000FF3604EB050CA7198C450DD23F5C10F85A
:101E40000C80B8452FD2C6EB0C030124654604EB89
:101E5000050CA7198C45F1D34FF0010A0025544613
:101E60004FF0FF3704EB050C1360614504EB0708E6
:101E70000FD918F8008010F80C90C14524D9C7EB91
:101E80000C0A0124654604EB050C04EB07086145C8
:101E9000EFD80137701C874224BF53463846136081
:101EA000BDE8F007704706D001232E4605EB030C72
:101EB0001C466546CBE79C4204F1010418BFAC46C2
:101EC000C4D101246546C2E707D04FF0010A2F466E
:101ED00005EB0A0C54466546D5E7544504F1010468
:101EE00018BFAC46CED101246546CCE72DE9F04FB2
:101EF000ADF5846D81B006461046894603920DF516
:101F0000826219460C321C46FFF78CFF002307AA99
:101F10008046D4500433B3F5806FFAD164B1DDF854
:101F20000CC0621E002307A81CF80310013340F800
:101F30002120013A9C42F7D803984246DDF81C1450
:101F40004118FFF77FFD0546002840F08B80029482
:101F50008246029BC8F101020399671E05920AEBB3
:101F600003044A4608F1FF30414401900491B0183F
:101F70000021A21ADDF80CB0FFF72AFD0346002865
:101F800059D1002C57D0A21907A812F8012C50F8EB
:101F90002220002A5BD145452CBF2B464346BB423D
:101FA00013D203EB0A001BF803C032180BEB03013A
:101FB000305C844506D044E011F801CF12F8010FDF
:101FC00084453ED10133BB42F6D3454580F0B08015
:101FD0000199019B01EB0A021BF80110925D9142ED
:101FE00040F0A6800AEB08020499B218A14608E066
:101FF00011F8024C013912F802CC013A644504D1BF
:1020000003469D4203F1FF30F2D301354C469D4219
:1020100000F29380DDF81C54029AAA44551B224614
:10202000029BB01800210AEB0304A21AFFF7D0FCB0
:1020300003460028A5D0002009B00DF5806DBDE84D
:10204000F08F0599002522468A449A44E8E735B185
:10205000DDF81C148A4202D202981D46421A9244AC
:102060002246DDE70398C8EB04034A460027651EB5
:1020700008F1FF3A00EB080BA146434538BF434641
:10208000C8F1010101330191CDF81C3407EB0904BB
:10209000B0180021A21AFFF79BFC0028CBD1002C1E
:1020A000C9D0A31907AA13F8013C52F82330002B1A
:1020B00035D1A84514D207EB08039BF80020F1188E
:1020C000F35C9A4204BF5A46434606D02AE012F80F
:1020D00001CF11F8010F844525D10133AB42F6D36E
:1020E000BAF1FF3F534616D003980AEB0702925D00
:1020F00010F80A10914210D107EB08025946B218A5
:1021000007E011F802CC013912F8020C013A8445BB
:1021100003D1013BF5D2F0198EE7DDF81C34FF182E
:102120002246B3E74346019AD7192246FF18ADE786
:10213000434601359D427FF66DAF06EB0A007BE713
:102140002DE9F04F037887B006460D46002B00F0CE
:1021500004810A7892B101462C46012001E02278E0
:1021600082B1934214BF002000F001004B7801348B
:102170000131002BF3D1237823B10026304607B07C
:10218000BDE8F08F0028F9D1701C2978FFF7BEFD5B
:10219000641B012C14BF00230123002808BF43F057
:1021A000010307467BB93619B0428CBF4FF0010AD4
:1021B000C0EB060A1F2C08D951462A462346FFF7D2
:1021C00095FE0646DAE70646D8E7214605AA2846E0
:1021D000FFF728FE05996918804628464246FFF712
:1021E00031FC0646002858D108F1FF3205EB080300
:1021F0000192C346C8F1010281460392A8465246A5
:10220000029309EB0405B8180021AA1AFFF7E0FBB6
:102210000028B2D1002DB0D05E452CBF33465B46BE
:102220009C4213D903EB090018F803C03A1808EBD5
:102230000301385C844506D085E011F801CF12F81F
:10224000010F84457FD101339C42F6D8B34540F25B
:102250008780019B03EB090218F80310D25D9142BD
:102260007ED109EB0B020299BA18AA4608E011F8D0
:10227000025C013912F802CC013A654504D10346EB
:102280009E4203F1FF30F2D3554601369E4269D893
:10229000059E2A46B144A61BB3E7C8F10102C8EB6C
:1022A000040301920026524605EB080908F1FF3BA2
:1022B000AA46434538BF4346013305933519B8183C
:1022C0000021AA1AFFF784FB00287FF456AF002DE7
:1022D0003FF453AF444515D906EB080399F80020A5
:1022E000F918FB5C9A4212BF43464A46434606D061
:1022F00024E012F801CF11F8010F84451ED10133FB
:102300009C42F6D8BBF1FF3F5B4615D006EB0B02B3
:102310001AF80B10D25D91421BD106EB0802494618
:10232000BA1807E011F802CC013912F8020C013A90
:1023300084450ED1013BF5D2BE191FE7019A9619CB
:102340002A46F618BAE7039A002691442A46994489
:1023500057E7059B2A46F618B0E70C4601200AE726
:102360005B4692E707EB090608E700BF08B500F0F7
:1023700017F8074800B10068064901B10968002252
:10238000FEF738F9044B0BB1AFF30080FEE700BF56
:10239000000000000000000000000000FEE7000058
:1023A00070B542F2205642F22055C0F20006C0F24B
:1023B0000005761BB61006D0002455F824300134F1
:1023C0009847A642F9D842F2205542F22856C0F268
:1023D0000005C0F20006761B00F09CF8B61006D08F
:1023E000002455F8243001349847A642F9D870BD2E
:1023F0000000000041542B4353510D004F4B00008F
:1024000041542B435245473D310D00004154235365
:102410004346473D312C312C302C302C313230307A
:102420002C300D00415423434750414444523D3128
:102430000D00000041542353474143543F0D000019
:1024400041542353474143543D312C310D0000008A
:1024500041542353483D3100415423534741435491
:102460003D312C300000000041542353443D312CB9
:10247000302C35303030302C223134312E32313264
:102480002E3133362E323232222C302C302C310D7C
:10249000000000004154235353454E443D310D008C
:1024A0003E000000546869732069732073656E7480
:1024B0002066726F6D2050536F43211A0000000098
:1024C000546869732069732073656E742066726F37
:1024D0006D2050536F432100205100403000605167
:1024E00000401000F0510040100000000140000EBC
:1024F000800E0140800100140140000800400140AE
:10250000000A004C01400002000E01401C08004877
:1025100080000000F8B500BFF8BC08BC9E467047BC
:1025200081000000D1070000F8B500BFF8BC08BC6E
:102530009E4670476D00000000000000502500001E
:102540000881FF1F1800000090010000000000003B
:102550000000000000366E01C05D000018000000A1
:082560000000E02E0000000065
:04000003000007AD45
:00000001FF
