:1000000000800020390F0000310F0000310F000088
:1000100080B51448144B21E05C689968DD688C4217
:100020000CD0002205E0A6180832D6E9008941E983
:1000300002898C460831AA42F5D101E004EB050C97
:100040001C696146002204E008320026002741E9CD
:1000500002670831A242F7D1143301380028DBD1FE
:1000600012F0C2FD010000005435010048F2A863FF
:10007000C1F6FF731A780AB901201870704700BFE3
:1000800048F20810C1F6FF7008B503682BB140F2C2
:100090000003C0F2000303B1984708BD80B500AF6C
:1000A00003F07CFE4FF0000005F03EF94FF0000039
:1000B00004F03AF940F24540C0F2000004F0C0F804
:1000C00049F61413C1F6FF734FF000021A7080BD99
:1000D00080B58AB000AFF860B9607A604FF0000375
:1000E000FB754FF00003BB614FF06403FB617A685E
:1000F000FB69B2FBF3F33B6200F07CF9F86803F0B4
:1001000069FFBA6842F6C843C0F201039A421ED0A2
:100110004FF00003BB6116E049F61400C1F6FF7012
:10012000B9680CF093FD0346FB84FB8C002B03D0D5
:100130004FF00103FB750AE0F86901F041FCBB696F
:1001400003F10103BB61BA693B6A9A42E4D3FB7DC8
:10015000184607F12807BD4680BD00BF80B500AF37
:100160004FF0010004F0E0F84FF0010004F0BCF89B
:100170004FF0000004F0FAF84FF0010005F0D4F859
:100180004FF0000004F0D0F84FF4FA6001F018FCD2
:100190004FF0010004F0C8F842F2107001F010FCBA
:1001A00049F61413C1F6FF734FF001021A7049F6B5
:1001B0001413C1F6FF731B78184680BD80B500AFDD
:1001C0004FF0000004F0B0F840F6C41001F0F8FB66
:1001D0004FF0010004F0A8F841F2883001F0F0FB84
:1001E0004FF0000005F0A0F84FF0010004F0BEF859
:1001F0004FF0000004F098F84FF0000004F074F89D
:1002000049F61413C1F6FF734FF000021A7049F655
:100210001413C1F6FF731B78184680BD80B500AF7C
:1002200042F6CC40C0F2010042F6D841C0F20101D2
:1002300041F28832FFF74CFF0346002B2ED042F6E6
:10024000DC40C0F2010042F6EC41C0F2010142F292
:100250001072FFF73DFF0346002B18D142F6F04025
:10026000C0F2010042F6D841C0F2010147F230521B
:10027000FFF72EFF0346002B02D04FF0010315E0DD
:1002800042F60050C0F2010000F0D2FD0CE042F650
:100290002850C0F2010000F0CBFD05E042F65050BE
:1002A000C0F2010000F0C4FD4FF00003184680BD0D
:1002B00080B500AF42F67C50C0F2010042F6D84152
:1002C000C0F2010143F69822FFF702FF0346002B1C
:1002D00018D042F68450C0F2010042F6D841C0F274
:1002E000010143F69822FFF7F3FE0346002B02D0EC
:1002F0004FF001030EE042F69450C0F2010000F00E
:1003000097FD05E042F6BC50C0F2010000F090FD00
:100310004FF00003184680BD80B5C4B000AF07F1B0
:1003200004031860FFF77AFF0346002B5AD042F609
:10033000E050C0F2010042F6D841C0F2010141F2A2
:100340008832FFF7C5FE0346002B45D042F6086011
:10035000C0F2010042F61461C0F2010141F288329C
:10036000FFF7B6FE0346002B2AD007F10C0207F177
:100370000403104642F61861C0F201011A680CF03D
:10038000FDF907F10C03184642F6D841C0F201010D
:1003900044F62062FFF79CFE0346002B09D049F685
:1003A0001413C1F6FF734FF001021A704FF00103EE
:1003B0001AE042F61C60C0F2010000F039FD05E0D1
:1003C00042F65C60C0F2010000F032FDFFF770FF02
:1003D000034687F80F3105E042F69860C0F201004D
:1003E00000F026FD4FF00003184607F58877BD465C
:1003F00080BD00BF80B582B000AF4FF00003FB713D
:100400004FF00003FB710BE0FA7949F61403C1F6D3
:10041000FF734FF000019954FB7903F10103FB7165
:10042000FB795BB2002BEFDA48F2A963C1F6FF73E8
:100430004FF000021A7003F089FD07F10807BD466E
:1004400080BD00BF80B582B000AF03F059FD034608
:10045000FB71FB79002B18D048F2A963C1F6FF733A
:100460001B781A4649F61403C1F6FF73F9799954BB
:1004700048F2A963C1F6FF731B7803F10103DAB2F6
:1004800048F2A963C1F6FF731A7007F10807BD4669
:1004900080BD00BF80B500AF04F07EF980BD00BF15
:1004A00080B500AF4FF0000003F082FF4FF0010372
:1004B000184680BD80B500AF4FF0010003F078FF13
:1004C0004FF00003184680BD90B589B000AF78604A
:1004D0007B684FF000021A727B685D4A1A607B6885
:1004E0005B4A5A6040F25D60C0F2000003F082FF98
:1004F000FFF7D6FF40F2DC5001F062FA03F08EFF06
:10050000FFF7D8FF4FF000037B614FF00003BB61A2
:100510004FF000033B612AE03A6949F61813C1F62F
:10052000FF739B5CFB77BB69072B07DDFB7F0D2B04
:1005300004D17B684FF001021A7222E0BB69072BDD
:100540000ADD7B6907F120021344FA7F03F8142CBB
:100550007B6903F101037B61FB7F522B03D1BB69F4
:1005600003F10103BB613B6903F101033B613C699A
:1005700049F61810C1F6FF700CF0AAF903469C4228
:10058000CAD37B681B7A002B3DD007F10C031846B9
:100590000AF072FF02460B46104619460AF022FC8A
:1005A00002467B685A607B685B684FF00002144625
:1005B000184628490AF030FF0346002B02D04FF0BE
:1005C00001031C46E3B2002B3AD07B685B681846F7
:1005D00021490AF019FE034618460AF027FF034690
:1005E00018460AF009FD02467B685A6042F6E06050
:1005F000C0F2010000F01CFC49F61810C1F6FF70B3
:1006000000F016FC1DE0BB69072B0CDC42F62470E1
:10061000C0F2010000F00CFC49F61810C1F6FF70A2
:1006200000F006FC0DE042F65070C0F2010000F050
:10063000FFFB49F61810C1F6FF7000F0F9FB00E06F
:1006400000BF7B681B7A184607F12407BD4690BDA2
:10065000003C1CC6003C1C460000204180B582B016
:1006600000AF04F04BF90346FB71FB79002B27D058
:1006700048F2AA63C1F6FF731B781A4649F61813AD
:10068000C1F6FF73F979995448F2AA63C1F6FF7372
:100690001B7803F10103DAB248F2AA63C1F6FF73D3
:1006A0001A7048F2AA63C1F6FF731B785BB2002B85
:1006B00006DA48F2AA63C1F6FF734FF000021A701F
:1006C00007F10807BD4680BD80B500AF03F044FDCB
:1006D00004F002FA04F0DEFC03F0C0FF06F0A2F919
:1006E00080BD00BF80B500AF03F056FD04F014FAE2
:1006F00004F0F0FC03F0B8FF06F09AF980BD00BFEB
:1007000080B500AFFFF7E0FF01F0F8FA4FF000000E
:100710004FF0000101F07AFE01F098FCFFF7E2FFD4
:1007200080BD00BF80B500AF03F08EFF80BD00BF6D
:100730002DE9F04F93B00AAF62B603F0BBFE40F272
:100740002570C0F2000004F09BFD06F0EFFBFFF700
:10075000A5FCFFF79FFE00F0D5F949F61A23C1F674
:10076000FF734FF000021A7049F61823C1F6FF73A9
:100770004FF000021A7049F61923C1F6FF734FF0CB
:1007800000021A7040F66920C0F2000005F032FB4A
:100790004FF0020006F052F902E000BF00E000BF97
:1007A00005F03EFB49F61823C1F6FF731B78002BBA
:1007B00000F0D18049F61823C1F6FF734FF0000214
:1007C0001A7049F61923C1F6FF731B78002B05D068
:1007D00042F66C70C0F2010000F02AFB48F2B860EB
:1007E000C1F6FF7000F0B0F948F2AC60C1F6FF70DE
:1007F000FFF76AFE07F11803184606F039F9BB7EC9
:100800009A467B7E1E463B7E3B60FB7E7B607B7F09
:10081000BB60FB8B9B4648F2AC63C1F6FF735B6821
:1008200018460AF08BFA8046894648F2B863C1F64A
:10083000FF735B6818460AF081FA04460D4648F2D9
:10084000B863C1F6FF731B6818460AF077FA0246D0
:100850000B463968009179680191B9680291CDF829
:100860000CB0CDE90489CDE90645CDE9082349F668
:100870009810C1F6FF7042F6A071C0F20101524615
:1008800033460BF07BFF49F69810C1F6FF700CF071
:100890001FF8034642F6CC70C0F2010042F6D87150
:1008A000C0F2010149F69812C1F6FF7200F0F0F8AB
:1008B000BB7E9A467B7E1E463B7EFB60FB7E3B6199
:1008C0007B7F7B61FB8B9B4648F2AC63C1F6FF7379
:1008D0005B6818460AF032FA8046894648F2B863E7
:1008E000C1F6FF735B6818460AF028FA04460D4605
:1008F00048F2B863C1F6FF731B6818460AF01EFA87
:1009000002460B46F96800913969019179690291B3
:10091000CDF80CB0CDE90489CDE90645CDE9082331
:1009200049F69810C1F6FF7042F6DC71C0F2010181
:10093000524633460BF022FF49F61A23C1F6FF73E5
:100940004FF001021A7049F61923C1F6FF734FF0F8
:1009500000021A7024E749F61A23C1F6FF731B78C8
:10096000002B59D049F61413C1F6FF731B78002BE6
:1009700002D1FFF7F3FB13E749F61413C1F6FF7337
:100980001B78012B7FF409AF49F61923C1F6FF73D9
:100990001B78012B28D849F61923C1F6FF731B7861
:1009A00003F10103DAB249F61923C1F6FF731A7095
:1009B00049F69810C1F6FF70FFF7AEFC0346002B16
:1009C0003FF4EDAEFFF7FAFB49F69810C1F6FF7061
:1009D0004FF0800100F024F849F61923C1F6FF73A7
:1009E0004FF000021A70DBE6FFF7E8FB49F69810BB
:1009F000C1F6FF704FF0800100F012F849F619239C
:100A0000C1F6FF734FF000021A7043F20800C0F203
:100A1000010000F00DFAC3E6FFF772FEC0E600BF6A
:100A200080B485B000AF78600B46FB704FF00003D8
:100A3000FB7309E0FA7B7B6813444FF000021A70E5
:100A4000FB7B03F10103FB73FA7BFB789A42F1D342
:100A500049F61A23C1F6FF734FF000021A7007F12E
:100A60001407BD4680BC704780B483B000AF034616
:100A7000FB71FB79012B06D149F61823C1F6FF73F0
:100A80004FF001021A7007F10C07BD4680BC704799
:100A900080B588B000AFF860B9607A603B604FF015
:100AA000000003F059FE07F110034FF00000194653
:100AB0004FF0090206F0EEFB0346002B1AD0F8684F
:100AC000B96806F085FB0346FB61FB69002B09D181
:100AD00006F0B2F906F02AFAF868B96806F078FB71
:100AE0000346FB61F86979683A6806F01FFDF8690A
:100AF00006F0A8FA4FF0010003F02EFE07F12007E0
:100B0000BD4680BD80B500AF04F05AF880BD00BF7F
:100B100080B500AF4FF0010004F016FC4FF000006C
:100B200004F04AFB4FF00103184680BD80B500AFCA
:100B30004FF0010004F040FB4FF0000004F004FC13
:100B40004FF00003184680BD90B58FB000AF7860BD
:100B50004FF00103FB624FF001033B634FF00003D2
:100B600087F8373043F25802C0F2010207F10C0354
:100B700092E80300186003F1040319807B684FF0CA
:100B800000021A727B687D4A1A607B687B4A5A6051
:100B900000F026F940F68150C0F2000004F0ACFAF3
:100BA000FFF7B6FF4FF0640000F00AFF07F10C03F7
:100BB00018464FF0060104F06BF94FF47A7000F01C
:100BC000FFFE04F0ADFAFFF7B1FF4FF00003BB6288
:100BD0004FF000037B623AE07A6A49F61C23C1F6C3
:100BE000FF739B5C87F8363097F836302F2B03D98C
:100BF00097F83630392B03D997F836302E2B0CD195
:100C0000BB6A07F13802134497F8362003F81C2C0E
:100C1000BB6A03F10103BB6215E097F836302B2B5A
:100C200010D097F836302D2B03D14FF0FF33FB62F5
:100C300009E097F83630432B05D14FF0010387F8D0
:100C4000373007E000BF7B6A03F101037B627B6AF8
:100C50007F2BC1D94FF00003BB623CE07A6A49F6B2
:100C60001C23C1F6FF739B5C87F8363097F836304B
:100C70002F2B03D997F83630392B03D997F8363014
:100C80002E2B0CD1BB6A07F13802134497F836209B
:100C900003F8242CBB6A03F10103BB6217E097F849
:100CA00036302B2B12D097F836302D2B03D14FF046
:100CB000FF333B630BE097F836306D2B07D197F885
:100CC000373003F001037A6813720EE000BF7B6ACD
:100CD00003F101037B627C6A49F61C20C1F6FF70B8
:100CE0000BF0F6FD03469C42B8D37B681B7A002BC1
:100CF00030D0F86A0AF080F9044607F11C03184660
:100D00000AF0BAFB02460B46104619460AF06AF88A
:100D10000346204619460AF0C3F903461A467B6883
:100D20001A60386B0AF068F9044607F11403184694
:100D30000AF0A2FB02460B46104619460AF052F88A
:100D40000346204619460AF0ABF903461A467B686B
:100D50005A600BE043F22400C0F2010000F068F892
:100D600049F61C20C1F6FF7000F062F87B681B7A20
:100D7000184607F13C07BD4690BD00BF003C1CC6AD
:100D800080B582B000AF03F0D7FF0346FB71FB795B
:100D9000002B20D048F2C463C1F6FF731B785BB20E
:100DA000002B18DB48F2C463C1F6FF731B781A46A8
:100DB00049F61C23C1F6FF73F979995448F2C463CC
:100DC000C1F6FF731B7803F10103DAB248F2C46382
:100DD000C1F6FF731A7007F10807BD4680BD00BF5A
:100DE00080B582B000AF4FF00003FB714FF00003FD
:100DF000FB710BE0FA7949F61C23C1F6FF734FF043
:100E000000019954FB7903F10103FB71FB795BB29B
:100E1000002BEFDA48F2C463C1F6FF734FF0000213
:100E20001A7003F0AFFF07F10807BD4680BD00BF91
:100E300080B58AB006AF786048F20C13C1F6FF7334
:100E40001B78002B35D007F10803184605F010FE7B
:100E5000BB7A1A467B7A397A8E46F97A8C46797B48
:100E60000846F989CDF800E0CDF804C0029003915E
:100E70007968049149F69C20C1F6FF7043F2600145
:100E8000C0F201010BF07AFC49F69C20C1F6FF701C
:100E90000BF01EFD034643F27C00C0F2010043F25A
:100EA0008C01C0F2010149F69C22C1F6FF7200F0EC
:100EB00005F807F11007BD4680BD00BF80B588B0BA
:100EC00000AFF860B9607A603B604FF0000003F05B
:100ED00043FC07F110034FF0000019464FF00902E0
:100EE00006F0D8F90346002B1AD0F868B96806F066
:100EF0006FF90346FB61FB69002B09D105F09CFFEC
:100F000006F014F8F868B96806F062F90346FB6168
:100F1000F86979683A6806F009FBF86906F092F812
:100F20004FF0010003F018FC07F12007BD4680BD1B
:100F300080B400AFFEE700BF054B1C7844F001040D
:100F40001C70044B1A78D2B2034B1A70FFF760F88A
:100F5000E8460040F8460040BC76004080B582B0CC
:100F600000AF4EF60C53CEF2000340F20042C0F246
:100F7000FA521A604EF61453CEF200034EF6145293
:100F8000CEF20002126842F400721A604FF00003C1
:100F90007B6019E079687B68032B07D87A6840F298
:100FA0000003C0F2000353F8223003E040F631732F
:100FB000C0F2000348F20002C1F6FF7242F821308D
:100FC0007B6803F101037B607B682F2BE2D947F23A
:100FD000BC63C4F200031B78DAB249F69C33C1F655
:100FE000FF731A704EF60853CEF2000348F2000267
:100FF000C1F6FF721A6004F069FB48F20013C1F6F3
:10100000FF734FF000021A6007F10807BD4680BD6C
:1010100080B584B000AF0346FB714FF00003BB60A6
:1010200044F22023C4F2000344F22022C4F200025E
:101030001278D2B242F00102D2B21A70FB79002BC0
:101040004DD044F20033C4F200031B787B7344F2AA
:101050008033C4F200031B78BB7344F28233C4F2C2
:1010600000031B78FB734FF0180001F0A5FA4FF056
:101070001003BB6019E044F22523C4F200031B787F
:10108000DBB203F00103DBB2002B0ED044F22523C8
:10109000C4F200031B78DBB203F00103DBB2002BC8
:1010A00003D04FF00003BB6006E04FF0010001F0F9
:1010B00045FA0346012BDED17B7B03F00403002BB2
:1010C00001D100F0DBFB44F28033C4F20003BA7BB1
:1010D0001A7044F28233C4F20003FA7B1A70BB68C0
:1010E000184607F11007BD4680BD00BF80B400AFB1
:1010F00044F22023C4F2000344F22022C4F200028E
:101100001278D2B202F0FE021A70BD4680BC70475F
:1011100080B584B000AF0346FB7144F2A033C4F243
:10112000000344F2A032C4F200021278D2B242F0BC
:101130001002D2B21A70FB79002B4DD044F200336A
:10114000C4F200031B78FB73FB7B03F00403002B4A
:1011500001D100F07FFB44F28233C4F200031B781C
:101160007B7344F28033C4F200031B78BB7344F2F8
:101170008233C4F2000344F28232C4F200021278D5
:10118000D2B202F0FC021A7044F28033C4F20003BF
:101190004FF000021A7044F28233C4F200034FF0A1
:1011A00001021A704FF0010001F0C8F90346002B4C
:1011B000F8D0FB7B03F00403002B01D100F05EFBB1
:1011C00044F28033C4F20003BA7B1A7044F28233D3
:1011D000C4F200037A7B1A7007F11007BD4680BD88
:1011E00080B400AF44F2A033C4F2000344F2A03252
:1011F000C4F200021278D2B202F0EF021A70BD46B9
:1012000080BC704780B483B000AF4FF00003FB7127
:1012100044F29333C4F200031B78DBB203F00703FC
:10122000002B0AD144F2A533C4F200031B78DBB2D1
:1012300003F00103DBB2002B14D144F29333C4F268
:1012400000031B78DBB203F00703012B0DD144F23E
:10125000B533C4F200031B78DBB203F00103DBB249
:10126000002B02D04FF00103FB71FB79184607F108
:101270000C07BD4680BC704780B584B000AF034604
:10128000FB71FFF7BFFF0346FB73FB7B012B0CD108
:1012900046F20903C4F2000346F20902C4F2000256
:1012A0001278D2B202F0FD021A70FB79082B6ED8C8
:1012B00001A252F823F000BFDD120000F512000079
:1012C0000D130000251300003D1300008F130000D4
:1012D0008F1300008F1300005513000044F2A16328
:1012E000C4F2000340F20812C4F600121278D2B21F
:1012F0001A7052E044F2A163C4F2000340F20912F2
:10130000C4F600121278D2B21A7046E044F2A16319
:10131000C4F2000340F20A12C4F600121278D2B2EC
:101320001A703AE044F2A163C4F2000340F20B12D7
:10133000C4F600121278D2B21A702EE044F2A16301
:10134000C4F2000340F28312C4F600121278D2B243
:101350001A7022E044F2A163C4F2000340F20F12BB
:10136000C4F600121278D2B21A70FB7B012B13D193
:1013700046F20903C4F2000346F20902C4F2000275
:101380001278D2B242F00202D2B21A7005E04FF0E7
:10139000000000F009FB00E000BF07F11007BD46A8
:1013A00080BD00BF80B584B000AF0346FB7144F23E
:1013B0000023C4F200031B78DBB203F00703BB7306
:1013C000FB79082B01D0FB7901E04FF00303FB739D
:1013D000BB7B042B20D801A252F823F0F1130000AC
:1013E000F91300000114000009140000111400009A
:1013F0004FF00203BB7313E04FF00103BB730FE028
:101400004FF00303BB730BE04FF00003BB7307E027
:101410004FF00403BB7303E04FF0000000F0C4FA88
:10142000FA7BBB7B9A4203D3FB791846FFF724FF74
:10143000FB79082B77D801A252F823F06114000041
:1014400083140000A5140000C1140000E314000080
:1014500027150000271500002715000005150000BE
:1014600044F20023C4F2000344F20022C4F200025A
:101470001278D2B202F0B80242F00302D2B21A706D
:1014800055E044F20023C4F2000344F20022C4F207
:1014900000021278D2B202F0B80242F00102D2B2D7
:1014A0001A7044E044F20023C4F2000344F2002224
:1014B000C4F200021278D2B202F0B8021A7036E01A
:1014C00044F20023C4F2000344F20022C4F20002FA
:1014D0001278D2B202F0B80242F00202D2B21A700E
:1014E00025E044F20023C4F2000344F20022C4F2D7
:1014F00000021278D2B202F0B80242F00402D2B274
:101500001A7014E044F20023C4F2000344F20022F3
:10151000C4F200021278D2B202F0B80242F04202E3
:10152000D2B21A7003E04FF0000000F03DFAFB79F0
:10153000082B02D100F06CF801E000F07DF8FA7B96
:10154000BB7B9A4203D2FB791846FFF795FE07F161
:101550001007BD4680BD00BF80B582B000AF034616
:10156000FB71FB79012B20D0022B02D0002B39D04C
:1015700046E044F20003C4F2000344F20002C4F265
:1015800000021278D2B202F0BF021A7044F20023B5
:10159000C4F2000344F20022C4F200021278D2B274
:1015A00042F02002D2B21A702EE044F20003C4F2DC
:1015B000000344F20002C4F200021278D2B242F0F8
:1015C0004002D2B21A7044F20023C4F2000344F283
:1015D0000022C4F200021278D2B242F02002D2B24B
:1015E0001A7011E044F20023C4F2000344F2002216
:1015F000C4F200021278D2B202F0DF021A7003E0E5
:101600004FF0000000F0D0F907F10807BD4680BD9B
:1016100080B400AF44F20023C4F2000344F200227D
:10162000C4F200021278D2B242F01002D2B21A70A2
:10163000BD4680BC704700BF80B400AF44F20023B9
:10164000C4F2000344F20022C4F200021278D2B2C3
:1016500002F0EF021A70BD4680BC704780B485B0BE
:1016600000AF0346FB7144F20403C4F200031B788D
:10167000FB73FB7B002B06D144F20403C4F200038E
:101680004FF003021A7044F20503C4F2000344F25F
:101690000502C4F200021278D2B2114601F0FC0138
:1016A000FA7902F0030241EA0202D2B21A70FB7B1D
:1016B000002B06D144F20403C4F200034FF00002F1
:1016C0001A7007F11407BD4680BC704780B483B020
:1016D00000AF0346FB7144F20403C4F20003FA793D
:1016E0001A7007F10C07BD4680BC704780B483B008
:1016F00000AF0346FB8044F21403C4F2000344F23B
:101700001402C4F200021278D2B202F0F0021A708F
:1017100044F21003C4F200034FF000021A7044F2C6
:101720000803C4F2000344F20802C4F20002127873
:10173000D2B26FEA42626FEA5262D2B21A7044F2D7
:101740000203C4F20003FA88D2B21A7044F203030F
:10175000C4F20003FA884FEA122292B2D2B21A708F
:1017600044F20103C4F2000344F20102C4F2000295
:101770001278D2B242F00102D2B21A7007F10C070D
:10178000BD4680BC704700BF80B584B000AF034643
:10179000FB8004F089F90346FB7344F20703C4F2AB
:1017A00000031B78DBB24FEA03239AB244F206032C
:1017B000C4F200031B78DBB242EA0303BB81FB885F
:1017C000002B02D0BB89002B38D144F20403C4F2B1
:1017D00000031B78FB72FB7A062B03D84FF007003F
:1017E000FFF774FFFB88002B12D144F20803C4F208
:1017F000000344F20802C4F200021278D2B242F0AE
:101800004002D2B21A70FB881846FFF76FFF10E053
:10181000FB881846FFF76AFF44F20803C4F200038E
:1018200044F20802C4F200021278D2B202F0BF02FF
:101830001A70FB7A1846FFF749FF03E0FB88184649
:10184000FFF754FFFB7B184604F032F907F110074D
:10185000BD4680BD80B400AF44F20033C4F2000343
:1018600044F20032C4F200021278D2B242F0040212
:10187000D2B21A70BD4680BC704700BF80B400AFC2
:1018800044F20033C4F2000344F20032C4F2000216
:101890001278D2B202F0FB021A70BD4680BC7047CB
:1018A00080B586B000AF0346FB714FF000033B618B
:1018B000FB79822B38BF8223DBB2FB7344F2102307
:1018C000C4F2000344F21022C4F200021278D2B231
:1018D00042F00102D2B21A70FB79002B4BD044F2D5
:1018E0000033C4F200031B787B7544F28033C4F2EA
:1018F00000031B78BB7544F28233C4F200031B78EB
:10190000FB754FF0180000F057FE4FF010033B61DD
:101910001AE04FF00403BB730CE04FF0010000F03D
:101920000DFE0346012BF8D1BB7BDBB203F1FF3385
:10193000DBB2BB73BB7BDBB2002BEED1FB7BDBB23C
:1019400003F1FF33DBB2FB73FB7BDBB2002BE0D197
:101950007B7D03F00403002B01D1FFF78FFF44F2DE
:101960008033C4F20003BA7D1A7044F28233C4F2A9
:101970000003FA7D1A703B69184607F11807BD4647
:1019800080BD00BF80B400AF44F21023C4F2000356
:1019900044F21022C4F200021278D2B202F0FE0227
:1019A0001A70BD4680BC704780B483B000AF034658
:1019B000FB7101BE07F10C07BD4680BC704700BF3C
:1019C00080B582B000AF78600BE048F21C13C1F61E
:1019D000FF731B68184604F05FF87B68A3F50043AB
:1019E0007B607B68B3F5004FEFD848F21413C1F663
:1019F000FF731B687A6802FB03F3184604F04CF887
:101A000007F10807BD4680BD80B582B000AF034630
:101A1000FB80FA8848F21813C1F6FF731B7803FBAA
:101A200002F3184604F038F807F10807BD4680BDF8
:101A300080B582B000AF02460B46FA71BB714EF220
:101A40008013CEF200034FF001021A6044F2F463F7
:101A5000C4F20003B97901F00F0144F2F462C4F258
:101A600000021278D2B202F0F00241EA0202D2B2CF
:101A70001A7044F2F563C4F2000344F2F562C4F252
:101A800000021278D2B242F00102D2B21A704FF0C4
:101A90000100FFF7B9FF44F2F863C4F200031B78BA
:101AA0004EF28023CEF200034FF001021A604EF294
:101AB0000013CEF200034FF001021A6007F108078D
:101AC000BD4680BD80B582B000AF02460B46FA71BC
:101AD000BB714EF28013CEF200034FF001021A6088
:101AE00044F2F463C4F20003BA794FEA0212D1B2AD
:101AF00044F2F462C4F200021278D2B202F00F0291
:101B000041EA0202D2B21A7044F2F563C4F2000351
:101B100044F2F562C4F200021278D2B242F002023C
:101B2000D2B21A704FF00100FFF76EFF44F2F86373
:101B3000C4F200031B784EF28023CEF200034FF074
:101B400001021A604EF20013CEF200034FF00102C0
:101B50001A6007F10807BD4680BD00BF80B400AF22
:101B600044F2F563C4F2000344F2F562C4F20002E9
:101B70001278D2B202F0FE021A7044F2F863C4F294
:101B800000031B78DBB203F00703002BF5D1BD4641
:101B900080BC704780B400AF44F2F563C4F2000328
:101BA00044F2F562C4F200021278D2B202F0FD02F1
:101BB0001A7044F2F863C4F200031B78DBB203F03E
:101BC0000703002BF5D1BD4680BC704780B500AF40
:101BD0004EF28013CEF200034FF001021A6044F27D
:101BE000F563C4F2000344F2F562C4F20002127815
:101BF000D2B242F00402D2B21A704FF00100FFF7E5
:101C000003FF44F2F863C4F200031B784EF2802312
:101C1000CEF200034FF001021A604EF20013CEF232
:101C200000034FF001021A6080BD00BF80B400AF16
:101C300044F2F563C4F2000344F2F562C4F2000218
:101C40001278D2B202F0FB021A70BD4680BC704717
:101C500080B584B000AF03463960FB714EF608537F
:101C6000CEF200031B68FB60FB791F2B03D94FF0FA
:101C70000000FFF799FEFB7903F01F0303F1100347
:101C80004FEA8302FB6813441B68BB60FB7903F0D7
:101C90001F0303F110034FEA8302FB6813443A6801
:101CA0001A60BB68184607F11007BD4680BD00BF2B
:101CB00080B582B000AF02460B46FA71BB71BB79AA
:101CC000072B03D94FF00000FFF76EFEFB791F2BA7
:101CD00003D94FF00000FFF767FEFB7903F01F0305
:101CE00003F1604303F56443BA794FEA4212D2B27A
:101CF0001A7007F10807BD4680BD00BF80B500AF70
:101D000044F2A133C4F200031B78DBB21A4602F09E
:101D10000F0248F27073C1F6FF731A7044F2A233D7
:101D2000C4F200031B78DAB248F27073C1F6FF7395
:101D30005A7044F2A133C4F2000344F2A132C4F257
:101D400000021278D2B202F0F0021A7044F2A2330A
:101D5000C4F200031B7844F2A233C4F200034FF034
:101D600000021A7044F60003C4F200031B78DBB2D1
:101D70001A4602F0C00248F27073C1F6FF735A713E
:101D80004FF0370003F098FE44F20023C4F2000342
:101D90001B78DBB21A4602F0070248F27073C1F6F4
:101DA000FF73DA7044F20023C4F200031B78DBB245
:101DB0001A4602F0400248F27073C1F6FF731A71BE
:101DC00044F20023C4F200031B78DBB203F01003DB
:101DD000002B07D048F27073C1F6FF734FF0010279
:101DE0005A7206E048F27073C1F6FF734FF00002BA
:101DF0005A724FF00200FFF7D5FA44F2A033C4F252
:101E000000031B78DBB203F01003002B07D048F26D
:101E10007073C1F6FF734FF001029A710AE048F245
:101E20007073C1F6FF734FF000029A714FF000001B
:101E3000FFF76EF944F20023C4F200031B78DBB213
:101E400003F02003002B18D044F20003C4F2000377
:101E50001B78DBB203F04003002B02D14FF00202EB
:101E600001E04FF0010248F27073C1F6FF73DA71BE
:101E70004FF00000FFF770FB06E048F27073C1F608
:101E8000FF734FF00002DA7144F20003C4F2000362
:101E90001B78DBB21A4602F0300248F27073C1F6CA
:101EA000FF731A7248F27073C1F6FF731B7A002B2E
:101EB0000CD044F20003C4F2000344F20002C4F266
:101EC00000021278D2B202F0CF021A7044F200235C
:101ED000C4F200031B78DBB203F01003002B01D027
:101EE000FFF7AAFB44F20403C4F200031B78DAB242
:101EF00048F27073C1F6FF739A7248F27073C1F6BC
:101F0000FF739B7A002B03D04FF00000FFF7DEFB3E
:101F100044F20503C4F200031B78DBB21A4602F058
:101F2000030248F27073C1F6FF739A7048F270733F
:101F3000C1F6FF739B78002B03D04FF00000FFF732
:101F40008DFB44F20703C4F200031B78DBB24FEAB7
:101F500003239AB244F20603C4F200031B78DBB2F7
:101F600042EA03039AB248F27073C1F6FF739A8192
:101F700048F27073C1F6FF739B89002B03D04FF0BA
:101F80000000FFF701FC44F20023C4F200031B78B9
:101F9000DBB203F0070243F29003C0F201039B5C43
:101FA000184603F089FD44F22023C4F200031B7895
:101FB000DBB203F00103DBB2002B09D048F27073EF
:101FC000C1F6FF734FF001029A73FFF78FF806E036
:101FD00048F27073C1F6FF734FF000029A7344F237
:101FE0001023C4F200031B78DBB203F00103DBB261
:101FF000002B09D048F27073C1F6FF734FF0010255
:10200000DA73FFF7BFFC06E048F27073C1F6FF73A6
:102010004FF00002DA7344F20B03C4F200031B78A2
:10202000DBB203F00403002B07D048F27073C1F653
:10203000FF734FF001021A7406E048F27073C1F6A4
:10204000FF734FF000021A7480BD00BF80B582B0EC
:1020500000AF43F29802C0F201023B4692E803004F
:10206000186003F10403198003F102034FEA1142DF
:102070001A7048F27073C1F6FF731B7C012B26D1D6
:1020800044F20023C4F200031B78DBB203F0070222
:1020900043F29003C0F201039B5C1A4613464FEAD9
:1020A000830313444FEA0312C3EB0203184603F001
:1020B000F3FC44F20B03C4F2000344F20B02C4F23B
:1020C00000021278D2B242F00402D2B21A7048F280
:1020D0007073C1F6FF73DB7B012B1AD14FF0000048
:1020E000FFF7DEFB44F20023C4F200031B78DBB2EF
:1020F00003F0070243F29003C0F201039B5C1A460F
:102100004FF6D033C0F2010303FB02F3184603F08D
:10211000C3FC4FF0370003F0CFFC48F27073C1F6F8
:10212000FF739B78022B06D048F27073C1F6FF73E1
:102130009B78032B1CD144F20403C4F200031B78E8
:10214000DAB248F27073C1F6FF739B7A9A4207D0F5
:1021500048F27073C1F6FF739B7A1846FFF7B6FA20
:1021600048F27073C1F6FF739B781846FFF776FA52
:1021700048F27073C1F6FF731B7903F04003002B24
:1021800010D048F27073C1F6FF73DB7807F10802D4
:10219000134413F8083C032B04D14FF00800FFF759
:1021A00001F931E048F27073C1F6FF73DB7807F193
:1021B0000802134413F8083C1846FFF7F3F848F2F6
:1021C0007073C1F6FF731B7903F04003002B0ED030
:1021D00044F20023C4F2000344F20022C4F20002DD
:1021E0001278D2B242F04002D2B21A700CE044F23D
:1021F0000023C4F2000344F20022C4F20002127869
:10220000D2B202F0BF021A7048F27073C1F6FF73C7
:102210009B79012B0DD144F2A033C4F200031B784B
:10222000DBB203F01003002B03D14FF00000FEF7E8
:102230006FFF48F27073C1F6FF739B79002B0BD1CF
:1022400044F2A033C4F200031B78DBB203F01003A6
:10225000002B01D0FEF7C4FF48F27073C1F6FF7384
:10226000DB791846FFF778F948F27073C1F6FF730F
:102270005B7A012B01D1FFF7CBF948F27073C1F6FD
:10228000FF731B7A1A4644F20003C4F200031B7862
:10229000DBB203F030039A4219D044F20003C4F2D7
:1022A000000344F20002C4F200021278D2B2D2B2A9
:1022B00002F0CF0248F27071C1F6FF71097A084648
:1022C0001146024641EA0202D2B2D2B21A7048F274
:1022D0007073C1F6FF739B7B012B17D14FF0000089
:1022E000FEF796FE44F20023C4F200031B78DBB233
:1022F00003F0070243F29003C0F201039B5C4FF02E
:10230000FA0202FB03F3184603F0C6FB48F27073AF
:10231000C1F6FF739B78002B06D048F27073C1F6AC
:10232000FF739B78012B1CD144F20403C4F2000319
:102330001B78DAB248F27073C1F6FF739B7A9A4247
:1023400007D048F27073C1F6FF739B7A1846FFF707
:10235000BDF948F27073C1F6FF739B781846FFF71A
:102360007DF948F27073C1F6FF739B891A4644F2F7
:102370000703C4F200031B78DBB24FEA03239BB2CE
:10238000194644F20603C4F200031B78DBB241EAAB
:1023900003039A4207D048F27073C1F6FF739B891A
:1023A0001846FFF7F1F944F60003C4F2000344F6BF
:1023B0000002C4F200021278D2B2D2B202F03F029E
:1023C00048F27071C1F6FF7149790846114602461C
:1023D00041EA0202D2B2D2B21A7044F2A133C4F27C
:1023E000000348F27072C1F6FF7212781A7044F25C
:1023F000A233C4F2000348F27072C1F6FF72527841
:102400001A7007F10807BD4680BD00BF80B584B0D3
:1024100000AF02460B46FA71BB8003F045FB034652
:10242000FB73FB79002B03D04FF00000FFF7BCFAE1
:10243000BB88002B03D04FF00000FFF7B5FA00F087
:1024400097F944F20023C4F200031B78DBB203F0D7
:102450000703002B08D148F2C863C1F6FF734FF0A1
:10246000010283F8A42023E048F2C863C1F6FF7399
:102470004FF0000283F8A42044F20023C4F20003CA
:102480001B78DBB21A4602F0070248F2C863C1F6B5
:10249000FF7383F8A32044F20023C4F2000344F244
:1024A0000022C4F200021278D2B202F0F8021A70CE
:1024B00044F29333C4F2000344F29332C4F20002B4
:1024C0001278D2B202F0F80242F00302D2B21A70CD
:1024D00044F29333C4F200031B7800BF00BF30BF47
:1024E00048F2C863C1F6FF7393F8A430012B1AD0E9
:1024F00044F20023C4F2000344F20022C4F20002BA
:102500001278D2B2D2B202F0F80248F2C861C1F633
:10251000FF7191F8A31008461146024641EA0202F3
:10252000D2B2D2B21A7000F0BBF9FB7B184603F0AE
:10253000BFFA07F11007BD4680BD00BF80B584B06B
:1025400000AF0346FB7103F0AFFA0346BB7344F2DE
:102550009033C4F200031B78DAB248F28273C1F6FA
:10256000FF731B7842EA0303DAB248F28273C1F6C2
:10257000FF731A7048F28273C1F6FF731B78FB7306
:10258000FB796FEA0303DAB248F28273C1F6FF7394
:102590001B7802EA0303DAB248F28273C1F6FF73D2
:1025A0001A70BB7B184603F083FAFB7B184607F1D1
:1025B0001007BD4680BD00BF80B582B000AF0346A6
:1025C000FB7144F28233C4F2000344F28232C4F25B
:1025D00000021278D2B202F0FD021A70FFF73AF947
:1025E00044F28233C4F200031B78DBB203F0010330
:1025F000DBB2002B2AD044F28033C4F200031B78F4
:10260000DBB2FA799A423FD044F28233C4F200033B
:1026100044F28232C4F200021278D2B202F0FE0218
:102620001A7044F28033C4F20003FA791A7044F24B
:102630008233C4F2000344F28232C4F20002127800
:10264000D2B242F00102D2B21A701EE044F28033DC
:10265000C4F200031B78DBB2FA799A4205D044F247
:102660008033C4F20003FA791A7044F28233C4F260
:10267000000344F28232C4F200021278D2B242F075
:102680000102D2B21A7000E000BF07F10807BD4690
:1026900080BD00BF80B500AF0E4844F20051C4F2C7
:1026A00000014FF0380209F053FA0B4B184644F280
:1026B0006051C4F200014FF0080209F049FA074BDB
:1026C000184644F27851C4F200014FF0080209F0B4
:1026D0003FFA80BD1A87FF1F5287FF1F5A87FF1FCF
:1026E00080B500AF44F20050C4F200004FF000018A
:1026F0004FF0380209F050FB44F26050C4F2000081
:102700004FF000014FF0080209F046FB44F2785008
:10271000C4F200004FF000014FF0080209F03CFB4A
:1027200080BD00BF80B500AF44F20050C4F200008D
:102730000C494FF0380209F00BFA0B4B44F2605091
:10274000C4F2000019464FF0080209F001FA074BE5
:1027500044F27850C4F2000019464FF0080209F024
:10276000F7F980BD1A87FF1F5287FF1F5A87FF1F87
:1027700080B500AF44F28233C4F200031B78DAB2B2
:1027800048F2C863C1F6FF7383F8512044F28233E4
:10279000C4F2000344F28232C4F200021278D2B2D0
:1027A00002F0CC021A7044F28333C4F2000344F204
:1027B0008332C4F200021278D2B26FEA42626FEA48
:1027C0005262D2B21A7044F28333C4F2000344F26C
:1027D0008332C4F200021278D2B202F07F021A7081
:1027E000FFF758FFFFF77CFF44F2F563C4F20003E4
:1027F0001B78DBB21A4602F0100248F2C863C1F639
:10280000FF7383F89A2044F2F763C4F200031B7845
:10281000DBB21A4602F0080248F2C863C1F6FF7341
:1028200083F89B2044F2F563C4F2000344F2F5629E
:10283000C4F200021278D2B202F0EF021A7044F22F
:10284000F763C4F2000344F2F762C4F200021278A4
:10285000D2B202F0F7021A7001F0D8F944F28463A0
:10286000C4F200031B78DBB21A4602F00F0248F2F2
:10287000C863C1F6FF735A7044F28463C4F2000364
:1028800044F28462C4F200021278D2B202F0F00282
:1028900042F00802D2B21A7000F054F880BD00BFB6
:1028A00080B500AF44F28233C4F2000348F2C8623C
:1028B000C1F6FF7292F851201A70FFF733FF44F20D
:1028C000F563C4F2000344F2F562C4F20002127828
:1028D000D1B248F2C862C1F6FF7292F89A2041EA7A
:1028E0000202D2B21A7044F2F763C4F2000344F257
:1028F000F762C4F200021278D1B248F2C862C1F69F
:10290000FF7292F89B2041EA0202D2B21A7001F0E3
:1029100007FA44F28463C4F2000348F2C862C1F6C5
:10292000FF72517844F28462C4F200021278D2B28B
:1029300002F0F00241EA0202D2B21A7000F0EEFD9B
:1029400080BD00BF80B400AF45F6C023C4F20003D1
:102950001B78DAB248F2C863C1F6FF739A7745F67E
:10296000C223C4F200031B78DAB248F2C863C1F68E
:10297000FF73DA7745F6C323C4F200031B78DAB29B
:1029800048F2C863C1F6FF7383F8202045F6C423DC
:10299000C4F200031B78DAB248F2C863C1F6FF73D1
:1029A00083F8212045F6C623C4F200031B78DAB26F
:1029B00048F2C863C1F6FF7383F8222045F6C823A6
:1029C000C4F200031B78DAB248F2C863C1F6FF73A1
:1029D00083F8232045F6CA23C4F200031B78DAB239
:1029E00048F2C863C1F6FF7383F8242045F6CB2371
:1029F000C4F200031B78DAB248F2C863C1F6FF7371
:102A000083F8252045F6CC23C4F200031B78DAB204
:102A100048F2C863C1F6FF7383F8262045F6CE233B
:102A2000C4F200031B78DAB248F2C863C1F6FF7340
:102A300083F8272045F6D023C4F200031B78DAB2CE
:102A400048F2C863C1F6FF7383F8282045F6D22305
:102A5000C4F200031B78DAB248F2C863C1F6FF7310
:102A600083F8292045F6D323C4F200031B78DAB299
:102A700048F2C863C1F6FF7383F82A2045F6D423D1
:102A8000C4F200031B78DAB248F2C863C1F6FF73E0
:102A900083F82B2045F6D623C4F200031B78DAB264
:102AA00048F2C863C1F6FF7383F82C2045F6D8239B
:102AB000C4F200031B78DAB248F2C863C1F6FF73B0
:102AC00083F82D2045F6DA23C4F200031B78DAB22E
:102AD00048F2C863C1F6FF7383F82E2045F6DB2366
:102AE000C4F200031B78DAB248F2C863C1F6FF7380
:102AF00083F82F2045F6DC23C4F200031B78DAB2FA
:102B000048F2C863C1F6FF7383F8302045F6DE2330
:102B1000C4F200031B78DAB248F2C863C1F6FF734F
:102B200083F8312045F6C023C4F200034FF00002C1
:102B30001A7045F6C223C4F200034FF000021A7067
:102B400045F6C323C4F200034FF000021A7045F6A5
:102B5000C423C4F200034FF000021A7045F6C623E6
:102B6000C4F200034FF000021A7045F6C823C4F205
:102B700000034FF000021A7045F6CA23C4F20003A6
:102B80004FF000021A7045F6CB23C4F200034FF059
:102B900000021A7045F6CC23C4F200034FF0000285
:102BA0001A7045F6CE23C4F200034FF000021A70EB
:102BB00045F6D023C4F200034FF000021A7045F628
:102BC000D223C4F200034FF000021A7045F6D3235B
:102BD000C4F200034FF000021A7045F6D423C4F289
:102BE00000034FF000021A7045F6D623C4F200032A
:102BF0004FF000021A7045F6D823C4F200034FF0DC
:102C000000021A7045F6DA23C4F200034FF0000206
:102C10001A7045F6DB23C4F200034FF000021A706D
:102C200045F6DC23C4F200034FF000021A7045F6AB
:102C3000DE23C4F200034FF000021A7045F6802331
:102C4000C4F200031B78DAB248F2C863C1F6FF731E
:102C500083F8322045F68223C4F200031B78DAB2EF
:102C600048F2C863C1F6FF7383F8332045F6832327
:102C7000C4F200031B78DAB248F2C863C1F6FF73EE
:102C800083F8342045F68423C4F200031B78DAB2BB
:102C900048F2C863C1F6FF7383F8352045F68823F0
:102CA000C4F200031B78DAB248F2C863C1F6FF73BE
:102CB00083F8362045F68A23C4F200031B78DAB283
:102CC00048F2C863C1F6FF7383F8372045F68B23BB
:102CD000C4F200031B78DAB248F2C863C1F6FF738E
:102CE00083F8382045F68C23C4F200031B78DAB24F
:102CF00048F2C863C1F6FF7383F8392045F6902384
:102D0000C4F200031B78DAB248F2C863C1F6FF735D
:102D100083F83A2045F69223C4F200031B78DAB216
:102D200048F2C863C1F6FF7383F83B2045F693234E
:102D3000C4F200031B78DAB248F2C863C1F6FF732D
:102D400083F83C2045F69423C4F200031B78DAB2E2
:102D500048F2C863C1F6FF7383F83D2045F6982317
:102D6000C4F200031B78DAB248F2C863C1F6FF73FD
:102D700083F83E2045F69A23C4F200031B78DAB2AA
:102D800048F2C863C1F6FF7383F83F2045F69B23E2
:102D9000C4F200031B78DAB248F2C863C1F6FF73CD
:102DA00083F8402045F69C23C4F200031B78DAB276
:102DB00048F2C863C1F6FF7383F8412045F68023CB
:102DC000C4F200034FF000021A7045F68223C4F2E9
:102DD00000034FF000021A7045F68323C4F200038B
:102DE0004FF000021A7045F68423C4F200034FF03E
:102DF00000021A7045F68823C4F200034FF0000267
:102E00001A7045F68A23C4F200034FF000021A70CC
:102E100045F68B23C4F200034FF000021A7045F60A
:102E20008C23C4F200034FF000021A7045F6902381
:102E3000C4F200034FF000021A7045F69223C4F268
:102E400000034FF000021A7045F69323C4F200030A
:102E50004FF000021A7045F69423C4F200034FF0BD
:102E600000021A7045F69823C4F200034FF00002E6
:102E70001A7045F69A23C4F200034FF000021A704C
:102E800045F69B23C4F200034FF000021A7045F68A
:102E90009C23C4F200034FF000021A7045F6003381
:102EA000C4F200031B78DAB248F2C863C1F6FF73BC
:102EB00083F8422045F60233C4F200031B78DAB2ED
:102EC00048F2C863C1F6FF7383F8432045F6033325
:102ED000C4F200031B78DAB248F2C863C1F6FF738C
:102EE00083F8442045F60433C4F200031B78DAB2B9
:102EF00048F2C863C1F6FF7383F8452045F60633F0
:102F0000C4F200031B78DAB248F2C863C1F6FF735B
:102F100083F8462045F60033C4F200034FF0000268
:102F20001A7045F60233C4F200034FF000021A7023
:102F300045F60333C4F200034FF000021A7045F661
:102F40000433C4F200034FF000021A7045F6063352
:102F5000C4F200034FF000021A7045F62033C4F2A9
:102F600000031B78DAB248F2C863C1F6FF7383F836
:102F7000472045F62233C4F200031B78DAB248F248
:102F8000C863C1F6FF7383F8482045F62333C4F2C3
:102F900000031B78DAB248F2C863C1F6FF7383F806
:102FA000492045F62433C4F200031B78DAB248F214
:102FB000C863C1F6FF7383F84A2045F62633C4F28E
:102FC00000031B78DAB248F2C863C1F6FF7383F8D6
:102FD0004B2045F62833C4F200031B78DAB248F2DE
:102FE000C863C1F6FF7383F84C2045F62A33C4F258
:102FF00000031B78DAB248F2C863C1F6FF7383F8A6
:103000004D2045F62B33C4F200031B78DAB248F2A8
:10301000C863C1F6FF7383F84E2045F62C33C4F223
:1030200000031B78DAB248F2C863C1F6FF7383F875
:103030004F2045F62E33C4F200031B78DAB248F273
:10304000C863C1F6FF7383F8502045F62033C4F2FD
:1030500000034FF000021A7045F62233C4F2000359
:103060004FF000021A7045F62333C4F200034FF00C
:1030700000021A7045F62433C4F200034FF0000238
:103080001A7045F62633C4F200034FF000021A709E
:1030900045F62833C4F200034FF000021A7045F6DB
:1030A0002A33C4F200034FF000021A7045F62B33A6
:1030B000C4F200034FF000021A7045F62C33C4F23C
:1030C00000034FF000021A7045F62E33C4F20003DD
:1030D0004FF000021A7045F60023C4F200031B787B
:1030E000DAB248F2C863C1F6FF739A7045F602235C
:1030F000C4F200031B78DAB248F2C863C1F6FF736A
:10310000DA7045F60323C4F200031B78DAB248F202
:10311000C863C1F6FF731A7145F60423C4F20003B5
:103120001B78DAB248F2C863C1F6FF735A7145F6EC
:103130000623C4F200031B78DAB248F2C863C1F672
:10314000FF739A7145F60823C4F200031B78DAB2C4
:1031500048F2C863C1F6FF73DA7145F60A23C4F278
:1031600000031B78DAB248F2C863C1F6FF731A7223
:1031700045F61023C4F200031B78DAB248F2C863A4
:10318000C1F6FF735A7245F61223C4F200031B788E
:10319000DAB248F2C863C1F6FF739A7245F6132398
:1031A000C4F200031B78DAB248F2C863C1F6FF73B9
:1031B000DA7245F61423C4F200031B78DAB248F23F
:1031C000C863C1F6FF731A7345F61623C4F20003F1
:1031D0001B78DAB248F2C863C1F6FF735A7345F63A
:1031E0001823C4F200031B78DAB248F2C863C1F6B0
:1031F000FF739A7345F61A23C4F200031B78DAB200
:1032000048F2C863C1F6FF73DA7345F62023C4F2AF
:1032100000031B78DAB248F2C863C1F6FF731A7470
:1032200045F62223C4F200031B78DAB248F2C863E1
:10323000C1F6FF735A7445F62323C4F200031B78CA
:10324000DAB248F2C863C1F6FF739A7445F62423D4
:10325000C4F200031B78DAB248F2C863C1F6FF7308
:10326000DA7445F62623C4F200031B78DAB248F27A
:10327000C863C1F6FF731A7545F62823C4F200032C
:103280001B78DAB248F2C863C1F6FF735A7545F687
:103290002A23C4F200031B78DAB248F2C863C1F6ED
:1032A000FF739A7545F63023C4F200031B78DAB237
:1032B00048F2C863C1F6FF73DA7545F63223C4F2EB
:1032C00000031B78DAB248F2C863C1F6FF731A76BE
:1032D00045F63323C4F200031B78DAB248F2C86320
:1032E000C1F6FF735A7645F63423C4F200031B7807
:1032F000DAB248F2C863C1F6FF739A7645F6362310
:10330000C4F200031B78DAB248F2C863C1F6FF7357
:10331000DA7645F63823C4F200031B78DAB248F2B5
:10332000C863C1F6FF731A7745F63A23C4F2000367
:103330001B78DAB248F2C863C1F6FF735A7745F6D4
:103340000023C4F200034FF000021A7045F6022376
:10335000C4F200034FF000021A7045F60323C4F2D2
:1033600000034FF000021A7045F60423C4F2000374
:103370004FF000021A7045F60623C4F200034FF026
:1033800000021A7045F60823C4F200034FF0000251
:103390001A7045F60A23C4F200034FF000021A70B7
:1033A00045F61023C4F200034FF000021A7045F6F0
:1033B0001223C4F200034FF000021A7045F61323E3
:1033C000C4F200034FF000021A7045F61423C4F251
:1033D00000034FF000021A7045F61623C4F20003F2
:1033E0004FF000021A7045F61823C4F200034FF0A4
:1033F00000021A7045F61A23C4F200034FF00002CF
:103400001A7045F62023C4F200034FF000021A7030
:1034100045F62223C4F200034FF000021A7045F66D
:103420002323C4F200034FF000021A7045F6242350
:10343000C4F200034FF000021A7045F62623C4F2CE
:1034400000034FF000021A7045F62823C4F200036F
:103450004FF000021A7045F62A23C4F200034FF021
:1034600000021A7045F63023C4F200034FF0000248
:103470001A7045F63223C4F200034FF000021A70AE
:1034800045F63323C4F200034FF000021A7045F6EC
:103490003423C4F200034FF000021A7045F63623BD
:1034A000C4F200034FF000021A7045F63823C4F24C
:1034B00000034FF000021A7045F63A23C4F20003ED
:1034C0004FF000021A7044F22233C4F200031B785A
:1034D000DBB203F00803002B15D048F2C863C1F635
:1034E000FF734FF0010283F8A52044F22233C4F2A7
:1034F000000344F22232C4F200021278D2B202F087
:10350000F7021A7007E048F2C863C1F6FF734FF084
:10351000000283F8A520BD4680BC704780B400AF90
:1035200045F6C023C4F2000348F2C862C1F6FF7238
:10353000927F1A7045F6C223C4F2000348F2C862B3
:10354000C1F6FF72D27F1A7045F6C323C4F200039E
:1035500048F2C862C1F6FF7292F820201A7045F650
:10356000C423C4F2000348F2C862C1F6FF7292F8A5
:1035700021201A7045F6C623C4F2000348F2C8623F
:10358000C1F6FF7292F822201A7045F6C823C4F2E1
:10359000000348F2C862C1F6FF7292F823201A7045
:1035A00045F6CA23C4F2000348F2C862C1F6FF72AE
:1035B00092F824201A7045F6CB23C4F2000348F297
:1035C000C862C1F6FF7292F825201A7045F6CC2326
:1035D000C4F2000348F2C862C1F6FF7292F82620D6
:1035E0001A7045F6CE23C4F2000348F2C862C1F651
:1035F000FF7292F827201A7045F6D023C4F2000318
:1036000048F2C862C1F6FF7292F828201A7045F697
:10361000D223C4F2000348F2C862C1F6FF7292F8E6
:1036200029201A7045F6D323C4F2000348F2C86279
:10363000C1F6FF7292F82A201A7045F6D423C4F21C
:10364000000348F2C862C1F6FF7292F82B201A708C
:1036500045F6D623C4F2000348F2C862C1F6FF72F1
:1036600092F82C201A7045F6D823C4F2000348F2D1
:10367000C862C1F6FF7292F82D201A7045F6DA235F
:10368000C4F2000348F2C862C1F6FF7292F82E201D
:103690001A7045F6DB23C4F2000348F2C862C1F693
:1036A000FF7292F82F201A7045F6DC23C4F2000353
:1036B00048F2C862C1F6FF7292F830201A7045F6DF
:1036C000DE23C4F2000348F2C862C1F6FF7292F82A
:1036D00031201A7045F68023C4F2000348F2C86214
:1036E000C1F6FF7292F832201A7045F68223C4F2B6
:1036F000000348F2C862C1F6FF7292F833201A70D4
:1037000045F68323C4F2000348F2C862C1F6FF7293
:1037100092F834201A7045F68423C4F2000348F26C
:10372000C862C1F6FF7292F835201A7045F68823F8
:10373000C4F2000348F2C862C1F6FF7292F8362064
:103740001A7045F68A23C4F2000348F2C862C1F633
:10375000FF7292F837201A7045F68B23C4F20003EB
:1037600048F2C862C1F6FF7292F838201A7045F626
:103770008C23C4F2000348F2C862C1F6FF7292F8CB
:1037800039201A7045F69023C4F2000348F2C8624B
:10379000C1F6FF7292F83A201A7045F69223C4F2ED
:1037A000000348F2C862C1F6FF7292F83B201A701B
:1037B00045F69323C4F2000348F2C862C1F6FF72D3
:1037C00092F83C201A7045F69423C4F2000348F2A4
:1037D000C862C1F6FF7292F83D201A7045F6982330
:1037E000C4F2000348F2C862C1F6FF7292F83E20AC
:1037F0001A7045F69A23C4F2000348F2C862C1F673
:10380000FF7292F83F201A7045F69B23C4F2000322
:1038100048F2C862C1F6FF7292F840201A7045F66D
:103820009C23C4F2000348F2C862C1F6FF7292F80A
:1038300041201A7045F60033C4F2000348F2C86212
:10384000C1F6FF7292F842201A7045F60233C4F2B4
:10385000000348F2C862C1F6FF7292F843201A7062
:1038600045F60333C4F2000348F2C862C1F6FF72A2
:1038700092F844201A7045F60433C4F2000348F26B
:10388000C862C1F6FF7292F845201A7045F60633F9
:10389000C4F2000348F2C862C1F6FF7292F84620F3
:1038A0001A7045F62033C4F2000348F2C862C1F62C
:1038B000FF7292F847201A7045F62233C4F20003D3
:1038C00048F2C862C1F6FF7292F848201A7045F6B5
:1038D0002333C4F2000348F2C862C1F6FF7292F8C3
:1038E00049201A7045F62433C4F2000348F2C86236
:1038F000C1F6FF7292F84A201A7045F62633C4F2D8
:10390000000348F2C862C1F6FF7292F84B201A70A9
:1039100045F62833C4F2000348F2C862C1F6FF72CC
:1039200092F84C201A7045F62A33C4F2000348F28C
:10393000C862C1F6FF7292F84D201A7045F62B331B
:10394000C4F2000348F2C862C1F6FF7292F84E203A
:103950001A7045F62C33C4F2000348F2C862C1F66F
:10396000FF7292F84F201A7045F62E33C4F200030E
:1039700048F2C862C1F6FF7292F850201A7045F6FC
:103980000023C4F2000348F2C862C1F6FF729278C5
:103990001A7045F60223C4F2000348F2C862C1F669
:1039A000FF72D2781A7045F60323C4F2000348F27E
:1039B000C862C1F6FF7212791A7045F60423C4F288
:1039C000000348F2C862C1F6FF7252791A7045F6D8
:1039D0000623C4F2000348F2C862C1F6FF7292796E
:1039E0001A7045F60823C4F2000348F2C862C1F613
:1039F000FF72D2791A7045F60A23C4F2000348F226
:103A0000C862C1F6FF72127A1A7045F61023C4F22A
:103A1000000348F2C862C1F6FF72527A1A7045F686
:103A20001223C4F2000348F2C862C1F6FF72927A10
:103A30001A7045F61323C4F2000348F2C862C1F6B7
:103A4000FF72D27A1A7045F61423C4F2000348F2CA
:103A5000C862C1F6FF72127B1A7045F61623C4F2D3
:103A6000000348F2C862C1F6FF72527B1A7045F635
:103A70001823C4F2000348F2C862C1F6FF72927BB9
:103A80001A7045F61A23C4F2000348F2C862C1F660
:103A9000FF72D27B1A7045F62023C4F2000348F26D
:103AA000C862C1F6FF72127C1A7045F62223C4F276
:103AB000000348F2C862C1F6FF72527C1A7045F6E4
:103AC0002323C4F2000348F2C862C1F6FF72927C5D
:103AD0001A7045F62423C4F2000348F2C862C1F606
:103AE000FF72D27C1A7045F62623C4F2000348F216
:103AF000C862C1F6FF72127D1A7045F62823C4F21F
:103B0000000348F2C862C1F6FF72527D1A7045F692
:103B10002A23C4F2000348F2C862C1F6FF72927D04
:103B20001A7045F63023C4F2000348F2C862C1F6A9
:103B3000FF72D27D1A7045F63223C4F2000348F2B8
:103B4000C862C1F6FF72127E1A7045F63323C4F2C2
:103B5000000348F2C862C1F6FF72527E1A7045F641
:103B60003423C4F2000348F2C862C1F6FF72927EA9
:103B70001A7045F63623C4F2000348F2C862C1F653
:103B8000FF72D27E1A7045F63823C4F2000348F261
:103B9000C862C1F6FF72127F1A7045F63A23C4F26A
:103BA000000348F2C862C1F6FF72527F1A7044F2F5
:103BB0008463C4F2000348F2C862C1F6FF72517810
:103BC00044F28462C4F200021278D2B202F0F0022F
:103BD00041EA0202D2B21A7048F2C863C1F6FF731A
:103BE00093F8A530012B0DD144F22233C4F2000327
:103BF00044F22232C4F200021278D2B242F0080239
:103C0000D2B21A70BD4680BC704700BF80B500AF0D
:103C100044F2F563C4F200031B78DBB203F0010346
:103C2000DBB2002B21D048F2C863C1F6FF734FF01E
:103C3000010283F89C2044F2F463C4F200031B7871
:103C4000DBB21A4602F00F0248F2C863C1F6FF73F6
:103C500083F89D2048F2C863C1F6FF734FF000025D
:103C600083F8A120FDF77AFF07E048F2C863C1F6A8
:103C7000FF734FF0000283F89C2044F2F563C4F216
:103C800000031B78DBB203F00203002B21D048F2C3
:103C9000C863C1F6FF734FF0010283F89E2044F21F
:103CA000F463C4F200031B78DBB24FEA1313DAB2F9
:103CB00048F2C863C1F6FF7383F89F2048F2C863D7
:103CC000C1F6FF734FF0000283F8A220FDF762FFF8
:103CD00007E048F2C863C1F6FF734FF0000283F8B3
:103CE0009E2044F2F563C4F200031B78DBB203F0BC
:103CF0000403002B0AD048F2C863C1F6FF734FF0EB
:103D0000010283F8A020FDF791FF07E048F2C863A5
:103D1000C1F6FF734FF0000283F8A02080BD00BF02
:103D200080B500AF48F2C863C1F6FF7393F89C30CA
:103D3000012B0FD148F2C863C1F6FF7393F8A1209D
:103D400048F2C863C1F6FF7393F89D3010461946D8
:103D5000FDF76EFE48F2C863C1F6FF7393F89E301C
:103D6000012B0FD148F2C863C1F6FF7393F8A2206C
:103D700048F2C863C1F6FF7393F89F3010461946A6
:103D8000FDF7A0FE48F2C863C1F6FF7393F8A030B8
:103D9000012B01D1FDF71AFF80BD00BF80B500AF38
:103DA00048F28473C1F6FF731B78002B08D100F032
:103DB0000BF848F28473C1F6FF734FF001021A70DA
:103DC00000F02AF880BD00BF80B400AF46F28553F2
:103DD000C4F200034FF072021A7046F28243C4F23A
:103DE00000034FF020021A7046F22B43C4F2000386
:103DF0004FF007021A7046F23B43C4F200034FF043
:103E000048021A7046F28F43C4F200034FF00002DA
:103E10001A70BD4680BC704780B582B000AF01F01B
:103E200043FE0346FB7146F29553C4F2000346F28B
:103E30009552C4F200021278D2B242F02002D2B2FD
:103E40001A7046F29243C4F2000346F29242C4F260
:103E500000021278D2B242F01002D2B21A7046F2C8
:103E60009F43C4F2000346F29F42C4F2000212785C
:103E7000D2B242F01002D2B21A7000F09FF9FB7970
:103E8000184601F015FE07F10807BD4680BD00BFCA
:103E900080B582B000AF01F007FE0346FB7146F229
:103EA0009553C4F2000346F29552C4F20002127810
:103EB000D2B202F0DF021A7000F0A2F946F2924389
:103EC000C4F2000346F29242C4F200021278D2B267
:103ED00002F0EF021A7046F29F43C4F2000346F26A
:103EE0009F42C4F200021278D2B202F0EF021A70BE
:103EF000FB79184601F0DCFD07F10807BD4680BDDF
:103F000080B483B000AF4FF00003BB7146F2624350
:103F1000C4F200031B78FB71FB7903F02003002B34
:103F20000DD046F24653C4F200031B78BB71FB79F7
:103F300003F01E03002B02D04FF00003BB71BB79CE
:103F4000184607F10C07BD4680BC704780B582B0AB
:103F500000AF01F0A9FD0346FB7146F29653C4F28F
:103F6000000346F29652C4F200021278D2B242F036
:103F70000102D2B21A7046F29653C4F2000346F21E
:103F80009652C4F200021278D2B202F0FE021A7007
:103F9000FB79184601F08CFD07F10807BD4680BD8E
:103FA00080B483B000AF0346FB7146F26F43C4F2A6
:103FB00000031B78DBB203F00403002BF5D146F2BB
:103FC0004C43C4F20003FA791A7007F10C07BD469E
:103FD00080BC704780B584B000AF78604FF00003BC
:103FE000FB8148F28473C1F6FF731B78002B11D05C
:103FF0000AE0FA897B6813441B781846FFF7D0FF64
:10400000FB8903F10103FB81FA897B6813441B7868
:10401000002BEED107F11007BD4680BD80B582B000
:1040200000AF01F041FD0346FB7146F29C43C4F230
:10403000000346F29C42C4F200021278D2B242F06F
:104040000102D2B21A7046F29C43C4F2000346F257
:104050009C42C4F200021278D2B202F0FE021A7040
:10406000FB79184601F024FD07F10807BD4680BD25
:1040700080B400AF46F28553C4F200031B78DAB275
:1040800048F28873C1F6FF735A7046F28243C4F255
:1040900000031B78DAB248F28873C1F6FF739A7096
:1040A00046F22B43C4F200031B78DAB248F288735D
:1040B000C1F6FF73DA7046F23B43C4F200031B788B
:1040C000DAB248F28873C1F6FF731A7146F28F4371
:1040D000C4F200031B78DAB248F28873C1F6FF73AA
:1040E0005A71BD4680BC704780B400AF46F285531C
:1040F000C4F2000348F28872C1F6FF7252781A7057
:1041000046F28243C4F2000348F28872C1F6FF729D
:1041100092781A7046F22B43C4F2000348F2887278
:10412000C1F6FF72D2781A7046F23B43C4F2000324
:1041300048F28872C1F6FF7212791A7046F28F4304
:10414000C4F2000348F28872C1F6FF7252791A7005
:10415000BD4680BC704700BF80B500AF46F29243B9
:10416000C4F200031B78DBB203F01003002B07D06E
:1041700048F28873C1F6FF734FF001021A7006E02F
:1041800048F28873C1F6FF734FF000021A70FFF710
:104190007FFEFFF76DFF80BD80B500AFFFF7A4FF86
:1041A000FFF7D4FEFFF73AFF48F28873C1F6FF73BA
:1041B0001B78002B01D0FFF72FFE80BD80B400AF2D
:1041C00044F2A233C4F2000344F2A232C4F2000269
:1041D0001278D2B242F00202D2B21A7044F2B23372
:1041E000C4F2000344F2B232C4F200021278D2B236
:1041F00042F00202D2B21A70BD4680BC704700BFC6
:1042000080B400AF44F2A233C4F2000344F2A232FD
:10421000C4F200021278D2B202F0FD021A7044F227
:10422000B233C4F2000344F2B232C4F20002127894
:10423000D2B202F0FD021A70BD4680BC704700BFCA
:1042400080B582B000AF786000F042F8786800F086
:104250000BF84FF0070000F01BF800F02DF807F105
:104260000807BD4680BD00BF80B485B000AF786050
:104270004EF60853CEF200031B68FB60FB6803F1A7
:104280004C037A681A6007F11407BD4680BC70477A
:1042900080B483B000AF0346FB714EF20343CEF20D
:1042A0000003FA794FEA4212D2B21A7007F10C07F2
:1042B000BD4680BC704700BF80B400AF4EF2001313
:1042C000CEF200034FF008021A60BD4680BC704772
:1042D00080B400AF4EF28013CEF200034FF008021C
:1042E0001A60BD4680BC704780B485B000AF0346FD
:1042F000FB7145F23013C4F200031B78DBB203F00C
:104300007F03FB7345F23013C4F20003FA794FEADE
:10431000C212D1B2FA7B41EA0202D2B21A7007F19C
:104320001407BD4680BC704780B485B000AF03461B
:10433000FB7145F2C013C4F200031B78DBB223F01B
:104340000403FB7345F2C013C4F20003FA794FEA89
:104350008202D2B202F00402F97B42EA0102D2B236
:104360001A7007F11407BD4680BC704780B485B051
:1043700000AF0346FB7145F20013C4F200031B7843
:10438000DBB223F02003FB7345F20013C4F20003F9
:10439000FA794FEA4212D2B202F02002F97B42EAE5
:1043A0000102D2B21A7007F11407BD4680BC7047F3
:1043B00080B485B000AF0346FB7145F20013C4F230
:1043C00000031B78DBB223F00403FB7345F20013F8
:1043D000C4F20003FA794FEA8202D2B202F0040278
:1043E000F97B42EA0102D2B21A7007F11407BD4606
:1043F00080BC704780B582B000AF786000F04EF8A6
:10440000786800F017F84FF0070000F027F800F088
:1044100039F807F10807BD4680BD00BF80B500AF81
:1044200000F03CF840F63170C0F2000000F002F8F5
:1044300080BD00BF80B485B000AF78604EF60853F1
:10444000CEF200031B68FB60FB6803F150037A683F
:104450001A6007F11407BD4680BC704780B483B072
:1044600000AF0346FB714EF20443CEF20003FA792B
:104470004FEA4212D2B21A7007F10C07BD4680BC57
:10448000704700BF80B400AF4EF20013CEF20003BD
:104490004FF010021A60BD4680BC704780B400AF78
:1044A0004EF28013CEF200034FF010021A60BD46A8
:1044B00080BC704780B500AF48F29073C1F6FF73BF
:1044C0001B78002B08D100F00BF848F29073C1F66E
:1044D000FF734FF001021A7000F00CF880BD00BFAE
:1044E00080B500AF4FF0080000F06EF800F04EF815
:1044F00080BD00BF80B582B000AF44F20033C4F28B
:1045000000031B78DBB203F00203002B24D101F07F
:10451000CBFA0346FB7144F20033C4F2000344F2C9
:104520000032C4F200021278D2B242F00202D2B2D9
:104530001A7044F28233C4F2000344F28232C4F2AD
:1045400000021278D2B242F00402D2B21A70FB79A1
:10455000184601F0ADFA15E001F0A6FA0346FB712A
:1045600044F28233C4F2000344F28232C4F2000205
:104570001278D2B242F00402D2B21A70FB79184615
:1045800001F096FA07F10807BD4680BD80B582B0FC
:1045900000AF01F089FA0346FB7144F28233C4F2A2
:1045A000000344F28232C4F200021278D2B242F026
:1045B0000802D2B21A70FB79184601F079FA07F1B5
:1045C0000807BD4680BD00BF80B582B000AF03467E
:1045D000FB7144F28233C4F200031B78DBB203F0B8
:1045E0000403002B2CD1FB79022B15D0FB79032B74
:1045F00012D0FB79042B0FD0FB79052B0CD0FB7963
:10460000062B09D0FB79072B06D0FB79082B03D0AA
:104610004FF00000FDF7C8F944F28133C4F2000303
:1046200044F28132C4F200021278D2B2114601F093
:10463000F001FA7902F00F0241EA0202D2B21A70D6
:1046400007F10807BD4680BD80B500AF4FF00200FE
:10465000FDF774FF0346184680BD00BF80B500AF6C
:1046600000F052F880BD00BF80B500AF00F064F8E4
:1046700080BD00BF80B400AF46F28943C4F200039E
:104680001B78DAB248F22013C1F6FF735A7046F273
:104690008A43C4F200031B78DAB248F22013C1F651
:1046A000FF739A7046F28B43C4F200031B78DAB2B0
:1046B00048F22013C1F6FF73DA70BD4680BC704724
:1046C00080B400AF46F28943C4F2000348F22012DE
:1046D000C1F6FF7252781A7046F28A43C4F20003A0
:1046E00048F22012C1F6FF7292781A7046F28B439C
:1046F000C4F2000348F22012C1F6FF72D2781A7099
:10470000BD4680BC704700BF80B500AF46F29A43FB
:10471000C4F200031B78DBB203F01003002B0CBFC4
:104720000022012248F22013C1F6FF731A7001F033
:1047300097FAFFF79FFF80BD80B500AFFFF7C0FF7E
:1047400001F01EFB48F22013C1F6FF731B78002B0B
:1047500001D001F031FA80BD80B485B000AF0346CE
:10476000FB7145F22013C4F200031B78DBB223F087
:104770000103FB7345F22013C4F20003FA7902F03F
:104780000102F97B42EA0102D2B21A7007F1140762
:10479000BD4680BC704700BF80B500AF48F2917342
:1047A000C1F6FF731B78002B08D100F00BF848F21C
:1047B0009173C1F6FF734FF001021A7000F02AF8EE
:1047C00080BD00BF80B400AF46F28E43C4F2000348
:1047D0004FF072021A7046F28D43C4F200034FF09C
:1047E00020021A7046F22843C4F200034FF0070279
:1047F0001A7046F23843C4F200034FF048021A70B0
:1048000046F28B53C4F200034FF000021A70BD460B
:1048100080BC704780B582B000AF01F045F9034617
:10482000FB7146F29E43C4F2000346F29E42C4F27C
:1048300000021278D2B242F02002D2B21A7046F2CE
:104840009D43C4F2000346F29D42C4F20002127876
:10485000D2B242F01002D2B21A7046F29B53C4F2A6
:10486000000346F29B52C4F200021278D2B242F028
:104870001002D2B21A7000F061F9FB79184601F00B
:1048800017F907F10807BD4680BD00BF80B582B0AB
:1048900000AF01F009F90346FB7146F29E43C4F2F2
:1048A000000346F29E42C4F200021278D2B202F035
:1048B000DF021A7000F064F946F29D43C4F200036F
:1048C00046F29D42C4F200021278D2B202F0EF0228
:1048D0001A7046F29B53C4F2000346F29B52C4F294
:1048E00000021278D2B202F0EF021A70FB79184679
:1048F00001F0DEF807F10807BD4680BD80B483B043
:1049000000AF4FF00003BB7146F26D43C4F20003E9
:104910001B78FB71FB7903F02003002B0DD046F2CE
:104920004D43C4F200031B78BB71FB7903F01E03F7
:10493000002B02D04FF00003BB71BB79184607F182
:104940000C07BD4680BC704780B582B000AF01F057
:10495000ABF80346FB7146F29D43C4F2000346F2F6
:104960009D42C4F200021278D2B242F00102D2B2E9
:104970001A7046F29D43C4F2000346F29D42C4F20F
:1049800000021278D2B202F0FE021A70FB791846C9
:1049900001F08EF807F10807BD4680BD80B582B0F2
:1049A00000AF01F081F80346FB7146F29B53C4F25D
:1049B000000346F29B52C4F200021278D2B242F0D7
:1049C0000102D2B21A7046F29B53C4F2000346F2BF
:1049D0009B52C4F200021278D2B202F0FE021A70A8
:1049E000FB79184601F064F807F10807BD4680BD61
:1049F00080B400AF46F28E43C4F200031B78DAB2F3
:104A000048F29473C1F6FF735A7046F28D43C4F2B4
:104A100000031B78DAB248F29473C1F6FF739A7000
:104A200046F22843C4F200031B78DAB248F29473CA
:104A3000C1F6FF73DA7046F23843C4F200031B7804
:104A4000DAB248F29473C1F6FF731A7146F28B53CF
:104A5000C4F200031B78DAB248F29473C1F6FF7314
:104A60005A71BD4680BC704780B400AF46F28E4399
:104A7000C4F2000348F29472C1F6FF7252781A70C1
:104A800046F28D43C4F2000348F29472C1F6FF72FD
:104A900092781A7046F22843C4F2000348F29472E6
:104AA000C1F6FF72D2781A7046F23843C4F200039E
:104AB00048F29472C1F6FF7212791A7046F28B5363
:104AC000C4F2000348F29472C1F6FF7252791A7070
:104AD000BD4680BC704700BF80B500AF46F29D4325
:104AE000C4F200031B78DBB203F01003002B07D0E5
:104AF00048F29473C1F6FF734FF001021A7006E09A
:104B000048F29473C1F6FF734FF000021A70FFF77A
:104B1000BDFEFFF76DFF80BD80B500AFFFF7A4FFBE
:104B2000FFF712FFFFF73AFF48F29473C1F6FF73E5
:104B30001B78002B01D0FFF76DFE80BD80B400AF65
:104B400044F2A233C4F2000344F2A232C4F20002DF
:104B50001278D2B242F00802D2B21A7044F2B233E2
:104B6000C4F2000344F2B232C4F200021278D2B2AC
:104B700042F00802D2B21A70BD4680BC704700BF36
:104B800080B400AF44F2A233C4F2000344F2A23274
:104B9000C4F200021278D2B202F0F7021A7044F2A4
:104BA000B233C4F2000344F2B232C4F2000212780B
:104BB000D2B202F0F7021A70BD4680BC704700BF47
:104BC00080B500AF48F29C73C1F6FF731B78002BD1
:104BD00008D100F00BF848F29C73C1F6FF734FF058
:104BE00001021A7000F034F880BD00BF80B500AF3C
:104BF0004FF0030000F0F0F84FF0FF0000F00EF966
:104C00004FF0000000F01AF946F28043C4F20003AE
:104C10004FF072021A7046F28743C4F200034FF05D
:104C200020021A7046F22743C4F200034FF0070235
:104C30001A7046F23743C4F200034FF048021A706C
:104C400046F28443C4F200034FF000021A7080BDA4
:104C500080B582B000AF00F027FF0346FB7146F23B
:104C60009043C4F2000346F29042C4F2000212786C
:104C7000D2B242F02002D2B21A7046F29743C4F286
:104C8000000346F29742C4F200021278D2B242F018
:104C90001002D2B21A7046F29443C4F2000346F2F4
:104CA0009442C4F200021278D2B242F01002D2B2A0
:104CB0001A7000F0A3FAFB79184600F0F9FE07F12C
:104CC0000807BD4680BD00BF80B582B000AF00F0D0
:104CD000EBFE0346FB7146F29043C4F2000346F23A
:104CE0009042C4F200021278D2B202F0DF021A70CF
:104CF00000F0A6FA46F29743C4F2000346F2974248
:104D0000C4F200021278D2B202F0EF021A7046F238
:104D10009443C4F2000346F29442C4F200021278B3
:104D2000D2B202F0EF021A70FB79184600F0C0FE12
:104D300007F10807BD4680BD80B483B000AF4FF0D7
:104D40000003BB7146F26743C4F200031B78FB719A
:104D5000FB7903F02003002B0DD046F24643C4F24A
:104D600000031B78BB71FB7903F01E03002B02D0FC
:104D70004FF00003BB71BB79184607F10C07BD4625
:104D800080BC704780B582B000AF00F08DFE034656
:104D9000FB7146F29643C4F2000346F29642C4F217
:104DA00000021278D2B242F00102D2B21A7046F278
:104DB0009643C4F2000346F29642C4F2000212780F
:104DC000D2B202F0FE021A70FB79184600F070FEB3
:104DD00007F10807BD4680BD80B485B000AF03462B
:104DE000FB7146F27543C4F200031B78DBB203F09B
:104DF0001F03FB73FB794FEA4313DAB2FB7B42EAF2
:104E00000303FB7346F27543C4F20003FA7B1A7086
:104E100007F11407BD4680BC704700BF80B483B063
:104E200000AF0346FB7146F22643C4F20003FA7951
:104E30001A7007F10C07BD4680BC704780B483B080
:104E400000AF0346FB7146F23643C4F20003FA7921
:104E50001A7007F10C07BD4680BC704780B483B060
:104E600000AF0346FB7146F26443C4F200031B78B3
:104E7000DBB203F00403002BF5D146F24443C4F245
:104E80000003FA791A7007F10C07BD4680BC704721
:104E900080B584B000AF78600B46FB704FF0000324
:104EA000FB7348F29C73C1F6FF731B78002B0ED086
:104EB000FA7B7B6813441B781846FFF7CFFFFB7B18
:104EC00003F10103FB73FA7BFB789A42F0D307F1FD
:104ED0001007BD4680BD00BF80B582B000AF00F0B6
:104EE000E3FD0346FB7146F29443C4F2000346F22D
:104EF0009442C4F200021278D2B242F00102D2B25D
:104F00001A7046F29443C4F2000346F29442C4F28B
:104F100000021278D2B202F0FE021A70FB79184633
:104F200000F0C6FD07F10807BD4680BD80B400AFA4
:104F300046F27543C4F200031B78DAB248F2A0735C
:104F4000C1F6FF735A7046F28043C4F200031B7827
:104F5000DAB248F2A073C1F6FF739A7046F2874343
:104F6000C4F200031B78DAB248F2A073C1F6FF73F3
:104F7000DA7046F22643C4F200031B78DAB248F234
:104F8000A073C1F6FF731A7146F23643C4F20003F0
:104F90001B78DAB248F2A073C1F6FF735A7146F279
:104FA0002743C4F200031B78DAB248F2A073C1F6BB
:104FB000FF739A7146F23743C4F200031B78DAB2EA
:104FC00048F2A073C1F6FF73DA7146F28443C4F26B
:104FD00000031B78DAB248F2A073C1F6FF731A72AD
:104FE000BD4680BC704700BF80B400AF46F2754339
:104FF000C4F2000348F2A072C1F6FF7252781A7030
:1050000046F28043C4F2000348F2A072C1F6FF7278
:1050100092781A7046F28743C4F2000348F2A072F5
:10502000C1F6FF72D2781A7046F22643C4F200032A
:1050300048F2A072C1F6FF7212791A7046F2364336
:10504000C4F2000348F2A072C1F6FF7252791A70DE
:1050500046F22743C4F2000348F2A072C1F6FF7281
:1050600092791A7046F23743C4F2000348F2A072F4
:10507000C1F6FF72D2791A7046F28443C4F200037B
:1050800048F2A072C1F6FF72127A1A70BD4680BC57
:10509000704700BF80B500AF46F29743C4F20003EB
:1050A0001B78DBB203F01003002B07D048F2A0738B
:1050B000C1F6FF734FF001021A7006E048F2A073C8
:1050C000C1F6FF734FF000021A70FFF7FDFDFFF706
:1050D0002DFF80BD80B500AFFFF786FFFFF752FEC2
:1050E000FFF7FAFE48F2A073C1F6FF731B78002B9E
:1050F00001D0FFF7ADFD80BD80B582B000AF786014
:1051000000F04EF8786800F017F84FF0070000F054
:1051100027F800F039F807F10807BD4680BD00BF49
:1051200080B500AF00F03CF840F63170C0F20000EE
:1051300000F002F880BD00BF80B485B000AF786099
:105140004EF60853CEF200031B68FB60FB6803F1C8
:1051500058037A681A6007F11407BD4680BC70478F
:1051600080B483B000AF0346FB714EF20643CEF22B
:105170000003FA794FEA4212D2B21A7007F10C0713
:10518000BD4680BC704700BF80B400AF4EF2001334
:10519000CEF200034FF040021A60BD4680BC70475B
:1051A00080B400AF4EF28013CEF200034FF0400205
:1051B0001A60BD4680BC704780B485B000AF03461E
:1051C000FB7145F2C013C4F200031B78DBB223F07D
:1051D0000803FB7345F2C013C4F20003FA794FEAE7
:1051E000C202D2B202F00802F97B42EA0102D2B254
:1051F0001A7007F11407BD4680BC704780B400AF39
:1052000044F2A233C4F2000344F2A232C4F2000218
:105210001278D2B242F01002D2B21A7044F2B23313
:10522000C4F2000344F2B232C4F200021278D2B2E5
:1052300042F01002D2B21A70BD4680BC704700BF67
:1052400080B400AF44F2A233C4F2000344F2A232AD
:10525000C4F200021278D2B202F0EF021A7044F2E5
:10526000B233C4F2000344F2B232C4F20002127844
:10527000D2B202F0EF021A70BD4680BC704700BF88
:1052800080B582B000AF786000F042F8786800F036
:105290000BF84FF0070000F01BF800F02DF807F1B5
:1052A0000807BD4680BD00BF80B485B000AF786000
:1052B0004EF60853CEF200031B68FB60FB6803F157
:1052C00048037A681A6007F11407BD4680BC70472E
:1052D00080B483B000AF0346FB714EF20243CEF2BE
:1052E0000003FA794FEA4212D2B21A7007F10C07A2
:1052F000BD4680BC704700BF80B400AF4EF20013C3
:10530000CEF200034FF004021A60BD4680BC704725
:1053100080B400AF4EF28013CEF200034FF00402CF
:105320001A60BD4680BC704780B483B000AF0346AE
:10533000FB7146F27653C4F20003FA791A7007F152
:105340000C07BD4680BC704780B483B000AF0346F5
:10535000FB7146F27D43C4F20003FA791A7007F13B
:105360000C07BD4680BC704780B485B000AF786044
:1053700039607B68BB604FF00003FB6009E0BA68EE
:10538000FB6813444FF000021A70FB6803F101033D
:10539000FB60FA683B689A42F1D307F11407BD46F7
:1053A00080BC704780B489B000AFF860B9607A60A3
:1053B000FB687B61BB68BB614FF00003FB610BE0E6
:1053C0007A69FB691344B969FA690A4412781A7058
:1053D000FB6903F10103FB61FA697B689A42EFD331
:1053E00007F12407BD4680BC704700BF80B582B07E
:1053F00000AF7860396078684FF000013A6806F0D5
:10540000CBFC07F10807BD4680BD00BF80B584B066
:1054100000AFF860B9607A60F868B9687A6806F039
:1054200097FB07F11007BD4680BD00BF80B487B071
:1054300000AF786039604FF00003FB604FF000036D
:10544000BB602CE0BB684FEA83027B6813441B6897
:105450003B613B69FB753B6923F0FF033B6117E050
:10546000FB684FEA43023B6813441B781A463B69CA
:105470001344FA684FEA42013A680A4452781A70B3
:10548000FB6803F10103FB60FB7D03F1FF33FB7558
:10549000FB7D002BE4D1BB6803F10103BB60BB685B
:1054A000282BCFD907F11C07BD4680BC704700BF31
:1054B00080B500AF44F28003C4F200034FF0000255
:1054C0001A8044F28203C4F200034FF058021A70AB
:1054D00044F28403C4F200034FF019021A8044F22C
:1054E0008603C4F200034FF018021A7044F28803D6
:1054F000C4F200034FF019021A8044F28A03C4F286
:1055000000034FF018021A7044F28C03C4F2000337
:105510004FF49C721A8044F28E03C4F200034FF0E1
:1055200018021A7044F29003C4F200034FF49C7204
:105530001A8044F29203C4F200034FF018021A706A
:1055400044F20033C4F200034FF002021A7044F236
:105550000003C4F200034FF008021A7044F2002363
:10556000C4F200034FF003021A7044F2A163C4F2C4
:10557000000340F20812C4F600121278D2B21A7078
:1055800044F22223C4F200034FF008021A8044F2CE
:105590002023C4F2000341F251021A8040F6B830D1
:1055A00000F07AFA44F20403C4F200034FF003025D
:1055B0001A7044F20503C4F200034FF001021A709E
:1055C00044F20403C4F200034FF000021A7044F2E4
:1055D0000403C4F200034FF007021A7044F20603FA
:1055E000C4F200034FF000021A7044F20803C4F240
:1055F00000034FF048021A7044F20403C4F200039F
:105600004FF000021A7044F20103C4F200034FF09D
:1056100002021A7044F2A233C4F2000344F2A2322E
:10562000C4F200021278D2B242F01F02D2B21A7053
:1056300080BD00BF80B400AF44F2AA33C4F20003BF
:105640004FF444721A8045F62003C4F200034FF071
:105650001E021A7045F62403C4F200034FF01E0226
:105660001A7045F62803C4F200034FF01E021A70A8
:1056700045F62C03C4F200034FF01E021A7045F6E3
:105680000013C4F200036FF03F021A7045F60313D3
:10569000C4F200034FF00C021A7045F60813C4F26E
:1056A00000036FF03F021A7045F60B13C4F20003BB
:1056B0004FF00C021A7045F67603C4F200034FF067
:1056C00044021A70BD4680BC704700BF80B586B0EA
:1056D00000AF72B644F60003C4F200034FF00002BC
:1056E0001A70FFF7E5FE44F60003C4F200036FF002
:1056F0007F021A7047F21003C4F200034FF0000259
:105700001A7047F22003C4F200034FF000021A702F
:1057100045F67C03C4F200034FF001021A7044F214
:10572000E863C4F2000344F2E862C4F200021278B3
:10573000D2B242F00102D2B21A704FF00003FB70F5
:105740002FE0FA7813464FEA430313444FEA43032A
:105750001A4643F2A003C0F2010313447B607B6846
:105760001A7859784FEA012141EA020299784FEA02
:10577000014141EA0202DB784FEA036343EA020394
:105780001A467B6819795B794FEA032343EA0103E0
:105790009BB210461946FFF729FEFB7803F101037F
:1057A000FB70FB78052BCCD94FF00003FB7043E076
:1057B000FA7813464FEA830313444FEA43031A4629
:1057C00043F2C403C0F201031344BB60BB681A7800
:1057D00059784FEA012141EA020299784FEA0141E2
:1057E00041EA0202DB784FEA036343EA0203FB600B
:1057F000BB681A7959794FEA012141EA0202997985
:105800004FEA014141EA0202DB794FEA036343EACE
:1058100002033B61BB681A7A5B7A4FEA032343EACF
:105820000203FB82FB8AF86839691A46FFF7EEFD2E
:10583000FB7803F10103FB70FB78002BB8D04FF02D
:10584000904040F2A401C4F60001FFF7EFFD45F2DD
:105850000020C4F2000041F20011C4F600014FF034
:105860000702FFF79FFD45F20820C4F2000041F255
:105870000811C4F600014FF00702FFF793FD45F24F
:105880001020C4F200004FF00701FFF76DFD45F254
:105890001820C4F200004FF00701FFF765FD45F244
:1058A0002020C4F2000041F21011C4F600014FF0B4
:1058B0000702FFF777FD45F22820C4F2000041F20D
:1058C0001811C4F600014FF00702FFF76BFD45F217
:1058D0003020C4F2000041F22011C4F600014FF064
:1058E0000702FFF75FFD45F26020C4F2000041F2BD
:1058F0002811C4F600014FF00602FFF753FD45F2F0
:105900007820C4F200004FF00701FFF72DFD45F2AB
:105910000303C4F2010345F20302C4F20102127848
:10592000D2B242F00202D2B21A7045F21303C4F2AC
:10593000010345F21302C4F201021278D2B242F01E
:105940000202D2B21A7044F2A033C4F2000344F24D
:10595000A032C4F200021278D2B242F04002D2B2B7
:105960001A7044F2C233C4F2000344F2C232C4F2E9
:1059700000021278D2B242F01002D2B21A7045F28E
:105980000010C4F2000041F29C01C4F600014FF087
:105990000A02FFF73BFD45F2C010C4F2000041F2DD
:1059A000A801C4F600014FF00A02FFF7FBFC45F224
:1059B000F010C4F2000041F2B401C4F600014FF04F
:1059C0000A02FFF723FD45F21010C4F2000041F275
:1059D000C001C4F600014FF00A02FFF717FD45F2BF
:1059E0002010C4F2000041F2CC01C4F600014FF0D7
:1059F0000A02FFF70BFD45F23010C4F2000041F23D
:105A0000D801C4F600014FF00A02FFF7FFFC45F28F
:105A10004010C4F2000041F2E401C4F600014FF06E
:105A20000A02FFF7F3FC45F25210C4F2000041F203
:105A3000F001C4F600014FF00802FFF7E7FC45F261
:105A40006210C4F2000041F2F801C4F600014FF008
:105A50000802FFF7DBFCFFF7EDFD44F2B030C4F2C3
:105A6000000044F2A031C4F200014FF00C02FFF735
:105A7000CDFC44F2B033C4F2000344F2B032C4F2BD
:105A800000021278D2B202F0FD021A7007F1180774
:105A9000BD4680BD000000000230800803D000BF7A
:105AA00001380046FCD17047EFF3108072B67047A2
:105AB00080F31088704700BF80B584B000AF034604
:105AC000FB71FFF7F1FF0346FB73FB79102B12D834
:105AD00044F60003C4F2000344F60002C4F20002DC
