:400000000080002011000000110100001101000080B500AF024B034A12681A6000F07CF8BC760040FA46004010B5054C237833B9044B13B10448AFF300800123237010BD81
:400040002081FF1F000000009C1D000008B5064B1BB106480649AFF300800648036813B1054B03B1984708BD000000009C1D00002481FF1F0881FF1F0000000080B500AF43
:4000800001F0EEFD80BD00BF80B500AF1E4B00221A8062B6052000F0CDFE1C4801F0ECFC01F038FD01F088FD01F09EFD022001F0B3FD01F02FFD00F0F1FE00204FF400617F
:4000C00001F0ACF9104B1B88B3F5706F0ED100F06FFA0346002B14BF00230123DBB2184600F04AFA084B00221A8005E0064B1B8801339AB2044B1A80034B1B88002BDCD1E6
:4001000001F00CF8D7E700BF8281FF1F7D00000080B400AFFEE700BF80B586B000AF224B7B61224B3B61204B7B6135E03B691B68FB603B695B68BB603B699B683B600023F7
:400140007B600CE0FB681A68BB681A60BB680433BB60FB680433FB607B6804337B607A683B689A42EED13B69DB683B6000237B6008E0BB6800221A60BB680433BB607B6838
:4001800004337B607A683B689A42F2D13B6910333B617B69013B7B617B69002BC6D101F0C5FDFFF771FFFEE701000000F81D000080B582B000AF174B174A1A60174B174ABA
:4001C000126842F400721A6000237B600FE07B68032B04D8124B7A6853F8223000E0114B114A796842F821307B6801337B607B682F2BECD90D4B1B78DAB20D4B1A700D4B05
:40020000094A1A6000F004F90B4B00221A600837BD4680BD0CED00E00004FA0514ED00E000000000110100000080FF1FBC7600400481FF1F08ED00E00081FF1F80B582B036
:4002400000AF78603960786800213A6801F09DFD0837BD4680BD00BF80B584B000AFF860B9607A60F868B9687A6801F085FD1037BD4680BD80B483B000AF0346FB71FEE782
:4002800080B487B000AF7860396000233B6100237B6126E07B699B007A6813441B68BB60BB68FB73BB6823F0FF03BB6013E03B695B003A6813441B781A46BB6813443A69BA
:4002C000520039680A4452781A703B6901333B61FB7B013BFB73FB7B002BE8D17B6901337B617B69042BD5D91C37BD465DF8047B704700BF80B582B000AF294B02221A70EE
:400300004FF0402308221A70264B03221A70264B264A1278D2B21A70254B08221A80254B41F251221A800023FB7019237B6014E0FB785B00DAB2204B1B78DBB203F0010375
:40034000DBB21343DBB203F00303FB704FF4F07000F03EF97B68013B7B607B68002B02D0FB78032BE4D17B68002B02D10320FFF781FF124B4FF480721A80104B07221A70FB
:400380000F4B00221A700F4B48221A700B4B00221A700D4B02221A700837BD4680BD00BF0043004000420040A14600400801004922420040204200402542004004400040B4
:4003C00006400040084000400140004080B483B000AF0B4B1B78FB710A4BFA7902F00702D2B21A70084BFA791209D2B21A70074B44221A700C37BD465DF8047B704700BF71
:40040000CF0100496E5800406F5800407658004080B582B000AF72B6404B404A1278D2B242F00402D2B21A700023FB7113E0FA7913465B0013445B00394A13443B603B686E
:400440001A683B689B889BB210461946FFF7F6FEFB790133FB71FB79052BE8D94FF090403049FFF70DFF304B2F4A1278D2B242F00202D2B21A702D4B2C4A1278D2B242F0D1
:400480000202D2B21A702A4B294A1278D2B242F04002D2B21A70274B264A1278D2B242F01002D2B21A70244824490A22FFF7D4FE234824490822FFF7CFFE234823490822DD
:4004C000FFF7CAFE224823490822FFF7C5FE224822490A22FFF7C0FE214822490822FFF7BBFE214B204A1278D2B242F00802D2B21A701E4B61221A70FFF7FCFE1B4B812286
:400500001A701B4B01221A70FFF760FF194808490E22FFF7A1FE0837BD4680BDE8460040A01D0000140000480350014013500140A0430040C24300400051004024000048AF
:40054000C251004030000048F251004038000048125100404000004820510040480000483251004054000048224300400048004004000840B043004080B485B000AF0346D5
:40058000FB710A4B1B78DBB223F00103FB73074BFA7902F00102D1B2FA7B0A43D2B21A701437BD465DF8047B704700BF2051004080B400AF054B1B78DBB203F00103DBB2A8
:4005C0001846BD465DF8047B704700BF215100400230800800F0058000BF013800467FF4FCAF7047EFF3108072B6704780F31088704700BFAFF3008080B584B000AF034607
:40060000FB710023FB60234B224A1278D2B242F00102D2B21A70FB79002B36D01E4B1B78DBB203F00403FB721C4B1B78BB721C4B1B787B72182000F0D3FF1023FB6010E08A
:40064000184B1B78DBB203F00103002B09D0154B1B78DBB203F00103002B02D00023FB6008E0012000F090FF034603F00103DBB2002BE5D0FB7A002B01D100F047FB074BDF
:40068000BA7A1A70064B7A7A1A70FB6818461037BD4680BD204200400043004080430040824300402542004080B400AF054B054A1278D2B222F00102D2B21A70BD465DF886
:4006C000047B70472042004080B584B000AF0346FB711D4B1C4A1278D2B242F01002D2B21A701A4B194A1278D2B242F01002D2B21A70FB79002B23D0154B1B78DBB203F0FA
:400700000403FB73134B1B78BB73134B1B787B73002000F065FF00BF012000F035FF034603F00103DBB2002BF6D0FB7B002B01D100F0ECFA074BBA7B1A70074B7A7B1A70E5
:400740001037BD4680BD00BFA0430040B043004000430040804300408243004080B400AF094B094A1278D2B222F01002D2B21A70064B064A1278D2B222F01002D2B21A70A7
:40078000BD465DF8047B7047A0430040B043004080B483B000AF0023FB71124B1B78DBB203F00703002B06D10F4B1B78DBB203F00103002B0DD10B4B1B78DBB203F0070347
:4007C000012B08D1094B1B78DBB203F00103002B01D00123FB71FB7918460C37BD465DF8047B704793430040A5430040B543004080B584B000AF0346FB71FFF7C9FF034610
:40080000FB73FB7B012B07D1314B314A1278D2B222F00202D2B21A70FB79082B50D801A252F823F04908000055080000610800006D080000790800008508000091080000A5
:40084000C10800009D080000224B234A1278D2B21A7039E01F4B214A1278D2B21A7033E01C4B1F4A1278D2B21A702DE0194B1D4A1278D2B21A7027E0164B1B4A1278D2B24C
:400880001A7021E0134B194A1278D2B21A701BE0104B174A1278D2B21A7015E00D4B154A1278D2B21A70FB7B012B08D1084B084A1278D2B242F00202D2B21A7004E003E088
:4008C000002000F0ABFA00BF1037BD4680BD00BF09600040A146004008010049090100490A0100490B010049890100490C0100490D0100490F01004980B584B000AF0346E6
:40090000FB71674B1B78DBB203F00703FB73FB79082B01D0FB7900E00323BB73FB7B062B25D801A252F823F0450900004B09000051090000570900005D090000630900001C
:40094000690900000223FB7315E00123FB7312E00323FB730FE00023FB730CE00423FB7309E00523FB7306E00623FB7303E0002000F054FA00BFBA7BFB7B9A4203D3FB7997
:400980001846FFF735FFFB79082B72D801A252F823F000BFB9090000D1090000E9090000FB090000130A00002B0A0000430A0000730A00005B0A0000394B394A1278D2B2D7
:4009C00022F04702D2B242F00302D2B21A7054E0334B334A1278D2B222F04702D2B242F00102D2B21A7048E02D4B2D4A1278D2B222F04702D2B21A703FE0294B284A127857
:400A0000D2B222F04702D2B242F00202D2B21A7033E0234B224A1278D2B222F04702D2B242F00402D2B21A7027E01D4B1C4A1278D2B222F04702D2B242F00502D2B21A70E6
:400A40001BE0174B164A1278D2B222F04702D2B242F00602D2B21A700FE0114B104A1278D2B222F04702D2B242F04202D2B21A7003E0002000F0D2F900BFFB79082B02D177
:400A800000F056F801E000F063F8BA7BFB7B9A4203D2FB791846FFF7ABFE1037BD4680BD0042004080B582B000AF0346FB71FB79012B17D0022B02D0002B26D02EE04FF037
:400AC00040234FF040221278D2B222F04002D2B21A70164B154A1278D2B242F02002D2B21A701FE04FF040234FF040221278D2B242F04002D2B21A700C4B0C4A1278D2B2C5
:400B000042F02002D2B21A700CE0084B074A1278D2B222F02002D2B21A7003E0002000F07DF900BF0837BD4680BD00BF0042004080B400AF054B054A1278D2B242F01002B7
:400B4000D2B21A70BD465DF8047B70470042004080B400AF054B054A1278D2B222F01002D2B21A70BD465DF8047B70470042004080B483B000AF0346FB71094B084A12788A
:400B8000D2B222F00302D1B2FA7902F00302D2B20A43D2B21A700C37BD465DF8047B70470540004080B483B000AF0346FB71044BFA791A700C37BD465DF8047B704700BFD1
:400BC0000440004080B483B000AF0346FB80154B144A1278D2B222F00F02D2B21A70124B00221A70114B114A1278D2B262F07F02D2B21A700E4BFA88D2B21A700D4BFA8828
:400C0000120A92B2D2B21A700B4B0B4A1278D2B242F00102D2B21A700C37BD465DF8047B704700BF14400040104000400840004002400040034000400140004080B584B01F
:400C400000AF0346FB80FFF7CDFC0346FB73234B1B78DBB21B02BB81214B1B78DBB21A46BB891343BB81FB88002B02D0BB89002B29D11C4B1B78FB72FB7A062B02D80720EB
:400C8000FFF790FFFB88002B0CD1174B164A1278D2B242F04002D2B21A70FB881846FFF791FF0BE0FB881846FFF78CFF0E4B0E4A1278D2B222F04002D2B21A70FB7A18462A
:400CC000FFF770FF03E0FB881846FFF77BFFFB7B1846FFF78BFC1037BD4680BD0740004006400040044000400840004080B400AF054B054A1278D2B242F00402D2B21A7094
:400D0000BD465DF8047B70470043004080B400AF054B054A1278D2B222F00402D2B21A70BD465DF8047B70470043004080B586B000AF0346FB7100237B61FB793B742B4B74
:400D40002A4A1278D2B242F00102D2B21A70FB79002B46D0264B1B78FB74264B1B78BB74254B1B787B74182000F03AFC10237B6126E01E4B1B780423FB730EE000BF01208F
:400D800000F002FC034603F00103DBB2002BF6D0FB7BDBB2013BDBB2FB73FB7BDBB2002BECD1124B1B78DBB2DBB25BB2002B02DB00237B6108E03B7CDBB2013BDBB23B74A0
:400DC0003B7CDBB2002BD4D1FB7C03F00403002B01D1FFF79BFF074BBA7C1A70064B7A7C1A707B6918461837BD4680BD1042004000430040804300408243004080B400AF2D
:400E0000054B054A1278D2B222F00102D2B21A70BD465DF8047B70471042004080B483B000AF0346FB7101BE0C37BD465DF8047B704700BF80B582B000AF786008E00C4B7B
:400E40001B681846FFF7C4FB7B68A3F500437B607B68B3F5004FF2D8064B1B687A6802FB03F31846FFF7B4FB0837BD4680BD00BF1881FF1F1081FF1F80B582B000AF0346F0
:400E8000FB80FB88044A127802FB03F31846FFF79FFB0837BD4680BD1481FF1F80B500AF904B1B78DBB203F00F03DAB28E4B1A708E4B1B78DAB28C4B5A708A4B894A1278AB
:400EC000D2B222F00F02D2B21A70884B1B78874B00221A70864B1B78DBB223F03F03DAB2814B5A71372000F0C3FE824B1B78DBB203F00703DAB27C4BDA707E4B1B78DBB278
:400F000003F04003DAB2784B1A717A4B1B78DBB203F01003002B03D0734B01225A7202E0714B00225A72744B1B78DBB203F00303DAB26D4B9A706C4B9B78012B1CD14FF037
:400F400040231B78DBB203F00303012B08D0012B02D3022B08D00BE00020FFF709FE0BE00220FFF705FE07E00320FFF701FE03E00020FFF753FF00BF604B1B78DBB203F016
:400F80000103002B05D0584B01229A73FFF78CFB02E0554B00229A730420FFF7ADFC584B1B78DBB203F01003DBB2002B03D04E4B01229A7108E04C4B00229A710020FFF78C
:400FC00083FB0620FFF758FF4A4B1B78DBB203F02003002B10D04FF040231B78DBB203F04003002B01D1022300E001233E4AD3710020FFF757FD02E03B4B0022DA714FF0C2
:4010000040231B78DBB203F03003DAB2364B1A72354B1B7A002B09D04FF040234FF040221278D2B222F03002D2B21A70314B1B78DBB203F01003002B01D0FFF789FD314B1C
:401040001B78DAB2284B9A72274B9B7A002B02D00020FFF7A7FD244B9B78002B02D00020FFF786FD284B1B78DBB21B029AB21E4B9A811D4B9A89254B1B78DBB213439AB23F
:40108000194B9A81184B9B89002B02D00020FFF7D5FD184B1B78DBB203F007031C4AD35C184600F0E5FD1B4B1B78DBB203F00103002B05D00C4B0122DA73FFF79FFE02E047
:4010C000094B0022DA73144B1B78DBB203F00403002B03D0044B01221A7402E0024B00221A7480BDA14300406C81FF1FA24300400048004000420040054000402042004015
:40110000A0430040044000400740004006400040C41D0000104200400B40004080B586B000AF10233B617D4A3B1D106818609188927999809A717A4B1B7C012B17D1794B89
:401140001B78DBB203F00703774AD35C1A4613469B0013441A01D31A1846FFF739FA734B724A1278D2B242F00402D2B21A706C4BDB7B012B25D10020FFF7D8FD6C4B1B78F6
:401180000523FB821AE0674B1B78DBB203F00703654AD35CC82202FB03F31846FFF718FA634B1B78DBB2DBB25BB2002B03DB00233B6100BF05E0FB8A013BFB82FB8A002BDE
:4011C000E1D1372000F054FD554B9B78022B03D0534B9B78032B10D1564B1B78DAB2504B9B7A9A4204D04E4B9B7A1846FFF7DAFC4B4B9B781846FFF7BBFC494B1B7903F06B
:401200004003002B0CD0464BDB7807F11802134413F8143C032B03D10820FFF76DFB20E03F4BDB7807F11802134413F8143C1846FFF762FB3A4B1B7903F04003002B08D090
:40124000384B384A1278D2B242F04002D2B21A7007E0344B334A1278D2B222F04002D2B21A702F4B9B79012B0AD1334B1B78DBB203F01003DBB2002B02D10020FFF724FA8E
:40128000274BDB791846FFF70DFC254B5B7A012B01D1FFF74DFC224B1B7A1A464FF040231B78DBB203F030039A4210D04FF040234FF040221278D2B2D2B222F03002D1B2E7
:4012C000174A127AD2B20A43D2B2D2B21A70144B9B7B012B3AD110233B610020FFF78CF95020FFF7C9FD154B1B78AB23FB822AE00120FFF7C1FD114B1B78DBB203F00103CC
:40130000002B1DD00D4B1B78DBB203F00103002B16D000233B6100BF18E000BFCC1D00006C81FF1F00420040C41D00000B4000401042004004400040A0430040254200401E
:40134000FB8A013BFB82FB8A002BD1D12B4B9B78002B03D0294B9B78012B10D1284B1B78DAB2264B9B7A9A4204D0244B9B7A1846FFF718FC214B9B781846FFF7F9FB1F4BDD
:401380009B79002B09D11F4B1B78DBB203F01003DBB2002B01D0FFF7E1F91B4B1B78DBB21B02FB81194B1B78DBB21A46FB891343FB81124B9B89FA899A4204D00F4B9B89A0
:4013C0001846FFF73BFC124B114A1278D2B2D2B202F03F02D1B2094A5279D2B20A43D2B2D2B21A700B4B054A12781A700A4B034A52781A701837BD4680BD00BF6C81FF1FD9
:4014000004400040A0430040074000400640004000480040A1430040A243004080B584B000AF02460B46FA71BB80FFF7DBF80346FB734E4B1B78DBB203F00803002B0BD192
:401440004B4B4B4A1278D2B202F01F02D2B21A70FB79002B08D004E0FB7B1846FFF7C6F881E00020FFF7DAFC00F002F9414B1B78DAB2414B1A713F4BBA88120992B2D2B286
:401480001A703E4B1B78DAB23B4B5A713B4BBA88D2B202F00F02D2B21A70394B1B78DAB2354B9A71364BBA88120B92B2D2B202F00102D2B21A70334B1B78DBB203F00703D8
:4014C000002B04D12C4B012283F82D2014E02A4B002283F82D202B4B1B78DBB203F00703DAB2254B83F82C20264B264A1278D2B222F00702D2B21A701C4B1C4A1278D2B2EE
:4015000022F00702D2B242F00302D2B21A70174B1B7800BF00BF30BF174B93F82D30012B0FD0184B174A1278D2B2D2B222F00702D1B2114A92F82C20D2B20A43D2B2D2B212
:401540001A7000F0D5F90B4B0B4A12791A700B4B094A52791A700A4B074A92791A70FB7B1846FFF743F81037BD4680BD9343004083460040984300403C81FF1F994300406D
:401580009A4300400042004080B584B000AF0346FB71FFF727F80346FB730F4B1B78DAB20E4B1B781343DAB20C4B1A700B4B1B78BB73FB79DB43DAB2084B1B781340DAB2D1
:4015C000064B1A70FB7B1846FFF710F8BB7B18461037BD4680BD00BF904300407E81FF1F80B582B000AF0346FB711F4B1E4A1278D2B222F00202D2B21A70FFF777FB1A4B98
:401600001B78DBB203F00103002B19D0174B1B78DBB2FA799A4224D0134B134A1278D2B222F00102D2B21A70104BFA791A700E4B0D4A1278D2B242F00102D2B21A7010E085
:401640000A4B1B78DBB2FA799A4202D0074BFA791A70054B044A1278D2B242F00102D2B21A700837BD4680BD824300408043004080B400AF804B1B78DAB2804B5A72804BE0
:401680001B78DAB27D4B9A727E4B1B78DAB27B4BDA727D4B1B78DAB2784B1A737B4B1B78DAB2764B5A737A4B1B78DAB2734B9A73784B1B78DAB2714BDA73774B1B78DAB218
:4016C0006E4B1A74754B1B78DAB26C4B5A74744B1B78DAB2694B9A74724B1B78DAB2674BDA74714B1B78DAB2644B1A756F4B1B78DAB2624B5A756E4B1B78DAB25F4B9A75C4
:401700006C4B1B78DAB25D4BDA756B4B1B78DAB25A4B1A76694B1B78DAB2584B5A76684B1B78DAB2554B9A76664B1B78DAB2534BDA76654B1B78DAB2504B1A77634B1B7810
:40174000DAB24E4B5A77624B1B78DAB24B4B9A77604B1B78DAB2494BDA775F4B1B78DAB2464B83F820205D4B1B78DAB2434B83F821205B4B1B78DAB2404B83F82220594B7A
:401780001B78DAB23D4B83F82320574B1B78DAB23A4B83F82420384B00221A70384B00221A70384B00221A70374B00221A70374B00221A70364B00221A70364B00221A707C
:4017C000354B00221A70354B00221A70344B00221A70344B00221A70334B00221A70334B00221A70324B00221A70324B00221A70314B00221A70314B00221A70304B0022A8
:401800001A70304B00221A702F4B00221A702F4B00221A702E4B00221A702E4B00221A702D4B00221A702D4B00221A702C4B00221A702C4B00221A702B4B00221A702B4B3B
:401840001B78DBB203F00803002B0CD00B4B012283F82E20254B254A1278D2B222F00802D2B21A7003E0054B002283F82E20BD465DF8047B704700BF005A00403C81FF1F0A
:40188000025A0040035A0040045A0040065A0040085A00400A5A0040105A0040125A0040135A0040145A0040165A0040185A00401A5A0040205A0040225A0040235A004071
:4018C000245A0040265A0040285A00402A5A0040305A0040325A0040335A0040345A0040365A0040385A00403A5A00402243004080B400AF424B434A527A1A70424B414A2D
:40190000927A1A70414B3F4AD27A1A70404B3D4A127B1A703F4B3B4A527B1A703E4B394A927B1A703D4B374AD27B1A703C4B354A127C1A703B4B334A527C1A703A4B314A9B
:40194000927C1A70394B2F4AD27C1A70384B2D4A127D1A70374B2B4A527D1A70364B294A927D1A70354B274AD27D1A70344B254A127E1A70334B234A527E1A70324B214A0B
:40198000927E1A70314B1F4AD27E1A70304B1D4A127F1A702F4B1B4A527F1A702E4B194A927F1A702D4B174AD27F1A702C4B154A92F820201A702B4B124A92F821201A701B
:4019C000294B104A92F822201A70284B0D4A92F823201A70264B0B4A92F824201A70094B93F82E30012B07D1224B224A1278D2B242F00802D2B21A70BD465DF8047B704784
:401A0000005A00403C81FF1F025A0040035A0040045A0040065A0040085A00400A5A0040105A0040125A0040135A0040145A0040165A0040185A00401A5A0040205A0040F3
:401A4000225A0040235A0040245A0040265A0040285A00402A5A0040305A0040325A0040335A0040345A0040365A0040385A00403A5A00402243004080B582B000AF7860AF
:401A800000F03CF8786800F009F8072000F018F800F028F80837BD4680BD00BF80B485B000AF7860054B1B68FB60FB6840337A681A601437BD465DF8047B704708ED00E0BE
:401AC00080B483B000AF0346FB71054BFA795201D2B21A700C37BD465DF8047B704700BF00E400E080B400AF034B01221A60BD465DF8047B704700BF00E100E080B400AFE4
:401B0000034B01221A60BD465DF8047B704700BF80E100E080B500AF054B1B78002B04D100F008F8024B01221A7000F00BF880BD8081FF1F80B500AF042000F06DF800F0DF
:401B400053F880BD80B582B000AF194B1B78DBB203F00203002B18D1FEF744FD0346FB71134B134A1278D2B242F00202D2B21A70104B104A1278D2B242F00402D2B21A7036
:401B8000FB791846FEF732FD0FE0FEF72BFD0346FB71084B074A1278D2B242F00402D2B21A70FB791846FEF721FD0837BD4680BD004300408243004080B582B000AFFEF77F
:401BC00011FD0346FB71074B064A1278D2B222F00402D2B21A70FB791846FEF707FD0837BD4680BD8243004080B582B000AFFEF7F9FC0346FB71074B064A1278D2B242F066
:401C00000802D2B21A70FB791846FEF7EFFC0837BD4680BD8243004080B483B000AF0346FB710D4B1B78DBB203F00403002B0DD10A4B0A4A1278D2B222F00F02D1B2FA7940
:401C400002F00F02D2B20A43D2B21A700C37BD465DF8047B704700BF824300408143004080B500AF0220FFF78FFC0346184680BD80B584B000AF0346FB71FEF7B3FC0346C4
:401C8000FB73FB790F2B0BD8274B274A1278D2B202F01F02D2B242F04002D2B21A703BE0FB79202B0BD8204B1F4A1278D2B202F01F02D2B262F07F02D2B21A702CE0FB7984
:401CC000312B0BD8184B184A1278D2B202F01F02D2B262F03F02D2B21A701DE0FB79422B08D8114B104A1278D2B202F01F02D2B21A7011E0FB79532B0BD80B4B0A4A1278FD
:401D0000D2B202F01F02D2B242F02002D2B21A7002E00020FFF782F8FB7B1846FEF766FC1037BD4680BD00BF0048004070B50E4B0E4D0024ED1AAD101E46AC4204D056F886
:401D4000242090470134F8E700F044F8084D094B0024ED1AAD101E46AC4204D056F8242090470134F8E770BDE01D0000E01D0000E81D0000E01D000010B50023934203D01B
:401D8000CC5CC4540133F9E710BD02440346934202D003F8011BFAE7704700000000000040510040300000000140001000140140000800400140000A004C01400002005004
:401DC000014020000C061803303E4A000201030004050600F8B500BFF8BC08BC9E4670474D000000B1010000F8B500BFF8BC08BC9E46704729000000081E00000881FF1F95
:401E000018000000680000000000000000366E01C05D0000180000000000E02E0000000000000000000000000000000000000000000000000000000000000000000000003A
:401E40000000000000000000000000000000000000000000000000000000000000000000000000000000000000000000000000000000000000000000000000000000000062
:401E80000000000000000000000000000000000000000000000000000000000000000000000000000000000000000000000000000000000000000000000000000000000022
:401EC00000000000000000000000000000000000000000000000000000000000000000000000000000000000000000000000000000000000000000000000000000000000E2
:401F000000000000000000000000000000000000000000000000000000000000000000000000000000000000000000000000000000000000000000000000000000000000A1
:020000040003F7
:0200000480007A
:4000000002400140014101400142014003430140015101403340CC109F409F4027409F40C8800002100000FBEB0000000000000000FEFE0000000000003333000000000027
:4000400000C0C00000000000010000FFFF00000000000000003F3F000000000000000000000000000000000000000000000000000000000000000000000000000000000083
:400080000000000000000000000000000000000000000000000000000000000000000000000000000000000000000000000000000000000000000000000000000000000040
:4000C0000000000000000000000000000000000000000000000000000000000000000000000000000000000000000000000000000000000000000000000000000000000000
:4001000000000000000000000000000000000000000000000000000000000000000000000000000000000000000000000000000000000000000000000000000000000000BF
:40014000000000000000000000000000000000000000000000000000000000000000000000000000000000000000000000000000000000000000000000000000000000007F
:0200000490006A
:0400000000004005B7
:0200000490105A
:04000000BC90ACAF55
:0200000490303A
:02000000665345
:0200000490402A
:4000000000000000000000000000000000000000000000000000000000000000000000000000000000000000000000000000000000000000000000000000000000000000C0
:400040000000000000000000000000000000000000000000000000000000000000000000000000000000000000000000000000000000000000000000000000000000000080
:400080000000000000000000000000000000000000000000000000000000000000000000000000000000000000000000000000000000000000000000000000000000000040
:4000C0000000000000000000000000000000000000000000000000000000000000000000000000000000000000000000000000000000000000000000000000000000000000
:0200000490501A
:0C00000000012E16106900012E2176BCB4
:00000001FF