:400000000080002011000000510100005101000008B5044B1A6803F53F5302331A6000F0B1F800BFFA46004010B5054C237833B9044B13B10448AFF300800123237010BD2A
:40004000C089FF1F0000000088830000084B10B51BB108480849AFF300800848036803B910BD074B002BFBD0BDE81040184700BF0000000088830000C489FF1F0881FF1FAB
:400080000000000008B500F027FAC0B240B1054B1B78632B04D8044AD0540133014A137008BD00BF148AFF1F188AFF1F10B586B0044600238DF8163005AA009201930846F8
:4000C0000A4903AA04AB00F08FFBC0B28DF81600042802D000238DF8163006AB13E9070084E80700204606B010BD00BF9883000010B5044600F0CAF900200C4B187000F043
:4001000001FA0B4800F024FA4FF47A7000F064FA012000F0F7F900F029FA20460549FFF7C5FF00F0C1F9204610BD00BF148AFF1F85000000188AFF1F00B585B062B601A81E
:40014000FFF7D6FF4FF4FA6000F046FAF7E700BFFEE700BF08B5094B1A681044084BC31A802B02DC054B186005E000F04BFA0C2303604FF0FF32104608BD00BF0C81FF1F9D
:40018000808AFF1F08B5104E104D16E029686B68AC68002204E051F8040B43F8040B0432A242F8D1E868002203E0002143F8041B04328242F9D11035013E002EE6D100F0B9
:4001C00027FAFFF7B9FFFEE7010000001888000008B5124A124B1A60124A136843F40073136000230AE0032B03D80F4A52F8231000E00E490E4A42F8231001332F2BF2D985
:400200000C4B1A780C4B1A70094A0C4B1A6000F0AFF800220A4B1A6008BD00BF0004FA050CED00E014ED00E000000000510100000080FF1FBC7600400481FF1F08ED00E02D
:400240000081FF1FFEE700BFF0B40022174611E050F82760F3B226F0FF0608E001EB420511F812406D78A5550132013BDBB2002BF4D101370A2FEBD9F0BC7047064B1B78DB
:40028000DBB203F00701054A11701B09013213704422034B1A707047CF0100496E5800407658004008B50A46002100F04FFA08BD38B540F6C312244B1A80182202331A70C4
:4002C000022203F27E231A7008224FF040231A70032103F5007319701C4B1B78DBB21C490B701C4B1A8041F25122023B1A80002419250CE0184B1B7803F0010343EA4404B7
:4003000004F003044FF4F07000F056F9013D0DB1032CEFD115B90320FFF794FF0F4B4FF480721A8007221A7000220D490A704820023108701A700222033B1A70094A137846
:4003400043F00103137038BD8040004008010049A146004022420040254200400440004006400040A243004008B500F079F908BD70B572B6284A137843F0040313700024CC
:400380000CE0264963001A1952000A4423445B00C8589188FFF786FF0134E4B2072CF0D94FF090401E49FFF74FFF1E4A137843F0020313701032137843F0020313701A4C19
:4003C000237843F040032370A2F58632513A137843F010031370154815490A22FFF7C4FF144815490822FFF7BFFF144A137843F008031370124E01253570FFF759FF81232C
:400400003370104B1D70FFF739FF0F4821460E22FFF7AAFF70BD00BFE8460040A88300002C00004803500140A0430040C0510040180200484251004024020048224300402D
:400440000048004004000840B04300407222034B1A70202201331A70704700BF8164004010B500F0B1F80446074A137843F0200313700132137843F01003137000F080F822
:40048000204600F0A5F810BD9164004008B5054B1B7823B9FFF7DAFF0122024B1A70FFF7DFFF08BDDC89FF1F10B500F08DF80446074A137803F0DF03137000F06FF8054A88
:4004C000137803F0EF031370204600F081F810BD9164004092640040084B1B78DBB213F0200F06D0064A1078C0B213F01E0F02D17047002070470020704700BF6264004010
:4005000042640040044A137803F0F703C00000F00800184310707047C0510040014B1B681864704708ED00E04001C0B2014B1870704700BF00E400E00122014B1A6070473C
:4005400000E100E00122014B1A60704780E100E010B50446FFF7F6FF2046FFF7DFFF0720FFF7E2FFFFF7E8FF10BD00BF08B5FFF7E9FF0248FFF7D2FF08BD00BF51010000BC
:40058000054A137843F0010313701032137843F001031370704700BFA2430040054A137803F0FE0313701032137803F0FE031370704700BFA24300400230800803D000BF09
:4005C00001380046FCD17047EFF3108072B6704780F31088704700BF10B5044605E0084B1868FFF7E9FFA4F50044B4F5004FF6D8034B586800FB04F0FFF7DEFF10BD00BF82
:400600001081FF1F014B1868704700BF4885FF1F70B50F4E0F4D761BB61018BF002405D0013455F8043B9847A642F9D10A4E0B4D08F0DEF8761BB61018BF002406D00134AC
:4006400055F8043B9847A642F9D170BD70BD00BFFC870000FC87000008880000FC870000844641EA000313F0030349D1403A23D30B6803604B6843608B688360CB68C36048
:400680000B6903614B6943618B698361CB69C3610B6A03624B6A43628B6A8362CB6AC3620B6B03634B6B43638B6B8363CB6BC36340304031403ADBD230320BD30B680360E4
:4006C0004B6843608B688360CB68C36010301031103AF3D20C3205D351F8043B40F8043B043AF9D2043208D0D2071CBF11F8013B00F8013B01D30B8803806046704700BF89
:40070000082A13D38B07B1D010F00303AED0C3F10403D21ADB071CBF11F8013B00F8013BA4D331F8023B20F8023B9FE7043AD9D3013A11F8013B00F8013BF9D20B78037016
:400740004B7843708B7883706046704770B4840746D0541E002A41D0CDB2034602E0621EE4B3144603F8015B9A07F8D1032C2ED9CDB245EA05250F2C45EA054519D9264642
:4007800003F11002103E0F2E42F8105C42F80C5C42F8085C42F8045C02F11002F2D8A4F1100222F00F0204F00F041032032C13440DD91E462246043A032A46F8045BFAD834
:4007C000221F22F003020432134404F003042CB1C9B21C4403F8011BA342FBD170BC704714460346C2E700BF0EB4F0B59CB021AC4FF4017254F8045BADF8142002900690C9
:4008000000F020F84FF6FF7E06460B490B4F2A4623460025086802A9019403960796ADF816E00A970E95139500F03AF81CB0BDE8F04003B0704700BF4885FF1F4108000069
:400840000020704720F0030110F00300C0F1000051F8043B00F1040C4FEACC0C6FF000021CBF22FA0CF213434FF0010C4CEA0C2C4CEA0C4CA3EB0C0222EA030212EACC12C4
:4008800004BF51F8043B0430F4D0C2F1000102EA0102B2FA82F2C2F11F0200EBD20070472DE9F04F8A468989ADF52D7D8E040290039309D4DAF8643041F4005123F400537A
:4008C000AAF80C10CAF86430164616F8011B0023089306939B460793DFF85C84119179B3D8F8000043185B7803F0080303F0FF055BB3DAF80430029C1A4612E0DAF800300E
:40090000D8F800101A7801330A445278150710D5DAF804200BF1010B013ACAF80030CAF80420002AEADC2046514602F0CBFA0028E4D03246164616F8011B11910029CFD1FE
:4009400007980DF52D7DBDE8F08F252940F082802C465378711C782B00F2B982DFE813F09300B702B702B702B702B702B702B702B702B702B702B702B702B702B702B702BA
:40098000B702B702B702B702B702B702B702B702B702B702B702B702B702B702B702B702B702B702B702B702B7027900B702B702B702B7023002B702B702B702B702B702DE
:4009C0005A025A025A025A025A025A025A025A025A025A02B702B702B702B702B702B702B702B702B702B70235027902B7027902B702B702B702B7027402B702B7026B0206
:400A0000B702B702B702B702B702B702B702B7026202B702B7029902B702B702B702B702B702B702B702940292027902790279028D029900B702B702AF02B7027E027C02D1
:400A4000AB02B702B702A802B702A102B702B70262020E46DAF80430002B40F34085DAF8003016F8012C197891427FF469AFDAF804200133013ACAF80420CAF800300BF199
:400A8000010B324656E74FF0FF300DF52D7DBDE8F08F0E46A64B0327089300230693DAF80430002B40F39E816B0610D5013F032F00F2BE80DFE817F0E30092002200160279
:400AC0000298514602F0FEF9002840F09281D8F80010DAF8002001E0CAF80020137801320B445B781807E1D5DAF804300BF1010B013B002BCAF80430EEDCE1E754AA4FF0ED
:400B00000009099217464A46631EB3F5AE7F86BF6FF4AE7163180023994688BF40F25D145B469346B446069E45F45865DAF800100878A0F12B024D2A00F2E180DFE812F0DF
:400B40002A01DF002A01DF00DF00FE00CA00CA00CA00CA00CA00CA00CA003A013A01DF00DF00DF00DF00DF00DF00DF00250125012501250125012501DF00DF00DF00DF000F
:400B8000DF00DF00DF00DF00DF00DF00DF00DF00DF00DF00DF00DF00DF002F01DF00DF00DF00DF00DF00DF00DF00DF00250125012501250125012501DF00DF00DF00DF005A
:400BC000DF00DF00DF00DF00DF00DF00DF00DF00DF00DF00DF00DF00DF002F01002C08BF4FF0FF3415F0010340F0C083ED0640F13B831D46D8F80010DAF8002013780132BC
:400C00000B445B78180737D4DAF804300135013BAC428AE80C002FD0002BEFDC0298514602F050F940BBD8F80010DAF80020E5E7002C08BF012415F0010340F04683EA0680
:400C400040F12A841D46029F0BE01A44CAF80020384651461D44E41A02F034F9002840F015849AE80C00A342EFDB1B1B2244CAF804302544CAF80020AB4432465AE6002CF5
:400C800008BF4FF0FF34EB0640F1BC82DAF80010002514AF0B780131FB5CB3B1DAF804300135013BAC428AE80A00E5D0002BF1DC0298514602F006F90028DDD1DAF80010F8
:400CC0000B780131FB5C002BE8D1002D3FF438AEAB44D2E7174A25F4386532F91660DAF804203870013A002A07F10107CAF804203EDD0131CAF80010013C7FF417AFEA05F1
:400D00000696D94666469B4607D5099B9F4200F2D983099B9F423FF413AE15F0100400F04C83099B3246FF1A4F44BB4402E600BF39280000E08300004C85FF1F2A05CED578
:400D400016B945F4007508266A0500F15E8325F46075B9F1000F02D009F1FF390134DAF804200BF1010B013A002ACAF80420C0DC02985146CDF810C0069302F0A3F8069B35
:400D8000DDF810C00028B7D0B9E70A2EB7DD25F43865A4E72A06B2D525F080059FE705F4C062B2F5007FAAD125F4007545F4A065102694E7A34A32F91660082EE7DC9EE716
:400DC000737845F010050E46C4E50E4645F001059D4B032708930A230693DAF80430002B3FF762AE0298514602F06CF800283FF45BAE079A002A3FF446AEBAF80C3013F07A
:400E0000400F134618BF4FF0FF3318460DF52D7DBDE8F08F04EB840403EB4404303C73780E4697E50E4645F40075884B032708931023069333E60E4645F00105834B0327BA
:400E40000893082306932AE6737845F002050E4680E50E46042722E60E46EFE7EC060E463FF567AD680740F15383039A136804320392A3F800B032465CE5737845F004055E
:400E80000E4667E50E46A3E70E4645F04005002705E614A800F0B0FC45F0400506460127FDE56A4B0E4608930A2306930327F6E50E460227F3E50E4645F40875B5E7737857
:400EC0006C2B00F01F8345F001050E4642E503445B780E4603F00303012B7FF479AF45F0010575E7029800F013FC631E0268B3F5AE7F0D9240F283816FF4AE72A31840F2B0
:400F00005D140C93002754AB0A9699463A463E4609930F970E970B9745F4F065DAF800000178A1F12B0EBEF14E0F00F23B81DFE81EF07B0039017B00390139016F004F00DA
:400F40004F004F004F004F004F004F004F004F00390139013901390139013901390134013901390139011D01180139013901A00039013901390139018F0039013901390110
:400F800039013901840039013901390139018000390139013901390139013901390134013901390139011D01180139013901A00039013901390139018F00390139013901E8
:400FC00039013901840039013901390139018000D74215D125F4C07589F8001009F10109DAF80410013C013900290BF1010BCAF8041040F3E4800130CAF80000002C8DD137
:4010000004963B461746049A0A9E002A41D0F3E0EB05DDD50C9B25F080050136002BDFD0013B0C930134DBE72B06E9D525F08005D2E7072AE4D10822CEE7062AE0D107220D
:40104000CAE700BFE083000039280000212B0000002F40F0C8802EB905F4E06EBEF5E06F00F04582012A01D0042AC9D10132D2B2B2E7002A40F0B080002E40F0B98005F434
:40108000E06EBEF5E06F00F026823B46174604960A9E013B012B40F2C9827B1E062B1BD8022F40F2D282032F16D03C1FE4B2E7430A954F444D46A146029C15F8011D2046C1
:4010C000524601F0BBFEBD42F7D14C460BF1FF3BA9460A9DC4EB0B0BEA051CD56B0500F1C38219F8011C09F1FF3365290BF1FF340BD0452909D00298524601F09FFE19F834
:40110000021CABF10204A9F1020302985246A346994601F093FE15F010027FF40AAC05F4C063B3F5806F89F8002000F0E4810E9B002B40F08F8100220999029800F0E4FBAA
:40114000EF0702460B4640F14A810398016804300390C1E90023079B324601330793FFF7E9BB022A7FF44CAF032235E705F4A06EBEF5806F04D06B057FF542AF002E84D01B
:40118000AB0504D40B9BCDF83C90F31A0E9325F4F06545F4C07500261EE7012F7FF430AF022719E70D9B93F800E08E457FF428AFAB057FF525AF25F420750B960CE702980C
:4011C0005146049201F07EFE049A00287FF418AF002C7FF4A3AE13E7032A3FF447AF052A3FF444AF0CE7022F7FF43CAF0327F3E63B46174604960A9E25F4807549E70023BA
:401200000C937FE6039A14AF134615680433A9460393DAF800301A78591CBA5CC2B1DAF80420CAF80010013ACAF804201B78013C09F8013B0CD0DAF80430002BE9DC0298C4
:40124000514601F03FFE0028E3D0A9453FF4D1ADB9EB05053FF474AB079A00230132079289F80030AB4408E5039A1568171DA946DAF80010D8F800200B78481C13445B78F2
:401280001B0715D4DAF80430CAF80000013BCAF804300B78013C09F8013B09D0DAF80430002BE5DC0298514601F00CFE0028DFD0079AC5EB0905013200230792AB44039787
:4012C00089F800303246FFF735BB12AB1846002108220993FFF73AFA15F010030A9300F0AA80002319460B960E460025A9460A9D54AFCDF810B000F005FA48453FF479AD55
:401300009AE80A00099A11F801EB013B09F1010BCAF80010029800923146CAF8043007F809E05B463A4600F0F7F9411C3FF461AD002840F0A38005B93560049B013C5B440C
:401340000493002D40F09F80A9460436DAF80430002B63DD002CCED1DDF810B00B9E0A9B002B3FF4F8AE3246FFF7E4BA12AB1846002108220993FFF7E9F915F0100947D0F3
:4013800011AD002217460496DAF80030D8F800201B7813445B781E0702D4002C40F0EE80049EB9F1000F7FF4C4AA079BC5F80090013307933246FFF7BDBA2246069B3C704F
:4013C00002980999089CA047AB063BD5039A1368043203921860079B01330793A1E4AC073FF5B3AECDE90423039B1D1D1C6800F0D7F9DDE90423002800F0BB8010461946DF
:4014000006F09AFC03952060A5E625F4B06566E4039A1346043315680393B2E70298514601F050FD002895D04D46DDF810B00B9E002D94D0DDE4039A136819461346043306
:40144000039350E76C077CD5039A1368043203921880C0E70F9C0A230298611C01F0ECF9A1460E9BC21A0DF2A323994528BF0DF2A2294846854900F0FFF95CE602307FF409
:401480005CAFD94662E74FF000095FE7002D3FF4B0ACAB44FFF7F1BB039D234629680298CDF800A0012201F02BFD2B46043300283FF49FAC079A8344013207920393324679
:4014C000FFF738BA7B1E17F8011C029852461F4601F0B4FC1DE425F4F06501227CE50298514601F0EFFC00283FF4B9AA81E425F4F065012770E50B9A049B9B1A5A42002B39
:40150000B1D118E6B37845F002050236FFF722BAE9070DD4AA070BD5039A134611685A4604330393D317C1E900233246FFF702BA039A136804320392C3F800B03246FFF7DF
:40154000F9B915F001027FF441AFA9077FF53EAF4F4B0899029899420999069B00F0938001F0F8F9039A136804320392C3E9000131E700F07DF903952060ECE500F0C2F8C4
:40158000B8423FF436AC9AE80A0011F8012B0DF5A87ECAF8001009997E1C013B009102980EF80720CAF8043029463346724600F0B3F8471C3FF41DACC0B9286000F090F888
:4015C00040B33746049E002F3FF4EBAE54ABDC1904952546029C013F204615F8011D524601F02CFC002FF6D1049DDAE6023019D13746DAF80430002B3FF7C6AE02985146CA
:4016000001F060FC00283FF4BFAE049E002F7FF4F0ABC6E6B344013CB9F1000F04D104354F46E6E72868C9E70746E2E7099B99457FF686A919F8011D0298524601F0FEFBE6
:40164000099B9945F6D1FFF77BB9099B99457FF677A919F8011D0298524601F0EFFB099B9945F6D1FFF76CB9099B99457FF668A919F8011D0298524601F0E0FB099B994589
:40168000F6D1FFF75DB901F0E5FA6BE704840000212B0000024B13B1024800F005B8704700000000B5160000014600200246034602F01EBF38B5084B084DED1AAC1018BFE1
:4016C000ED1805D0013C55F8043D9847002CF9D1BDE8384007F098B81488000018880000FF2807D8044B1B681844407800F00800C0B27047002070474C85FF1F00487047FE
:401700008885FF1F014B1868704700BFA885FF1F004870475085FF1F2DE9F04383B005460A9E1446B2B11F46104B8846D3F80090FFF7E4FF41468DE8410022463B4628467D
:40174000C847431C03D100228A2332602B6003B0BDE8F083054B1F68FFF7D0FF21468DE84100034A28460123B847EAE7AC85FF1FB085000082B049B15AB16BB113780B603B
:401780001278101C18BF012002B0704701A9002AF3D1104602B070476FF00100F4E700BF10B431F0004408D0114BA1F580129A4208D804205DF8044B704718B902205DF8B9
:4017C000044B704701F1FF41094B01F5E0019942EFD9B4F5801F01D20320EBE7054B9C4201D00020E6E7B0FA80F04009E2E700BFFFFFDF7F0000F07F70B40D785E2D2FD0FE
:40180000002216460131431E00F1FF0403F8012FA342FBD185B186F0010242554E1C16F8013C2D2B0ED05D2B09D013B11D463146F3E7084670BC7047481E70BC70473046CD
:4018400070BC70474C785D2C0FD0A5420DDC023143190135AC4203F8012FFADC0236DEE701224D7816460231CDE731461D46D4E7004870470000C07F0EB4F0B506464FF6E2
:40188000FF7E9CB021AC54F8042B0D4923466FF0004508684FF4027702A9029606960194ADF816E0ADF814700495079501F068FB029B00221A701CB0BDE8F04003B0704773
:4018C0004885FF1F2DE9F0410F46904605F0DCF804460D46B8F1000F11D0C7F30A53C3F16B03002B0BDD1B0503F17F55002405F5401522462B4605F03DFFBDE8F08120465F
:401900002946BDE8F08100BF2DE9F04F0F469FB083460B4600200021CDE904010392002219971A921C4613F8016B2D2E00F2F080DFE816F02E00EE00EE00EE00EE00EE000A
:40194000EE00EE00EE00DD00DD00DD00DD00DD00EE00EE00EE00EE00EE00EE00EE00EE00EE00EE00EE00EE00EE00EE00EE00EE00EE00EE00DD00EE00EE00EE00EE00EE000D
:40198000EE00EE00EE00EE00EE004400EE00DA00039B4FF000084FF0000953B100230693039B1F60069B23B1414609F1004388469946404649461FB0BDE8F08F00230693C1
:4019C000631C19936678002EE2D0302E1C4600F0A480002308940A93A6F130034FF0000A092B55462346544619D8082CC8BF0AEB8A0A05EB850203F1010306EB4202199364
:401A0000C4BF06EB4A06A6F1300A1E78D8BFA2F13005A6F13002092A04F10104E5D958460793FFF775FED0F800805846FFF770FE0068FEF707FF079B02464146184605F056
:401A400081FB8046002800F0E480002084468646A146652E73D0452E71D00023B9F1000F47D0B9F1100FC846CCEB03032846A8BF4FF01008079305F007FE002C08BF4C46B5
:401A8000B8F1090FCDE9040113DD764B03EBC80353E9122305F06EFE064650460F4605F0F3FD02460B463046394605F0B1FCCDE90401B9F10F0F00F3D780079B002B00F098
:401AC000A580079B40F36785162B00F3D284DDE904230798634901EBC001D1E9000105F049FE804689460DE00123069368E7199318E718B90A9B002B00F0A1824FF0000866
:401B00004FF00009039B002B3FF44CAF199F47E70023302E06937FF45CAF6378582B00F0A483782B00F0A183013419942678302EFAD0002EE2D0012308940A934CE7B9F1FA
:401B4000000F4ED0199F7B1C19937E782B2E00F06D822D2E00F064824FF00008A6F13003092B324600F20282302E06D1199B013319931E78302EFAD03246313A082A3FF6DA
:401B80006CAF199B19460A46013219920793A6F130034E78A6F1300109290BD80132199203EB830306EB43031678303BA6F130010929F3D90799521A082A00F3518444F63A
:401BC0001F629342A8BF1346C8F1000253404344B9F1000F7FF445AF8BE74FF0000C4FF0010E002840F028820A9B002B3FF4D0AE8146A7E76FF0004305934FF0FF330493B5
:401C00002B0742BF059B43F000430593DDE9048978E75846FFF77CFD0068FEF713FE199B1A1819921E5C002C40F0E881302E204605D10132199216780130302EF9D0A6F1D1
:401C40003103082B00F2A082199B303E089300F1010C4FF0010905EB850506EB45050020DAE100BF00870000079BC8EB09089844B8F1000F40F39A8318F00F000AD0DDE90E
:401C80000423C14901EBC001D1E9000105F072FDCDE9040138F00F0640F0288200230A930095089922464B46584604F06BFC1090002800F03B83079A0021002AC2F1000355
:401CC000A8BF0B460F460C9322EAE27307910B93109C5846616804F0E1FB8246002800F0A582DDE9042321469046994622690C31023292000C30CDE90889FEF7B1FC1BA838
:401D00001CA98DE8030042464B46584604F046FF1A90002800F08B825846012104F0CCFC0746002800F082821B9A002AC0F212810C9B0B9903EB02080A981C9B121A1A4478
:401D40006FF47F708242C3F1360380F2EC80801A1F28A3EB000300F30281012500228540119208EB0309C1454A46A8BF4246CE180A9B1E44B2421346A8BF3346002B04DD40
:401D8000C3EB0909F61AC3EB08080C9BB3B1394658461A4604F03AFD0746002800F04682584639461A9A04F091FC0446002800F03D8258461A9904F099FB1A94B9F1000F02
:401DC00008DD4A4658461A9904F070FD1A90002800F02D820B9B43B1514658460B9A04F015FD8246002800F02182002E08DD51463246584604F05AFD8246002800F01682CB
:401E0000B8F1000F08DD39464246584604F04EFD0746002800F00A8258461A99524604F0C1FD0790002800F00182079A0026D3683946D6600D9304F091FDB042C0F2208442
:401E400000F0DD830798394604F0FCFE00224FF0804304460D4605F009FF002867D00D9B002B00F0A280B146484DDDF814C0DFF81C810024464E474B0CEA06069E4200F03F
:401E800027820A9B23B3B6F1D46F21D83CA3D3E900234846414605F0E9FEB0B14846414605F02AFF8146002800F0268305F0ECFB814688460D9B002B40F0198308F1004304
:401EC000CDF850901593DDE9144505F1D6639D1BDDE9080104F0D8FD02460B462046294605F048FC02460B46DDE9080105F090FA0C46CDE904010A9B23B9254B23409E4228
:401F000000F01F8258461A9904F0F0FA5846514604F0ECFA5846394604F0E8FA5846079904F0E4FAD4E600221192012519E71A4B20462946002205F01DFC0D9B8146884683
:401F400073BB01F100430E900F93DDE90E45DDF814C08FE70B9BDDF83080991AECE60F480125801A05FA00F21192FAE619970023B9F1000F7FF475ADBBE500BFAFF30080A9
:401F80000000C0FFFFFFDF41008700000000F03F0000F07F0000E07F0000E03FE3FBFFFF02460B46CDE90E23CFE7049BDDE90401002B40F0DE80C1F313038C46002B40F075
:401FC000DC801191204629460022B54B05F044FEDDF844C0002840F09883B24B20462946002205F0C7FB8146884601F10043DDF844C016901793DDE916453BE74046A1461B
:40200000C446A6F13002092A13D8431C1646002A40F04D821846199B5A1C19925E78F0E74FF00108BB1C1993BE7897E54FF00008F8E74FF0010E0CE54FF0000982E5BEF1AB
:40204000000F7FF4A5AC493E252E3FF6A1AC01A353F826F0D3210000911900009119000091190000911900009B210000911900009119000091190000911900009119000082
:402080009119000091190000911900009119000091190000911900009119000091190000911900009119000091190000911900009119000091190000911900009119000080
:4020C0009119000091190000911900009119000091190000D3210000911900009119000091190000911900009B210000B6F59A7F00F31C813611012EDFF8D08140F323836B
:40210000DDE9040147464FF0000A16F0010F0AF1010A4FEA660603D0D7E9002305F02AFB012E07F10807F0D1CDE90401059B08EBCA08A3F154730593DDE90423D8E90001B4
:4021400005F018FB21F000431B0D574A1B059342CDE9040100F2EA80A2F58012934240F2CF82524B059300230A934FF0FF33049396E5012800F0C3818C4600244C4D4FF00A
:402180000009DFF81C8175E6652E3FF426AD4FF00009CC464FF0010E5DE41999454809E011F8013FA3F14104192C98BF203393427FF4EEAB10F8012B002AF1D14B1C199378
:4021C0004B78282B00F0FD823B4B0593002304931CE5199A394809E012F8013FA3F14104192C98BF20338B427FF4D2AB10F8011B0029F1D119921546314809E012F8013FD4
:40220000A3F14104192C98BF20338B4240F0988210F8011B0029F1D101321992294B059300230493F2E4013140F0B8821A98254B0022059322230492CBF80030DDE904899D
:402240000146584604F052F95846514604F04EF95846394604F04AF95846109904F046F95846079904F042F94CE4069A1AAB01920093584619A9144A1BAB03F0EFFA10F074
:40228000070605463FF43AAC062E40F047810134002319944FF000084FF00009069331E40000F03F0000E03F0000A07CFFFFEF7F0000F0BF3C8500000000F8FF308500004D
:4022C000348500000000F07F40850000C8870000ACF154730593DDE904231046194604F0D3FB02460B462046294605F043FA02460B46DDE9040105F08BF821F000431B0D4A
:40230000B34A1B059342CDE90401DDE90801CDE9120140F2A980AF4B139A9A4200F0EB81AC4B05934FF0FF330493EBE5AA4B0022059304922223DDE90489CBF80030FFF7F1
:40234000E1BB4146484605F0AFFC05F0ADF90B4602464146484605F059F80D9B8046894683B9049B73B9C4F313045CB992A3D3E9002305F071FC00283FF4C4ADDDE90489C1
:402380001A985DE78EA3D3E900234046494605F063FC0028F2D18CA3D3E900234046494605F078FC00283FF4ADADE7E73FF476ACC8F1000717F00F020AD0DDE90401874B10
:4023C00003EBC203D3E9002305F0FEFACDE904013F113FF463AC1F2F39DC17F0100300F0E7816A23002FD8BF0A9314DDDDE904017B4E0A9317F0010F4FEA670703D0D6E9DA
:40240000002305F0B7F9002F06F10806F2DC0A9BCDE9040193B1DDE90401C1F30A53C3F16B03002B0ADD1F2B40F3E8810022342B049240F3EB814FF05C730593DDE9040111
:402440000022002305F0FEFB00283FF429AC2223CBF800304FF000084FF00009FFF752BB44F61F63FFF7B0BB059B03F15474059441E5079AC9F125039A423FF7F5ABDDE9FC
:402480000423564CC9F10F0904EBC901D1E9000105F070F9079BC9EB030904EBC904D4E9002305F067F980468946FFF72BBB012B9C4414D0484402E05D00814510D009F190
:4024C000010909F1FF33082B05EB8503F4DDB9F1100FDCBF0AEB8A0A4FEA4A0AEDE74846082800F101097FDC199BFFF7B4BB4A464346CDE91423E6E4DFF8E880DAE4DDE91C
:4025000004239C46002B7FF438AE2223CBF800301A984FF000084FF0000991E61A9A3AB11CA8352104F0BAFB58461A9903F0DEFF1B9B062E3FF664AB01A252F826F000BFAB
:402540008D25000075250000692500005D250000F51B0000752500008D2500001E4B059300230493FFF74CBB1C9B04931D9B0593FFF746BB1D9A1C9903F2334322F48012D7
:4025800042EA035304910593FFF73ABB002305930493FFF735BB1633FFF666ABDDE90401079A0E4BA3EBC203D3E9002305F00CFA80468946FFF7A6BA9535A094FFFFCF3F13
:4025C0009535A094FFFFDF3F35E5AF350000E03FFFFF9F7CFFFFEF7F0000F07F00870000588500000000F03FB9F1100FD7BF0AEB8A0A199B199B02EB4A0A00200CE50D9ED0
:40260000AE46DDE90889002E00F08880DDE90445824BC5F3130199422A4600F0A980119B002B00F08880059A13420DD0DDE904010A9A002E00F08A80FFF744F942464B469A
:4026400004F0E6FE804689460A9BBBB1744B4046139300231293DDE91223494605F08AF802460B4680468946CDE9042331B9049B23B922231A98CBF80030E1E51A98DFE592
:402680000D9EDDE90889002EDED1049B002BDBD1DDE90401C1F313030C46002BD4D1059B23F000431B0D1B05B3F1D66FCCD9079A536913B91369012BC6DD0799012258466D
:4026C00004F0F4F83946079004F048F90028BBDD0A9B002B40F08780524B2340A3F580136FEA13536FEA035305934FF0FF330493DDE90489A8E7129B01337FF411AE95E540
:4027000001F154730593FFF7C9BA474B0022CDE91623DDF83490DFF81C816CE4DDE90401C1F313030C46002B7FF479AF049B002B7FF475AFCCE7049A1EEA020F84D075E7A7
:402740006B1C19936AE54FF0000AEFE4FFF7BAF802460B464046494604F058FE002200238046894605F06EFA00287FF4CEAE6BE70A9B049913B32B4B2B40B3F1D46F1DD8B6
:402780001B0DC3F16B034FF0FF3000FA03F399427FF445AF254B9A423FF445AD214B134003F58013059300230493DDE904894BE7002FD8BF0A933FF719AE3FE64FF0FF33A7
:4027C000E5E719A81A491CAA03F0D2FA05287FF4FBAC1D9B43F0FF4343F4E00305931C9B0493FFF713BA0F4B2340B3F1D66F3FF775AFB3F15C7F3FF729AF86E64FF0FF32C4
:4028000002FA03F3049A1A40049217E6203B4FF0FF3202FA03F30B4005930FE6FFFF0F00000050390000F07F0000E0BFFFFFEF7F1C8500000000E03F2DE9F04F444C834608
:402840000E46D4F800E000E02646344614F8015B0EEB0500407800F0080000F0FF080028F2D12D2D4BD02B2D04BF7578B41C1BB1102B60D09A4603E0302D54D00A239A46C5
:40288000B8F1000F14BF4FF000406FF00040B0FBFAF90027BC460AFB19000CE0303DAB4219DD7E1C05D0CC4524D821D00AFB0C5C012714F8015B0EEB0506767816F0040FD9
:4028C000ECD116F0030606D0012E0CBF37265726AD1BAB42E5DC7B1C16D0C8F100008CEA000040444AB107B1611E1160BDE8F08F8542DBDD4FF0FF37DBE7BDE8F08FB41C4B
:4029000075784FF00108B2E7B8F1000F4FF0220314BF4FF000406FF00040CBF80030002AE2D1BDE8F08F237803F0DF03582B09D008239A46A4E7302D9CD1207800F0DF0035
:40294000582897D14FF0100A65785346023497E74C85FF1F2DE9F04F0C4687B004916F49019205909B462246D1F800A000E02A46154615F8014B0AEB04035B7803F0080327
:4029800003F0FF01002BF2D12D2C00F092808C462B2C04BF5478951CBBF1000F72D0BBF1100F00F0A3805E46F717BCF1000F72D14FF0FF386FF000494046494632463B46BA
:4029C000CDF80CC005F008FA404602923B463246494605F001FA002200234FF0000EDDF80CC0DDF808801BE0303CA3452DDDBEF1FF3F13D0994208BF904253D38B4208BFD6
:402A000082424DD002FB07FE06FB03EEA2FB06237344121943EBE4734FF0010E15F8014B0AEB040999F8019019F0040FDCD119F003090AD0B9F1010F0CBF4FF037094FF0CE
:402A40005709C9EB0404A345D1DCBEF1FF3F35D06046DCF100064FEAE07161EB410772407B4012EB0C024B410199002953D0BEF1000F1AD110461946049D019B1D6007B063
:402A8000BDE8F08F302C27D00A2600274FF00A0BBCF1000F8CD04FF000084FF000498BE74445AFDD4FF0FF3EB8E710461946013DE3E7951C54784FF0010C6DE7BCF1000FD5
:402AC00019D14FF0FF306FF00041059A22231360019B002BEBD1D2E72B7803F0DF03582B12D0082600274FF0080B5EE7302C06D01026002759E700204FF00041E5E72B78A4
:402B000003F0DF03582BF3D16C781026002702354FF0100B49E710461946B0E74C85FF1F2DE9F04F494C0F46D4F800E000E027463C4614F8015B0EEB0506767806F0080624
:402B400006F0FF08002EF2D12D2D51D02B2D04BF7D78BC1C5BB1102B5BD04FF0FF39B9FBF3F903FB09FB9A466FEA0B0B07E0302D43D00A239A46DFF8D8904FF0050B002711
:402B8000BC460CE0303DAB4219DD7E1C05D0CC4524D821D00AFB0C5C012714F8015B0EEB0506767816F0040FECD116F0030606D0012E0CBF37265726AD1BAB42E5DC002F47
:402BC00011DBC8F100008CEA000040444AB107B1611E1160BDE8F08F5D45DBDD4FF0FF37DBE7BDE8F08F222303604FF0FF30EDE7BC1C7D784FF00108ACE7237803F0DF03B8
:402C0000582B0ED008239A464FF0070B6FF06049B5E7302D0FD09A464FF00F0B6FF07049ADE74FF0100A657853464FF00F0B02346FF07049A3E7267806F0DF06582EF0D053
:402C40004FF00F0B6FF070499A4698E74C85FF1F999999192DE9F04F8B46764987B09246049099465A46D1F8008000E02A46154615F8014B08EB04035B7803F0080303F09F
:402C8000FF00002BF2D12D2C00F097802B2C08BF5478039008BF951CB9F1000F1DD0B9F1100F00F09F804E46F7174A463B464FF0FF304FF0FF3105F08FF84A460590009192
:402CC0003B464FF0FF304FF0FF3105F085F8DDF814C00292604600990AE0302C72D00523554902934FF099300A2600274FF00A09002200234FF0000ECDE900671DE0303CDC
:402D0000A1452FDDBEF1FF3F15D0994208BF904246D38B4208BF82423FD0019E02FB06FE009E06FB03EEA2FB06237344121943EBE4734FF0010E15F8014B08EB040C9CF840
:402D400001C01CF0040FDAD11CF0030C0AD0BCF1010F0CBF4FF0370C4FF0570CCCEB0404A145CFDCBEF1000F1FDB03990E46CF1708463946764267EB470772407B4080181F
:402D80005941BAF1000F05D0BEF1000F0BD0013DCAF8005007B0BDE8F08F029EB442BCDD4FF0FF3EC7E75D46F2E7049A222313604FF0FF304FF0FF31E3E70123951C5478B3
:402DC000039369E72B7803F0DF03582B15D0072302934FF0FF306FF06041082600274FF0080985E7302C16D00F234FF0FF306FF070411026002702937AE70F2302936FF064
:402E000070436C784FF0FF3C02350093102600274FF010095EE72B7803F0DF03582BECD00F2302934FF0FF306FF07041102600275EE700BF4C85FF1F99999919B1F1FF3FAD
:402E400037D0F8B514469389126B23F02003CDB2A381AAB16268636B9A4209DA236828465A1E226003F8015C636801336360F8BD214601F0FFFA0028F0D04FF0FF30F8BD02
:402E8000236922682BB1934203D212F8010CA84212D02346676804F140060321A263E76326636163012203F8425F284623606260F8BD4FF0FF3070476368013A013384E86E
:402EC0000C00F8BD10B50C46096B69B104F14003994201D002F09AFBE36B00206360206313B1A36B236010BDA389216943F020030022A38184E806004FF0FF3010BD00BF6D
:402F00002DE9F04F9A4602FB0AF983B001920C9CB9F1000F28D007460E464D464FF000080FE05A46FDF79CFB2268C4F804805A44226038462146CBEB05055E44FFF7C2FFC0
:402F4000B0B9D4F804B030465D452168E9D82A46FDF786FB504662682368521B2B446260236003B0BDE8F08F484603B0BDE8F08F019BC5EB0909B9FBF3F003B0BDE8F08F0D
:402F80002DE9F04FC1B089460A920E930890FEF7BFFB036818461793FDF754FCB9F80C3018901C0604D5D9F81030002B01F0C28030AF3C464E4600231393169319930B9391
:402FC000259324932397149315930A9D2B78002B00F0A980252B02D1A5E0252B03D015F8013F002BF9D10A9BEB1A73B1249A259901320A981944072A84E809002591249230
:4030000072DC08340B9A1A440B922B78002B00F0E28700231A46691C6D788DF86F300C9307934FF0FF3A4B1CA5F12001582900F2EA83DFE811F06D02E803E803D102E803B4
:40304000E803E803E803E803E803BC020D02E803F4011102E803D8027B027B027B027B027B027B027B027B027B02E803E803E803E803E803E803E803E803E803E8038A0215
:40308000DF02E803DF02E803E803E803E803CB03E803E8032F03E803E803E803E803E8034D03E803E8036703E803E803E803E803E803E803E803E803E803E80382032B02DA
:4030C000DF02DF02DF02CA022B02E803E803B202E803D203FB0119037402E803A303E8037A00E803E80347020898314623AA079304F072F850B93C46079B83E708983146BD
:4031000023AA04F069F8002800F08581B146B9F80C3013F0400F0B9B18BF4FF0FF33184641B0BDE8F08F0A9D6FE70A93079B980640F1D7820E9B03F1070929F0070303F190
:403140000802D3E900890E92012300229446CDF844A08DF86F20BAF1000F03DB079A22F08002079258EA090240F06F83BAF1000F00F07484012B00F07283022B00F0C28498
:4031800039464FEAD80242EA49724FEAD90008F0070381469046303358EA090201F8013DEFD1079A1091D20700F17F857B1A0D930D9A53469245B8BF1346099300231293AE
:4031C000BCF1000F02D0099B01330993079B13F002030F9302D0099B02330993079B13F0840940F02F830C9B099AC2EB0308B8F1000F40F32783B8F1100F2599249ADFF874
:4032000070A529DD53464FF0100BC246A8461D4606E0AAF1100ABAF1100F04F1080417DD01321031072A2591249284E82008F0DD0898314623AA03F0CFFF00287FF466AF06
:40324000AAF1100ABAF1100F3C462599249AE7DC2B464546D0469A46013208EB010B072ACDF894B02492C4F800A0C4F8048000F3DE829DF86FC00834BCF1000F0FD0249BB1
:403280000BF1010B01330DF16F010122072BCDF894B0249384E8060000F3FD8308340F9B73B1249B0BF1020B01331CA90222072BCDF894B0249384E8060000F3F98308346C
:4032C000B9F1800F00F03483119B0D9AC2EB030ABAF1000F3CDDBAF1100F249ADFF894942BDD49465B46A9464FF01008DDF820B00D4606E0AAF1100ABAF1100F04F10804AB
:4033000017DD01321033072A2593249284E82001F0DD5846314623AA03F05EFF00287FF4F5AEAAF1100ABAF1100F3C46259B249AE7DC9B462B464D4699460132D344072A39
:40334000CDF894B0249284E8000600F398830834079BD90500F18F82249B0D990133109A8B44072BCDF894B022606160249300F3B8830834079B5A0741D50C9B099A9D1A85
:40338000002D3CDD102D249BDFF8E4A323DD4FF010085A46DDF8209004E0103D102D04F1080417DD01331032072B25922493C4F800A0C4F80480F0DD4846314623AA03F04A
:4033C0000BFF00287FF4A2AE103D102D3C46259A249BE7DC93460133AB44072BCDF894B02493C4F800A0656009DD0898314623AA03F0F2FE00287FF489AEDDF894B00B9B3E
:40340000099A0C998A42ACBF9B185B180B93BBF1000F7FF473AE002324933C46D5E51946079840F0040007901D78FCE50A93079B13F0200300F038810E9B03F1070929F0D1
:40344000070303F10802D3E900890E9200237CE61D7819462B22E6E51D78591C2A2D00F0E587A5F1300009280B464FF0000A3FF6DBAD13F8015B0AEB8A0A00EB4A0AA5F1FE
:4034800030000928F5D94AEAEA7ACDE50A93079B8DF86F20980662D50E9B03F1070929F00709D9E9002309F10801904699460E91002A73F1000364DB9DF86FC0CDF844A01C
:4034C000012348E60A93A74B8DF86F201693079B9B0640F120810E9B03F1070929F0070303F108020E92D3E90089079BD90740F1228158EA090300F01E81079A302342F00D
:4035000002028DF870308DF87150079202231CE6002A40F0E5841D781946202283E5079941F0200107911D7819467CE5A5F13000002113F8015B01EB810100EB4101A5F19D
:4035400030000928F5D90C916EE50A93079B8DF86F2043F010030793079B98069CD4079BD90640F1C1840E9A13461B6804320E924FEAE3791A4698464B46002A73F1000303
:403580009ADA4FF02D0CD8F1000869EB49098DF86FC0CDF844A00123DDE51D7807996C2D00F0258541F01001079119463BE50E9D296808460C912946002801F10401C0F23D
:4035C0001D850E911D7819462DE5079941F0400107911D78194626E5079941F0010107911D7819461FE5079941F0800107911D78194618E50A93079B8DF86F2013F0080F30
:403600000E9BD34603F1070900F0378429F0070303F108020E921A685B681492159315991498FEF7BDF801281599149840F00B840022002304F010FB002840F039869DF88F
:403640006FC0079B484A23F0800307931346DFF828E10321472DD8BF734600200991119010930D911290ABE50E9907980A9330230A688DF870303B4B782540F00200043171
:40368000169307900E9190464FF000098DF8715002235AE50A93079B43F010030793079B13F020037FF4C8AE079A12F0100240F00A83079B13F0400300F005830E991346C1
:4036C0000A460432B1F800804FF000090E923CE50A93079B43F010030793079B98063FF529AD079BD90600F1F782079B5A0640F1F3820E9A4FF00009B2F8008004320123A2
:403700000E9222E50A93194B8DF86F201693079B9B063FF5E0AE079BD80640F1BB830E9A13461B6804329846079B0E92D9074FF000093FF5DEAE022307E50E980A930268B0
:4037400000238DF89820024601219C4604328DF86F301193129326AB09910E920D91109334E500BFB485000094850000A0850000D485000080850000908500000E9A0A93A7
:4037800013684FF0000B10938DF86FB002F10409002B00F05885BAF1000F1098C0F2EA845946524602F02CFE002800F08985109BCDF844B0C31A0D93CDF8389023EAE37339
:4037C0000993CDF848B09DF86FC0F9E4079941F0080107911D78194625E40A93079B8DF86F209A0640F165830E9A134604330E930B9B11684FEAE3791A4698464B46C1E94E
:403800000023FFF7E2BB0A938DF86F20002D00F0E283002301229C468DF86F301193129326AB09928DF898500D921093CEE40898314623AA03F0D0FC00287FF467AC3C466A
:403840009DF86FC0DDF894B016E5012B7FF495ACB9F1000F08BFB8F10A0F80F006820DF5807B08F130080BF8418DCBEB07030D93CDF840B09CE4652D40F3A0801498159983
:403880000022002304F0DEF9002800F05481249BC14901330BF1010B0122072BCDF894B0249384E8060000F33E8308341D9B139A934203DB079BDA077FF55CAD249B189907
:4038C0000133179A8B44072BCDF894B022606160249300F31A840834139B5D1E002D7FF749AD102D249BDFF8B49240F3EF804FF010085A46DDF820A004E00834103D102D5F
:4039000040F3E38001331032072B25922493C4F80090C4F80480F0DD5046314623AA03F05BFC00287FF4F2AB3C46259A249BE5E70C9B099AC2EB030ABAF1000F7FF7C4ACB6
:40394000BAF1100F249ADFF854922BDD49465B46A9464FF01008DDF820B00D4606E0AAF1100ABAF1100F04F1080417DD01321033072A2593249284E82001F0DD58463146AE
:4039800023AA03F029FC00287FF4C0ABAAF1100ABAF1100F3C46259B249AE7DC9B462B464D4699460132D344072ACDF894B0249284E8000600F33A82083485E4139B249DA7
:4039C000012B40F3FC81013510990BF101030122072D259321602495626000F30E8208341899013503EB010B179B072DCDF894B024952360616000F30C82083400231498E9
:403A00001599002204F01EF9139B002840F0E380109A013B013501329B44072D22602495CDF894B0636000F313810834199A013593441FAB072DCDF894B024956260236051
:403A40007FF797AC0898314623AA03F0C5FB00287FF45CAB3C46DDF894B08BE4002B4CD1079BD80749D50DF5807B30230BF8413DCBEB07030D93CDF840B0FFF799BB089893
:403A8000314623AA03F0A8FB00287FF43FAB3C46DDF894B05CE40898314623AA03F09CFB00287FF433AB3C46DDF894B0FFF7F7BB0898314623AA03F08FFB00287FF426ABD5
:403AC0003C46DDF894B0FFF7FBBB93460133AB44072BCDF894B02493C4F8009065607FF748AC0898314623AA03F076FB00287FF40DABDDF894B03C463CE4CDF834A0109780
:403B0000FFF756BBBB4616984FEA181343EA09734FEA191108F00F0289469846835C0BF8013D58EA0903EFD15B46CDF840B0FB1A0D93FFF73DBB1D9D002D40F30082139A39
:403B4000129913468A42A8BF0B461D461099002D01EB020A0CDD0A46249BAB440133072BCDF894B084E82400249300F348830834129B002DA8BF5B1B002B1D4640F3C1803C
:403B8000102D249BDFF8149040F3C0815A464FF01008DDF820B008E0D0850000808500000834103D102D40F3B08101331032072B25922493C4F80090C4F80480F0DD584605
:403BC000314623AA03F008FB00287FF49FAA3C46259A249BE5E703F1FF38B8F1000F7FF725AFB8F1100FDFF8489525DD5B464FF0100ADDF820B006E0A8F11008B8F1100F32
:403C000004F1080417DD01351033072D2593249584E80006F0DD5846314623AA03F0DCFA00287FF473AAA8F11008B8F1100F3C46259B249DE7DC9B460135C344072DCDF879
:403C400094B02495C4F80090C4F804807FF7EDAE0898314623AA03F0BFFA00287FF456AADDF894B0249D3C46E0E6BB46CDF824C0404649460A22002304F0AEF830324046CD
:403C800049460BF8012D00230A2204F0A5F88046894658EA0903EBD15B46FB1ADDF824C0CDF840B00D93FFF783BA302B109B3FF43EAF013B1A461093BA1A30230D9201F8AA
:403CC000013CFFF775BA0E994FF000090A6804310E919046FFF739BA0E9901230A6804310E9190464FF00009FFF72FBA0898314623AA03F071FA00287FF408AA3C46DDF87A
:403D000094B0109A12991D9B0A449046139A934246DB079AD00743D4139AC8EB0A05D31A9D42A8BF1D46002D0CDD249AAB440132072ACDF894B0C4F800806560249200F3FD
:403D400096820834002DB4BF1D465D1B002D7FF711AB102D249BDFF8D8937FF7B7AE4FF010085A46DDF820A004E00834103D102D7FF7ABAE01331032072B25922493C4F825
:403D80000090C4F80480F0DD5046314623AA03F023FA00287FF4BAA93C46259A249BE5E7249A1898013217998344072ACDF894B021606060249200F339820834ACE7079B4A
:403DC000D9073FF500AE0135109A0BF1010B0123072DCDF894B02260249563607FF725AE0898314623AA03F0F7F900287FF48EA93C46DDF894B0249D18E60898314623AA9A
:403E000003F0EAF900287FF481A93C46259B249DE6E50898314623AA03F0DEF900287FF475A93C46DDF894B0249DE7E50898314623AA03F0D1F900287FF468A93C46DDF8E6
:403E400094B0FFF741BAFDF7ABFC002840F0DD80B44AB54B8646472DD8BF1A4611900798032120F0800009910790CDF848E010920D919DF86FC0FFF7A3B929F00709D9F826
:403E800000301493D9F80430159309F108030E93FFF7C5BB079B0E9A13F0400F13463FF440AC0433B2F800804FF000090E93FFF71CBB079BDB060BD4079B5D0608D50E9A4B
:403EC000136804320E92BDF82C201A80FFF77DB80E9A136804320E920B9A1A60FFF775B819461D78FFF79FB8079B0E9A13F0400F13463FF43AABB2F9008004334FEAE87926
:403F00000E9342464B46FFF7D3BA93460133AB44072BCDF894B02493C4F8009065603FF7E5AE0834EDE60898314623AA03F054F900287FF4EBA83C46DDF894B0B6E4249B27
:403F40007A4901330BF1010B0122072BCDF894B0249384E8060000F3FD8008342DB9139B1BB9079BDB077FF505AA249B18980133179A0BEB0001072B2591226060602493D4
:403F800000F3F48104F108026D42002D40F30781102DDFF89C9140F33E811024DDF8208004E00832103D102D40F3358101331031072B25912493C2F800905460F1DD404630
:403FC000314623AA03F008F900287FF49FA83A462599249BE6E7259BB146002B3FF497A80898314623AA03F0F7F8FFF790B841F0200107915D78591CFFF715B80C980E914B
:4040000040420C901946FFF70BBA25F02003BAF1FF3F0D9300F0AB80472B05D1BAF1000F14BFD3464FF0010B079B43F480731193159BB3F1000A149B0993B7BF53460023E8
:4040400003F1004A2D23662D0F9300F0B980462D00F0B6800D9B0220452B14BFD9460BF101091DA98DE8010202911EA821A90390099A53460491089800F026FB672D1090DF
:4040800002D0472D40F0AC80079BDB0740F19681109B03EB0908099851460022002303F0D1FD002840F00A81219B984506D930215A1C21921970219B9845F9D8109A9B1A83
:4040C00013930D9B472B1D9B00F0EB80652D40F30581662D129300F06481139B129A934200F35181079BD90700F1888122EAE2730D920F9A002A40F0C9800993119B9DF8FC
:404100006FC007931192FFF75BB80898314623AA03F062F800287EF4F9AF3C46DDF894B0FFF7DABB9C85000098850000D0850000808500000898402101F0DCFEC9F800004C
:40414000C9F81000002800F086814023C9F81430FEF72EBF0898314623AA03F03DF800287EF4D4AF3C461D9DDDF894B0F6E64FF0060B59E7CDF844B0FCF764FBCDF8389083
:404180000D900346FFF71ABB0898314623AA03F023F800287EF4BAAF3A462599249B139C013301EB040B1099072BCDF894B02493116054603FF795AC02F10804FFF7DAB8C0
:4041C00003201DA98DE8010802911EA821A90390099A53460491089800F076FAD9461090109B03EB09080D9B462B7FF454AF109B1B78302B00F0E4801D9B98444BE7089886
:40420000314623AA02F0E8FF00287EF47FAF3C46DDF894B0ACE401332944072B25912493C2F800905560AFDC0832B8E70898314623AA02F0D1FF00287EF468AF3C461D9B3A
:40424000DDF894B068E55346062B28BF06230D9323EAE373DDF840C00993844BCDF83890CDF844C0CDF848C01093FEF7A9BF0898314623AA02F0B0FF00287EF447AF1D9BCB
:40428000139ADDF894B0D31A3C465BE50993119B4FF02D0C079300238DF86FC01193FEF792BFDA1C19DB9B4517DB1293672514E72D239C468DF86F30FFF7C3B94346FDE652
:4042C0002AEAEA731190CDF8389012909DF86FC00993CDF834A0FEF773BF023D013B002B1D93BABF5B422D222B22092B8DF87C508DF87D207ADD0DF18B0001465C4A82FB64
:40430000032EDA17C2EBAE0E0EEB8E02A3EB420273463032092B01F8012DEFDC0A4630335FFA83FE02F801ED904240F29B800DF17E020B4601E013F801EB834202F801EB70
:40434000F9D123AB5B1A0DF17E0213441FAA9B1A139A1993012A13440D935EDD0D9B002201330D93129223EAE373C2E60898314623AA02F031FF00287EF4C8AE3A461D9D8A
:404380002599249B00E6129B002BD8BFC3F10208139BC8BF4FF0010843440D9323EAE373A7E6002B30DDBBF1000F17D1079BDB0714D4129A22EAE2730D929AE6219B7DE647
:4043C000099851460022002303F03CFC00287FF413AFC9F101031D9398445CE6129B0BF1010843440D9323EAE37382E6303330228DF87F308DF87E2020ABA7E7129B013342
:404400000D9323EAE37374E6BBF1000F1DD1079BD8071AD401230D936BE6079B13F001039CD112930D9B23EAE37362E60E9D2846D5F800A00430BAF1000F5D780E90BEF649
:40444000F2AD4FF0FF3AFEF7EEBD0BF102030D9323EAE3734DE6089A0C2313604FF0FF30FEF75EBE0DF17E0370E700BFC8850000676666662DE9F0410C46096B04F14003CB
:40448000994214D0666B77003A4602F059FC054648B300EB0608324640462946FCF7E0F8C4F80080256367630020BDE8F0814FF4806101F01FFD0346A8B194F842204FF4EF
:4044C00080612063616380F8FF2394F8411000F2FD3280F8FE1394F84010002083F8FD132260BDE8F0814FF0FF30BDE8F08100BF2DE9F047254C064625688846D5F8484156
:4045000092469946C4B360681F2817DC411C76B104EB8003C3F888A0D4F88851012282401543022EC4F88851C3F808911ED0831C6160002044F82380BDE8F087144B03B3F9
:404540004FF4C870AFF300800446D0B1D5F84831002784E888003846C5F848410121C4F88871C4F88C71002EE1D0D1E7D4F88C311A43C4F88C21DAE705F5A674C5F848411D
:40458000C1E74FF0FF30BDE8F08700BFDC830000000000002DE9F04F03690F6983B09F4200F38B80013F01F1140600F1140A56F827305AF827200133B2FBF3F8BB000093AD
:4045C00006EB030953440193B8F1000F3DD000231C46B446D6461A465CF804BBDEF800501FFA8BF34FEA1B4B03FB08220BFB08F303EB124392B2A41A1FFA83FBAAB222449D
:40460000CBEB154404EB224492B242EA0442E1454EF8042B4FEA24444FEA1342DCD2009B5AF803308BB9019C231F9A450CD254F8043C4BB9A4F1080302E01A68043B1AB942
:404640009A4507F1FF37F8D30761044602F086F900282EDB00235546194608F1010856F8042B2B6890B2081A120C99B2C2EB1343421803EB224392B242EA0342B14545F87A
:40468000042B4FEA2341EAD25AF827200AEB87037AB91A1F92450BD253F8042C42B9083B02E01A68043B1AB99A4507F1FF37F8D32761404603B0BDE8F08F002003B0BDE8D6
:4046C000F08F00BF000000002DE9F04F016C99B00446CDE90223259D41B1426C012393408B604A6001F002FF00232364DDE90223002B994636DB00232B60A54B1A4609EACB
:404700000303934217D0DDE90267002200233046394603F097FA804600282BD0249A01231360269B002B00F0CB809A481860013819B0BDE8F08F42F20F73249A1360029B61
:40474000002B00F0A6809448269B002BF0D0C378002B00F0B78000F10803269A136019B0BDE8F08F039A012322F000492B60CDF80C90C2E717AA16AB8DE80C002046324635
:404780003B4602F00BFA5FEA1955834640F08A80DDF85880179D6FF4826345449D42C0F295827E4A05F21243521B09FA02F9029A22FA03F049EA000002F066FF0123013DD7
:4047C000A1F1F87112930022754B02F01FFE6AA3D3E9002302F0CEFF69A3D3E9002302F017FE064628460F4602F05EFF66A3D3E9002302F0BFFF02460B463046394602F015
:4048000007FE06460F4603F04FFA3946059000223046002303F020FA002840F0A481059B162B00F29D81DDE9022305985D4901EBC001D1E9000103F02DFA002800F05082B2
:40484000059B013B059300230C93C5EB0805B5F1010A00F19F8100230693059B002BC0F290819A440B9300230993229B092B2BD8052B40F37786043B22930025229B023B97
:40488000032B00F25586DFE813F0CF03C103B0026A06414B444AC9F31300002814BF1846104651E7C7F3130343F07F51CDF848803046A5F2FF3541F44011DDF8588082E76E
:4048C0003A4835E7C31C48E7002161642046229101F0E4FD4FF0FF33229A07930D9301230890239220640A93179B002BC0F2D080059A0E2A00F3CC802A4B03EBC203D3E969
:404900000089239B002BC0F29283DDE9026742464B463046394603F057F803F0C5F9824602F0C2FE42464B4602F024FF02460B463046394602F06AFD079E089F0AF1300503
:40494000012E3D7002460B4607F1010562D00022174B02F00FFF0022002306460F4603F071F9002840F08180CDF808B0DDF820A0DDF81CB006942AE061436F63A787D23F66
:40498000B3C8608B288AC63FFB799F501344D33F0000F07FD1850000F08500000EFCFFFF0000F83F00870000E4850000D0850000000024400022C84B02F0DCFE00220023A6
:4049C00006460F4603F03EF9002840F0E08342464B463046394602F0F7FF03F065F9044602F062FE42464B4602F0C4FE02460B463046394602F00AFD04F1300605F8016B66
:404A0000CAEB0506B34502460B46D3D1A246DDF808B0069C1046194602F0FAFC06460F464046494632463B4603F016F948B94046494632463B4603F005F9B0B11AF0010FA1
:404A400013D015F8018C6B1E089904E08B4200F0458413F8018DB8F1390F03F101051A46F4D008F10103DBB213702046594601F03DFD0022059B2A70249A01331360269BBE
:404A8000002B00F04A8308981D6019B0BDE8F08F0A9A002A00F08480229A012A40F30983079B5F1E099BBB42C0F2AF83DF1B079B002BC0F2A584069D079B069A20461A44AD
:404AC000012106929A4401F0F7FD064665B1BAF1000F09DDAA455346A8BF2B46069AED1AD21A0692C3EB0A0A099B002B1ADD0A9B002B00F08383002F10DD31463A462046E5
:404B000001F084FE06465A463146204601F0DEFD80465946204601F0E9FCC346099BDA1B40F0A7822046012101F0C6FD0B9B8046002B39DD01461A46204601F067FE229BC8
:404B40008046012B40F39B824FF00009D8F8103008EB8303186901F061FDC0F120002DE001230C9371E6059802F09EFD32463B4603F068F800287FF452AE059B013B0593D5
:404B80004DE6069A059BD21A5B420993002306920B936AE6CAF1000306934FF0000A5CE6099F069D0A9E91E7229B012B40F3B8824FF000090B9B002BC8D10120504410F0AA
:404BC0001F0000F08180C0F12003042B40F3C184C0F11C00069B0544034406938244069B002B05DD59461A46204601F05FFE8346BAF1000F05DD41465246204601F056FE3D
:404C000080460C9B002B40F06D82079B002B40F39B820A9B002B71D1DDF82090079F4D4604E05946204601F06BFC834658464146FFF7B0FC303005F8010BC9EB0503BB42DD
:404C40004FF00A024FF00003EBDB089B079A8446012AACBF9B1801331D464FF0000A594601222046CDF808C001F020FE4146834601F074FE0028DDF808C040F3FC8215F8B0
:404C8000012C6B1E089904E08B4200F0798213F8012D392A03F10105F6D001321A704146204601F023FC002E3FF4DFAEBAF1000F05D0B24503D05146204601F017FC31462C
:404CC000204601F013FCD0E61C2083E7034B029A5B1B02FA03F06FE500002440EEFBFFFF0C90B2E53146002320460A2201F008FC0D9B0646002B40F315840793002D05DD1C
:404D000031462A46204601F0D1FD0646B9F1000F40F0EE82B146089A079B1746013BD3180993029B03F001030A9341465846FFF731FC31460546584601F010FE4A46824637
:404D40004146204601F02EFEC268034605F1300C002A40F0BD8119465846CDF81CC0069301F0FCFD069B02901946204601F0BEFB029ADDF81CC02AB9229B1BB90A9B002B98
:404D800000F0B083BAF1000FC0F2578205D1229B1BB90A9B002B00F05082002A00F3BC82099B07F1010A9F4287F800C0554600F0BF8259460A220023204601F0A1FB4E4530
:404DC0008346314620464FF00A024FF0000300F0798101F095FB494606460A222046002301F08EFB574681469FE701230A93239B002B40F319821F461E460D930793002185
:404E0000172F61640AD9012204235B0003F114008742114602F10102F7D26164204601F03DFB0E2E089020643FF65EAD002D3FF45BADDDE902230599CDE90E23002940F3D8
:404E40002682BA4B01F00F020D1103EBC203E906D3E9006740F1E181DDE90E01B44B05F00F05D3E9082302F0AFFDCDE902014FF003088DB130463946DFF8B492EA0705D58D
:404E8000D9E9002302F076FC08F101086D1009F10809F3D106460F46DDE9020132463B4602F092FDCDE902010C9B43B1DDE902010022A04B02F0D0FE002840F0B582404678
:404EC00002F0F2FBDDE9022302F054FC9A4B002202F09EFA079B0646A1F15077002B00F06881059BDDF81CC013930A9B002B00F026828E4B002003EBCC0353E902238F497C
:404F0000CDF850C002F060FD32463B4602F07EFADDE90267CDE910013946304602F0C4FE054602F0C1FB02460B463046394602F06DFADDE9102330355FFA85F8089D064646
:404F400085F800800F46013502F086FE002840F0B98232463B460020764902F057FA02460B46DDE9100102F095FE002840F0B382DDF850C0BCF1010F40F33A81089BCDF80B
:404F800050A0CDF808B003EB0C09DDE910ABA0460FE032463B460020664902F037FA52465B4602F059FE002840F090824D4500F01A81504659460022614B02F0DBFB00224A
:404FC0005F4B82468B463046394602F0D3FB0F46064602F069FE044602F066FB02460B463046394602F012FA3034E4B205F8014B52465B4606460F4602F02EFE0028C8D09B
:40500000139BDDF808B0444605932EE500230A93239B059A13440D930133002B079340F30A81079E3746EAE600230A93DFE6079B002B3FF76AAC40F0668240460022414B59
:40504000494602F097FBDDE9022302F019FEDDF81C804646002800F08B80239B089DDB4305934146204601F041FA002E7FF427AEFBE45946204601F0C9FB834652E5029B2B
:40508000002B7FF461AD039BC3F31303002B7FF48FAD039B23F000473F0D3F05002F00F01E82069B0AF1010A013306934FF0010980E5129A002A00F0A98103F23343099F94
:4050C000069DFAE401F01CFA5746064681462CE601462046CDF808C001F008FA0122DDF808C04FE65846414601F038FC0028BFF68CAD059F5946002320460A22013F059710
:4051000001F0FEF90A9B8346002B7FF4EBAD0D9B002B40F3FC8107937EE50898FFF708BB029B002B7FF444ADADE700BF00870000C88700000000F03F00001C400000E03F0B
:405140000000244000001440229B022B7FF761AD079B002B81D141460522204601F0D0F980465846414601F0F9FB00287FF775AF059A08993123013205920B704D1C70E7F1
:40518000059A312301320592089A137087E5DDF808B0069C69E4404602F086FADDE9022302F0E8FA0022BE4B02F032F90646A1F15077DDE902010022BA4B02F027F9324607
:4051C0003B46CDE9020102F065FD8046002840F0B280DDE90201324607F1004302F03CFD30B1464639E74446DDF850A0DDF808B0DDE90E23CDE90223FFF776BB5946099A86
:40520000204601F003FB83468CE4099B0B9AFB1A1A4409970B92002749E4DDE90E234FF00208CDE9022324E6012623960D96079600216164F2E51E46FAE7002A15DD594691
:4052400001222046CDF808C001F030FB4146834601F084FB0028DDF808C040F34D81BCF1390F00F009810CF1010CB24687F800C07D1C4E4613E504D11CF0010F01D0FEE4FD
:40528000154615F8013C6A1E302BF9D007E5059B5D42002D00F0C180DDE90E01824B05F00F0203EBC203D3E9002302F063FA2D11CDE9020100F030817C4E4FF00208EB07EE
:4052C00005D5D6E9002302F055FA08F101086D1006F10806F3D1CDE90201E5E5059A302301320592089A137031231370FFF7BDBB7168204601F0D2F80546336906F10C01DB
:405300009A1C92000C30FBF7ABF920462946012201F0CCFA8146FEE4BCF1390F00F0AC800CF1010CB24687F800C07D1C4E46B6E4B2464E4693E44FF00008464618E75A496A
:405340000CF1FF3301EBC3013246D1E9000114933B46CDF854C002F00DFADDE90267CDE910013946304602F09FFC054602F09CF902460B463046394602F048F8DDF854C02E
:40538000089A3035BCF1010F157006460F4602F1010523D0089BCDF808A063445E469A46AB460022424B02F0E5F98946804602F07BFC074602F078F9303702460B46404638
:4053C000494602F023F80BF8017BD345E9D1B3460F460646149BDDF808A01D440022354BDDE9100102F014F832463B4602F034FC002848D0139B059315F8018CFFF723BB13
:40540000069B079A9D1A0023FFF757BB169B099FC3F13603069DFFF750BBDDE90E234FF00208CDE902233FE5079B002B3FF4B3AE0D9D002D7FF7DCAEDDE9020100221C4B95
:4054400002F098F906460F4608F10100CDE9026702F02AF902460B463046394602F08AF90F4B002201F0D4FF059B0646013B1393A1F15077AC4638E53922B2463A704E46D0
:405480007D1CFFF7FEBBDDE910230020094901F0BDFF32463B4602F0FDFB70B9A8E600BF00001C400000144000870000C8870000000024400000E03F154615F8013C6A1EFD
:4054C000302BF9D0139B0593FFF7CFBA4346A0461C46DDF808B0139B0593FFF7B4BAB946FFF768BBBCF1390FC6D0BAF1000F7FF7BCAE05F1310CB8E67FF4B7AE1CF0010FB9
:405500003FF4B3AEABE64FF000084646A5E5229B022B04DC0D9BFEE54FF00208C4E40D9B079315E6229B022BF9DC0D9BFFF7E5BB002565642946204600F0B0FF4FF0FF3396
:4055400007930D9301230890239520640A93FFF7CBB93FF444ABC0F13C00FFF73BBB01230A9355E50125FFF789B900BFAFF30080F8B50C46224F064600F08CFFBB685D688E
:4055800025F00305291B01F6EF7121F47F6121F00F01A1F58054B4F5805F07DB3046002101F0BEFDBB682B44984204D0304600F073FF0020F8BD3046614201F0B1FD013030
:4055C0000DD0104BBA6819682D1B45F001053046091B5560196000F05FFF0120F8BD3046002101F09DFDBA68831A0F2BDEDD064C0449246843F00103001B53600860D5E737
:40560000B085FF1FEC89FF1FBC89FF1F00294ED02DE9F0410C46804600F03CFF54F8047C6249A4F1080527F00102AB188E6858689E4220F003005AD0FE0758600BD454F89F
:40564000087C01F1080EED1BAC683A44744567D0EF68E760BC601C186468E4070CD4544F9C680244BC427CD0D86842F00103E06084606B60AA5003E042F001036B60AA501B
:40568000B2F5007F14D2D20801EBC20301244868921004FA02F29C681043AC60EB6048609D60E5604046BDE8F04100F0F5BE7047530A042B47D8930903F13804600001EBD9
:4056C000800083683949834243D0596821F00301914202D99B689842F7D1DA68EA60AB6040469560DD60BDE8F04100F0D5BEFF07024407D454F8084C2D1BEB68A86822443C
:40570000C36098602B4B42F001001B6868609A428D60C7D3284B40461968FFF729FFC1E719184968C90709D4D96802449B6842F00100D9608B606860AA50B3E742F00103B5
:405740006B60AA50AEE7142B14D803F15B046000B5E74A68A4100120A04002434A601A46BCE742F001034D610D61EC60AC606B60AA5097E7542B04D8130B03F16E046000D0
:405780009DE7B3F5AA7F04D8D30B03F17704600095E740F25450834204D8930C03F17C0460008CE7FC207E2489E700BFB085FF1FB885FF1FB889FF1FE889FF1F02694B11E2
:4057C0009342F0B500F114062BDA11F01F0106EB820206EB830E29D056F823300EF10405AA4223FA01F4C1F1200C35D900F110072B6803FA0CF3234347F8043F55F8043B70
:40580000AA4223FA01F4F3D8CEEB0202053A22F0030204323244146004B10432931B9B1016E00023036100234361F0BD7245F8D9714600F1100451F8045B8A4244F8045FE0
:40584000F9D86FEA0E03134423F0030304339B100361002BE7D0F0BD3246DCE72DE9F04F8BB08846029207930590FBF751FF036818461C460393FAF7E5FFD8F8003021183B
:405880009A780090302A11F801BC40F09E8103334FF000091C4613F8012B09F10109302AF8D0AD4EB35C002B00F0ED804FF0000A55462378F35C274623B117F8013FF35C5B
:4058C000002BFAD138460399009A01F03BFCC0B13B78002D00F06881ED1BAA000192502B18D0702B16D03D46C8F80070BAF1000F3DD0B9F1000F14BF002006200BB0BDE8D7
:40590000F08F002D00F089813B78E5E7002301934FF0010A7B782B2B00F01C812D2B00F0E480791C0025F35C8B4A581E1828DAD84878103B125C0131501E18280AD811F835
:40594000010F03EB830302EB4303325C103B501E1828F4D96A4253402B443D460F46019AC8F800701A440192BAF1000FC1D12B1B013B072B514604DD5B10072B01F10101D1
:40598000FADC059800F08AFD0346A54203F114030490069340F293814FF0000847469946009BA046C3F1010CE2463C460FE0202F61D03A46043715F8011C1D46735C4545A0
:4059C00003F00F0303FA02F344EA030418D915F8012C6B1E5A45EAD103EB0A0CC445E6D360460399009A0993CDF820C001F0AAFBDDF820C0099B0028D9D165464545E6D8D6
:405A0000A046069B49F8048BC3EB0909049A4FEAA903136140464FEA431900F0FFFD029BC0EB09001E68B04200F39880C0F2BE800027029B019A9B689A424BDC029B019AF0
:405A40005B689A426BDA9D1AAE4200F3C680029AD268022A00F04981032A00F01781012A00F034810598049900F040FD149A00231360502042E7C9F800400024224609F156
:405A80000409042797E720460399009A01F05AFB78B327462378502B3FF438AF702B3FF435AFC8F8007024E7454455F8040C00F0B5FDC6F12006B04280F2E48004980121AE
:405AC000FFF77CFE029B019A9B6801329A42019240F3D8800598049900F008FD149A0023A32013600BB0BDE8F08F0125BB78B91C19E70099625C6718B35C002B69D0302AE8
:405B00003C4604D114F8013F302BFBD0F35CB3FA83FA3D464FEA5A1A4FF00109CBE6012467B1029BDB68022B00F08580032B00F08680012B00F0BA8044F01004149B2046E3
:405B40001A46049B1360079B1A46019B13600BB0BDE8F08F0025C9E7F4850000841B2146049801F0BFF8002835D0631E06995A1151F82220012703F01F0107FA01F1114267
:405B80000AD0BB4240F3A0800498A11E01F0AAF8002800F099800327019B2146234404980193FFF70BFE44E7019598E6341A04992246059800F07AFE019B04901B1B019348
:405BC000034614330693002733E79C1C4FF0000967E613465FE70746DEE76C1E002F53D1002C04DD0498214601F07CF80746069A631152F8232004F01F040123A34013428A
:405C00002946049818BF47F00207FFF7D7FD029B761B5B680224019382E7009ABB5CBD18F25C2F46002A3FF457AE17F8013FF25C002AFAD150E6159BC3F101031593159B31
:405C4000002B3FF479AF049A069917690B46BD000020294403E043F8040B994249D91A68B2F1FF3FF7D00132DDF818801A60022C4ED0049B1B699F42FFF620AF16F01F0699
:405C80007FF412AF212459E70127B0E7159A002A3FF4E8AE079901220B60069B049962200A611A60149B1A46116027E6BA077FF543AF069B1B683B43DB07C4D43CE7DDF82F
:405CC00018904FF000089CE6022765E7B5427FF4C9AE012EDEDD711E049801F003F800283FF4C0AE029B5B68D4E7159A002AD1D0B8E6049B9B689F4211DA3B46DDF8188084
:405D00000498591C012200EB830301615A61AEE7029B1B68013BB3421DD022240EE7049BDDF8149059684846013100F0B7FB804604990C300B690C319A1C9200FAF790FC43
:405D40004846049900F0D2FBCDF81080D8F8103008F11408D4E7731158F8232006F01F060123B34013420CBF22242124E6E600BF2DE9F04F0B6885B0591102EB810113F0AE
:405D80001F0302900191039302D00B4604330193019C0023A4F1040CE0466046194644F8043C9A469E46029BDFF844911D6815F8013F23B319F80340002C43D1202B5ED843
:405DC000D645F4DD404513D2072911DC0346C1F1080189000668C1F1200B5F6807FA0BF4344327FA01F61C6043F8046F9845F4D890423BD815F8013F0821002BDAD1BEF14F
:405E0000000F3ED0404501D207295DDD82423CD2134650F8041B844543F8041BF9D2002143F8041B9C45FBD2019B53F8043C2BB962453BD05CF8043D002BF9D0052005B0BA
:405E4000BDE8F08F013108290EF1010E06DC03681B0104F00F041C430460A8E79042A6D9002340F8043C01210438F2E70023A0F1040840F8043CF2464046194697E7292B81
:405E80001BD0042005B0BDE8F08F039B002BCBD0019C039B54F8041CC3F120034FF0FF3020FA03F30B4044F8043CC0E701230520CCF8003005B0BDE8F08F029B01351D60C6
:405EC000BEF1000F9ED1DCE70446C1F108039B000568C3F12007666806FA07F1294326FA03F5216044F8045F4445F4D38EE700BFF48500002DE9F04F01F10B05162D83B094
:405F0000064627D935F0070500F1B680A94200F2B38000F0BFFAB5F5FC7F22D2BC4FE80807EBC003DC689C4200F0BC816368E16823F0030323445A68A56842F00102E9600B
:405F400030468D605A6000F0A7FA0834204603B0BDE8F08F102900F28F8000F09BFA1025DCE7680A00F08F80042800F24781A80938304100A64F07EB8101CC68A14206D13B
:405F80000CE0002A80F28280E468A14206D0636823F003035A1B0F2AF3DD013801309C493C6901F1080E744500F07181636823F003035A1B0F2A00F35781002AC1F814E025
:405FC000C1F810E066DAB3F5007F80F02D81DB0801EBC3084FEAA30C4A68012303FA0CF3D8F808C01343C4F808C0C4F80C804B60C8F80840CCF80C408210012494409C4239
:4060000055D8234206D120F003006400234200F10400FAD007EBC008C4468146DCF80C309C4507D135E1002980F24581DB689C4500F02F815A6822F00302511B0F29F2DD81
:406040001C46DA6854F808CF45F0010941F001081D44C3F804903046CCF80C20C2F808C07D613D61C5F80CE0C5F808E0C5F80480695000F011FA69E7002420460C233360ED
:4060800003B0BDE8F08F7E213F2073E723445A68E16851E723445A68304642F001025A60083400F0F9F9204603B0BDE8F08FBC68636823F00308454504D8C5EB08030F2BB6
:4060C00000F38C80534BDFF85CA11A68DAF800302A44013304EB080B00F0518102F580520F3222F47F6222F00F0211463046019201F016F8B0F1FF3F8146019A00F04881C8
:40610000834500F2EF80444BCB4519681144196000F04381DAF80000DFF808E101301BBFCBEB090B5944CEF80090196019F0070100F00881C1F10800C1F5805181440831F8
:406140004A44C2F30B02C2EB010A51463046019300F0E6FF431C019B00F02D81C9EB0002524442F001021968BC425144C7F808901960C9F80420DFF8A0A016D0B8F10F0FFA
:4061800040F2EF806268A8F10C0323F0070302F00102E0184FF0050E1A430F2B6260C0F804E0C0F808E000F20A811C4BBC681A68914288BF19601A4B1A689142626888BFF3
:4061C000196022F003029542A2EB050301D80F2B04DC304600F060F90024B7E645F0010243F00103254462603046BD6008346B6000F052F9204603B0BDE8F08F142869D906
:40620000542800F29880280B6E304100B2E600BFB085FF1FE889FF1FEC89FF1FE489FF1FE089FF1FBC89FF1F5A0A042A55D9142A00F2A7805B324FEA420C07EB8C0CDCF8FC
:406240000810DFF8B88161457FD04A6822F00302934202D289688C45F7D1CA687B68E260A1609460CC60C7E645F0010742F001032544676030464D610D61C5F80CE0C5F845
:4062800008E06B60AA50083400F006F95EE64B68B2E609F1010919F0030F0CF1080C7FF4BDAE2CE004F108036469A34208BF02303FF475AE3AE61C461A445168DB6854F834
:4062C000085F41F0010151603046EB609D6000F0E3F83BE65B3041004CE69A0938324FEA420CAAE7BC42454B3FF40DAF9C68626822F0030267E7D8F8008098457CD110F05C
:40630000030FA8F1080300F1FF30F4D17B6823EA04037B6064009C423FF6C9AE002C3FF4C6AE234248467FF475AE6400234200F10400FAD06EE6B0F5AA7F18D8E80B773072
:40634000410017E64FF48051FAE6D8F8043092104FF0010C0CFA02F21343C8F804300A467DE70123C9F804304C4600222BE740F2545398421CD8A80C7C304100FAE51032B9
:40638000B3E6542A23D81A0B6E324FEA420C54E7BC68626822F0030215E7CBF30B0000287FF4B8AE4244BB6842F001025A60FCE6FC217E20DEE501224FF0000AD3E604F167
:4063C00008013046FFF722F9DAF80010EDE6B2F5AA7F04D8DA0B77324FEA420C2DE740F254518A4204D89A0C7C324FEA420C24E74FF0FC0C7E2220E77B688BE7B085FF1F88
:40640000830770B4C9B240D0541E002A3FD003788B4218BF431C05D11CE0ECB10278013C8A4217D013F0030F184603F10103F4D1032C14D884B103788B420BD00519431C01
:4064400002E002788A4205D0AB42184603F10103F7D1002070BC7047204670BC7047024641EA012646EA0646136810467340A3F1013525EA030313F0803F02F10402D9D1EA
:40648000043C032C1046EFD8D4E71446D0E71046E0E700BF704700BF704700BFC26C70B505460C4652B152F824308BB1196842F82410002218461A61DA6070BD2122042136
:4064C00000F00CFFE86402460028ECD1002070BD012101FA04F6721D2846920000F0FEFE03460028F2D044608660E2E731B1C36C4A6853F82200086043F82210704700BF48
:40650000F0B50C4605460E6983B001F1140E0027DEF80010013788B2090C02FB003302FB01F198B201EB134300EB0341BE424EF8041B4FEA1343EBDC3BB1A268964207DA83
:4065400004EB8602013653612661204603B0F0BD6168284601310193FFF7A0FF0746226904F10C01023292000C30FAF779F8EA6C6168019B52F82100206042F821403C46D9
:40658000DEE700BF2DE9F843234C1F46083384FB034EDB17C3EB6E0EBEF1010F06460C469046089D35DD012300215B009E4501F10101FADC3046FFF771FF0123B8F1090F13
:4065C0004561036121DD04F109094D46444415F8013B0146303B30460A22FFF791FFA542F5D109EB0804083C47450CDDC8EB0707274414F8013B0146303B30460A22FFF72A
:406600007FFFBC42F5D1BDE8F8830A344FF00908EAE70021CEE700BF398EE338030C1B04B3B90004102310F07F4F04BF0002083310F0704F04BF0001043310F0404F04BF77
:4066400080000233002807DB420003D4202070470023E8E7581C704718467047036813F0070207D0D90720D49A0720D49B0803600220704799B209B91B0C102213F0FF0F0C
:4066800004BF1B0A0832190704BF1B090432990704BF9B080232D90704D45B0801D1202070470132036010467047002070475B0803600120704700BF10B50C460121FFF757
:4066C000EDFE01224461026110BD00BF2DE9F04F0E69156985B0AE420C469146C0F292802B4635461E46A36805EB060861689845C8BF0131FFF7D2FE00F1140A0AEB880B87
:40670000DA45019005D25346002143F8041B9B45FBD809F1140909EB860304F11402994502EB850C59D2CDF808B0CDF80C809B46904659F8047B1FFA87FEBEF1000F1FD045
:4067400047465646002100E00646304657F8045B3468ABB2A2B20EFB03222D0C240C0EFB0544531804EB13419AB242EA0142BC454FEA114140F8042BE6D8716059F8047C8D
:406780003F0C22D0DAF80030002255461E464046964600E025462C460288360C07FB026699B206EB0E0241EA024344F8043B50F8041B6E68090CB3B207FB0131844501EB4D
:4067C00012434FEA134EE5D86B60CB450AF1040AAFD8DDF808B0DDF80C80B8F1000F0BDD5BF8043CABF1040B1BB105E05BF8043D13B9B8F10108F9D10198C0F8108005B093
:40680000BDE8F08F144689466DE700BF12F003032DE9F041144607460E462DD1A4101CD0BD6C95B3E3074FF0000806D4641014D02868A8B10546E307F8D5384631462A46EC
:40684000FFF744FFB6B17268FB6C641053F82210316043F822600646EAD13046BDE8F08129462A463846FFF731FF2860C0F800800546E0E70646D9E70B4A013B52F82320E6
:406880000023FFF73DFE0646C8E701213846FFF705FE40F2712101220023416102610546B8640360BEE700BFF48600002DE9F0470F694FEA62198B684F447D1C9D420E466E
:4068C00014468046496804DD5B009D4201F10101FADC4046FFF7E2FDB9F1000F00F1140109DD00239E460A4601334B4542F804EBFAD101EB8301326906F1140303EB820E3C
:4069000014F01F0222D0C2F120094FF0000A1C688C4694404AEA040441F8044B53F8044B9E4524FA09FAF2D8CCF804A0BAF1000F00D0BD1CD8F84C307268013D53F8221019
:406940000561316043F82260BDE8F087043953F8042B9E4541F8042FF9D8EBE702690B69D21A13D19B0014301431194410B4034401E098420CD253F8044D51F8042D9442DE
:40698000F7D009D301205DF8044B70471046704700205DF8044B70474FF0FF305DF8044B704700BF2DE9F0470C460546114620469146FFF7D3FF061E5DD056DB4FF0000A97
:4069C00028466168FFF76AFD09F1140380461E462769D9F8102004F1140E7546C0F80CA000F114040EEB870E03EB820C4FF0000A55F8042B56F8041B90B200EB0A0388B248
:406A0000090C1B1AC1EB124202EB23429BB243EA0243B44544F8043B4FEA224AA946E7D8AE45264615D959F8040B83B25344000C00EB23419BB243EA0143CE4544F8043B14
:406A40004FEA214AEFD8ED43754425F0030404343444043C23B954F8043D013F002BFAD04046C8F81070BDE8F08723464FF0010A4C469946A4E728463146FFF70FFD01237C
:406A800046610361BDE8F0870F4B0B40A3F15073002B02DD0020194670475B421B15132B4FF000004FF0000109DD322BDDBFC3F13303012202FA03F30123184670474FF48F
:406AC000002242FA03F170470000F07F2DE9F041056900F1140404EB850555F8047C0E463846FFF79BFDC0F120030A283360A5F1040117DC8C42C0F10B0638BF55F8081C9B
:406B000027FA06FE00F1150034BFF140002187404EF07F5341EA070243F4401310461946BDE8F0818C4222D2B0F10B0CA5F1080855F8081C28D0C0F12B0E444507FA0CF785
:406B400021FA0EF647EA060738BF55F80C0C47F07F5343F4401334BF20FA0EF0002001FA0CF141EA000210461946BDE8F081B0F10B0C08D007FA0CF747F07F53002043F4BA
:406B800040130146EBE761460A4647F07F5343F4401310461946BDE8F08100BFF0B5012183B01C46C3F30A551646FFF777FCC4F3130407460DB144F48014019406B302A882
:406BC00040F8086DFFF74AFD002830D19DE80C007A61002B14BF02240124BB613C61D5B9089A07EB8403A0F2324010601869FFF715FD099BC0EB44101860384603B0F0BD75
:406C000001A8FFF72BFD019B0122144620303A617B61002DE4D0A5F23343089A03441360099BC0F135001860384603B0F0BD019BC0F12001009A03FA01F10A43C3400193A8
:406C40007A61C6E72DE9F04383B0884669468146FFF73CFF04460D46404601A9FFF736FFD9F810200646D8F810000F469DE80A00121AC91A01EB4213002B0BDD05EB0351EB
:406C80000D462046294632463B4600F09DFE03B0BDE8F083A7EB03594F46F2E770B4146902F1140301394E1103EB84040136A34200EB86060CD2011F53F8045B9C4241F8F5
:406CC000045FF9D8A31A153B23F0030304331844864204D9002340F8043B8642FBD870BC704700BF03694A11934210B400F1140410DA04EB83039C4220D253F8040C043BF9
:406D000018B114E053F8042D8AB99C42FAD35DF8044B70470FDD11F01F010CD054F8220004EB820320FA01F28A408242E3D001205DF8044B704704EB8203DCE70020E6E718
:406D40002DE9F04F174683B00D46002900F0E280814607F10B04FFF79DFB55F8043C162C23F00306A5F108084BD810221446A7424CD8964251DADFF8A4B308EB0601DBF8B9
:406D80000800884200F0D380486820F0010E8E44DEF804E01EF0010F54D120F003003044904280F2BD80DB0700F1908055F8083CC3EB080ADAF8043023F0030300EB030EC9
:406DC000964549DB5746CB688968321FCB60996057F8081FDAF80C30242ACB60996000F23381132A40F2FA802B681B2ACAF808306B68CAF80C3000F23B8108350AF110033D
:406E0000EDE024F00704002C2246B0DA0C230020C9F8003003B0BDE8F08F2F46321B0F2A03F0010340D83343C8F804304644736843F0010373604846FFF72EFB384603B070
:406E4000BDE8F08FD90741D455F8083CC3EB080ADAF8043023F003033344934236DB5746DAF80C1057F8080F321F242AC160886000F2F580132A40F2F08029681B2ACAF8B5
:406E800008106968CAF80C1000F2078108350AF1100229681E4611606968D0465160AB689360DAF80430B9E708EB0401234342F00100C8F804300A4448605368083143F0FB
:406EC000010353604846FEF7A1FBB4E739464846FFF710F807460028ADD055F8043CA0F1080123F001024244914200F0A680321F242A00F29380132A65D803462A46116828
:406F000019605168596092689A6029464846FEF77DFB90E7114603B0BDE8F04FFEF7EABFCA6889682F46CA600646916076E7416804F1100021F00301314481425ADADB0798
:406F4000C4D455F8083CC3EB080ADAF8043023F0030301EB030C60453FF77EAF5746DAF80C3057F8081F321F242ACB60996000F2B680132A40F2A7802B681B2ACAF8083092
:406F80006B68CAF80C3000F2B38008350AF110032A681A606A685A60AA689A60C4EB0C030AEB040243F00103CBF808205360DAF80430484603F001031C43CAF80440FFF778
:406FC0006BFA38463BE72B681B2A03606B68436028D800F1080305F1080290E73B462A6876461A606A68D0465A60AA689A60DAF8043013E70B1B08EB040243F00103CBF858
:407000000820536055F8043C484603F001031C4345F8044CFFF740FA284610E7294600F08DF972E7AB68242A8360EB68C3602BD000F1100305F1100261E750F8042C2F46AE
:4070400022F003021644E9E6294638467646D04600F074F9DAF80430E0E63A4619E7294638461E46D04600F069F9DAF80430D5E6AB68242ACAF81030EB68CAF8143018D04A
:4070800010350AF11803AAE72A6900F118030261696905F11802416131E7A968242ACAF81010E968CAF814100FD010350AF11802EFE62A690AF12003CAF818206A691835F5
:4070C000CAF81C208BE73B4662E729690AF12002CAF8181069691835CAF81C10D9E629463846CDF804C000F029F9DDF804C055E7AB68242ACAF81030EB68CAF8143003D005
:4071000010350AF1180343E72A690AF12003CAF818206A691835CAF81C2039E7B085FF1F38B5074C0023054608462360F9F712F8431C00D038BD2368002BFBD02B6038BDF0
:407140007C8AFF1F002A3CD040EA010313F00303F0B425D1032A23D904680D68AC421FD1043A30D0A4F1013525EA040414F0803F2CD1071D0D1D0DE057F8043B0E68A3F149
:407180000134B34224EA03040AD1043A1BD014F0803F1ED1032A2946384605F10405EBD803780C78013AA34208D162B173B110F8013F11F8014F013AA342F6D0181BF0BC69
:4071C0007047104670471046F0BC70471846F0BC70470020F3E700BF2DE9F04F936883B09146D2F80080002B72D04FF0000B0D465C4607468B680868002C45D09C421E4615
:407200009A4648D3AB8913F4906F2DD06E69296906EB4606C1EB000A06EBD676601C76105044864232463CBF064632465B0535D511463846FEF75EFE002839D05246296903
