:10000000008000206D030000650300006503000010
:1000100080B51448144B21E05C689968DD688C4217
:100020000CD0002205E0A6180832D6E9008941E983
:1000300002898C460831AA42F5D101E004EB050C97
:100040001C696146002204E008320026002741E9CD
:1000500002670831A242F7D1143301380028DBD1FE
:1000600001F030F901000000AC13000048F2201349
:10007000C1F6FF731A780AB901201870704700BFE3
:1000800048F20810C1F6FF7008B503682BB140F2C2
:100090000003C0F2000303B1984708BD80B500AF6C
:1000A00000F0F4F940F2C100C0F2000000F0B0FA34
:1000B00048F2A813C1F6FF734FF000021A7080BD1A
:1000C00080B582B000AF00F05BFA0346FB71FB79AC
:1000D000002B18D048F22113C1F6FF731B781A4683
:1000E00048F22813C1F6FF73F979995448F22113A5
:1000F000C1F6FF731B7803F10103DAB248F2211352
:10010000C1F6FF731A7007F10807BD4680BD00BF36
:1001100080B500AF00F0D6FB80BD00BF80B5A6B0B3
:1001200000AF4FF0000000F06DFC4FF0FA0000F05F
:1001300089F94FF0000387F8943017E000F03CFC99
:10014000034687F8973097F89730002B0ED097F832
:10015000943007F198010B4497F8972003F8842C0A
:1001600097F8943003F1010387F8943097F89430AE
:100170005BB2002BE2DA4FF0000387F894300EE018
:1001800097F8943007F1980213444FF0000203F8F7
:10019000942C97F8943003F1010387F8943097F882
:1001A00094300F2BECD94FF0000387F896304FF0C6
:1001B000000387F894304FF0000387F895303BE058
:1001C00097F8943007F198010B4413F8843C87F8B2
:1001D000973097F89730522B05D197F8963003F166
:1001E000010387F8963097F89630002B13D097F8D4
:1001F000953097F8942007F198010A4412F8842C5E
:1002000007F198010B4403F8942C97F8953003F10B
:10021000010387F8953097F894307E2B03D897F830
:1002200095300E2B02D94FF0000310E097F8943070
:1002300003F1010387F8943097F89630012BBFD96A
:100240004FF0000000F0DEFB07F10403DBB21846BC
:1002500007F19807BD4680BD80B500AFFFF71EFFD0
:10026000FFF756FF00F06EFA40F29920C0F200004E
:1002700000F0D4FA00F01EF848F23023C1F6FF7304
:100280004FF001021A7062B6FFF748FF41F2883062
:1002900000F0D8F8FAE700BF80B500AF41F248306F
:1002A000C0F200004FF0050100F02EF800F070FAE7
:1002B00080BD00BF80B483B000AF4FF00003FB717E
:1002C0000BE0FA7948F2B013C1F6FF734FF000016A
:1002D0009954FB7903F10103FB71FB795BB2002BAD
:1002E000EFDA48F23023C1F6FF734FF000021A70C4
:1002F00048F2AC13C1F6FF734FF000021A7007F119
:100300000C07BD4680BC704780B485B000AF7860F4
:100310000B46FB704FF00003FB730DE0FA7BF97B9B
:100320007B680B44197848F2B013C1F6FF739954F7
:10033000FB7B03F10103FB73FA7BFB789A42EDD35D
:1003400048F23023C1F6FF734FF001021A7048F2F1
:10035000AC13C1F6FF73FA781A7007F11407BD46A3
:1003600080BC704780B400AFFEE700BF054B1C782F
:1003700044F001041C70044B1A78D2B2034B1A707B
:10038000FFF746FEE8460040F8460040BC760040D5
:1003900080B582B000AF4EF60C53CEF2000340F2AF
:1003A0000042C0F2FA521A604EF61453CEF2000325
:1003B0004EF61452CEF20002126842F400721A6035
:1003C0004FF000037B6019E079687B68032B07D846
:1003D0007A6840F20003C0F2000353F8223003E0D1
:1003E00040F26533C0F2000348F20002C1F6FF722A
:1003F00042F821307B6803F101037B607B682F2B7F
:10040000E2D947F2BC63C4F200031B78DAB248F2C7
:100410003123C1F6FF731A704EF60853CEF2000373
:1004200048F20002C1F6FF721A6000F0B7FC48F211
:100430000013C1F6FF734FF000021A6007F10807BE
:10044000BD4680BD80B582B000AF78600BE048F259
:100450001813C1F6FF731B68184600F0F1FD7B68A6
:10046000A3F500437B607B68B3F5004FEFD848F2FB
:100470001013C1F6FF731B687A6802FB03F318467A
:1004800000F0DEFD07F10807BD4680BD80B500AF76
:1004900048F22213C1F6FF731B78002B08D100F03D
:1004A0000BF848F22213C1F6FF734FF001021A70E5
:1004B00000F02AF880BD00BF80B400AF46F2874349
:1004C000C4F200034FF072021A7046F28753C4F26E
:1004D00000034FF020021A7046F22243C4F20003D8
:1004E0004FF007021A7046F23243C4F200034FF095
:1004F00048021A7046F28143C4F200034FF0000232
:100500001A70BD4680BC704780B582B000AF00F065
:100510009FFD0346FB7146F29743C4F2000346F287
:100520009742C4F200021278D2B242F02002D2B254
:100530001A7046F29753C4F2000346F29752C4F27F
:1005400000021278D2B242F01002D2B21A7046F211
:100550009143C4F2000346F29142C4F200021278C1
:10056000D2B242F01002D2B21A7000F02FF8FB792A
:10057000184600F071FD07F10807BD4680BD00BFB9
:1005800080B483B000AF4FF00003BB7146F26753F5
:10059000C4F200031B78FB71FB7903F02003002BEE
:1005A0000DD046F24743C4F200031B78BB71FB79C0
:1005B00003F01E03002B02D04FF00003BB71BB7988
:1005C000184607F10C07BD4680BC704780B400AFE9
:1005D00044F2A233C4F2000344F2A232C4F2000295
:1005E0001278D2B242F00102D2B21A7044F2B2339F
:1005F000C4F2000344F2B232C4F200021278D2B262
:1006000042F00102D2B21A70BD4680BC704700BFF2
:1006100080B582B000AF786000F042F8786800F0F2
:100620000BF84FF0070000F01BF800F02DF807F171
:100630000807BD4680BD00BF80B485B000AF7860BC
:100640004EF60853CEF200031B68FB60FB6803F113
:1006500040037A681A6007F11407BD4680BC7047F2
:1006600080B483B000AF0346FB714EF20043CEF27C
:100670000003FA794FEA4212D2B21A7007F10C075E
:10068000BD4680BC704700BF80B400AF4EF200137F
:10069000CEF200034FF001021A60BD4680BC7047E5
:1006A00080B400AF4EF28013CEF200034FF001028F
:1006B0001A60BD4680BC704780B582B000AF4AF278
:1006C000FF10C4F62F5000F06FF84AF2FF10C4F686
:1006D0002F5000F085F800F0BBFC0346FB7146F29A
:1006E0009453C4F2000346F29452C4F2000212780A
:1006F000D2B242F01002D2B21A70FB79184600F062
:10070000ABFC00F07DF84FF0010000F031F807F18C
:100710000807BD4680BD00BF80B400AF46F27453E9
:10072000C4F2000346F27452C4F200021278D2B24C
:100730006FEA42626FEA5262D2B21A70BD4680BC62
:10074000704700BF80B500AF48F22413C1F6FF73B5
:100750001B78002B08D1FFF7AFFF48F22413C1F636
:10076000FF734FF001021A70FFF7D6FF80BD00BF84
:1007700080B483B000AF0346FB7146F28453C4F2E9
:100780000003FA791A7007F10C07BD4680BC704768
:1007900080B400AF46F26453C4F200031B78DBB2AE
:1007A0001846BD4680BC704780B483B000AF786007
:1007B00046F22453C4F200037A681A6007F10C076A
:1007C000BD4680BC704700BF80B400AF46F24453C2
:1007D000C4F200031B681846BD4680BC704700BFCA
:1007E00080B483B000AF786046F20453C4F20003D3
:1007F0007A681A6007F10C07BD4680BC704700BFDD
:1008000080B500AF01E0FFF7DFFFFFF7C1FF034650
:1008100003F00803002BF6D180BD00BF80B582B085
:1008200000AF786000F042F8786800F00BF84FF005
:10083000070000F01BF800F02DF807F10807BD468F
:1008400080BD00BF80B485B000AF78604EF608531D
:10085000CEF200031B68FB60FB6803F148037A6873
:100860001A6007F11407BD4680BC704780B483B09E
:1008700000AF0346FB714EF20243CEF20003FA7959
:100880004FEA4212D2B21A7007F10C07BD4680BC83
:10089000704700BF80B400AF4EF20013CEF20003E9
:1008A0004FF004021A60BD4680BC704780B400AFB0
:1008B0004EF28013CEF200034FF004021A60BD46E0
:1008C00080BC704780B500AF48F22513C1F6FF73B6
:1008D0001B78002B08D100F00BF848F22513C1F665
:1008E000FF734FF001021A7000F02AF880BD00BFBC
:1008F00080B400AF46F28E43C4F200034FF07202A0
:100900001A7046F28C43C4F200034FF020021A70B2
:1009100046F22443C4F200034FF007021A7046F275
:100920003443C4F200034FF048021A7046F2824387
:10093000C4F200034FF000021A70BD4680BC70473D
:1009400080B582B000AF00F083FB0346FB7146F236
:100950009E43C4F2000346F29E42C4F200021278A3
:10096000D2B242F02002D2B21A7046F29C43C4F2D4
:10097000000346F29C42C4F200021278D2B242F066
:100980001002D2B21A7046F29243C4F2000346F249
:100990009242C4F200021278D2B242F01002D2B2F5
:1009A0001A7000F051F8FB79184600F055FB07F17A
:1009B0000807BD4680BD00BF80B483B000AF4FF0D4
:1009C0000003BB7146F26C43C4F200031B78FB7159
:1009D000FB7903F02003002B0DD046F24F43C4F205
:1009E00000031B78BB71FB7903F01E03002B02D0C0
:1009F0004FF00003BB71BB79184607F10C07BD46E9
:100A000080BC704780B485B000AF0346FB7145F2EF
:100A10004013C4F200031B78DBB223F02003FB7306
:100A200045F24013C4F20003FA794FEA4212D2B2FF
:100A300002F02002F97B42EA0102D2B21A7007F1F9
:100A40001407BD4680BC704780B400AF44F2A233A7
:100A5000C4F2000344F2A232C4F200021278D2B20D
:100A600042F00202D2B21A7044F2B233C4F200036E
:100A700044F2B232C4F200021278D2B242F0020260
:100A8000D2B21A70BD4680BC704700BF80B485B03A
:100A900000AF786039607B68BB604FF00003FB609B
:100AA00009E0BA68FB6813444FF000021A70FB6853
:100AB00003F10103FB60FA683B689A42F1D307F146
:100AC0001407BD4680BC704780B489B000AFF860A1
:100AD000B9607A60FB687B61BB68BB614FF0000363
:100AE000FB610BE07A69FB691344B969FA690A444E
:100AF00012781A70FB6903F10103FB61FA697B68E4
:100B00009A42EFD307F12407BD4680BC704700BF6F
:100B100080B582B000AF7860396078684FF000012E
:100B20003A6800F065FB07F10807BD4680BD00BFCD
:100B300080B584B000AFF860B9607A60F868B968D1
:100B40007A6800F08DFA07F11007BD4680BD00BF3E
:100B500080B487B000AF786039604FF00003FB606D
:100B60004FF00003BB602CE0BB684FEA83027B6858
:100B700013441B683B613B69FB753B6923F0FF0332
:100B80003B6117E0FB684FEA43023B6813441B7864
:100B90001A463B691344FA684FEA42013A680A442C
:100BA00052781A70FB6803F10103FB60FB7D03F1CF
:100BB000FF33FB75FB7D002BE4D1BB6803F1010320
:100BC000BB60BB681C2BCFD907F11C07BD4680BC9E
:100BD000704700BF80B500AF44F28003C4F2000349
:100BE0004FF019021A8044F28203C4F200034FF05E
:100BF00018021A7044F28403C4F200034FF49C728A
:100C00001A8044F28603C4F200034FF018021A70EF
:100C100044F20033C4F200034FF002021A7044F2AF
:100C20000003C4F200034FF008021A7044F20023DC
:100C3000C4F200034FF003021A7044F2A163C4F23D
:100C4000000340F20812C4F600121278D2B21A70F1
:100C500044F22223C4F200034FF008021A8044F247
:100C60002023C4F2000341F251021A8040F6B8304A
:100C700000F0E6F944F20403C4F200034FF003026B
:100C80001A7044F20503C4F200034FF001021A7017
:100C900044F20403C4F200034FF000021A7044F25D
:100CA0000403C4F200034FF007021A7044F2060373
:100CB000C4F200034FF000021A7044F20803C4F2B9
:100CC00000034FF048021A7044F20403C4F2000318
:100CD0004FF000021A7044F20103C4F200034FF017
:100CE00002021A7044F2A233C4F2000344F2A232A8
:100CF000C4F200021278D2B242F00302D2B21A70E9
:100D000080BD00BF80B400AF44F2AA33C4F2000338
:100D10004FF444721A8045F62003C4F200034FF0EA
:100D20001E021A7045F62403C4F200034FF01E029F
:100D30001A7045F62803C4F200034FF01E021A7021
:100D400045F62C03C4F200034FF01E021A7045F65C
:100D50000013C4F200036FF03F021A7045F603134C
:100D6000C4F200034FF00C021A7045F60813C4F2E7
:100D700000036FF03F021A7045F60B13C4F2000334
:100D80004FF00C021A7045F67603C4F200034FF0E0
:100D900044021A70BD4680BC704700BF80B582B067
:100DA00000AF72B644F60003C4F200034FF0000235
:100DB0001A70FFF70FFF44F60003C4F200036FF050
:100DC0007F021A7047F21003C4F200034FF00002D2
:100DD0001A7047F22003C4F200034FF000021A70A9
:100DE00045F67C03C4F200034FF001021A7044F28E
:100DF000E863C4F2000344F2E862C4F2000212782D
:100E0000D2B242F00102D2B21A704FF00003FB706E
:100E10002FE0FA7813464FEA430313444FEA4303A3
:100E20001A4641F25033C0F2000313447B607B68E2
:100E30001A7859784FEA012141EA020299784FEA7B
:100E4000014141EA0202DB784FEA036343EA02030D
:100E50001A467B6819795B794FEA032343EA010359
:100E60009BB210461946FFF753FEFB7803F10103CE
:100E7000FB70FB78082BCCD94FF0904040F2740106
:100E8000C4F60001FFF764FE45F20020C4F2000042
:100E90004FF00701FFF7FAFD45F20820C4F2000009
:100EA00040F6A001C4F600014FF00702FFF70CFE68
:100EB00045F21020C4F200004FF00701FFF7E6FDF5
:100EC00045F21820C4F200004FF00701FFF7DEFDE5
:100ED00045F22020C4F2000040F6A801C4F600014B
:100EE0004FF00702FFF7F0FD45F22820C4F20000A2
:100EF00040F6B001C4F600014FF00702FFF7E4FD31
:100F000045F23020C4F200004FF00701FFF7BEFDAC
:100F100045F26020C4F200004FF00601FFF7B6FD75
:100F200045F27820C4F200004FF00701FFF7AEFD54
:100F300045F20303C4F2010345F20302C4F20102C5
:100F40001278D2B242F00202D2B21A7045F2130302
:100F5000C4F2010345F21302C4F201021278D2B2C4
:100F600042F00202D2B21A7044F2A033C4F200037B
:100F700044F2A032C4F200021278D2B242F040022F
:100F8000D2B21A7044F2C233C4F2000344F2C23245
:100F9000C4F200021278D2B242F01002D2B21A7039
:100FA00045F21010C4F2000040F67401C4F60001CE
:100FB0004FF00A02FFF7BCFD45F23010C4F200000A
:100FC00040F68001C4F600014FF00A02FFF7B0FDC1
:100FD00045F24010C4F2000040F68C01C4F6000156
:100FE0004FF00A02FFF7A4FD45F25210C4F20000D0
:100FF00040F69801C4F600014FF00802FFF798FD93
:10100000FFF780FE44F2B030C4F2000044F2A03199
:10101000C4F200014FF00C02FFF78AFD44F2B03336
:10102000C4F2000344F2B032C4F200021278D2B229
:1010300002F0FD021A7007F10807BD4680BD00BF2F
:101040000230800803D000BF01380046FCD1704751
:10105000EFF3108072B6704780F31088704700BFBE
:10106000032A2DE9F0070BD83AB1002311F803C089
:1010700000F803C001339342F8D1BDE8F007704790
:1010800082180C46034603E014F8011C03F8011C07
:1010900003F003061946A44601330134002EF3D1B0
:1010A0001CF00304634608BFC1EB020C68D0654224
:1010B000C4F1040A0CEB050733464FEACA0A5CF890
:1010C00005604FEAC408551A08E057F8044F264651
:1010D00004FA0AF449EA0404CC5004335C18032DE2
:1010E00026FA08F9A5F104050CEB0306EDDC002354
:1010F00002E0F15CE154013319199142F9D3BCE7E4
:1011000053F8404C41F8404C53F83C4C41F83C4CAF
:1011100053F8384C41F8384C53F8344C41F8344CBF
:1011200053F8304C41F8304C53F82C4C41F82C4CCF
:1011300053F8284C41F8284C53F8244C41F8244CDF
:1011400053F8204C41F8204C53F81C4C41F81C4CEF
:1011500053F8184C41F8184C53F8144C41F8144CFF
:1011600053F8104C41F8104C53F80C4C41F80C4C0F
:1011700053F8084C41F8084C53F8044C41F8044C1F
:101180001C460D4640334031BCF13F0FACF1400CE2
:10119000B6DC21462B46541B0FE051F8105C43F897
:1011A000105C51F80C5C43F80C5C51F8085C43F897
:1011B000085C51F8045C43F8045C0F2C0D469C4617
:1011C00001F1100103F11003A4F11004E5DCCCEBF4
:1011D0000201002303E0EC584CF8034004335E198D
:1011E000032903EB0C04A1F10401F4DC7FE700BF49
:1011F000032AC9B230B407D822B10023C154013345
:101200009342FBD130BC704700EB020C034601E077
:1012100003F8011C03F003041A460133002CF7D134
:101220004FF00133C2EB0C0403FB01F31FE042F863
:10123000403C42F83C3C42F8383C42F8343C42F8EE
:10124000303C42F82C3C42F8283C42F8243C42F81E
:10125000203C42F81C3C42F8183C42F8143C42F84E
:10126000103C42F80C3C42F8083C42F8043C15465D
:1012700040323F2CA4F14004D9DC2A46C5EB0C04D3
:1012800007E042F8103C42F80C3C42F8083C42F8B7
:10129000043C154610320F2CA4F11004F1DC2A4650
:1012A000C5EB0C0501E042F8043C14460432032D62
:1012B000A5F10405F7DC01E004F8011B6445FBD34C
:1012C000A0E700BF08B500F017F8074800B10068B4
:1012D000064901B109680022FEF7BEFF044B0BB1BD
:1012E000AFF30080FEE700BF000000000000000038
:1012F00000000000FEE7000070B541F2943641F2B4
:101300009435C0F20006C0F20005761BB61006D078
:10131000002455F8243001349847A642F9D841F208
:10132000943541F29C36C0F20005C0F20006761BEF
:1013300000F02AF8B61006D0002455F82430013405
:081340009847A642F9D870BDE0
:1013480050536F431A000000005100401000205114
:1013580000401000605100401000C05100401000D3
:10136800F05100401000000001400010001401403E
:10137800000800400140000A004C01400002000043
:10138800F8B500BFF8BC08BC9E4670478100000055
:1013980091030000F8B500BFF8BC08BC9E46704732
:1013A8006D00000000000000C01300000881FF1F4E
:0813B8001800000018010000FC
:1013C0000000000000366E01C05D00001800000043
:0813D0000000E02E0000000007
:040000030000036D89
:00000001FF
