:4000000000800020BD000000B5000000B500000080B51448144B21E05C689968DD688C420CD0002205E0A6180832D6E9008941E902898C460831AA42F5D101E004EB050CBA
:400040001C696146002204E008320026002741E902670831A242F7D1143301380028DBD102F02AFF010000009C2F000048F22013C1F6FF731A780AB901201870704700BF0A
:4000800048F20810C1F6FF7008B503682BB140F20003C0F2000303B1984708BD80B500AF4FF4FA6000F05CFC00F0A2FD00F048FFFEE700BF80B400AFFEE700BF054B1C78E4
:4000C00044F001041C70044B1A78D2B2034B1A70FFF79EFFE8460040F8460040BC76004080B582B000AF4EF60C53CEF2000340F20042C0F2FA521A604EF61453CEF2000337
:400100004EF61452CEF20002126842F400721A604FF000037B6019E079687B68032B07D87A6840F20003C0F2000353F8223003E040F2B503C0F2000348F20002C1F6FF7281
:4001400042F821307B6803F101037B607B682F2BE2D947F2BC63C4F200031B78DAB248F2E013C1F6FF731A704EF60853CEF2000348F20002C1F6FF721A6002F09DFB48F232
:400180000013C1F6FF734FF000021A6007F10807BD4680BD80B400AF44F22023C4F2000344F22022C4F200021278D2B202F0FE021A70BD4680BC704780B584B000AF0346DB
:4001C000FB7144F2A033C4F2000344F2A032C4F200021278D2B242F01002D2B21A70FB79002B4DD044F20033C4F200031B78FB73FB7B03F00403002B01D100F06DFB44F2D7
:400200008233C4F200031B787B7344F28033C4F200031B78BB7344F28233C4F2000344F28232C4F200021278D2B202F0FC021A7044F28033C4F200034FF000021A7044F2FB
:400240008233C4F200034FF001021A704FF0010000F0FCFE0346002BF8D0FB7B03F00403002B01D100F04CFB44F28033C4F20003BA7B1A7044F28233C4F200037A7B1A70B6
:4002800007F11007BD4680BD80B483B000AF4FF00003FB7144F29333C4F200031B78DBB203F00703002B0AD144F2A533C4F200031B78DBB203F00103DBB2002B14D144F2A2
:4002C0009333C4F200031B78DBB203F00703012B0DD144F2B533C4F200031B78DBB203F00103DBB2002B02D04FF00103FB71FB79184607F10C07BD4680BC704780B584B0F5
:4003000000AF0346FB71FFF7BFFF0346FB73FB7B012B0CD146F20903C4F2000346F20902C4F200021278D2B202F0FD021A70FB79082B6ED801A252F823F000BF61030000DE
:400340007903000091030000A9030000C1030000130400001304000013040000D903000044F2A163C4F2000340F20812C4F600121278D2B21A7052E044F2A163C4F2000314
:4003800040F20912C4F600121278D2B21A7046E044F2A163C4F2000340F20A12C4F600121278D2B21A703AE044F2A163C4F2000340F20B12C4F600121278D2B21A702EE0F3
:4003C00044F2A163C4F2000340F28312C4F600121278D2B21A7022E044F2A163C4F2000340F20F12C4F600121278D2B21A70FB7B012B13D146F20903C4F2000346F209026D
:40040000C4F200021278D2B242F00202D2B21A7005E04FF0000000F097FA00E000BF07F11007BD4680BD00BF80B584B000AF0346FB7144F20023C4F200031B78DBB203F06E
:400440000703BB73FB79082B01D0FB7901E04FF00303FB73BB7B042B20D801A252F823F0750400007D040000850400008D040000950400004FF00203BB7313E04FF0010312
:40048000BB730FE04FF00303BB730BE04FF00003BB7307E04FF00403BB7303E04FF0000000F052FAFA7BBB7B9A4203D3FB791846FFF724FFFB79082B77D801A252F823F05A
:4004C000E504000007050000290500004505000067050000AB050000AB050000AB0500008905000044F20023C4F2000344F20022C4F200021278D2B202F0B80242F0030272
:40050000D2B21A7055E044F20023C4F2000344F20022C4F200021278D2B202F0B80242F00102D2B21A7044E044F20023C4F2000344F20022C4F200021278D2B202F0B80259
:400540001A7036E044F20023C4F2000344F20022C4F200021278D2B202F0B80242F00202D2B21A7025E044F20023C4F2000344F20022C4F200021278D2B202F0B80242F0A8
:400580000402D2B21A7014E044F20023C4F2000344F20022C4F200021278D2B202F0B80242F04202D2B21A7003E04FF0000000F0CBF9FB79082B02D100F06CF801E000F05E
:4005C0007DF8FA7BBB7B9A4203D2FB791846FFF795FE07F11007BD4680BD00BF80B582B000AF0346FB71FB79012B20D0022B02D0002B39D046E044F20003C4F2000344F2E5
:400600000002C4F200021278D2B202F0BF021A7044F20023C4F2000344F20022C4F200021278D2B242F02002D2B21A702EE044F20003C4F2000344F20002C4F200021278A9
:40064000D2B242F04002D2B21A7044F20023C4F2000344F20022C4F200021278D2B242F02002D2B21A7011E044F20023C4F2000344F20022C4F200021278D2B202F0DF02EE
:400680001A7003E04FF0000000F05EF907F10807BD4680BD80B400AF44F20023C4F2000344F20022C4F200021278D2B242F01002D2B21A70BD4680BC704700BF80B400AF03
:4006C00044F20023C4F2000344F20022C4F200021278D2B202F0EF021A70BD4680BC704780B485B000AF0346FB7144F20403C4F200031B78FB73FB7B002B06D144F20403EE
:40070000C4F200034FF003021A7044F20503C4F2000344F20502C4F200021278D2B2114601F0FC01FA7902F0030241EA0202D2B21A70FB7B002B06D144F20403C4F20003DE
:400740004FF000021A7007F11407BD4680BC704780B483B000AF0346FB7144F20403C4F20003FA791A7007F10C07BD4680BC704780B483B000AF0346FB8044F21403C4F209
:40078000000344F21402C4F200021278D2B202F0F0021A7044F21003C4F200034FF000021A7044F20803C4F2000344F20802C4F200021278D2B26FEA42626FEA5262D2B25B
:4007C0001A7044F20203C4F20003FA88D2B21A7044F20303C4F20003FA884FEA122292B2D2B21A7044F20103C4F2000344F20102C4F200021278D2B242F00102D2B21A7080
:4008000007F10C07BD4680BC704700BF80B584B000AF0346FB8002F0B3F90346FB7344F20703C4F200031B78DBB24FEA03239AB244F20603C4F200031B78DBB242EA0303B9
:40084000BB81FB88002B02D0BB89002B38D144F20403C4F200031B78FB72FB7A062B03D84FF00700FFF774FFFB88002B12D144F20803C4F2000344F20802C4F20002127811
:40088000D2B242F04002D2B21A70FB881846FFF76FFF10E0FB881846FFF76AFF44F20803C4F2000344F20802C4F200021278D2B202F0BF021A70FB7A1846FFF749FF03E08C
:4008C000FB881846FFF754FFFB7B184602F05CF907F11007BD4680BD80B400AF44F20033C4F2000344F20032C4F200021278D2B242F00402D2B21A70BD4680BC704700BF36
:4009000080B400AF44F20033C4F2000344F20032C4F200021278D2B202F0FB021A70BD4680BC704780B400AF44F21023C4F2000344F21022C4F200021278D2B202F0FE02F0
:400940001A70BD4680BC704780B483B000AF0346FB7101BE07F10C07BD4680BC704700BF80B582B000AF78600BE048F21813C1F6FF731B68184602F0FBF87B68A3F50043C2
:400980007B607B68B3F5004FEFD848F21013C1F6FF731B687A6802FB03F3184602F0E8F807F10807BD4680BD80B582B000AF0346FB80FA8848F21413C1F6FF731B7803FBEF
:4009C00002F3184602F0D4F807F10807BD4680BD80B582B000AF02460B46FA71BB714EF28013CEF200034FF001021A6044F2F463C4F20003B97901F00F0144F2F462C4F24C
:400A000000021278D2B202F0F00241EA0202D2B21A7044F2F563C4F2000344F2F562C4F200021278D2B242F00102D2B21A704FF00100FFF7B9FF44F2F863C4F200031B78DD
:400A40004EF28023CEF200034FF001021A604EF20013CEF200034FF001021A6007F10807BD4680BD80B582B000AF02460B46FA71BB714EF28013CEF200034FF001021A6063
:400A800044F2F463C4F20003BA794FEA0212D1B244F2F462C4F200021278D2B202F00F0241EA0202D2B21A7044F2F563C4F2000344F2F562C4F200021278D2B242F002028B
:400AC000D2B21A704FF00100FFF76EFF44F2F863C4F200031B784EF28023CEF200034FF001021A604EF20013CEF200034FF001021A6007F10807BD4680BD00BF80B400AF4B
:400B000044F2F563C4F2000344F2F562C4F200021278D2B202F0FE021A7044F2F863C4F200031B78DBB203F00703002BF5D1BD4680BC704780B400AF44F2F563C4F2000327
:400B400044F2F562C4F200021278D2B202F0FD021A7044F2F863C4F200031B78DBB203F00703002BF5D1BD4680BC704780B500AF4EF28013CEF200034FF001021A6044F2ED
:400B8000F563C4F2000344F2F562C4F200021278D2B242F00402D2B21A704FF00100FFF703FF44F2F863C4F200031B784EF28023CEF200034FF001021A604EF20013CEF201
:400BC00000034FF001021A6080BD00BF80B400AF44F2F563C4F2000344F2F562C4F200021278D2B202F0FB021A70BD4680BC704780B500AF44F2A133C4F200031B78DBB287
:400C00001A4602F00F0248F2CC13C1F6FF731A7044F2A233C4F200031B78DAB248F2CC13C1F6FF735A7044F2A133C4F2000344F2A132C4F200021278D2B202F0F0021A7096
:400C400044F2A233C4F200031B7844F2A233C4F200034FF000021A7044F60003C4F200031B78DBB21A4602F0C00248F2CC13C1F6FF735A714FF0370001F08AFF44F200230E
:400C8000C4F200031B78DBB21A4602F0070248F2CC13C1F6FF73DA7044F20023C4F200031B78DBB21A4602F0400248F2CC13C1F6FF731A7144F20023C4F200031B78DBB2AF
:400CC00003F01003002B07D048F2CC13C1F6FF734FF001025A7206E048F2CC13C1F6FF734FF000025A724FF00200FFF79DFB44F2A033C4F200031B78DBB203F01003002B85
:400D000007D048F2CC13C1F6FF734FF001029A710AE048F2CC13C1F6FF734FF000029A714FF00000FFF748FA44F20023C4F200031B78DBB203F02003002B18D044F20003CA
:400D4000C4F200031B78DBB203F04003002B02D14FF0020201E04FF0010248F2CC13C1F6FF73DA714FF00000FFF738FC06E048F2CC13C1F6FF734FF00002DA7144F200031D
:400D8000C4F200031B78DBB21A4602F0300248F2CC13C1F6FF731A7248F2CC13C1F6FF731B7A002B0CD044F20003C4F2000344F20002C4F200021278D2B202F0CF021A70ED
:400DC00044F20023C4F200031B78DBB203F01003002B01D0FFF772FC44F20403C4F200031B78DAB248F2CC13C1F6FF739A7248F2CC13C1F6FF739B7A002B03D04FF0000064
:400E0000FFF7A6FC44F20503C4F200031B78DBB21A4602F0030248F2CC13C1F6FF739A7048F2CC13C1F6FF739B78002B03D04FF00000FFF755FC44F20703C4F200031B78FB
:400E4000DBB24FEA03239AB244F20603C4F200031B78DBB242EA03039AB248F2CC13C1F6FF739A8148F2CC13C1F6FF739B89002B03D04FF00000FFF7C9FC44F20023C4F2DA
:400E800000031B78DBB203F0070242F63C73C0F200039B5C184601F07BFE44F22023C4F200031B78DBB203F00103DBB2002B09D048F2CC13C1F6FF734FF001029A73FFF757
:400EC00069F906E048F2CC13C1F6FF734FF000029A7344F21023C4F200031B78DBB203F00103DBB2002B09D048F2CC13C1F6FF734FF00102DA73FFF715FD06E048F2CC1378
:400F0000C1F6FF734FF00002DA7344F20B03C4F200031B78DBB203F00403002B07D048F2CC13C1F6FF734FF001021A7406E048F2CC13C1F6FF734FF000021A7480BD00BFDC
:400F400080B582B000AF01F01BFE0346FB7100F0BBF844F20023C4F200031B78DBB203F00703002B08D148F22413C1F6FF734FF0010283F8A42023E048F22413C1F6FF730E
:400F80004FF0000283F8A42044F20023C4F200031B78DBB21A4602F0070248F22413C1F6FF7383F8A32044F20023C4F2000344F20022C4F200021278D2B202F0F8021A70A6
:400FC00044F29333C4F2000344F29332C4F200021278D2B202F0F80242F00402D2B21A7044F29333C4F200031B7800BF00BF30BF48F22413C1F6FF7393F8A430012B1AD085
:4010000044F20023C4F2000344F20022C4F200021278D2B2D2B202F0F80248F22411C1F6FF7191F8A31008461146024641EA0202D2B2D2B21A7000F077F8FB79184601F06E
:40104000A3FD07F10807BD4680BD00BF80B584B000AF0346FB7101F093FD0346BB7344F29033C4F200031B78DAB248F2DE13C1F6FF731B7842EA0303DAB248F2DE13C1F6AD
:40108000FF731A7048F2DE13C1F6FF731B78FB73FB796FEA0303DAB248F2DE13C1F6FF731B7802EA0303DAB248F2DE13C1F6FF731A70BB7B184601F067FDFB7B184607F188
:4010C0001007BD4680BD00BF80B500AF44F23133C4F200031B78DBB203F00403002B14D048F22413C1F6FF734FF001021A7044F23133C4F2000344F23132C4F200021278E6
:40110000D2B202F0FB021A7006E048F22413C1F6FF734FF000021A7000F022F801F0A6F900F040F880BD00BF80B500AF01F028FA00F024FE48F22413C1F6FF731B78012B47
:401140000DD144F23133C4F2000344F23132C4F200021278D2B242F00402D2B21A7080BD80B500AF44F20050C4F200004FF000014FF0380201F036FE44F26050C4F20000C2
:401180004FF000014FF0080201F02CFE44F27850C4F200004FF000014FF0080201F022FE80BD00BF80B400AF45F6C023C4F200031B78DAB248F22413C1F6FF739A7745F682
:4011C000C223C4F200031B78DAB248F22413C1F6FF73DA7745F6C323C4F200031B78DAB248F22413C1F6FF7383F8202045F6C423C4F200031B78DAB248F22413C1F6FF7365
:4012000083F8212045F6C623C4F200031B78DAB248F22413C1F6FF7383F8222045F6C823C4F200031B78DAB248F22413C1F6FF7383F8232045F6CA23C4F200031B78DAB249
:4012400048F22413C1F6FF7383F8242045F6CB23C4F200031B78DAB248F22413C1F6FF7383F8252045F6CC23C4F200031B78DAB248F22413C1F6FF7383F8262045F6CE2331
:40128000C4F200031B78DAB248F22413C1F6FF7383F8272045F6D023C4F200031B78DAB248F22413C1F6FF7383F8282045F6D223C4F200031B78DAB248F22413C1F6FF73F5
:4012C00083F8292045F6D323C4F200031B78DAB248F22413C1F6FF7383F82A2045F6D423C4F200031B78DAB248F22413C1F6FF7383F82B2045F6D623C4F200031B78DAB24C
:4013000048F22413C1F6FF7383F82C2045F6D823C4F200031B78DAB248F22413C1F6FF7383F82D2045F6DA23C4F200031B78DAB248F22413C1F6FF7383F82E2045F6DB2330
:40134000C4F200031B78DAB248F22413C1F6FF7383F82F2045F6DC23C4F200031B78DAB248F22413C1F6FF7383F8302045F6DE23C4F200031B78DAB248F22413C1F6FF730C
:4013800083F8312045F6C023C4F200034FF000021A7045F6C223C4F200034FF000021A7045F6C323C4F200034FF000021A7045F6C423C4F200034FF000021A7045F6C623AC
:4013C000C4F200034FF000021A7045F6C823C4F200034FF000021A7045F6CA23C4F200034FF000021A7045F6CB23C4F200034FF000021A7045F6CC23C4F200034FF0000242
:401400001A7045F6CE23C4F200034FF000021A7045F6D023C4F200034FF000021A7045F6D223C4F200034FF000021A7045F6D323C4F200034FF000021A7045F6D423C4F26F
:4014400000034FF000021A7045F6D623C4F200034FF000021A7045F6D823C4F200034FF000021A7045F6DA23C4F200034FF000021A7045F6DB23C4F200034FF000021A70B3
:4014800045F6DC23C4F200034FF000021A7045F6DE23C4F200034FF000021A7045F68023C4F200031B78DAB248F22413C1F6FF7383F8322045F68223C4F200031B78DAB2D9
:4014C00048F22413C1F6FF7383F8332045F68323C4F200031B78DAB248F22413C1F6FF7383F8342045F68423C4F200031B78DAB248F22413C1F6FF7383F8352045F6882358
:40150000C4F200031B78DAB248F22413C1F6FF7383F8362045F68A23C4F200031B78DAB248F22413C1F6FF7383F8372045F68B23C4F200031B78DAB248F22413C1F6FF73E1
:4015400083F8382045F68C23C4F200031B78DAB248F22413C1F6FF7383F8392045F69023C4F200031B78DAB248F22413C1F6FF7383F83A2045F69223C4F200031B78DAB26B
:4015800048F22413C1F6FF7383F83B2045F69323C4F200031B78DAB248F22413C1F6FF7383F83C2045F69423C4F200031B78DAB248F22413C1F6FF7383F83D2045F698234F
:4015C000C4F200031B78DAB248F22413C1F6FF7383F83E2045F69A23C4F200031B78DAB248F22413C1F6FF7383F83F2045F69B23C4F200031B78DAB248F22413C1F6FF73F1
:4016000083F8402045F69C23C4F200031B78DAB248F22413C1F6FF7383F8412045F68023C4F200034FF000021A7045F68223C4F200034FF000021A7045F68323C4F2000327
:401640004FF000021A7045F68423C4F200034FF000021A7045F68823C4F200034FF000021A7045F68A23C4F200034FF000021A7045F68B23C4F200034FF000021A7045F6BB
:401680008C23C4F200034FF000021A7045F69023C4F200034FF000021A7045F69223C4F200034FF000021A7045F69323C4F200034FF000021A7045F69423C4F200034FF0B2
:4016C00000021A7045F69823C4F200034FF000021A7045F69A23C4F200034FF000021A7045F69B23C4F200034FF000021A7045F69C23C4F200034FF000021A7045F60033FF
:40170000C4F200031B78DAB248F22413C1F6FF7383F8422045F60233C4F200031B78DAB248F22413C1F6FF7383F8432045F60333C4F200031B78DAB248F22413C1F6FF73B7
:4017400083F8442045F60433C4F200031B78DAB248F22413C1F6FF7383F8452045F60633C4F200031B78DAB248F22413C1F6FF7383F8462045F60033C4F200034FF0000297
:401780001A7045F60233C4F200034FF000021A7045F60333C4F200034FF000021A7045F60433C4F200034FF000021A7045F60633C4F200034FF000021A7045F62033C4F284
:4017C00000031B78DAB248F22413C1F6FF7383F8472045F62233C4F200031B78DAB248F22413C1F6FF7383F8482045F62333C4F200031B78DAB248F22413C1F6FF7383F8E8
:40180000492045F62433C4F200031B78DAB248F22413C1F6FF7383F84A2045F62633C4F200031B78DAB248F22413C1F6FF7383F84B2045F62833C4F200031B78DAB248F2C2
:401840002413C1F6FF7383F84C2045F62A33C4F200031B78DAB248F22413C1F6FF7383F84D2045F62B33C4F200031B78DAB248F22413C1F6FF7383F84E2045F62C33C4F2EB
:4018800000031B78DAB248F22413C1F6FF7383F84F2045F62E33C4F200031B78DAB248F22413C1F6FF7383F8502045F62033C4F200034FF000021A7045F62233C4F200032E
:4018C0004FF000021A7045F62333C4F200034FF000021A7045F62433C4F200034FF000021A7045F62633C4F200034FF000021A7045F62833C4F200034FF000021A7045F685
:401900002A33C4F200034FF000021A7045F62B33C4F200034FF000021A7045F62C33C4F200034FF000021A7045F62E33C4F200034FF000021A7045F60023C4F200031B78C1
:40194000DAB248F22413C1F6FF739A7045F60223C4F200031B78DAB248F22413C1F6FF73DA7045F60323C4F200031B78DAB248F22413C1F6FF731A7145F60423C4F20003A2
:401980001B78DAB248F22413C1F6FF735A7145F60623C4F200031B78DAB248F22413C1F6FF739A7145F60823C4F200031B78DAB248F22413C1F6FF73DA7145F60A23C4F281
:4019C00000031B78DAB248F22413C1F6FF731A7245F61023C4F200031B78DAB248F22413C1F6FF735A7245F61223C4F200031B78DAB248F22413C1F6FF739A7245F6132394
:401A0000C4F200031B78DAB248F22413C1F6FF73DA7245F61423C4F200031B78DAB248F22413C1F6FF731A7345F61623C4F200031B78DAB248F22413C1F6FF735A7345F689
:401A40001823C4F200031B78DAB248F22413C1F6FF739A7345F61A23C4F200031B78DAB248F22413C1F6FF73DA7345F62023C4F200031B78DAB248F22413C1F6FF731A74F7
:401A800045F62223C4F200031B78DAB248F22413C1F6FF735A7445F62323C4F200031B78DAB248F22413C1F6FF739A7445F62423C4F200031B78DAB248F22413C1F6FF7371
:401AC000DA7445F62623C4F200031B78DAB248F22413C1F6FF731A7545F62823C4F200031B78DAB248F22413C1F6FF735A7545F62A23C4F200031B78DAB248F22413C1F6C4
:401B0000FF739A7545F63023C4F200031B78DAB248F22413C1F6FF73DA7545F63223C4F200031B78DAB248F22413C1F6FF731A7645F63323C4F200031B78DAB248F2241369
:401B4000C1F6FF735A7645F63423C4F200031B78DAB248F22413C1F6FF739A7645F63623C4F200031B78DAB248F22413C1F6FF73DA7645F63823C4F200031B78DAB248F25A
:401B80002413C1F6FF731A7745F63A23C4F200031B78DAB248F22413C1F6FF735A7745F60023C4F200034FF000021A7045F60223C4F200034FF000021A7045F60323C4F27C
:401BC00000034FF000021A7045F60423C4F200034FF000021A7045F60623C4F200034FF000021A7045F60823C4F200034FF000021A7045F60A23C4F200034FF000021A7073
:401C000045F61023C4F200034FF000021A7045F61223C4F200034FF000021A7045F61323C4F200034FF000021A7045F61423C4F200034FF000021A7045F61623C4F20003A6
:401C40004FF000021A7045F61823C4F200034FF000021A7045F61A23C4F200034FF000021A7045F62023C4F200034FF000021A7045F62223C4F200034FF000021A7045F662
:401C80002323C4F200034FF000021A7045F62423C4F200034FF000021A7045F62623C4F200034FF000021A7045F62823C4F200034FF000021A7045F62A23C4F200034FF0C2
:401CC00000021A7045F63023C4F200034FF000021A7045F63223C4F200034FF000021A7045F63323C4F200034FF000021A7045F63423C4F200034FF000021A7045F6362373
:401D0000C4F200034FF000021A7045F63823C4F200034FF000021A7045F63A23C4F200034FF000021A7044F22233C4F200031B78DBB203F00803002B15D048F22413C1F64F
:401D4000FF734FF0010283F8A52044F22233C4F2000344F22232C4F200021278D2B202F0F7021A7007E048F22413C1F6FF734FF0000283F8A520BD4680BC704780B400AF8B
:401D800045F6C023C4F2000348F22412C1F6FF72927F1A7045F6C223C4F2000348F22412C1F6FF72D27F1A7045F6C323C4F2000348F22412C1F6FF7292F820201A7045F6CC
:401DC000C423C4F2000348F22412C1F6FF7292F821201A7045F6C623C4F2000348F22412C1F6FF7292F822201A7045F6C823C4F2000348F22412C1F6FF7292F823201A70BD
:401E000045F6CA23C4F2000348F22412C1F6FF7292F824201A7045F6CB23C4F2000348F22412C1F6FF7292F825201A7045F6CC23C4F2000348F22412C1F6FF7292F82620B3
:401E40001A7045F6CE23C4F2000348F22412C1F6FF7292F827201A7045F6D023C4F2000348F22412C1F6FF7292F828201A7045F6D223C4F2000348F22412C1F6FF7292F81A
:401E800029201A7045F6D323C4F2000348F22412C1F6FF7292F82A201A7045F6D423C4F2000348F22412C1F6FF7292F82B201A7045F6D623C4F2000348F22412C1F6FF7208
:401EC00092F82C201A7045F6D823C4F2000348F22412C1F6FF7292F82D201A7045F6DA23C4F2000348F22412C1F6FF7292F82E201A7045F6DB23C4F2000348F22412C1F696
:401F0000FF7292F82F201A7045F6DC23C4F2000348F22412C1F6FF7292F830201A7045F6DE23C4F2000348F22412C1F6FF7292F831201A7045F68023C4F2000348F22412E5
:401F4000C1F6FF7292F832201A7045F68223C4F2000348F22412C1F6FF7292F833201A7045F68323C4F2000348F22412C1F6FF7292F834201A7045F68423C4F2000348F2CC
:401F80002412C1F6FF7292F835201A7045F68823C4F2000348F22412C1F6FF7292F836201A7045F68A23C4F2000348F22412C1F6FF7292F837201A7045F68B23C4F2000373
:401FC00048F22412C1F6FF7292F838201A7045F68C23C4F2000348F22412C1F6FF7292F839201A7045F69023C4F2000348F22412C1F6FF7292F83A201A7045F69223C4F2E2
:40200000000348F22412C1F6FF7292F83B201A7045F69323C4F2000348F22412C1F6FF7292F83C201A7045F69423C4F2000348F22412C1F6FF7292F83D201A7045F698233A
:40204000C4F2000348F22412C1F6FF7292F83E201A7045F69A23C4F2000348F22412C1F6FF7292F83F201A7045F69B23C4F2000348F22412C1F6FF7292F840201A7045F6E8
:402080009C23C4F2000348F22412C1F6FF7292F841201A7045F60033C4F2000348F22412C1F6FF7292F842201A7045F60233C4F2000348F22412C1F6FF7292F843201A702E
:4020C00045F60333C4F2000348F22412C1F6FF7292F844201A7045F60433C4F2000348F22412C1F6FF7292F845201A7045F60633C4F2000348F22412C1F6FF7292F84620B5
:402100001A7045F62033C4F2000348F22412C1F6FF7292F847201A7045F62233C4F2000348F22412C1F6FF7292F848201A7045F62333C4F2000348F22412C1F6FF7292F8F2
:4021400049201A7045F62433C4F2000348F22412C1F6FF7292F84A201A7045F62633C4F2000348F22412C1F6FF7292F84B201A7045F62833C4F2000348F22412C1F6FF72C0
:4021800092F84C201A7045F62A33C4F2000348F22412C1F6FF7292F84D201A7045F62B33C4F2000348F22412C1F6FF7292F84E201A7045F62C33C4F2000348F22412C1F64F
:4021C000FF7292F84F201A7045F62E33C4F2000348F22412C1F6FF7292F850201A7045F60023C4F2000348F22412C1F6FF7292781A7045F60223C4F2000348F22412C1F6F7
:40220000FF72D2781A7045F60323C4F2000348F22412C1F6FF7212791A7045F60423C4F2000348F22412C1F6FF7252791A7045F60623C4F2000348F22412C1F6FF729279CA
:402240001A7045F60823C4F2000348F22412C1F6FF72D2791A7045F60A23C4F2000348F22412C1F6FF72127A1A7045F61023C4F2000348F22412C1F6FF72527A1A7045F629
:402280001223C4F2000348F22412C1F6FF72927A1A7045F61323C4F2000348F22412C1F6FF72D27A1A7045F61423C4F2000348F22412C1F6FF72127B1A7045F61623C4F266
:4022C000000348F22412C1F6FF72527B1A7045F61823C4F2000348F22412C1F6FF72927B1A7045F61A23C4F2000348F22412C1F6FF72D27B1A7045F62023C4F2000348F27D
:402300002412C1F6FF72127C1A7045F62223C4F2000348F22412C1F6FF72527C1A7045F62323C4F2000348F22412C1F6FF72927C1A7045F62423C4F2000348F22412C1F632
:40234000FF72D27C1A7045F62623C4F2000348F22412C1F6FF72127D1A7045F62823C4F2000348F22412C1F6FF72527D1A7045F62A23C4F2000348F22412C1F6FF72927D0E
:402380001A7045F63023C4F2000348F22412C1F6FF72D27D1A7045F63223C4F2000348F22412C1F6FF72127E1A7045F63323C4F2000348F22412C1F6FF72527E1A7045F669
:4023C0003423C4F2000348F22412C1F6FF72927E1A7045F63623C4F2000348F22412C1F6FF72D27E1A7045F63823C4F2000348F22412C1F6FF72127F1A7045F63A23C4F28C
:40240000000348F22412C1F6FF72527F1A7044F28463C4F2000348F22412C1F6FF72517844F28462C4F200021278D2B202F0F00241EA0202D2B21A7048F22413C1F6FF73D2
:4024400093F8A530012B0DD144F22233C4F2000344F22232C4F200021278D2B242F00802D2B21A70BD4680BC704700BF80B500AF44F2F563C4F200031B78DBB203F001031D
:40248000DBB2002B21D048F22413C1F6FF734FF0010283F89C2044F2F463C4F200031B78DBB21A4602F00F0248F22413C1F6FF7383F89D2048F22413C1F6FF734FF00002EA
:4024C00083F8A120FEF71AFB07E048F22413C1F6FF734FF0000283F89C2044F2F563C4F200031B78DBB203F00203002B21D048F22413C1F6FF734FF0010283F89E2044F2D7
:40250000F463C4F200031B78DBB24FEA1313DAB248F22413C1F6FF7383F89F2048F22413C1F6FF734FF0000283F8A220FEF702FB07E048F22413C1F6FF734FF0000283F865
:402540009E2044F2F563C4F200031B78DBB203F00403002B0AD048F22413C1F6FF734FF0010283F8A020FEF731FB07E048F22413C1F6FF734FF0000283F8A02080BD00BF06
:4025800080B500AF48F22413C1F6FF7393F89C30012B0FD148F22413C1F6FF7393F8A12048F22413C1F6FF7393F89D3010461946FEF70EFA48F22413C1F6FF7393F89E30BD
:4025C000012B0FD148F22413C1F6FF7393F8A22048F22413C1F6FF7393F89F3010461946FEF740FA48F22413C1F6FF7393F8A030012B01D1FEF7BAFA80BD00BF80B485B00F
:4026000000AF786039607B68BB604FF00003FB6009E0BA68FB6813444FF000021A70FB6803F10103FB60FA683B689A42F1D307F11407BD4680BC704780B489B000AFF86077
:40264000B9607A60FB687B61BB68BB614FF00003FB610BE07A69FB691344B969FA690A4412781A70FB6903F10103FB61FA697B689A42EFD307F12407BD4680BC704700BF67
:4026800080B582B000AF7860396078684FF000013A6800F0A7FB07F10807BD4680BD00BF80B584B000AFF860B9607A60F868B9687A6800F0CFFA07F11007BD4680BD00BFAC
:4026C00080B487B000AF786039604FF00003FB604FF00003BB602CE0BB684FEA83027B6813441B683B613B69FB753B6923F0FF033B6117E0FB684FEA43023B6813441B7841
:402700001A463B691344FA684FEA42013A680A4452781A70FB6803F10103FB60FB7D03F1FF33FB75FB7D002BE4D1BB6803F10103BB60BB68102BCFD907F11C07BD4680BC6A
:40274000704700BF80B500AF44F20033C4F200034FF002021A7044F20003C4F200034FF008021A7044F20023C4F200034FF003021A7044F2A163C4F2000340F20812C4F672
:4027800000121278D2B21A7044F22223C4F200034FF008021A8044F22023C4F2000341F251021A8040F6B83000F0E2F944F20403C4F200034FF003021A7044F20503C4F265
:4027C00000034FF001021A7044F20403C4F200034FF000021A7044F20403C4F200034FF007021A7044F20603C4F200034FF000021A7044F20803C4F200034FF048021A70B1
:4028000044F20403C4F200034FF000021A7044F20103C4F200034FF002021A7080BD00BF80B400AF44F2AA33C4F200034FF444721A8045F62003C4F200034FF01E021A70D9
:4028400045F62403C4F200034FF01E021A7045F62803C4F200034FF01E021A7045F62C03C4F200034FF01E021A7045F60013C4F200036FF03F021A7045F60313C4F2000305
:402880004FF00C021A7045F60813C4F200036FF03F021A7045F60B13C4F200034FF00C021A7045F67603C4F200034FF044021A70BD4680BC704700BF80B582B000AF72B6B0
:4028C00044F60003C4F200034FF000021A70FFF739FF44F60003C4F200036FF07F021A7047F21003C4F200034FF000021A7047F22003C4F200034FF000021A7045F67C031F
:40290000C4F200034FF001021A7044F2E863C4F2000344F2E862C4F200021278D2B242F00102D2B21A704FF00003FB702FE0FA7813464FEA430313444FEA43031A4642F6DB
:402940004C73C0F2000313447B607B681A7859784FEA012141EA020299784FEA014141EA0202DB784FEA036343EA02031A467B6819795B794FEA032343EA01039BB2104626
:402980001946FFF77DFEFB7803F10103FB70FB78062BCCD94FF0904040F24401C4F60001FFF78EFE45F20020C4F200004FF00701FFF724FE45F20820C4F2000040F2E801C9
:4029C000C4F600014FF00702FFF736FE45F21020C4F200004FF00701FFF710FE45F21820C4F200004FF00701FFF708FE45F22020C4F200004FF00701FFF700FE45F22820F3
:402A0000C4F200004FF00701FFF7F8FD45F23020C4F200004FF00701FFF7F0FD45F26020C4F2000040F2F001C4F600014FF00602FFF702FE45F27820C4F200004FF00701F3
:402A4000FFF7DCFD45F20303C4F2010345F20302C4F201021278D2B242F00202D2B21A7045F21303C4F2010345F21302C4F201021278D2B242F00202D2B21A7044F2A033E2
:402A8000C4F2000344F2A032C4F200021278D2B242F04002D2B21A7044F2C233C4F2000344F2C232C4F200021278D2B242F01002D2B21A7045F2C010C4F2000040F2AC014B
:402AC000C4F600014FF00A02FFF7B6FD45F2F010C4F2000040F2B801C4F600014FF00A02FFF7DEFD45F21010C4F2000040F2C401C4F600014FF00A02FFF7D2FD45F2201042
:402B0000C4F2000040F2D001C4F600014FF00A02FFF7C6FD45F23010C4F2000040F2DC01C4F600014FF00A02FFF7BAFDFFF778FE44F2B030C4F2000044F2A031C4F2000138
:402B40004FF00C02FFF7ACFD44F2B033C4F2000344F2B032C4F200021278D2B202F0FD021A7007F10807BD4680BD00BF000000000230800803D000BF01380046FCD17047E9
:402B8000EFF3108072B6704780F31088704700BF80B584B000AF0346FB71FFF7F1FF0346FB73FB79102B12D844F60003C4F2000344F60002C4F200021278D2B2D2B202F0D2
:402BC0003F0242F04002D2B2D2B21A7039E0FB79212B14D844F60003C4F2000344F60002C4F200021278D2B2D2B202F03F026FEA42626FEA5262D2B2D2B21A7021E0FB7909
:402C0000322B11D844F60003C4F2000344F60002C4F200021278D2B26FEA82626FEA9262D2B2D2B21A700CE044F60003C4F2000344F60002C4F200021278D2B202F03F0223
:402C40001A70FB7B1846FFF79FFF07F11007BD4680BD00BF032A2DE9F0070BD83AB1002311F803C000F803C001339342F8D1BDE8F007704782180C46034603E014F8011C3C
:402C800003F8011C03F003061946A44601330134002EF3D11CF00304634608BFC1EB020C68D06542C4F1040A0CEB050733464FEACA0A5CF805604FEAC408551A08E057F890
:402CC000044F264604FA0AF449EA0404CC5004335C18032D26FA08F9A5F104050CEB0306EDDC002302E0F15CE154013319199142F9D3BCE753F8404C41F8404C53F83C4CC0
:402D000041F83C4C53F8384C41F8384C53F8344C41F8344C53F8304C41F8304C53F82C4C41F82C4C53F8284C41F8284C53F8244C41F8244C53F8204C41F8204C53F81C4CF3
:402D400041F81C4C53F8184C41F8184C53F8144C41F8144C53F8104C41F8104C53F80C4C41F80C4C53F8084C41F8084C53F8044C41F8044C1C460D4640334031BCF13F0FCE
:402D8000ACF1400CB6DC21462B46541B0FE051F8105C43F8105C51F80C5C43F80C5C51F8085C43F8085C51F8045C43F8045C0F2C0D469C4601F1100103F11003A4F11004FF
:402DC000E5DCCCEB0201002303E0EC584CF8034004335E19032903EB0C04A1F10401F4DC7FE700BF032AC9B230B407D822B10023C15401339342FBD130BC704700EB020C3C
:402E0000034601E003F8011C03F003041A460133002CF7D14FF00133C2EB0C0403FB01F31FE042F8403C42F83C3C42F8383C42F8343C42F8303C42F82C3C42F8283C42F8CD
:402E4000243C42F8203C42F81C3C42F8183C42F8143C42F8103C42F80C3C42F8083C42F8043C154640323F2CA4F14004D9DC2A46C5EB0C0407E042F8103C42F80C3C42F893
:402E8000083C42F8043C154610320F2CA4F11004F1DC2A46C5EB0C0501E042F8043C14460432032DA5F10405F7DC01E004F8011B6445FBD3A0E700BF08B500F017F8074887
:402EC00000B10068064901B109680022FDF7E6F8044B0BB1AFF30080FEE700BF000000000000000000000000FEE7000070B542F6847642F68475C0F20006C0F20005761B15
:402F0000B61006D0002455F8243001349847A642F9D842F6847542F68C76C0F20005C0F20006761B00F028F8B61006D0002455F8243001349847A642F9D870BD0C06180360
:402F4000303E4A000201030004050600C8490040140000510040100040510040300000000140001000140140000800400140000A004C014000020000F8B500BFF8BC08BCD1
:402F80009E46704781000000E1000000F8B500BFF8BC08BC9E4670476D00000000000000B02F00000881FF1F18000000C80000000000000000366E01C05D000018000000E8
:402FC0000000E02E000000000000000000000000000000000000000000000000000000000000000000000000000000000000000000000000000000000000000000000000C3
:403000000000000000000000000000000000000000000000000000000000000000000000000000000000000000000000000000000000000000000000000000000000000090
:403040000000000000000000000000000000000000000000000000000000000000000000000000000000000000000000000000000000000000000000000000000000000050
:403080000000000000000000000000000000000000000000000000000000000000000000000000000000000000000000000000000000000000000000000000000000000010
:4030C00000000000000000000000000000000000000000000000000000000000000000000000000000000000000000000000000000000000000000000000000000000000D0
:020000040003F7
:0200000480007A
:40000000014500400207014002090140011501400117014001190140011B0140024001400141014008420140064301400747014003480140024901400C4C0140014D014052
:40004000015101400E01EC30EE02EC30EE02EE04E220E220EE043320CC10A72009020C0861806340A720C230D640D840A580A720AF40B008B502EE40900198019F02AF026A
:40008000B001B401EC0C8980A580A720AB20EE2011401302150278017C018901900198019F02C40EDE03E204A9400003300000300000300000000000080000080000000027
:4000C00000000000C00000C00000000000000000010000FFFF0000000000000020000020200000000000000000000000400000000020000030000000000000000000000091
:4001000000000000000000000000000000000000000000000000000000000000000000000000000000000000000000000000000000000000000000000000000000000000BF
:40014000000000000000000000000000000000000000000000000000000000000000000000000000000000000000000000000000000000000000000000000000000000007F
:40018000000000000000000000000000000000000000000000000000000000000000000000000000000000000000000000000000000000000000000000000000000000003F
:4001C00000000000000000000000000000000000000000000000000000000000000000000000000000000000000000000000000000000000000000000000000000000000FF
:0200000490006A
:0400000000000006F6
:0200000490105A
:04000000BC90ACAF55
:0200000490303A
:0200000086EF89
:0200000490501A
:0C00000000010E13C06901010E294758D1
:0200000490402A
:4000000000000000000000000000000000000000000000000000000000000000000000000000000000000000000000000000000000000000000000000000000000000000C0
:400040000000000000000000000000000000000000000000000000000000000000000000000000000000000000000000000000000000000000000000000000000000000080
:400080000000000000000000000000000000000000000000000000000000000000000000000000000000000000000000000000000000000000000000000000000000000040
:4000C0000000000000000000000000000000000000000000000000000000000000000000000000000000000000000000000000000000000000000000000000000000000000
:00000001FF
